{
	"ERC1155.sol": {
		"GameItems": {
			"abi": [
				{
					"inputs": [],
					"stateMutability": "nonpayable",
					"type": "constructor"
				},
				{
					"anonymous": false,
					"inputs": [
						{
							"indexed": true,
							"internalType": "address",
							"name": "account",
							"type": "address"
						},
						{
							"indexed": true,
							"internalType": "address",
							"name": "operator",
							"type": "address"
						},
						{
							"indexed": false,
							"internalType": "bool",
							"name": "approved",
							"type": "bool"
						}
					],
					"name": "ApprovalForAll",
					"type": "event"
				},
				{
					"anonymous": false,
					"inputs": [
						{
							"indexed": true,
							"internalType": "address",
							"name": "operator",
							"type": "address"
						},
						{
							"indexed": true,
							"internalType": "address",
							"name": "from",
							"type": "address"
						},
						{
							"indexed": true,
							"internalType": "address",
							"name": "to",
							"type": "address"
						},
						{
							"indexed": false,
							"internalType": "uint256[]",
							"name": "ids",
							"type": "uint256[]"
						},
						{
							"indexed": false,
							"internalType": "uint256[]",
							"name": "values",
							"type": "uint256[]"
						}
					],
					"name": "TransferBatch",
					"type": "event"
				},
				{
					"anonymous": false,
					"inputs": [
						{
							"indexed": true,
							"internalType": "address",
							"name": "operator",
							"type": "address"
						},
						{
							"indexed": true,
							"internalType": "address",
							"name": "from",
							"type": "address"
						},
						{
							"indexed": true,
							"internalType": "address",
							"name": "to",
							"type": "address"
						},
						{
							"indexed": false,
							"internalType": "uint256",
							"name": "id",
							"type": "uint256"
						},
						{
							"indexed": false,
							"internalType": "uint256",
							"name": "value",
							"type": "uint256"
						}
					],
					"name": "TransferSingle",
					"type": "event"
				},
				{
					"anonymous": false,
					"inputs": [
						{
							"indexed": false,
							"internalType": "string",
							"name": "value",
							"type": "string"
						},
						{
							"indexed": true,
							"internalType": "uint256",
							"name": "id",
							"type": "uint256"
						}
					],
					"name": "URI",
					"type": "event"
				},
				{
					"inputs": [],
					"name": "GOLD",
					"outputs": [
						{
							"internalType": "uint256",
							"name": "",
							"type": "uint256"
						}
					],
					"stateMutability": "view",
					"type": "function"
				},
				{
					"inputs": [],
					"name": "SHIELD",
					"outputs": [
						{
							"internalType": "uint256",
							"name": "",
							"type": "uint256"
						}
					],
					"stateMutability": "view",
					"type": "function"
				},
				{
					"inputs": [],
					"name": "SILVER",
					"outputs": [
						{
							"internalType": "uint256",
							"name": "",
							"type": "uint256"
						}
					],
					"stateMutability": "view",
					"type": "function"
				},
				{
					"inputs": [],
					"name": "SWORD",
					"outputs": [
						{
							"internalType": "uint256",
							"name": "",
							"type": "uint256"
						}
					],
					"stateMutability": "view",
					"type": "function"
				},
				{
					"inputs": [],
					"name": "THORS_HAMMER",
					"outputs": [
						{
							"internalType": "uint256",
							"name": "",
							"type": "uint256"
						}
					],
					"stateMutability": "view",
					"type": "function"
				},
				{
					"inputs": [
						{
							"internalType": "address",
							"name": "account",
							"type": "address"
						},
						{
							"internalType": "uint256",
							"name": "id",
							"type": "uint256"
						}
					],
					"name": "balanceOf",
					"outputs": [
						{
							"internalType": "uint256",
							"name": "",
							"type": "uint256"
						}
					],
					"stateMutability": "view",
					"type": "function"
				},
				{
					"inputs": [
						{
							"internalType": "address[]",
							"name": "accounts",
							"type": "address[]"
						},
						{
							"internalType": "uint256[]",
							"name": "ids",
							"type": "uint256[]"
						}
					],
					"name": "balanceOfBatch",
					"outputs": [
						{
							"internalType": "uint256[]",
							"name": "",
							"type": "uint256[]"
						}
					],
					"stateMutability": "view",
					"type": "function"
				},
				{
					"inputs": [
						{
							"internalType": "address",
							"name": "account",
							"type": "address"
						},
						{
							"internalType": "address",
							"name": "operator",
							"type": "address"
						}
					],
					"name": "isApprovedForAll",
					"outputs": [
						{
							"internalType": "bool",
							"name": "",
							"type": "bool"
						}
					],
					"stateMutability": "view",
					"type": "function"
				},
				{
					"inputs": [
						{
							"internalType": "address",
							"name": "from",
							"type": "address"
						},
						{
							"internalType": "address",
							"name": "to",
							"type": "address"
						},
						{
							"internalType": "uint256[]",
							"name": "ids",
							"type": "uint256[]"
						},
						{
							"internalType": "uint256[]",
							"name": "amounts",
							"type": "uint256[]"
						},
						{
							"internalType": "bytes",
							"name": "data",
							"type": "bytes"
						}
					],
					"name": "safeBatchTransferFrom",
					"outputs": [],
					"stateMutability": "nonpayable",
					"type": "function"
				},
				{
					"inputs": [
						{
							"internalType": "address",
							"name": "from",
							"type": "address"
						},
						{
							"internalType": "address",
							"name": "to",
							"type": "address"
						},
						{
							"internalType": "uint256",
							"name": "id",
							"type": "uint256"
						},
						{
							"internalType": "uint256",
							"name": "amount",
							"type": "uint256"
						},
						{
							"internalType": "bytes",
							"name": "data",
							"type": "bytes"
						}
					],
					"name": "safeTransferFrom",
					"outputs": [],
					"stateMutability": "nonpayable",
					"type": "function"
				},
				{
					"inputs": [
						{
							"internalType": "address",
							"name": "operator",
							"type": "address"
						},
						{
							"internalType": "bool",
							"name": "approved",
							"type": "bool"
						}
					],
					"name": "setApprovalForAll",
					"outputs": [],
					"stateMutability": "nonpayable",
					"type": "function"
				},
				{
					"inputs": [
						{
							"internalType": "bytes4",
							"name": "interfaceId",
							"type": "bytes4"
						}
					],
					"name": "supportsInterface",
					"outputs": [
						{
							"internalType": "bool",
							"name": "",
							"type": "bool"
						}
					],
					"stateMutability": "view",
					"type": "function"
				},
				{
					"inputs": [
						{
							"internalType": "uint256",
							"name": "",
							"type": "uint256"
						}
					],
					"name": "uri",
					"outputs": [
						{
							"internalType": "string",
							"name": "",
							"type": "string"
						}
					],
					"stateMutability": "view",
					"type": "function"
				}
			],
			"devdoc": {
				"methods": {
					"balanceOf(address,uint256)": {
						"details": "See {IERC1155-balanceOf}.     * Requirements:     * - `account` cannot be the zero address."
					},
					"balanceOfBatch(address[],uint256[])": {
						"details": "See {IERC1155-balanceOfBatch}.     * Requirements:     * - `accounts` and `ids` must have the same length."
					},
					"isApprovedForAll(address,address)": {
						"details": "See {IERC1155-isApprovedForAll}."
					},
					"safeBatchTransferFrom(address,address,uint256[],uint256[],bytes)": {
						"details": "See {IERC1155-safeBatchTransferFrom}."
					},
					"safeTransferFrom(address,address,uint256,uint256,bytes)": {
						"details": "See {IERC1155-safeTransferFrom}."
					},
					"setApprovalForAll(address,bool)": {
						"details": "See {IERC1155-setApprovalForAll}."
					},
					"supportsInterface(bytes4)": {
						"details": "See {IERC165-supportsInterface}.     * Time complexity O(1), guaranteed to always use less than 30 000 gas."
					},
					"uri(uint256)": {
						"details": "See {IERC1155MetadataURI-uri}.     * This implementation returns the same URI for *all* token types. It relies on the token type ID substitution mechanism https://eips.ethereum.org/EIPS/eip-1155#metadata[defined in the EIP].     * Clients calling this function must replace the `\\{id\\}` substring with the actual token type ID."
					}
				}
			},
			"evm": {
				"assembly": "    /* \"ERC1155.sol\":204:794  contract GameItems is ERC1155 {\r... */\n  mstore(0x40, 0x80)\n    /* \"ERC1155.sol\":451:791  constructor() public ERC1155(\"ipfs://QmZ9JQ4wQ797k96sPgc31NFV8QfJqA2wWpht7thzUi3P5D/{id}.json\") {\r... */\n  callvalue\n    /* \"--CODEGEN--\":8:17   */\n  dup1\n    /* \"--CODEGEN--\":5:7   */\n  iszero\n  tag_1\n  jumpi\n    /* \"--CODEGEN--\":30:31   */\n  0x00\n    /* \"--CODEGEN--\":27:28   */\n  dup1\n    /* \"--CODEGEN--\":20:32   */\n  revert\n    /* \"--CODEGEN--\":5:7   */\ntag_1:\n    /* \"ERC1155.sol\":451:791  constructor() public ERC1155(\"ipfs://QmZ9JQ4wQ797k96sPgc31NFV8QfJqA2wWpht7thzUi3P5D/{id}.json\") {\r... */\n  pop\n    /* \"https://github.com/OpenZeppelin/openzeppelin-contracts/blob/v3.2.0/contracts/token/ERC1155/ERC1155.sol\":1966:2318  constructor (string memory uri) public {... */\n  mload(0x40)\n  dup1\n  0x60\n  add\n  0x40\n  mstore\n  dup1\n  0x3f\n  dup2\n  mstore\n  0x20\n  add\n  data_3fe3d9245796ae3f66210b6549bb463a5ed2dd5deb86674e732053186f957f6f\n  0x3f\n  swap2\n  codecopy\n    /* \"https://github.com/OpenZeppelin/openzeppelin-contracts/blob/v3.2.0/contracts/introspection/ERC165.sol\":751:791  _registerInterface(_INTERFACE_ID_ERC165) */\n  tag_6\n    /* \"https://github.com/OpenZeppelin/openzeppelin-contracts/blob/v3.2.0/contracts/introspection/ERC165.sol\":418:428  0x01ffc9a7 */\n  0x01ffc9a7\n    /* \"https://github.com/OpenZeppelin/openzeppelin-contracts/blob/v3.2.0/contracts/introspection/ERC165.sol\":770:790  _INTERFACE_ID_ERC165 */\n  0xe0\n  shl\n    /* \"https://github.com/OpenZeppelin/openzeppelin-contracts/blob/v3.2.0/contracts/introspection/ERC165.sol\":751:769  _registerInterface */\n  shl(0x20, tag_7)\n    /* \"https://github.com/OpenZeppelin/openzeppelin-contracts/blob/v3.2.0/contracts/introspection/ERC165.sol\":751:791  _registerInterface(_INTERFACE_ID_ERC165) */\n  0x20\n  shr\n  jump\t// in\ntag_6:\n    /* \"https://github.com/OpenZeppelin/openzeppelin-contracts/blob/v3.2.0/contracts/token/ERC1155/ERC1155.sol\":2015:2027  _setURI(uri) */\n  tag_9\n    /* \"https://github.com/OpenZeppelin/openzeppelin-contracts/blob/v3.2.0/contracts/token/ERC1155/ERC1155.sol\":2023:2026  uri */\n  dup2\n    /* \"https://github.com/OpenZeppelin/openzeppelin-contracts/blob/v3.2.0/contracts/token/ERC1155/ERC1155.sol\":2015:2022  _setURI */\n  shl(0x20, tag_10)\n    /* \"https://github.com/OpenZeppelin/openzeppelin-contracts/blob/v3.2.0/contracts/token/ERC1155/ERC1155.sol\":2015:2027  _setURI(uri) */\n  0x20\n  shr\n  jump\t// in\ntag_9:\n    /* \"https://github.com/OpenZeppelin/openzeppelin-contracts/blob/v3.2.0/contracts/token/ERC1155/ERC1155.sol\":2116:2157  _registerInterface(_INTERFACE_ID_ERC1155) */\n  tag_11\n    /* \"https://github.com/OpenZeppelin/openzeppelin-contracts/blob/v3.2.0/contracts/token/ERC1155/ERC1155.sol\":1754:1764  0xd9b67a26 */\n  0xd9b67a26\n    /* \"https://github.com/OpenZeppelin/openzeppelin-contracts/blob/v3.2.0/contracts/token/ERC1155/ERC1155.sol\":2135:2156  _INTERFACE_ID_ERC1155 */\n  0xe0\n  shl\n    /* \"https://github.com/OpenZeppelin/openzeppelin-contracts/blob/v3.2.0/contracts/token/ERC1155/ERC1155.sol\":2116:2134  _registerInterface */\n  shl(0x20, tag_7)\n    /* \"https://github.com/OpenZeppelin/openzeppelin-contracts/blob/v3.2.0/contracts/token/ERC1155/ERC1155.sol\":2116:2157  _registerInterface(_INTERFACE_ID_ERC1155) */\n  0x20\n  shr\n  jump\t// in\ntag_11:\n    /* \"https://github.com/OpenZeppelin/openzeppelin-contracts/blob/v3.2.0/contracts/token/ERC1155/ERC1155.sol\":2257:2311  _registerInterface(_INTERFACE_ID_ERC1155_METADATA_URI) */\n  tag_12\n    /* \"https://github.com/OpenZeppelin/openzeppelin-contracts/blob/v3.2.0/contracts/token/ERC1155/ERC1155.sol\":1906:1916  0x0e89341c */\n  0x0e89341c\n    /* \"https://github.com/OpenZeppelin/openzeppelin-contracts/blob/v3.2.0/contracts/token/ERC1155/ERC1155.sol\":2276:2310  _INTERFACE_ID_ERC1155_METADATA_URI */\n  0xe0\n  shl\n    /* \"https://github.com/OpenZeppelin/openzeppelin-contracts/blob/v3.2.0/contracts/token/ERC1155/ERC1155.sol\":2257:2275  _registerInterface */\n  shl(0x20, tag_7)\n    /* \"https://github.com/OpenZeppelin/openzeppelin-contracts/blob/v3.2.0/contracts/token/ERC1155/ERC1155.sol\":2257:2311  _registerInterface(_INTERFACE_ID_ERC1155_METADATA_URI) */\n  0x20\n  shr\n  jump\t// in\ntag_12:\n    /* \"https://github.com/OpenZeppelin/openzeppelin-contracts/blob/v3.2.0/contracts/token/ERC1155/ERC1155.sol\":1966:2318  constructor (string memory uri) public {... */\n  pop\n    /* \"ERC1155.sol\":558:593  _mint(msg.sender, GOLD, 10**18, \"\") */\n  tag_14\n    /* \"ERC1155.sol\":564:574  msg.sender */\n  caller\n    /* \"ERC1155.sol\":272:273  0 */\n  0x00\n    /* \"ERC1155.sol\":582:588  10**18 */\n  0x0de0b6b3a7640000\n    /* \"ERC1155.sol\":558:593  _mint(msg.sender, GOLD, 10**18, \"\") */\n  mload(0x40)\n  dup1\n  0x20\n  add\n  0x40\n  mstore\n  dup1\n  0x00\n  dup2\n  mstore\n  pop\n    /* \"ERC1155.sol\":558:563  _mint */\n  shl(0x20, tag_15)\n    /* \"ERC1155.sol\":558:593  _mint(msg.sender, GOLD, 10**18, \"\") */\n  0x20\n  shr\n  jump\t// in\ntag_14:\n    /* \"ERC1155.sol\":604:641  _mint(msg.sender, SILVER, 10**27, \"\") */\n  tag_16\n    /* \"ERC1155.sol\":610:620  msg.sender */\n  caller\n    /* \"ERC1155.sol\":313:314  1 */\n  0x01\n    /* \"ERC1155.sol\":630:636  10**27 */\n  0x033b2e3c9fd0803ce8000000\n    /* \"ERC1155.sol\":604:641  _mint(msg.sender, SILVER, 10**27, \"\") */\n  mload(0x40)\n  dup1\n  0x20\n  add\n  0x40\n  mstore\n  dup1\n  0x00\n  dup2\n  mstore\n  pop\n    /* \"ERC1155.sol\":604:609  _mint */\n  shl(0x20, tag_15)\n    /* \"ERC1155.sol\":604:641  _mint(msg.sender, SILVER, 10**27, \"\") */\n  0x20\n  shr\n  jump\t// in\ntag_16:\n    /* \"ERC1155.sol\":652:690  _mint(msg.sender, THORS_HAMMER, 1, \"\") */\n  tag_17\n    /* \"ERC1155.sol\":658:668  msg.sender */\n  caller\n    /* \"ERC1155.sol\":360:361  2 */\n  0x02\n    /* \"ERC1155.sol\":684:685  1 */\n  0x01\n    /* \"ERC1155.sol\":652:690  _mint(msg.sender, THORS_HAMMER, 1, \"\") */\n  mload(0x40)\n  dup1\n  0x20\n  add\n  0x40\n  mstore\n  dup1\n  0x00\n  dup2\n  mstore\n  pop\n    /* \"ERC1155.sol\":652:657  _mint */\n  shl(0x20, tag_15)\n    /* \"ERC1155.sol\":652:690  _mint(msg.sender, THORS_HAMMER, 1, \"\") */\n  0x20\n  shr\n  jump\t// in\ntag_17:\n    /* \"ERC1155.sol\":701:736  _mint(msg.sender, SWORD, 10**9, \"\") */\n  tag_18\n    /* \"ERC1155.sol\":707:717  msg.sender */\n  caller\n    /* \"ERC1155.sol\":400:401  3 */\n  0x03\n    /* \"ERC1155.sol\":726:731  10**9 */\n  0x3b9aca00\n    /* \"ERC1155.sol\":701:736  _mint(msg.sender, SWORD, 10**9, \"\") */\n  mload(0x40)\n  dup1\n  0x20\n  add\n  0x40\n  mstore\n  dup1\n  0x00\n  dup2\n  mstore\n  pop\n    /* \"ERC1155.sol\":701:706  _mint */\n  shl(0x20, tag_15)\n    /* \"ERC1155.sol\":701:736  _mint(msg.sender, SWORD, 10**9, \"\") */\n  0x20\n  shr\n  jump\t// in\ntag_18:\n    /* \"ERC1155.sol\":747:783  _mint(msg.sender, SHIELD, 10**9, \"\") */\n  tag_19\n    /* \"ERC1155.sol\":753:763  msg.sender */\n  caller\n    /* \"ERC1155.sol\":441:442  4 */\n  0x04\n    /* \"ERC1155.sol\":773:778  10**9 */\n  0x3b9aca00\n    /* \"ERC1155.sol\":747:783  _mint(msg.sender, SHIELD, 10**9, \"\") */\n  mload(0x40)\n  dup1\n  0x20\n  add\n  0x40\n  mstore\n  dup1\n  0x00\n  dup2\n  mstore\n  pop\n    /* \"ERC1155.sol\":747:752  _mint */\n  shl(0x20, tag_15)\n    /* \"ERC1155.sol\":747:783  _mint(msg.sender, SHIELD, 10**9, \"\") */\n  0x20\n  shr\n  jump\t// in\ntag_19:\n    /* \"ERC1155.sol\":204:794  contract GameItems is ERC1155 {\r... */\n  jump(tag_20)\n    /* \"https://github.com/OpenZeppelin/openzeppelin-contracts/blob/v3.2.0/contracts/introspection/ERC165.sol\":1482:1680  function _registerInterface(bytes4 interfaceId) internal virtual {... */\ntag_7:\n    /* \"https://github.com/OpenZeppelin/openzeppelin-contracts/blob/v3.2.0/contracts/introspection/ERC165.sol\":1580:1590  0xffffffff */\n  0xffffffff\n    /* \"https://github.com/OpenZeppelin/openzeppelin-contracts/blob/v3.2.0/contracts/introspection/ERC165.sol\":1565:1590  interfaceId != 0xffffffff */\n  0xe0\n  shl\n    /* \"https://github.com/OpenZeppelin/openzeppelin-contracts/blob/v3.2.0/contracts/introspection/ERC165.sol\":1565:1576  interfaceId */\n  dup2\n    /* \"https://github.com/OpenZeppelin/openzeppelin-contracts/blob/v3.2.0/contracts/introspection/ERC165.sol\":1565:1590  interfaceId != 0xffffffff */\n  not(0xffffffffffffffffffffffffffffffffffffffffffffffffffffffff)\n  and\n  eq\n  iszero\n    /* \"https://github.com/OpenZeppelin/openzeppelin-contracts/blob/v3.2.0/contracts/introspection/ERC165.sol\":1557:1623  require(interfaceId != 0xffffffff, \"ERC165: invalid interface id\") */\n  tag_22\n  jumpi\n  mload(0x40)\n  0x08c379a000000000000000000000000000000000000000000000000000000000\n  dup2\n  mstore\n  0x04\n  add\n  dup1\n  dup1\n  0x20\n  add\n  dup3\n  dup2\n  sub\n  dup3\n  mstore\n  0x1c\n  dup2\n  mstore\n  0x20\n  add\n  dup1\n  0x4552433136353a20696e76616c696420696e7465726661636520696400000000\n  dup2\n  mstore\n  pop\n  0x20\n  add\n  swap2\n  pop\n  pop\n  mload(0x40)\n  dup1\n  swap2\n  sub\n  swap1\n  revert\ntag_22:\n    /* \"https://github.com/OpenZeppelin/openzeppelin-contracts/blob/v3.2.0/contracts/introspection/ERC165.sol\":1669:1673  true */\n  0x01\n    /* \"https://github.com/OpenZeppelin/openzeppelin-contracts/blob/v3.2.0/contracts/introspection/ERC165.sol\":1633:1653  _supportedInterfaces */\n  0x00\n    /* \"https://github.com/OpenZeppelin/openzeppelin-contracts/blob/v3.2.0/contracts/introspection/ERC165.sol\":1633:1666  _supportedInterfaces[interfaceId] */\n  dup1\n    /* \"https://github.com/OpenZeppelin/openzeppelin-contracts/blob/v3.2.0/contracts/introspection/ERC165.sol\":1654:1665  interfaceId */\n  dup4\n    /* \"https://github.com/OpenZeppelin/openzeppelin-contracts/blob/v3.2.0/contracts/introspection/ERC165.sol\":1633:1666  _supportedInterfaces[interfaceId] */\n  not(0xffffffffffffffffffffffffffffffffffffffffffffffffffffffff)\n  and\n  not(0xffffffffffffffffffffffffffffffffffffffffffffffffffffffff)\n  and\n  dup2\n  mstore\n  0x20\n  add\n  swap1\n  dup2\n  mstore\n  0x20\n  add\n  0x00\n  keccak256\n  0x00\n    /* \"https://github.com/OpenZeppelin/openzeppelin-contracts/blob/v3.2.0/contracts/introspection/ERC165.sol\":1633:1673  _supportedInterfaces[interfaceId] = true */\n  0x0100\n  exp\n  dup2\n  sload\n  dup2\n  0xff\n  mul\n  not\n  and\n  swap1\n  dup4\n  iszero\n  iszero\n  mul\n  or\n  swap1\n  sstore\n  pop\n    /* \"https://github.com/OpenZeppelin/openzeppelin-contracts/blob/v3.2.0/contracts/introspection/ERC165.sol\":1482:1680  function _registerInterface(bytes4 interfaceId) internal virtual {... */\n  pop\n  jump\t// out\n    /* \"https://github.com/OpenZeppelin/openzeppelin-contracts/blob/v3.2.0/contracts/token/ERC1155/ERC1155.sol\":7590:7676  function _setURI(string memory newuri) internal virtual {... */\ntag_10:\n    /* \"https://github.com/OpenZeppelin/openzeppelin-contracts/blob/v3.2.0/contracts/token/ERC1155/ERC1155.sol\":7663:7669  newuri */\n  dup1\n    /* \"https://github.com/OpenZeppelin/openzeppelin-contracts/blob/v3.2.0/contracts/token/ERC1155/ERC1155.sol\":7656:7660  _uri */\n  0x03\n    /* \"https://github.com/OpenZeppelin/openzeppelin-contracts/blob/v3.2.0/contracts/token/ERC1155/ERC1155.sol\":7656:7669  _uri = newuri */\n  swap1\n  dup1\n  mload\n  swap1\n  0x20\n  add\n  swap1\n  tag_24\n  swap3\n  swap2\n  swap1\n  tag_25\n  jump\t// in\ntag_24:\n  pop\n    /* \"https://github.com/OpenZeppelin/openzeppelin-contracts/blob/v3.2.0/contracts/token/ERC1155/ERC1155.sol\":7590:7676  function _setURI(string memory newuri) internal virtual {... */\n  pop\n  jump\t// out\n    /* \"https://github.com/OpenZeppelin/openzeppelin-contracts/blob/v3.2.0/contracts/token/ERC1155/ERC1155.sol\":8059:8631  function _mint(address account, uint256 id, uint256 amount, bytes memory data) internal virtual {... */\ntag_15:\n    /* \"https://github.com/OpenZeppelin/openzeppelin-contracts/blob/v3.2.0/contracts/token/ERC1155/ERC1155.sol\":8192:8193  0 */\n  0x00\n    /* \"https://github.com/OpenZeppelin/openzeppelin-contracts/blob/v3.2.0/contracts/token/ERC1155/ERC1155.sol\":8173:8194  account != address(0) */\n  0xffffffffffffffffffffffffffffffffffffffff\n  and\n    /* \"https://github.com/OpenZeppelin/openzeppelin-contracts/blob/v3.2.0/contracts/token/ERC1155/ERC1155.sol\":8173:8180  account */\n  dup5\n    /* \"https://github.com/OpenZeppelin/openzeppelin-contracts/blob/v3.2.0/contracts/token/ERC1155/ERC1155.sol\":8173:8194  account != address(0) */\n  0xffffffffffffffffffffffffffffffffffffffff\n  and\n  eq\n  iszero\n    /* \"https://github.com/OpenZeppelin/openzeppelin-contracts/blob/v3.2.0/contracts/token/ERC1155/ERC1155.sol\":8165:8232  require(account != address(0), \"ERC1155: mint to the zero address\") */\n  tag_27\n  jumpi\n  mload(0x40)\n  0x08c379a000000000000000000000000000000000000000000000000000000000\n  dup2\n  mstore\n  0x04\n  add\n  dup1\n  dup1\n  0x20\n  add\n  dup3\n  dup2\n  sub\n  dup3\n  mstore\n  0x21\n  dup2\n  mstore\n  0x20\n  add\n  dup1\n  data_ebf031a1b7ee1d0b3a7752b450a3268e8b6c334561b48c1c0ba0f5bac05749f2\n  0x21\n  swap2\n  codecopy\n  0x40\n  add\n  swap2\n  pop\n  pop\n  mload(0x40)\n  dup1\n  swap2\n  sub\n  swap1\n  revert\ntag_27:\n    /* \"https://github.com/OpenZeppelin/openzeppelin-contracts/blob/v3.2.0/contracts/token/ERC1155/ERC1155.sol\":8243:8259  address operator */\n  0x00\n    /* \"https://github.com/OpenZeppelin/openzeppelin-contracts/blob/v3.2.0/contracts/token/ERC1155/ERC1155.sol\":8262:8274  _msgSender() */\n  tag_28\n    /* \"https://github.com/OpenZeppelin/openzeppelin-contracts/blob/v3.2.0/contracts/token/ERC1155/ERC1155.sol\":8262:8272  _msgSender */\n  shl(0x20, tag_29)\n    /* \"https://github.com/OpenZeppelin/openzeppelin-contracts/blob/v3.2.0/contracts/token/ERC1155/ERC1155.sol\":8262:8274  _msgSender() */\n  0x20\n  shr\n  jump\t// in\ntag_28:\n    /* \"https://github.com/OpenZeppelin/openzeppelin-contracts/blob/v3.2.0/contracts/token/ERC1155/ERC1155.sol\":8243:8274  address operator = _msgSender() */\n  swap1\n  pop\n    /* \"https://github.com/OpenZeppelin/openzeppelin-contracts/blob/v3.2.0/contracts/token/ERC1155/ERC1155.sol\":8285:8392  _beforeTokenTransfer(operator, address(0), account, _asSingletonArray(id), _asSingletonArray(amount), data) */\n  tag_30\n    /* \"https://github.com/OpenZeppelin/openzeppelin-contracts/blob/v3.2.0/contracts/token/ERC1155/ERC1155.sol\":8306:8314  operator */\n  dup2\n    /* \"https://github.com/OpenZeppelin/openzeppelin-contracts/blob/v3.2.0/contracts/token/ERC1155/ERC1155.sol\":8324:8325  0 */\n  0x00\n    /* \"https://github.com/OpenZeppelin/openzeppelin-contracts/blob/v3.2.0/contracts/token/ERC1155/ERC1155.sol\":8328:8335  account */\n  dup8\n    /* \"https://github.com/OpenZeppelin/openzeppelin-contracts/blob/v3.2.0/contracts/token/ERC1155/ERC1155.sol\":8337:8358  _asSingletonArray(id) */\n  tag_31\n    /* \"https://github.com/OpenZeppelin/openzeppelin-contracts/blob/v3.2.0/contracts/token/ERC1155/ERC1155.sol\":8355:8357  id */\n  dup9\n    /* \"https://github.com/OpenZeppelin/openzeppelin-contracts/blob/v3.2.0/contracts/token/ERC1155/ERC1155.sol\":8337:8354  _asSingletonArray */\n  shl(0x20, tag_32)\n    /* \"https://github.com/OpenZeppelin/openzeppelin-contracts/blob/v3.2.0/contracts/token/ERC1155/ERC1155.sol\":8337:8358  _asSingletonArray(id) */\n  0x20\n  shr\n  jump\t// in\ntag_31:\n    /* \"https://github.com/OpenZeppelin/openzeppelin-contracts/blob/v3.2.0/contracts/token/ERC1155/ERC1155.sol\":8360:8385  _asSingletonArray(amount) */\n  tag_33\n    /* \"https://github.com/OpenZeppelin/openzeppelin-contracts/blob/v3.2.0/contracts/token/ERC1155/ERC1155.sol\":8378:8384  amount */\n  dup9\n    /* \"https://github.com/OpenZeppelin/openzeppelin-contracts/blob/v3.2.0/contracts/token/ERC1155/ERC1155.sol\":8360:8377  _asSingletonArray */\n  shl(0x20, tag_32)\n    /* \"https://github.com/OpenZeppelin/openzeppelin-contracts/blob/v3.2.0/contracts/token/ERC1155/ERC1155.sol\":8360:8385  _asSingletonArray(amount) */\n  0x20\n  shr\n  jump\t// in\ntag_33:\n    /* \"https://github.com/OpenZeppelin/openzeppelin-contracts/blob/v3.2.0/contracts/token/ERC1155/ERC1155.sol\":8387:8391  data */\n  dup8\n    /* \"https://github.com/OpenZeppelin/openzeppelin-contracts/blob/v3.2.0/contracts/token/ERC1155/ERC1155.sol\":8285:8305  _beforeTokenTransfer */\n  shl(0x20, tag_34)\n    /* \"https://github.com/OpenZeppelin/openzeppelin-contracts/blob/v3.2.0/contracts/token/ERC1155/ERC1155.sol\":8285:8392  _beforeTokenTransfer(operator, address(0), account, _asSingletonArray(id), _asSingletonArray(amount), data) */\n  0x20\n  shr\n  jump\t// in\ntag_30:\n    /* \"https://github.com/OpenZeppelin/openzeppelin-contracts/blob/v3.2.0/contracts/token/ERC1155/ERC1155.sol\":8428:8462  _balances[id][account].add(amount) */\n  tag_35\n    /* \"https://github.com/OpenZeppelin/openzeppelin-contracts/blob/v3.2.0/contracts/token/ERC1155/ERC1155.sol\":8455:8461  amount */\n  dup4\n    /* \"https://github.com/OpenZeppelin/openzeppelin-contracts/blob/v3.2.0/contracts/token/ERC1155/ERC1155.sol\":8428:8437  _balances */\n  0x01\n    /* \"https://github.com/OpenZeppelin/openzeppelin-contracts/blob/v3.2.0/contracts/token/ERC1155/ERC1155.sol\":8428:8441  _balances[id] */\n  0x00\n    /* \"https://github.com/OpenZeppelin/openzeppelin-contracts/blob/v3.2.0/contracts/token/ERC1155/ERC1155.sol\":8438:8440  id */\n  dup8\n    /* \"https://github.com/OpenZeppelin/openzeppelin-contracts/blob/v3.2.0/contracts/token/ERC1155/ERC1155.sol\":8428:8441  _balances[id] */\n  dup2\n  mstore\n  0x20\n  add\n  swap1\n  dup2\n  mstore\n  0x20\n  add\n  0x00\n  keccak256\n    /* \"https://github.com/OpenZeppelin/openzeppelin-contracts/blob/v3.2.0/contracts/token/ERC1155/ERC1155.sol\":8428:8450  _balances[id][account] */\n  0x00\n    /* \"https://github.com/OpenZeppelin/openzeppelin-contracts/blob/v3.2.0/contracts/token/ERC1155/ERC1155.sol\":8442:8449  account */\n  dup9\n    /* \"https://github.com/OpenZeppelin/openzeppelin-contracts/blob/v3.2.0/contracts/token/ERC1155/ERC1155.sol\":8428:8450  _balances[id][account] */\n  0xffffffffffffffffffffffffffffffffffffffff\n  and\n  0xffffffffffffffffffffffffffffffffffffffff\n  and\n  dup2\n  mstore\n  0x20\n  add\n  swap1\n  dup2\n  mstore\n  0x20\n  add\n  0x00\n  keccak256\n  sload\n    /* \"https://github.com/OpenZeppelin/openzeppelin-contracts/blob/v3.2.0/contracts/token/ERC1155/ERC1155.sol\":8428:8454  _balances[id][account].add */\n  or(tag_0_104, shl(0x20, tag_36))\n  swap1\n    /* \"https://github.com/OpenZeppelin/openzeppelin-contracts/blob/v3.2.0/contracts/token/ERC1155/ERC1155.sol\":8428:8462  _balances[id][account].add(amount) */\n  swap2\n  swap1\n  0x20\n  shr\n  jump\t// in\ntag_35:\n    /* \"https://github.com/OpenZeppelin/openzeppelin-contracts/blob/v3.2.0/contracts/token/ERC1155/ERC1155.sol\":8403:8412  _balances */\n  0x01\n    /* \"https://github.com/OpenZeppelin/openzeppelin-contracts/blob/v3.2.0/contracts/token/ERC1155/ERC1155.sol\":8403:8416  _balances[id] */\n  0x00\n    /* \"https://github.com/OpenZeppelin/openzeppelin-contracts/blob/v3.2.0/contracts/token/ERC1155/ERC1155.sol\":8413:8415  id */\n  dup7\n    /* \"https://github.com/OpenZeppelin/openzeppelin-contracts/blob/v3.2.0/contracts/token/ERC1155/ERC1155.sol\":8403:8416  _balances[id] */\n  dup2\n  mstore\n  0x20\n  add\n  swap1\n  dup2\n  mstore\n  0x20\n  add\n  0x00\n  keccak256\n    /* \"https://github.com/OpenZeppelin/openzeppelin-contracts/blob/v3.2.0/contracts/token/ERC1155/ERC1155.sol\":8403:8425  _balances[id][account] */\n  0x00\n    /* \"https://github.com/OpenZeppelin/openzeppelin-contracts/blob/v3.2.0/contracts/token/ERC1155/ERC1155.sol\":8417:8424  account */\n  dup8\n    /* \"https://github.com/OpenZeppelin/openzeppelin-contracts/blob/v3.2.0/contracts/token/ERC1155/ERC1155.sol\":8403:8425  _balances[id][account] */\n  0xffffffffffffffffffffffffffffffffffffffff\n  and\n  0xffffffffffffffffffffffffffffffffffffffff\n  and\n  dup2\n  mstore\n  0x20\n  add\n  swap1\n  dup2\n  mstore\n  0x20\n  add\n  0x00\n  keccak256\n    /* \"https://github.com/OpenZeppelin/openzeppelin-contracts/blob/v3.2.0/contracts/token/ERC1155/ERC1155.sol\":8403:8462  _balances[id][account] = _balances[id][account].add(amount) */\n  dup2\n  swap1\n  sstore\n  pop\n    /* \"https://github.com/OpenZeppelin/openzeppelin-contracts/blob/v3.2.0/contracts/token/ERC1155/ERC1155.sol\":8514:8521  account */\n  dup5\n    /* \"https://github.com/OpenZeppelin/openzeppelin-contracts/blob/v3.2.0/contracts/token/ERC1155/ERC1155.sol\":8477:8534  TransferSingle(operator, address(0), account, id, amount) */\n  0xffffffffffffffffffffffffffffffffffffffff\n  and\n    /* \"https://github.com/OpenZeppelin/openzeppelin-contracts/blob/v3.2.0/contracts/token/ERC1155/ERC1155.sol\":8510:8511  0 */\n  0x00\n    /* \"https://github.com/OpenZeppelin/openzeppelin-contracts/blob/v3.2.0/contracts/token/ERC1155/ERC1155.sol\":8477:8534  TransferSingle(operator, address(0), account, id, amount) */\n  0xffffffffffffffffffffffffffffffffffffffff\n  and\n    /* \"https://github.com/OpenZeppelin/openzeppelin-contracts/blob/v3.2.0/contracts/token/ERC1155/ERC1155.sol\":8492:8500  operator */\n  dup3\n    /* \"https://github.com/OpenZeppelin/openzeppelin-contracts/blob/v3.2.0/contracts/token/ERC1155/ERC1155.sol\":8477:8534  TransferSingle(operator, address(0), account, id, amount) */\n  0xffffffffffffffffffffffffffffffffffffffff\n  and\n  0xc3d58168c5ae7397731d063d5bbf3d657854427343f4c083240f7aacaa2d0f62\n    /* \"https://github.com/OpenZeppelin/openzeppelin-contracts/blob/v3.2.0/contracts/token/ERC1155/ERC1155.sol\":8523:8525  id */\n  dup8\n    /* \"https://github.com/OpenZeppelin/openzeppelin-contracts/blob/v3.2.0/contracts/token/ERC1155/ERC1155.sol\":8527:8533  amount */\n  dup8\n    /* \"https://github.com/OpenZeppelin/openzeppelin-contracts/blob/v3.2.0/contracts/token/ERC1155/ERC1155.sol\":8477:8534  TransferSingle(operator, address(0), account, id, amount) */\n  mload(0x40)\n  dup1\n  dup4\n  dup2\n  mstore\n  0x20\n  add\n  dup3\n  dup2\n  mstore\n  0x20\n  add\n  swap3\n  pop\n  pop\n  pop\n  mload(0x40)\n  dup1\n  swap2\n  sub\n  swap1\n  log4\n    /* \"https://github.com/OpenZeppelin/openzeppelin-contracts/blob/v3.2.0/contracts/token/ERC1155/ERC1155.sol\":8545:8624  _doSafeTransferAcceptanceCheck(operator, address(0), account, id, amount, data) */\n  tag_37\n    /* \"https://github.com/OpenZeppelin/openzeppelin-contracts/blob/v3.2.0/contracts/token/ERC1155/ERC1155.sol\":8576:8584  operator */\n  dup2\n    /* \"https://github.com/OpenZeppelin/openzeppelin-contracts/blob/v3.2.0/contracts/token/ERC1155/ERC1155.sol\":8594:8595  0 */\n  0x00\n    /* \"https://github.com/OpenZeppelin/openzeppelin-contracts/blob/v3.2.0/contracts/token/ERC1155/ERC1155.sol\":8598:8605  account */\n  dup8\n    /* \"https://github.com/OpenZeppelin/openzeppelin-contracts/blob/v3.2.0/contracts/token/ERC1155/ERC1155.sol\":8607:8609  id */\n  dup8\n    /* \"https://github.com/OpenZeppelin/openzeppelin-contracts/blob/v3.2.0/contracts/token/ERC1155/ERC1155.sol\":8611:8617  amount */\n  dup8\n    /* \"https://github.com/OpenZeppelin/openzeppelin-contracts/blob/v3.2.0/contracts/token/ERC1155/ERC1155.sol\":8619:8623  data */\n  dup8\n    /* \"https://github.com/OpenZeppelin/openzeppelin-contracts/blob/v3.2.0/contracts/token/ERC1155/ERC1155.sol\":8545:8575  _doSafeTransferAcceptanceCheck */\n  shl(0x20, tag_38)\n    /* \"https://github.com/OpenZeppelin/openzeppelin-contracts/blob/v3.2.0/contracts/token/ERC1155/ERC1155.sol\":8545:8624  _doSafeTransferAcceptanceCheck(operator, address(0), account, id, amount, data) */\n  0x20\n  shr\n  jump\t// in\ntag_37:\n    /* \"https://github.com/OpenZeppelin/openzeppelin-contracts/blob/v3.2.0/contracts/token/ERC1155/ERC1155.sol\":8059:8631  function _mint(address account, uint256 id, uint256 amount, bytes memory data) internal virtual {... */\n  pop\n  pop\n  pop\n  pop\n  pop\n  jump\t// out\n    /* \"https://github.com/OpenZeppelin/openzeppelin-contracts/blob/v3.2.0/contracts/GSN/Context.sol\":590:694  function _msgSender() internal view virtual returns (address payable) {... */\ntag_29:\n    /* \"https://github.com/OpenZeppelin/openzeppelin-contracts/blob/v3.2.0/contracts/GSN/Context.sol\":643:658  address payable */\n  0x00\n    /* \"https://github.com/OpenZeppelin/openzeppelin-contracts/blob/v3.2.0/contracts/GSN/Context.sol\":677:687  msg.sender */\n  caller\n    /* \"https://github.com/OpenZeppelin/openzeppelin-contracts/blob/v3.2.0/contracts/GSN/Context.sol\":670:687  return msg.sender */\n  swap1\n  pop\n    /* \"https://github.com/OpenZeppelin/openzeppelin-contracts/blob/v3.2.0/contracts/GSN/Context.sol\":590:694  function _msgSender() internal view virtual returns (address payable) {... */\n  swap1\n  jump\t// out\n    /* \"https://github.com/OpenZeppelin/openzeppelin-contracts/blob/v3.2.0/contracts/token/ERC1155/ERC1155.sol\":14060:14253  function _asSingletonArray(uint256 element) private pure returns (uint256[] memory) {... */\ntag_32:\n    /* \"https://github.com/OpenZeppelin/openzeppelin-contracts/blob/v3.2.0/contracts/token/ERC1155/ERC1155.sol\":14126:14142  uint256[] memory */\n  0x60\n    /* \"https://github.com/OpenZeppelin/openzeppelin-contracts/blob/v3.2.0/contracts/token/ERC1155/ERC1155.sol\":14154:14176  uint256[] memory array */\n  dup1\n    /* \"https://github.com/OpenZeppelin/openzeppelin-contracts/blob/v3.2.0/contracts/token/ERC1155/ERC1155.sol\":14193:14194  1 */\n  0x01\n    /* \"https://github.com/OpenZeppelin/openzeppelin-contracts/blob/v3.2.0/contracts/token/ERC1155/ERC1155.sol\":14179:14195  new uint256[](1) */\n  mload(0x40)\n  swap1\n  dup1\n  dup3\n  mstore\n  dup1\n  0x20\n  mul\n  0x20\n  add\n  dup3\n  add\n  0x40\n  mstore\n  dup1\n  iszero\n  tag_41\n  jumpi\n  dup2\n  0x20\n  add\n    /* \"--CODEGEN--\":29:31   */\n  0x20\n    /* \"--CODEGEN--\":21:27   */\n  dup3\n    /* \"--CODEGEN--\":17:32   */\n  mul\n    /* \"--CODEGEN--\":117:121   */\n  dup1\n    /* \"--CODEGEN--\":105:115   */\n  codesize\n    /* \"--CODEGEN--\":97:103   */\n  dup4\n    /* \"--CODEGEN--\":88:122   */\n  codecopy\n    /* \"--CODEGEN--\":148:152   */\n  dup1\n    /* \"--CODEGEN--\":140:146   */\n  dup3\n    /* \"--CODEGEN--\":136:153   */\n  add\n    /* \"--CODEGEN--\":126:153   */\n  swap2\n  pop\n    /* \"--CODEGEN--\":0:157   */\n  pop\n    /* \"https://github.com/OpenZeppelin/openzeppelin-contracts/blob/v3.2.0/contracts/token/ERC1155/ERC1155.sol\":14179:14195  new uint256[](1) */\n  swap1\n  pop\ntag_41:\n  pop\n    /* \"https://github.com/OpenZeppelin/openzeppelin-contracts/blob/v3.2.0/contracts/token/ERC1155/ERC1155.sol\":14154:14195  uint256[] memory array = new uint256[](1) */\n  swap1\n  pop\n    /* \"https://github.com/OpenZeppelin/openzeppelin-contracts/blob/v3.2.0/contracts/token/ERC1155/ERC1155.sol\":14216:14223  element */\n  dup3\n    /* \"https://github.com/OpenZeppelin/openzeppelin-contracts/blob/v3.2.0/contracts/token/ERC1155/ERC1155.sol\":14205:14210  array */\n  dup2\n    /* \"https://github.com/OpenZeppelin/openzeppelin-contracts/blob/v3.2.0/contracts/token/ERC1155/ERC1155.sol\":14211:14212  0 */\n  0x00\n    /* \"https://github.com/OpenZeppelin/openzeppelin-contracts/blob/v3.2.0/contracts/token/ERC1155/ERC1155.sol\":14205:14213  array[0] */\n  dup2\n  mload\n  dup2\n  lt\n  tag_42\n  jumpi\n  invalid\ntag_42:\n  0x20\n  mul\n  0x20\n  add\n  add\n    /* \"https://github.com/OpenZeppelin/openzeppelin-contracts/blob/v3.2.0/contracts/token/ERC1155/ERC1155.sol\":14205:14223  array[0] = element */\n  dup2\n  dup2\n  mstore\n  pop\n  pop\n    /* \"https://github.com/OpenZeppelin/openzeppelin-contracts/blob/v3.2.0/contracts/token/ERC1155/ERC1155.sol\":14241:14246  array */\n  dup1\n    /* \"https://github.com/OpenZeppelin/openzeppelin-contracts/blob/v3.2.0/contracts/token/ERC1155/ERC1155.sol\":14234:14246  return array */\n  swap2\n  pop\n  pop\n    /* \"https://github.com/OpenZeppelin/openzeppelin-contracts/blob/v3.2.0/contracts/token/ERC1155/ERC1155.sol\":14060:14253  function _asSingletonArray(uint256 element) private pure returns (uint256[] memory) {... */\n  swap2\n  swap1\n  pop\n  jump\t// out\n    /* \"https://github.com/OpenZeppelin/openzeppelin-contracts/blob/v3.2.0/contracts/token/ERC1155/ERC1155.sol\":12296:12523  function _beforeTokenTransfer(... */\ntag_34:\n  pop\n  pop\n  pop\n  pop\n  pop\n  pop\n  jump\t// out\n    /* \"https://github.com/OpenZeppelin/openzeppelin-contracts/blob/v3.2.0/contracts/math/SafeMath.sol\":874:1050  function add(uint256 a, uint256 b) internal pure returns (uint256) {... */\ntag_36:\n    /* \"https://github.com/OpenZeppelin/openzeppelin-contracts/blob/v3.2.0/contracts/math/SafeMath.sol\":932:939  uint256 */\n  0x00\n    /* \"https://github.com/OpenZeppelin/openzeppelin-contracts/blob/v3.2.0/contracts/math/SafeMath.sol\":951:960  uint256 c */\n  dup1\n    /* \"https://github.com/OpenZeppelin/openzeppelin-contracts/blob/v3.2.0/contracts/math/SafeMath.sol\":967:968  b */\n  dup3\n    /* \"https://github.com/OpenZeppelin/openzeppelin-contracts/blob/v3.2.0/contracts/math/SafeMath.sol\":963:964  a */\n  dup5\n    /* \"https://github.com/OpenZeppelin/openzeppelin-contracts/blob/v3.2.0/contracts/math/SafeMath.sol\":963:968  a + b */\n  add\n    /* \"https://github.com/OpenZeppelin/openzeppelin-contracts/blob/v3.2.0/contracts/math/SafeMath.sol\":951:968  uint256 c = a + b */\n  swap1\n  pop\n    /* \"https://github.com/OpenZeppelin/openzeppelin-contracts/blob/v3.2.0/contracts/math/SafeMath.sol\":991:992  a */\n  dup4\n    /* \"https://github.com/OpenZeppelin/openzeppelin-contracts/blob/v3.2.0/contracts/math/SafeMath.sol\":986:987  c */\n  dup2\n    /* \"https://github.com/OpenZeppelin/openzeppelin-contracts/blob/v3.2.0/contracts/math/SafeMath.sol\":986:992  c >= a */\n  lt\n  iszero\n    /* \"https://github.com/OpenZeppelin/openzeppelin-contracts/blob/v3.2.0/contracts/math/SafeMath.sol\":978:1024  require(c >= a, \"SafeMath: addition overflow\") */\n  tag_45\n  jumpi\n  mload(0x40)\n  0x08c379a000000000000000000000000000000000000000000000000000000000\n  dup2\n  mstore\n  0x04\n  add\n  dup1\n  dup1\n  0x20\n  add\n  dup3\n  dup2\n  sub\n  dup3\n  mstore\n  0x1b\n  dup2\n  mstore\n  0x20\n  add\n  dup1\n  0x536166654d6174683a206164646974696f6e206f766572666c6f770000000000\n  dup2\n  mstore\n  pop\n  0x20\n  add\n  swap2\n  pop\n  pop\n  mload(0x40)\n  dup1\n  swap2\n  sub\n  swap1\n  revert\ntag_45:\n    /* \"https://github.com/OpenZeppelin/openzeppelin-contracts/blob/v3.2.0/contracts/math/SafeMath.sol\":1042:1043  c */\n  dup1\n    /* \"https://github.com/OpenZeppelin/openzeppelin-contracts/blob/v3.2.0/contracts/math/SafeMath.sol\":1035:1043  return c */\n  swap2\n  pop\n  pop\n    /* \"https://github.com/OpenZeppelin/openzeppelin-contracts/blob/v3.2.0/contracts/math/SafeMath.sol\":874:1050  function add(uint256 a, uint256 b) internal pure returns (uint256) {... */\n  swap3\n  swap2\n  pop\n  pop\n  jump\t// out\n    /* \"https://github.com/OpenZeppelin/openzeppelin-contracts/blob/v3.2.0/contracts/token/ERC1155/ERC1155.sol\":12529:13270  function _doSafeTransferAcceptanceCheck(... */\ntag_38:\n    /* \"https://github.com/OpenZeppelin/openzeppelin-contracts/blob/v3.2.0/contracts/token/ERC1155/ERC1155.sol\":12748:12763  to.isContract() */\n  tag_47\n    /* \"https://github.com/OpenZeppelin/openzeppelin-contracts/blob/v3.2.0/contracts/token/ERC1155/ERC1155.sol\":12748:12750  to */\n  dup5\n    /* \"https://github.com/OpenZeppelin/openzeppelin-contracts/blob/v3.2.0/contracts/token/ERC1155/ERC1155.sol\":12748:12761  to.isContract */\n  0xffffffffffffffffffffffffffffffffffffffff\n  and\n  or(tag_0_158, shl(0x20, tag_48))\n    /* \"https://github.com/OpenZeppelin/openzeppelin-contracts/blob/v3.2.0/contracts/token/ERC1155/ERC1155.sol\":12748:12763  to.isContract() */\n  0x20\n  shr\n  jump\t// in\ntag_47:\n    /* \"https://github.com/OpenZeppelin/openzeppelin-contracts/blob/v3.2.0/contracts/token/ERC1155/ERC1155.sol\":12744:13264  if (to.isContract()) {... */\n  iszero\n  tag_49\n  jumpi\n    /* \"https://github.com/OpenZeppelin/openzeppelin-contracts/blob/v3.2.0/contracts/token/ERC1155/ERC1155.sol\":12800:12802  to */\n  dup4\n    /* \"https://github.com/OpenZeppelin/openzeppelin-contracts/blob/v3.2.0/contracts/token/ERC1155/ERC1155.sol\":12783:12821  IERC1155Receiver(to).onERC1155Received */\n  0xffffffffffffffffffffffffffffffffffffffff\n  and\n  0xf23a6e61\n    /* \"https://github.com/OpenZeppelin/openzeppelin-contracts/blob/v3.2.0/contracts/token/ERC1155/ERC1155.sol\":12822:12830  operator */\n  dup8\n    /* \"https://github.com/OpenZeppelin/openzeppelin-contracts/blob/v3.2.0/contracts/token/ERC1155/ERC1155.sol\":12832:12836  from */\n  dup8\n    /* \"https://github.com/OpenZeppelin/openzeppelin-contracts/blob/v3.2.0/contracts/token/ERC1155/ERC1155.sol\":12838:12840  id */\n  dup7\n    /* \"https://github.com/OpenZeppelin/openzeppelin-contracts/blob/v3.2.0/contracts/token/ERC1155/ERC1155.sol\":12842:12848  amount */\n  dup7\n    /* \"https://github.com/OpenZeppelin/openzeppelin-contracts/blob/v3.2.0/contracts/token/ERC1155/ERC1155.sol\":12850:12854  data */\n  dup7\n    /* \"https://github.com/OpenZeppelin/openzeppelin-contracts/blob/v3.2.0/contracts/token/ERC1155/ERC1155.sol\":12783:12855  IERC1155Receiver(to).onERC1155Received(operator, from, id, amount, data) */\n  mload(0x40)\n  dup7\n  0xffffffff\n  and\n  0xe0\n  shl\n  dup2\n  mstore\n  0x04\n  add\n  dup1\n  dup7\n  0xffffffffffffffffffffffffffffffffffffffff\n  and\n  0xffffffffffffffffffffffffffffffffffffffff\n  and\n  dup2\n  mstore\n  0x20\n  add\n  dup6\n  0xffffffffffffffffffffffffffffffffffffffff\n  and\n  0xffffffffffffffffffffffffffffffffffffffff\n  and\n  dup2\n  mstore\n  0x20\n  add\n  dup5\n  dup2\n  mstore\n  0x20\n  add\n  dup4\n  dup2\n  mstore\n  0x20\n  add\n  dup1\n  0x20\n  add\n  dup3\n  dup2\n  sub\n  dup3\n  mstore\n  dup4\n  dup2\n  dup2\n  mload\n  dup2\n  mstore\n  0x20\n  add\n  swap2\n  pop\n  dup1\n  mload\n  swap1\n  0x20\n  add\n  swap1\n  dup1\n  dup4\n  dup4\n    /* \"--CODEGEN--\":23:24   */\n  0x00\n    /* \"--CODEGEN--\":8:108   */\ntag_50:\n    /* \"--CODEGEN--\":33:36   */\n  dup4\n    /* \"--CODEGEN--\":30:31   */\n  dup2\n    /* \"--CODEGEN--\":27:37   */\n  lt\n    /* \"--CODEGEN--\":8:108   */\n  iszero\n  tag_52\n  jumpi\n    /* \"--CODEGEN--\":99:100   */\n  dup1\n    /* \"--CODEGEN--\":94:97   */\n  dup3\n    /* \"--CODEGEN--\":90:101   */\n  add\n    /* \"--CODEGEN--\":84:102   */\n  mload\n    /* \"--CODEGEN--\":80:81   */\n  dup2\n    /* \"--CODEGEN--\":75:78   */\n  dup5\n    /* \"--CODEGEN--\":71:82   */\n  add\n    /* \"--CODEGEN--\":64:103   */\n  mstore\n    /* \"--CODEGEN--\":52:54   */\n  0x20\n    /* \"--CODEGEN--\":49:50   */\n  dup2\n    /* \"--CODEGEN--\":45:55   */\n  add\n    /* \"--CODEGEN--\":40:55   */\n  swap1\n  pop\n    /* \"--CODEGEN--\":8:108   */\n  jump(tag_50)\ntag_52:\n    /* \"--CODEGEN--\":12:26   */\n  pop\n    /* \"https://github.com/OpenZeppelin/openzeppelin-contracts/blob/v3.2.0/contracts/token/ERC1155/ERC1155.sol\":12783:12855  IERC1155Receiver(to).onERC1155Received(operator, from, id, amount, data) */\n  pop\n  pop\n  pop\n  swap1\n  pop\n  swap1\n  dup2\n  add\n  swap1\n  0x1f\n  and\n  dup1\n  iszero\n  tag_53\n  jumpi\n  dup1\n  dup3\n  sub\n  dup1\n  mload\n  0x01\n  dup4\n  0x20\n  sub\n  0x0100\n  exp\n  sub\n  not\n  and\n  dup2\n  mstore\n  0x20\n  add\n  swap2\n  pop\ntag_53:\n  pop\n  swap7\n  pop\n  pop\n  pop\n  pop\n  pop\n  pop\n  pop\n  0x20\n  mload(0x40)\n  dup1\n  dup4\n  sub\n  dup2\n  0x00\n  dup8\n  dup1\n  extcodesize\n  iszero\n    /* \"--CODEGEN--\":8:17   */\n  dup1\n    /* \"--CODEGEN--\":5:7   */\n  iszero\n  tag_54\n  jumpi\n    /* \"--CODEGEN--\":30:31   */\n  0x00\n    /* \"--CODEGEN--\":27:28   */\n  dup1\n    /* \"--CODEGEN--\":20:32   */\n  revert\n    /* \"--CODEGEN--\":5:7   */\ntag_54:\n    /* \"https://github.com/OpenZeppelin/openzeppelin-contracts/blob/v3.2.0/contracts/token/ERC1155/ERC1155.sol\":12783:12855  IERC1155Receiver(to).onERC1155Received(operator, from, id, amount, data) */\n  pop\n  gas\n  call\n  swap3\n  pop\n  pop\n  pop\n  dup1\n  iszero\n  tag_55\n  jumpi\n  pop\n  mload(0x40)\n  returndatasize\n    /* \"--CODEGEN--\":13:15   */\n  0x20\n    /* \"--CODEGEN--\":8:11   */\n  dup2\n    /* \"--CODEGEN--\":5:16   */\n  lt\n    /* \"--CODEGEN--\":2:4   */\n  iszero\n  tag_56\n  jumpi\n    /* \"--CODEGEN--\":29:30   */\n  0x00\n    /* \"--CODEGEN--\":26:27   */\n  dup1\n    /* \"--CODEGEN--\":19:31   */\n  revert\n    /* \"--CODEGEN--\":2:4   */\ntag_56:\n    /* \"https://github.com/OpenZeppelin/openzeppelin-contracts/blob/v3.2.0/contracts/token/ERC1155/ERC1155.sol\":12783:12855  IERC1155Receiver(to).onERC1155Received(operator, from, id, amount, data) */\n  dup2\n  add\n  swap1\n  dup1\n  dup1\n  mload\n  swap1\n  0x20\n  add\n  swap1\n  swap3\n  swap2\n  swap1\n  pop\n  pop\n  pop\n  0x01\ntag_55:\n    /* \"https://github.com/OpenZeppelin/openzeppelin-contracts/blob/v3.2.0/contracts/token/ERC1155/ERC1155.sol\":12779:13254  try IERC1155Receiver(to).onERC1155Received(operator, from, id, amount, data) returns (bytes4 response) {... */\n  tag_57\n  jumpi\n  0x00\n    /* \"--CODEGEN--\":20:24   */\n  0x40\n    /* \"--CODEGEN--\":14:25   */\n  mload\n    /* \"--CODEGEN--\":6:25   */\n  swap1\n  pop\n    /* \"--CODEGEN--\":43:44   */\n  0x00\n    /* \"--CODEGEN--\":37:41   */\n  dup2\n    /* \"--CODEGEN--\":30:45   */\n  mstore\n    /* \"--CODEGEN--\":57:58   */\n  0x01\n    /* \"--CODEGEN--\":50:780   */\n  iszero\n  tag_62\n  jumpi\n    /* \"--CODEGEN--\":93:97   */\n  0x44\n    /* \"--CODEGEN--\":75:91   */\n  returndatasize\n    /* \"--CODEGEN--\":72:98   */\n  lt\n    /* \"--CODEGEN--\":69:71   */\n  iszero\n  tag_63\n  jumpi\n    /* \"--CODEGEN--\":109:110   */\n  0x00\n    /* \"--CODEGEN--\":101:110   */\n  swap1\n  pop\n    /* \"--CODEGEN--\":111:116   */\n  jump(tag_62)\n    /* \"--CODEGEN--\":69:71   */\ntag_63:\n    /* \"--CODEGEN--\":145:146   */\n  0x04\n    /* \"--CODEGEN--\":142:143   */\n  0x00\n    /* \"--CODEGEN--\":139:140   */\n  dup1\n    /* \"--CODEGEN--\":124:147   */\n  returndatacopy\n    /* \"--CODEGEN--\":179:180   */\n  0x00\n    /* \"--CODEGEN--\":173:181   */\n  mload\n    /* \"--CODEGEN--\":168:171   */\n  0xe0\n    /* \"--CODEGEN--\":164:182   */\n  shr\n    /* \"--CODEGEN--\":206:216   */\n  0x08c379a0\n    /* \"--CODEGEN--\":201:204   */\n  dup2\n    /* \"--CODEGEN--\":198:217   */\n  eq\n    /* \"--CODEGEN--\":188:190   */\n  tag_64\n  jumpi\n    /* \"--CODEGEN--\":229:230   */\n  0x00\n    /* \"--CODEGEN--\":221:230   */\n  swap2\n  pop\n    /* \"--CODEGEN--\":231:236   */\n  pop\n  jump(tag_62)\n    /* \"--CODEGEN--\":188:190   */\ntag_64:\n    /* \"--CODEGEN--\":290:291   */\n  0x04\n    /* \"--CODEGEN--\":272:288   */\n  returndatasize\n    /* \"--CODEGEN--\":268:292   */\n  sub\n    /* \"--CODEGEN--\":265:266   */\n  0x04\n    /* \"--CODEGEN--\":259:263   */\n  dup4\n    /* \"--CODEGEN--\":244:293   */\n  returndatacopy\n    /* \"--CODEGEN--\":319:323   */\n  dup2\n    /* \"--CODEGEN--\":313:324   */\n  mload\n    /* \"--CODEGEN--\":403:419   */\n  returndatasize\n    /* \"--CODEGEN--\":396:400   */\n  0x24\n    /* \"--CODEGEN--\":388:394   */\n  dup3\n    /* \"--CODEGEN--\":384:401   */\n  add\n    /* \"--CODEGEN--\":381:420   */\n  gt\n    /* \"--CODEGEN--\":354:372   */\n  0xffffffffffffffff\n    /* \"--CODEGEN--\":346:352   */\n  dup3\n    /* \"--CODEGEN--\":343:373   */\n  gt\n    /* \"--CODEGEN--\":333:427   */\n  or\n    /* \"--CODEGEN--\":330:332   */\n  iszero\n  tag_65\n  jumpi\n    /* \"--CODEGEN--\":444:445   */\n  0x00\n    /* \"--CODEGEN--\":436:445   */\n  swap3\n  pop\n    /* \"--CODEGEN--\":452:457   */\n  pop\n  pop\n  jump(tag_62)\n    /* \"--CODEGEN--\":330:332   */\ntag_65:\n    /* \"--CODEGEN--\":491:497   */\n  dup1\n    /* \"--CODEGEN--\":485:489   */\n  dup4\n    /* \"--CODEGEN--\":481:498   */\n  add\n    /* \"--CODEGEN--\":524:527   */\n  dup1\n    /* \"--CODEGEN--\":518:528   */\n  mload\n    /* \"--CODEGEN--\":548:566   */\n  0xffffffffffffffff\n    /* \"--CODEGEN--\":540:546   */\n  dup2\n    /* \"--CODEGEN--\":537:567   */\n  gt\n    /* \"--CODEGEN--\":534:536   */\n  iszero\n  tag_66\n  jumpi\n    /* \"--CODEGEN--\":578:579   */\n  0x00\n    /* \"--CODEGEN--\":570:579   */\n  swap5\n  pop\n    /* \"--CODEGEN--\":580:585   */\n  pop\n  pop\n  pop\n  pop\n  jump(tag_62)\n    /* \"--CODEGEN--\":534:536   */\ntag_66:\n    /* \"--CODEGEN--\":624:630   */\n  dup1\n    /* \"--CODEGEN--\":617:621   */\n  0x20\n    /* \"--CODEGEN--\":612:615   */\n  dup4\n    /* \"--CODEGEN--\":608:622   */\n  add\n    /* \"--CODEGEN--\":604:631   */\n  add\n    /* \"--CODEGEN--\":658:674   */\n  returndatasize\n    /* \"--CODEGEN--\":652:656   */\n  dup7\n    /* \"--CODEGEN--\":648:675   */\n  add\n    /* \"--CODEGEN--\":643:646   */\n  dup2\n    /* \"--CODEGEN--\":640:676   */\n  gt\n    /* \"--CODEGEN--\":637:639   */\n  iszero\n  tag_67\n  jumpi\n    /* \"--CODEGEN--\":687:688   */\n  0x00\n    /* \"--CODEGEN--\":679:688   */\n  swap6\n  pop\n    /* \"--CODEGEN--\":689:694   */\n  pop\n  pop\n  pop\n  pop\n  pop\n  jump(tag_62)\n    /* \"--CODEGEN--\":637:639   */\ntag_67:\n    /* \"--CODEGEN--\":739:743   */\n  0x1f\n    /* \"--CODEGEN--\":735:744   */\n  not\n    /* \"--CODEGEN--\":728:732   */\n  0x1f\n    /* \"--CODEGEN--\":723:726   */\n  dup3\n    /* \"--CODEGEN--\":719:733   */\n  add\n    /* \"--CODEGEN--\":715:745   */\n  and\n    /* \"--CODEGEN--\":709:713   */\n  0x40\n    /* \"--CODEGEN--\":702:746   */\n  mstore\n    /* \"--CODEGEN--\":760:763   */\n  dup3\n    /* \"--CODEGEN--\":752:763   */\n  swap6\n  pop\n    /* \"--CODEGEN--\":769:774   */\n  pop\n  pop\n  pop\n  pop\n  pop\n    /* \"--CODEGEN--\":50:780   */\ntag_62:\n    /* \"https://github.com/OpenZeppelin/openzeppelin-contracts/blob/v3.2.0/contracts/token/ERC1155/ERC1155.sol\":12779:13254  try IERC1155Receiver(to).onERC1155Received(operator, from, id, amount, data) returns (bytes4 response) {... */\n  dup1\n  tag_68\n  jumpi\n  pop\n  jump(tag_59)\ntag_68:\n    /* \"https://github.com/OpenZeppelin/openzeppelin-contracts/blob/v3.2.0/contracts/token/ERC1155/ERC1155.sol\":13130:13136  reason */\n  dup1\n    /* \"https://github.com/OpenZeppelin/openzeppelin-contracts/blob/v3.2.0/contracts/token/ERC1155/ERC1155.sol\":13123:13137  revert(reason) */\n  mload(0x40)\n  0x08c379a000000000000000000000000000000000000000000000000000000000\n  dup2\n  mstore\n  0x04\n  add\n  dup1\n  dup1\n  0x20\n  add\n  dup3\n  dup2\n  sub\n  dup3\n  mstore\n  dup4\n  dup2\n  dup2\n  mload\n  dup2\n  mstore\n  0x20\n  add\n  swap2\n  pop\n  dup1\n  mload\n  swap1\n  0x20\n  add\n  swap1\n  dup1\n  dup4\n  dup4\n    /* \"--CODEGEN--\":23:24   */\n  0x00\n    /* \"--CODEGEN--\":8:108   */\ntag_69:\n    /* \"--CODEGEN--\":33:36   */\n  dup4\n    /* \"--CODEGEN--\":30:31   */\n  dup2\n    /* \"--CODEGEN--\":27:37   */\n  lt\n    /* \"--CODEGEN--\":8:108   */\n  iszero\n  tag_71\n  jumpi\n    /* \"--CODEGEN--\":99:100   */\n  dup1\n    /* \"--CODEGEN--\":94:97   */\n  dup3\n    /* \"--CODEGEN--\":90:101   */\n  add\n    /* \"--CODEGEN--\":84:102   */\n  mload\n    /* \"--CODEGEN--\":80:81   */\n  dup2\n    /* \"--CODEGEN--\":75:78   */\n  dup5\n    /* \"--CODEGEN--\":71:82   */\n  add\n    /* \"--CODEGEN--\":64:103   */\n  mstore\n    /* \"--CODEGEN--\":52:54   */\n  0x20\n    /* \"--CODEGEN--\":49:50   */\n  dup2\n    /* \"--CODEGEN--\":45:55   */\n  add\n    /* \"--CODEGEN--\":40:55   */\n  swap1\n  pop\n    /* \"--CODEGEN--\":8:108   */\n  jump(tag_69)\ntag_71:\n    /* \"--CODEGEN--\":12:26   */\n  pop\n    /* \"https://github.com/OpenZeppelin/openzeppelin-contracts/blob/v3.2.0/contracts/token/ERC1155/ERC1155.sol\":13123:13137  revert(reason) */\n  pop\n  pop\n  pop\n  swap1\n  pop\n  swap1\n  dup2\n  add\n  swap1\n  0x1f\n  and\n  dup1\n  iszero\n  tag_72\n  jumpi\n  dup1\n  dup3\n  sub\n  dup1\n  mload\n  0x01\n  dup4\n  0x20\n  sub\n  0x0100\n  exp\n  sub\n  not\n  and\n  dup2\n  mstore\n  0x20\n  add\n  swap2\n  pop\ntag_72:\n  pop\n  swap3\n  pop\n  pop\n  pop\n  mload(0x40)\n  dup1\n  swap2\n  sub\n  swap1\n  revert\n    /* \"https://github.com/OpenZeppelin/openzeppelin-contracts/blob/v3.2.0/contracts/token/ERC1155/ERC1155.sol\":12779:13254  try IERC1155Receiver(to).onERC1155Received(operator, from, id, amount, data) returns (bytes4 response) {... */\ntag_59:\n    /* \"https://github.com/OpenZeppelin/openzeppelin-contracts/blob/v3.2.0/contracts/token/ERC1155/ERC1155.sol\":13177:13239  revert(\"ERC1155: transfer to non ERC1155Receiver implementer\") */\n  mload(0x40)\n  0x08c379a000000000000000000000000000000000000000000000000000000000\n  dup2\n  mstore\n  0x04\n  add\n  dup1\n  dup1\n  0x20\n  add\n  dup3\n  dup2\n  sub\n  dup3\n  mstore\n  0x34\n  dup2\n  mstore\n  0x20\n  add\n  dup1\n  data_00aa752fb1526000e5241602affc3d70ef506da48a27ea57140102b439e655ed\n  0x34\n  swap2\n  codecopy\n  0x40\n  add\n  swap2\n  pop\n  pop\n  mload(0x40)\n  dup1\n  swap2\n  sub\n  swap1\n  revert\n    /* \"https://github.com/OpenZeppelin/openzeppelin-contracts/blob/v3.2.0/contracts/token/ERC1155/ERC1155.sol\":12779:13254  try IERC1155Receiver(to).onERC1155Received(operator, from, id, amount, data) returns (bytes4 response) {... */\ntag_57:\n    /* \"https://github.com/OpenZeppelin/openzeppelin-contracts/blob/v3.2.0/contracts/token/ERC1155/ERC1155.sol\":12916:12963  IERC1155Receiver(to).onERC1155Received.selector */\n  shl(0xe0, 0xf23a6e61)\n    /* \"https://github.com/OpenZeppelin/openzeppelin-contracts/blob/v3.2.0/contracts/token/ERC1155/ERC1155.sol\":12904:12963  response != IERC1155Receiver(to).onERC1155Received.selector */\n  not(0xffffffffffffffffffffffffffffffffffffffffffffffffffffffff)\n  and\n    /* \"https://github.com/OpenZeppelin/openzeppelin-contracts/blob/v3.2.0/contracts/token/ERC1155/ERC1155.sol\":12904:12912  response */\n  dup2\n    /* \"https://github.com/OpenZeppelin/openzeppelin-contracts/blob/v3.2.0/contracts/token/ERC1155/ERC1155.sol\":12904:12963  response != IERC1155Receiver(to).onERC1155Received.selector */\n  not(0xffffffffffffffffffffffffffffffffffffffffffffffffffffffff)\n  and\n  eq\n    /* \"https://github.com/OpenZeppelin/openzeppelin-contracts/blob/v3.2.0/contracts/token/ERC1155/ERC1155.sol\":12900:13056  if (response != IERC1155Receiver(to).onERC1155Received.selector) {... */\n  tag_74\n  jumpi\n    /* \"https://github.com/OpenZeppelin/openzeppelin-contracts/blob/v3.2.0/contracts/token/ERC1155/ERC1155.sol\":12987:13037  revert(\"ERC1155: ERC1155Receiver rejected tokens\") */\n  mload(0x40)\n  0x08c379a000000000000000000000000000000000000000000000000000000000\n  dup2\n  mstore\n  0x04\n  add\n  dup1\n  dup1\n  0x20\n  add\n  dup3\n  dup2\n  sub\n  dup3\n  mstore\n  0x28\n  dup2\n  mstore\n  0x20\n  add\n  dup1\n  data_0587cccad73a80a7f013db13c596f4febc1968dc77e1d3589d5e7a509a3d6503\n  0x28\n  swap2\n  codecopy\n  0x40\n  add\n  swap2\n  pop\n  pop\n  mload(0x40)\n  dup1\n  swap2\n  sub\n  swap1\n  revert\n    /* \"https://github.com/OpenZeppelin/openzeppelin-contracts/blob/v3.2.0/contracts/token/ERC1155/ERC1155.sol\":12900:13056  if (response != IERC1155Receiver(to).onERC1155Received.selector) {... */\ntag_74:\n    /* \"https://github.com/OpenZeppelin/openzeppelin-contracts/blob/v3.2.0/contracts/token/ERC1155/ERC1155.sol\":12856:13070  returns (bytes4 response) {... */\n  pop\n    /* \"https://github.com/OpenZeppelin/openzeppelin-contracts/blob/v3.2.0/contracts/token/ERC1155/ERC1155.sol\":12744:13264  if (to.isContract()) {... */\ntag_49:\n    /* \"https://github.com/OpenZeppelin/openzeppelin-contracts/blob/v3.2.0/contracts/token/ERC1155/ERC1155.sol\":12529:13270  function _doSafeTransferAcceptanceCheck(... */\n  pop\n  pop\n  pop\n  pop\n  pop\n  pop\n  jump\t// out\n    /* \"https://github.com/OpenZeppelin/openzeppelin-contracts/blob/v3.2.0/contracts/utils/Address.sol\":718:1131  function isContract(address account) internal view returns (bool) {... */\ntag_48:\n    /* \"https://github.com/OpenZeppelin/openzeppelin-contracts/blob/v3.2.0/contracts/utils/Address.sol\":778:782  bool */\n  0x00\n    /* \"https://github.com/OpenZeppelin/openzeppelin-contracts/blob/v3.2.0/contracts/utils/Address.sol\":981:993  uint256 size */\n  dup1\n    /* \"https://github.com/OpenZeppelin/openzeppelin-contracts/blob/v3.2.0/contracts/utils/Address.sol\":1090:1097  account */\n  dup3\n    /* \"https://github.com/OpenZeppelin/openzeppelin-contracts/blob/v3.2.0/contracts/utils/Address.sol\":1078:1098  extcodesize(account) */\n  extcodesize\n    /* \"https://github.com/OpenZeppelin/openzeppelin-contracts/blob/v3.2.0/contracts/utils/Address.sol\":1070:1098  size := extcodesize(account) */\n  swap1\n  pop\n    /* \"https://github.com/OpenZeppelin/openzeppelin-contracts/blob/v3.2.0/contracts/utils/Address.sol\":1123:1124  0 */\n  0x00\n    /* \"https://github.com/OpenZeppelin/openzeppelin-contracts/blob/v3.2.0/contracts/utils/Address.sol\":1116:1120  size */\n  dup2\n    /* \"https://github.com/OpenZeppelin/openzeppelin-contracts/blob/v3.2.0/contracts/utils/Address.sol\":1116:1124  size > 0 */\n  gt\n    /* \"https://github.com/OpenZeppelin/openzeppelin-contracts/blob/v3.2.0/contracts/utils/Address.sol\":1109:1124  return size > 0 */\n  swap2\n  pop\n  pop\n    /* \"https://github.com/OpenZeppelin/openzeppelin-contracts/blob/v3.2.0/contracts/utils/Address.sol\":718:1131  function isContract(address account) internal view returns (bool) {... */\n  swap2\n  swap1\n  pop\n  jump\t// out\n    /* \"ERC1155.sol\":204:794  contract GameItems is ERC1155 {\r... */\ntag_25:\n  dup3\n  dup1\n  sload\n  0x01\n  dup2\n  0x01\n  and\n  iszero\n  0x0100\n  mul\n  sub\n  and\n  0x02\n  swap1\n  div\n  swap1\n  0x00\n  mstore\n  keccak256(0x00, 0x20)\n  swap1\n  0x1f\n  add\n  0x20\n  swap1\n  div\n  dup2\n  add\n  swap3\n  dup3\n  0x1f\n  lt\n  tag_77\n  jumpi\n  dup1\n  mload\n  not(0xff)\n  and\n  dup4\n  dup1\n  add\n  or\n  dup6\n  sstore\n  jump(tag_76)\ntag_77:\n  dup3\n  dup1\n  add\n  0x01\n  add\n  dup6\n  sstore\n  dup3\n  iszero\n  tag_76\n  jumpi\n  swap2\n  dup3\n  add\ntag_78:\n  dup3\n  dup2\n  gt\n  iszero\n  tag_79\n  jumpi\n  dup3\n  mload\n  dup3\n  sstore\n  swap2\n  0x20\n  add\n  swap2\n  swap1\n  0x01\n  add\n  swap1\n  jump(tag_78)\ntag_79:\ntag_76:\n  pop\n  swap1\n  pop\n  tag_80\n  swap2\n  swap1\n  tag_81\n  jump\t// in\ntag_80:\n  pop\n  swap1\n  jump\t// out\ntag_81:\n  tag_82\n  swap2\n  swap1\ntag_83:\n  dup1\n  dup3\n  gt\n  iszero\n  tag_84\n  jumpi\n  0x00\n  dup2\n  0x00\n  swap1\n  sstore\n  pop\n  0x01\n  add\n  jump(tag_83)\ntag_84:\n  pop\n  swap1\n  jump\ntag_82:\n  swap1\n  jump\t// out\ntag_20:\n  dataSize(sub_0)\n  dup1\n  dataOffset(sub_0)\n  0x00\n  codecopy\n  0x00\n  return\nstop\ndata_00aa752fb1526000e5241602affc3d70ef506da48a27ea57140102b439e655ed 455243313135353a207472616e7366657220746f206e6f6e2045524331313535526563656976657220696d706c656d656e746572\ndata_0587cccad73a80a7f013db13c596f4febc1968dc77e1d3589d5e7a509a3d6503 455243313135353a204552433131353552656365697665722072656a656374656420746f6b656e73\ndata_3fe3d9245796ae3f66210b6549bb463a5ed2dd5deb86674e732053186f957f6f 697066733a2f2f516d5a394a513477513739376b39367350676333314e46563851664a71413277577068743774687a5569335035442f7b69647d2e6a736f6e\ndata_ebf031a1b7ee1d0b3a7752b450a3268e8b6c334561b48c1c0ba0f5bac05749f2 455243313135353a206d696e7420746f20746865207a65726f2061646472657373\n\nsub_0: assembly {\n        /* \"ERC1155.sol\":204:794  contract GameItems is ERC1155 {\r... */\n      mstore(0x40, 0x80)\n      callvalue\n        /* \"--CODEGEN--\":8:17   */\n      dup1\n        /* \"--CODEGEN--\":5:7   */\n      iszero\n      tag_1\n      jumpi\n        /* \"--CODEGEN--\":30:31   */\n      0x00\n        /* \"--CODEGEN--\":27:28   */\n      dup1\n        /* \"--CODEGEN--\":20:32   */\n      revert\n        /* \"--CODEGEN--\":5:7   */\n    tag_1:\n        /* \"ERC1155.sol\":204:794  contract GameItems is ERC1155 {\r... */\n      pop\n      jumpi(tag_2, lt(calldatasize, 0x04))\n      shr(0xe0, calldataload(0x00))\n      dup1\n      0x4e1273f4\n      gt\n      tag_16\n      jumpi\n      dup1\n      0xd562e204\n      gt\n      tag_17\n      jumpi\n      dup1\n      0xd562e204\n      eq\n      tag_12\n      jumpi\n      dup1\n      0xe3e55f08\n      eq\n      tag_13\n      jumpi\n      dup1\n      0xe985e9c5\n      eq\n      tag_14\n      jumpi\n      dup1\n      0xf242432a\n      eq\n      tag_15\n      jumpi\n      jump(tag_2)\n    tag_17:\n      dup1\n      0x4e1273f4\n      eq\n      tag_9\n      jumpi\n      dup1\n      0x5b2725ed\n      eq\n      tag_10\n      jumpi\n      dup1\n      0xa22cb465\n      eq\n      tag_11\n      jumpi\n      jump(tag_2)\n    tag_16:\n      dup1\n      0xfdd58e\n      eq\n      tag_3\n      jumpi\n      dup1\n      0x01ffc9a7\n      eq\n      tag_4\n      jumpi\n      dup1\n      0x0e89341c\n      eq\n      tag_5\n      jumpi\n      dup1\n      0x13dc989f\n      eq\n      tag_6\n      jumpi\n      dup1\n      0x2eb2c2d6\n      eq\n      tag_7\n      jumpi\n      dup1\n      0x3e4bee38\n      eq\n      tag_8\n      jumpi\n    tag_2:\n      0x00\n      dup1\n      revert\n        /* \"https://github.com/OpenZeppelin/openzeppelin-contracts/blob/v3.2.0/contracts/token/ERC1155/ERC1155.sol\":2956:3176  function balanceOf(address account, uint256 id) public view override returns (uint256) {... */\n    tag_3:\n      tag_18\n      0x04\n      dup1\n      calldatasize\n      sub\n        /* \"--CODEGEN--\":13:15   */\n      0x40\n        /* \"--CODEGEN--\":8:11   */\n      dup2\n        /* \"--CODEGEN--\":5:16   */\n      lt\n        /* \"--CODEGEN--\":2:4   */\n      iszero\n      tag_19\n      jumpi\n        /* \"--CODEGEN--\":29:30   */\n      0x00\n        /* \"--CODEGEN--\":26:27   */\n      dup1\n        /* \"--CODEGEN--\":19:31   */\n      revert\n        /* \"--CODEGEN--\":2:4   */\n    tag_19:\n        /* \"https://github.com/OpenZeppelin/openzeppelin-contracts/blob/v3.2.0/contracts/token/ERC1155/ERC1155.sol\":2956:3176  function balanceOf(address account, uint256 id) public view override returns (uint256) {... */\n      dup2\n      add\n      swap1\n      dup1\n      dup1\n      calldataload\n      0xffffffffffffffffffffffffffffffffffffffff\n      and\n      swap1\n      0x20\n      add\n      swap1\n      swap3\n      swap2\n      swap1\n      dup1\n      calldataload\n      swap1\n      0x20\n      add\n      swap1\n      swap3\n      swap2\n      swap1\n      pop\n      pop\n      pop\n      tag_20\n      jump\t// in\n    tag_18:\n      mload(0x40)\n      dup1\n      dup3\n      dup2\n      mstore\n      0x20\n      add\n      swap2\n      pop\n      pop\n      mload(0x40)\n      dup1\n      swap2\n      sub\n      swap1\n      return\n        /* \"https://github.com/OpenZeppelin/openzeppelin-contracts/blob/v3.2.0/contracts/introspection/ERC165.sol\":948:1088  function supportsInterface(bytes4 interfaceId) public view override returns (bool) {... */\n    tag_4:\n      tag_21\n      0x04\n      dup1\n      calldatasize\n      sub\n        /* \"--CODEGEN--\":13:15   */\n      0x20\n        /* \"--CODEGEN--\":8:11   */\n      dup2\n        /* \"--CODEGEN--\":5:16   */\n      lt\n        /* \"--CODEGEN--\":2:4   */\n      iszero\n      tag_22\n      jumpi\n        /* \"--CODEGEN--\":29:30   */\n      0x00\n        /* \"--CODEGEN--\":26:27   */\n      dup1\n        /* \"--CODEGEN--\":19:31   */\n      revert\n        /* \"--CODEGEN--\":2:4   */\n    tag_22:\n        /* \"https://github.com/OpenZeppelin/openzeppelin-contracts/blob/v3.2.0/contracts/introspection/ERC165.sol\":948:1088  function supportsInterface(bytes4 interfaceId) public view override returns (bool) {... */\n      dup2\n      add\n      swap1\n      dup1\n      dup1\n      calldataload\n      not(0xffffffffffffffffffffffffffffffffffffffffffffffffffffffff)\n      and\n      swap1\n      0x20\n      add\n      swap1\n      swap3\n      swap2\n      swap1\n      pop\n      pop\n      pop\n      tag_23\n      jump\t// in\n    tag_21:\n      mload(0x40)\n      dup1\n      dup3\n      iszero\n      iszero\n      iszero\n      iszero\n      dup2\n      mstore\n      0x20\n      add\n      swap2\n      pop\n      pop\n      mload(0x40)\n      dup1\n      swap2\n      sub\n      swap1\n      return\n        /* \"https://github.com/OpenZeppelin/openzeppelin-contracts/blob/v3.2.0/contracts/token/ERC1155/ERC1155.sol\":2717:2814  function uri(uint256) external view override returns (string memory) {... */\n    tag_5:\n      tag_24\n      0x04\n      dup1\n      calldatasize\n      sub\n        /* \"--CODEGEN--\":13:15   */\n      0x20\n        /* \"--CODEGEN--\":8:11   */\n      dup2\n        /* \"--CODEGEN--\":5:16   */\n      lt\n        /* \"--CODEGEN--\":2:4   */\n      iszero\n      tag_25\n      jumpi\n        /* \"--CODEGEN--\":29:30   */\n      0x00\n        /* \"--CODEGEN--\":26:27   */\n      dup1\n        /* \"--CODEGEN--\":19:31   */\n      revert\n        /* \"--CODEGEN--\":2:4   */\n    tag_25:\n        /* \"https://github.com/OpenZeppelin/openzeppelin-contracts/blob/v3.2.0/contracts/token/ERC1155/ERC1155.sol\":2717:2814  function uri(uint256) external view override returns (string memory) {... */\n      dup2\n      add\n      swap1\n      dup1\n      dup1\n      calldataload\n      swap1\n      0x20\n      add\n      swap1\n      swap3\n      swap2\n      swap1\n      pop\n      pop\n      pop\n      tag_26\n      jump\t// in\n    tag_24:\n      mload(0x40)\n      dup1\n      dup1\n      0x20\n      add\n      dup3\n      dup2\n      sub\n      dup3\n      mstore\n      dup4\n      dup2\n      dup2\n      mload\n      dup2\n      mstore\n      0x20\n      add\n      swap2\n      pop\n      dup1\n      mload\n      swap1\n      0x20\n      add\n      swap1\n      dup1\n      dup4\n      dup4\n        /* \"--CODEGEN--\":23:24   */\n      0x00\n        /* \"--CODEGEN--\":8:108   */\n    tag_27:\n        /* \"--CODEGEN--\":33:36   */\n      dup4\n        /* \"--CODEGEN--\":30:31   */\n      dup2\n        /* \"--CODEGEN--\":27:37   */\n      lt\n        /* \"--CODEGEN--\":8:108   */\n      iszero\n      tag_29\n      jumpi\n        /* \"--CODEGEN--\":99:100   */\n      dup1\n        /* \"--CODEGEN--\":94:97   */\n      dup3\n        /* \"--CODEGEN--\":90:101   */\n      add\n        /* \"--CODEGEN--\":84:102   */\n      mload\n        /* \"--CODEGEN--\":80:81   */\n      dup2\n        /* \"--CODEGEN--\":75:78   */\n      dup5\n        /* \"--CODEGEN--\":71:82   */\n      add\n        /* \"--CODEGEN--\":64:103   */\n      mstore\n        /* \"--CODEGEN--\":52:54   */\n      0x20\n        /* \"--CODEGEN--\":49:50   */\n      dup2\n        /* \"--CODEGEN--\":45:55   */\n      add\n        /* \"--CODEGEN--\":40:55   */\n      swap1\n      pop\n        /* \"--CODEGEN--\":8:108   */\n      jump(tag_27)\n    tag_29:\n        /* \"--CODEGEN--\":12:26   */\n      pop\n        /* \"https://github.com/OpenZeppelin/openzeppelin-contracts/blob/v3.2.0/contracts/token/ERC1155/ERC1155.sol\":2717:2814  function uri(uint256) external view override returns (string memory) {... */\n      pop\n      pop\n      pop\n      swap1\n      pop\n      swap1\n      dup2\n      add\n      swap1\n      0x1f\n      and\n      dup1\n      iszero\n      tag_30\n      jumpi\n      dup1\n      dup3\n      sub\n      dup1\n      mload\n      0x01\n      dup4\n      0x20\n      sub\n      0x0100\n      exp\n      sub\n      not\n      and\n      dup2\n      mstore\n      0x20\n      add\n      swap2\n      pop\n    tag_30:\n      pop\n      swap3\n      pop\n      pop\n      pop\n      mload(0x40)\n      dup1\n      swap2\n      sub\n      swap1\n      return\n        /* \"ERC1155.sol\":368:401  uint256 public constant SWORD = 3 */\n    tag_6:\n      tag_31\n      tag_32\n      jump\t// in\n    tag_31:\n      mload(0x40)\n      dup1\n      dup3\n      dup2\n      mstore\n      0x20\n      add\n      swap2\n      pop\n      pop\n      mload(0x40)\n      dup1\n      swap2\n      sub\n      swap1\n      return\n        /* \"https://github.com/OpenZeppelin/openzeppelin-contracts/blob/v3.2.0/contracts/token/ERC1155/ERC1155.sol\":5583:6767  function safeBatchTransferFrom(... */\n    tag_7:\n      tag_33\n      0x04\n      dup1\n      calldatasize\n      sub\n        /* \"--CODEGEN--\":13:16   */\n      0xa0\n        /* \"--CODEGEN--\":8:11   */\n      dup2\n        /* \"--CODEGEN--\":5:17   */\n      lt\n        /* \"--CODEGEN--\":2:4   */\n      iszero\n      tag_34\n      jumpi\n        /* \"--CODEGEN--\":30:31   */\n      0x00\n        /* \"--CODEGEN--\":27:28   */\n      dup1\n        /* \"--CODEGEN--\":20:32   */\n      revert\n        /* \"--CODEGEN--\":2:4   */\n    tag_34:\n        /* \"https://github.com/OpenZeppelin/openzeppelin-contracts/blob/v3.2.0/contracts/token/ERC1155/ERC1155.sol\":5583:6767  function safeBatchTransferFrom(... */\n      dup2\n      add\n      swap1\n      dup1\n      dup1\n      calldataload\n      0xffffffffffffffffffffffffffffffffffffffff\n      and\n      swap1\n      0x20\n      add\n      swap1\n      swap3\n      swap2\n      swap1\n      dup1\n      calldataload\n      0xffffffffffffffffffffffffffffffffffffffff\n      and\n      swap1\n      0x20\n      add\n      swap1\n      swap3\n      swap2\n      swap1\n      dup1\n      calldataload\n      swap1\n      0x20\n      add\n      swap1\n        /* \"--CODEGEN--\":21:32   */\n      0x0100000000\n        /* \"--CODEGEN--\":8:19   */\n      dup2\n        /* \"--CODEGEN--\":5:33   */\n      gt\n        /* \"--CODEGEN--\":2:4   */\n      iszero\n      tag_35\n      jumpi\n        /* \"--CODEGEN--\":46:47   */\n      0x00\n        /* \"--CODEGEN--\":43:44   */\n      dup1\n        /* \"--CODEGEN--\":36:48   */\n      revert\n        /* \"--CODEGEN--\":2:4   */\n    tag_35:\n        /* \"https://github.com/OpenZeppelin/openzeppelin-contracts/blob/v3.2.0/contracts/token/ERC1155/ERC1155.sol\":5583:6767  function safeBatchTransferFrom(... */\n      dup3\n      add\n        /* \"--CODEGEN--\":35:44   */\n      dup4\n        /* \"--CODEGEN--\":28:32   */\n      0x20\n        /* \"--CODEGEN--\":12:26   */\n      dup3\n        /* \"--CODEGEN--\":8:33   */\n      add\n        /* \"--CODEGEN--\":5:45   */\n      gt\n        /* \"--CODEGEN--\":2:4   */\n      iszero\n      tag_36\n      jumpi\n        /* \"--CODEGEN--\":58:59   */\n      0x00\n        /* \"--CODEGEN--\":55:56   */\n      dup1\n        /* \"--CODEGEN--\":48:60   */\n      revert\n        /* \"--CODEGEN--\":2:4   */\n    tag_36:\n        /* \"https://github.com/OpenZeppelin/openzeppelin-contracts/blob/v3.2.0/contracts/token/ERC1155/ERC1155.sol\":5583:6767  function safeBatchTransferFrom(... */\n      dup1\n      calldataload\n      swap1\n      0x20\n      add\n      swap2\n        /* \"--CODEGEN--\":101:110   */\n      dup5\n        /* \"--CODEGEN--\":95:97   */\n      0x20\n        /* \"--CODEGEN--\":81:93   */\n      dup4\n        /* \"--CODEGEN--\":77:98   */\n      mul\n        /* \"--CODEGEN--\":67:75   */\n      dup5\n        /* \"--CODEGEN--\":63:99   */\n      add\n        /* \"--CODEGEN--\":60:111   */\n      gt\n        /* \"--CODEGEN--\":39:50   */\n      0x0100000000\n        /* \"--CODEGEN--\":25:37   */\n      dup4\n        /* \"--CODEGEN--\":22:51   */\n      gt\n        /* \"--CODEGEN--\":11:119   */\n      or\n        /* \"--CODEGEN--\":8:10   */\n      iszero\n      tag_37\n      jumpi\n        /* \"--CODEGEN--\":132:133   */\n      0x00\n        /* \"--CODEGEN--\":129:130   */\n      dup1\n        /* \"--CODEGEN--\":122:134   */\n      revert\n        /* \"--CODEGEN--\":8:10   */\n    tag_37:\n        /* \"https://github.com/OpenZeppelin/openzeppelin-contracts/blob/v3.2.0/contracts/token/ERC1155/ERC1155.sol\":5583:6767  function safeBatchTransferFrom(... */\n      swap2\n      swap1\n      dup1\n      dup1\n      0x20\n      mul\n      0x20\n      add\n      mload(0x40)\n      swap1\n      dup2\n      add\n      0x40\n      mstore\n      dup1\n      swap4\n      swap3\n      swap2\n      swap1\n      dup2\n      dup2\n      mstore\n      0x20\n      add\n      dup4\n      dup4\n      0x20\n      mul\n        /* \"--CODEGEN--\":30:33   */\n      dup1\n        /* \"--CODEGEN--\":22:28   */\n      dup3\n        /* \"--CODEGEN--\":14:20   */\n      dup5\n        /* \"--CODEGEN--\":1:34   */\n      calldatacopy\n        /* \"--CODEGEN--\":99:100   */\n      0x00\n        /* \"--CODEGEN--\":93:96   */\n      dup2\n        /* \"--CODEGEN--\":85:91   */\n      dup5\n        /* \"--CODEGEN--\":81:97   */\n      add\n        /* \"--CODEGEN--\":74:101   */\n      mstore\n        /* \"--CODEGEN--\":137:141   */\n      0x1f\n        /* \"--CODEGEN--\":133:142   */\n      not\n        /* \"--CODEGEN--\":126:130   */\n      0x1f\n        /* \"--CODEGEN--\":121:124   */\n      dup3\n        /* \"--CODEGEN--\":117:131   */\n      add\n        /* \"--CODEGEN--\":113:143   */\n      and\n        /* \"--CODEGEN--\":106:143   */\n      swap1\n      pop\n        /* \"--CODEGEN--\":169:172   */\n      dup1\n        /* \"--CODEGEN--\":161:167   */\n      dup4\n        /* \"--CODEGEN--\":157:173   */\n      add\n        /* \"--CODEGEN--\":147:173   */\n      swap3\n      pop\n        /* \"https://github.com/OpenZeppelin/openzeppelin-contracts/blob/v3.2.0/contracts/token/ERC1155/ERC1155.sol\":5583:6767  function safeBatchTransferFrom(... */\n      pop\n      pop\n      pop\n      pop\n      pop\n      pop\n      swap2\n      swap3\n      swap2\n      swap3\n      swap1\n      dup1\n      calldataload\n      swap1\n      0x20\n      add\n      swap1\n        /* \"--CODEGEN--\":21:32   */\n      0x0100000000\n        /* \"--CODEGEN--\":8:19   */\n      dup2\n        /* \"--CODEGEN--\":5:33   */\n      gt\n        /* \"--CODEGEN--\":2:4   */\n      iszero\n      tag_38\n      jumpi\n        /* \"--CODEGEN--\":46:47   */\n      0x00\n        /* \"--CODEGEN--\":43:44   */\n      dup1\n        /* \"--CODEGEN--\":36:48   */\n      revert\n        /* \"--CODEGEN--\":2:4   */\n    tag_38:\n        /* \"https://github.com/OpenZeppelin/openzeppelin-contracts/blob/v3.2.0/contracts/token/ERC1155/ERC1155.sol\":5583:6767  function safeBatchTransferFrom(... */\n      dup3\n      add\n        /* \"--CODEGEN--\":35:44   */\n      dup4\n        /* \"--CODEGEN--\":28:32   */\n      0x20\n        /* \"--CODEGEN--\":12:26   */\n      dup3\n        /* \"--CODEGEN--\":8:33   */\n      add\n        /* \"--CODEGEN--\":5:45   */\n      gt\n        /* \"--CODEGEN--\":2:4   */\n      iszero\n      tag_39\n      jumpi\n        /* \"--CODEGEN--\":58:59   */\n      0x00\n        /* \"--CODEGEN--\":55:56   */\n      dup1\n        /* \"--CODEGEN--\":48:60   */\n      revert\n        /* \"--CODEGEN--\":2:4   */\n    tag_39:\n        /* \"https://github.com/OpenZeppelin/openzeppelin-contracts/blob/v3.2.0/contracts/token/ERC1155/ERC1155.sol\":5583:6767  function safeBatchTransferFrom(... */\n      dup1\n      calldataload\n      swap1\n      0x20\n      add\n      swap2\n        /* \"--CODEGEN--\":101:110   */\n      dup5\n        /* \"--CODEGEN--\":95:97   */\n      0x20\n        /* \"--CODEGEN--\":81:93   */\n      dup4\n        /* \"--CODEGEN--\":77:98   */\n      mul\n        /* \"--CODEGEN--\":67:75   */\n      dup5\n        /* \"--CODEGEN--\":63:99   */\n      add\n        /* \"--CODEGEN--\":60:111   */\n      gt\n        /* \"--CODEGEN--\":39:50   */\n      0x0100000000\n        /* \"--CODEGEN--\":25:37   */\n      dup4\n        /* \"--CODEGEN--\":22:51   */\n      gt\n        /* \"--CODEGEN--\":11:119   */\n      or\n        /* \"--CODEGEN--\":8:10   */\n      iszero\n      tag_40\n      jumpi\n        /* \"--CODEGEN--\":132:133   */\n      0x00\n        /* \"--CODEGEN--\":129:130   */\n      dup1\n        /* \"--CODEGEN--\":122:134   */\n      revert\n        /* \"--CODEGEN--\":8:10   */\n    tag_40:\n        /* \"https://github.com/OpenZeppelin/openzeppelin-contracts/blob/v3.2.0/contracts/token/ERC1155/ERC1155.sol\":5583:6767  function safeBatchTransferFrom(... */\n      swap2\n      swap1\n      dup1\n      dup1\n      0x20\n      mul\n      0x20\n      add\n      mload(0x40)\n      swap1\n      dup2\n      add\n      0x40\n      mstore\n      dup1\n      swap4\n      swap3\n      swap2\n      swap1\n      dup2\n      dup2\n      mstore\n      0x20\n      add\n      dup4\n      dup4\n      0x20\n      mul\n        /* \"--CODEGEN--\":30:33   */\n      dup1\n        /* \"--CODEGEN--\":22:28   */\n      dup3\n        /* \"--CODEGEN--\":14:20   */\n      dup5\n        /* \"--CODEGEN--\":1:34   */\n      calldatacopy\n        /* \"--CODEGEN--\":99:100   */\n      0x00\n        /* \"--CODEGEN--\":93:96   */\n      dup2\n        /* \"--CODEGEN--\":85:91   */\n      dup5\n        /* \"--CODEGEN--\":81:97   */\n      add\n        /* \"--CODEGEN--\":74:101   */\n      mstore\n        /* \"--CODEGEN--\":137:141   */\n      0x1f\n        /* \"--CODEGEN--\":133:142   */\n      not\n        /* \"--CODEGEN--\":126:130   */\n      0x1f\n        /* \"--CODEGEN--\":121:124   */\n      dup3\n        /* \"--CODEGEN--\":117:131   */\n      add\n        /* \"--CODEGEN--\":113:143   */\n      and\n        /* \"--CODEGEN--\":106:143   */\n      swap1\n      pop\n        /* \"--CODEGEN--\":169:172   */\n      dup1\n        /* \"--CODEGEN--\":161:167   */\n      dup4\n        /* \"--CODEGEN--\":157:173   */\n      add\n        /* \"--CODEGEN--\":147:173   */\n      swap3\n      pop\n        /* \"https://github.com/OpenZeppelin/openzeppelin-contracts/blob/v3.2.0/contracts/token/ERC1155/ERC1155.sol\":5583:6767  function safeBatchTransferFrom(... */\n      pop\n      pop\n      pop\n      pop\n      pop\n      pop\n      swap2\n      swap3\n      swap2\n      swap3\n      swap1\n      dup1\n      calldataload\n      swap1\n      0x20\n      add\n      swap1\n        /* \"--CODEGEN--\":21:32   */\n      0x0100000000\n        /* \"--CODEGEN--\":8:19   */\n      dup2\n        /* \"--CODEGEN--\":5:33   */\n      gt\n        /* \"--CODEGEN--\":2:4   */\n      iszero\n      tag_41\n      jumpi\n        /* \"--CODEGEN--\":46:47   */\n      0x00\n        /* \"--CODEGEN--\":43:44   */\n      dup1\n        /* \"--CODEGEN--\":36:48   */\n      revert\n        /* \"--CODEGEN--\":2:4   */\n    tag_41:\n        /* \"https://github.com/OpenZeppelin/openzeppelin-contracts/blob/v3.2.0/contracts/token/ERC1155/ERC1155.sol\":5583:6767  function safeBatchTransferFrom(... */\n      dup3\n      add\n        /* \"--CODEGEN--\":35:44   */\n      dup4\n        /* \"--CODEGEN--\":28:32   */\n      0x20\n        /* \"--CODEGEN--\":12:26   */\n      dup3\n        /* \"--CODEGEN--\":8:33   */\n      add\n        /* \"--CODEGEN--\":5:45   */\n      gt\n        /* \"--CODEGEN--\":2:4   */\n      iszero\n      tag_42\n      jumpi\n        /* \"--CODEGEN--\":58:59   */\n      0x00\n        /* \"--CODEGEN--\":55:56   */\n      dup1\n        /* \"--CODEGEN--\":48:60   */\n      revert\n        /* \"--CODEGEN--\":2:4   */\n    tag_42:\n        /* \"https://github.com/OpenZeppelin/openzeppelin-contracts/blob/v3.2.0/contracts/token/ERC1155/ERC1155.sol\":5583:6767  function safeBatchTransferFrom(... */\n      dup1\n      calldataload\n      swap1\n      0x20\n      add\n      swap2\n        /* \"--CODEGEN--\":100:109   */\n      dup5\n        /* \"--CODEGEN--\":95:96   */\n      0x01\n        /* \"--CODEGEN--\":81:93   */\n      dup4\n        /* \"--CODEGEN--\":77:97   */\n      mul\n        /* \"--CODEGEN--\":67:75   */\n      dup5\n        /* \"--CODEGEN--\":63:98   */\n      add\n        /* \"--CODEGEN--\":60:110   */\n      gt\n        /* \"--CODEGEN--\":39:50   */\n      0x0100000000\n        /* \"--CODEGEN--\":25:37   */\n      dup4\n        /* \"--CODEGEN--\":22:51   */\n      gt\n        /* \"--CODEGEN--\":11:118   */\n      or\n        /* \"--CODEGEN--\":8:10   */\n      iszero\n      tag_43\n      jumpi\n        /* \"--CODEGEN--\":131:132   */\n      0x00\n        /* \"--CODEGEN--\":128:129   */\n      dup1\n        /* \"--CODEGEN--\":121:133   */\n      revert\n        /* \"--CODEGEN--\":8:10   */\n    tag_43:\n        /* \"https://github.com/OpenZeppelin/openzeppelin-contracts/blob/v3.2.0/contracts/token/ERC1155/ERC1155.sol\":5583:6767  function safeBatchTransferFrom(... */\n      swap2\n      swap1\n      dup1\n      dup1\n      0x1f\n      add\n      0x20\n      dup1\n      swap2\n      div\n      mul\n      0x20\n      add\n      mload(0x40)\n      swap1\n      dup2\n      add\n      0x40\n      mstore\n      dup1\n      swap4\n      swap3\n      swap2\n      swap1\n      dup2\n      dup2\n      mstore\n      0x20\n      add\n      dup4\n      dup4\n        /* \"--CODEGEN--\":30:33   */\n      dup1\n        /* \"--CODEGEN--\":22:28   */\n      dup3\n        /* \"--CODEGEN--\":14:20   */\n      dup5\n        /* \"--CODEGEN--\":1:34   */\n      calldatacopy\n        /* \"--CODEGEN--\":99:100   */\n      0x00\n        /* \"--CODEGEN--\":93:96   */\n      dup2\n        /* \"--CODEGEN--\":85:91   */\n      dup5\n        /* \"--CODEGEN--\":81:97   */\n      add\n        /* \"--CODEGEN--\":74:101   */\n      mstore\n        /* \"--CODEGEN--\":137:141   */\n      0x1f\n        /* \"--CODEGEN--\":133:142   */\n      not\n        /* \"--CODEGEN--\":126:130   */\n      0x1f\n        /* \"--CODEGEN--\":121:124   */\n      dup3\n        /* \"--CODEGEN--\":117:131   */\n      add\n        /* \"--CODEGEN--\":113:143   */\n      and\n        /* \"--CODEGEN--\":106:143   */\n      swap1\n      pop\n        /* \"--CODEGEN--\":169:172   */\n      dup1\n        /* \"--CODEGEN--\":161:167   */\n      dup4\n        /* \"--CODEGEN--\":157:173   */\n      add\n        /* \"--CODEGEN--\":147:173   */\n      swap3\n      pop\n        /* \"https://github.com/OpenZeppelin/openzeppelin-contracts/blob/v3.2.0/contracts/token/ERC1155/ERC1155.sol\":5583:6767  function safeBatchTransferFrom(... */\n      pop\n      pop\n      pop\n      pop\n      pop\n      pop\n      swap2\n      swap3\n      swap2\n      swap3\n      swap1\n      pop\n      pop\n      pop\n      tag_44\n      jump\t// in\n    tag_33:\n      stop\n        /* \"ERC1155.sol\":241:273  uint256 public constant GOLD = 0 */\n    tag_8:\n      tag_45\n      tag_46\n      jump\t// in\n    tag_45:\n      mload(0x40)\n      dup1\n      dup3\n      dup2\n      mstore\n      0x20\n      add\n      swap2\n      pop\n      pop\n      mload(0x40)\n      dup1\n      swap2\n      sub\n      swap1\n      return\n        /* \"https://github.com/OpenZeppelin/openzeppelin-contracts/blob/v3.2.0/contracts/token/ERC1155/ERC1155.sol\":3333:3948  function balanceOfBatch(... */\n    tag_9:\n      tag_47\n      0x04\n      dup1\n      calldatasize\n      sub\n        /* \"--CODEGEN--\":13:15   */\n      0x40\n        /* \"--CODEGEN--\":8:11   */\n      dup2\n        /* \"--CODEGEN--\":5:16   */\n      lt\n        /* \"--CODEGEN--\":2:4   */\n      iszero\n      tag_48\n      jumpi\n        /* \"--CODEGEN--\":29:30   */\n      0x00\n        /* \"--CODEGEN--\":26:27   */\n      dup1\n        /* \"--CODEGEN--\":19:31   */\n      revert\n        /* \"--CODEGEN--\":2:4   */\n    tag_48:\n        /* \"https://github.com/OpenZeppelin/openzeppelin-contracts/blob/v3.2.0/contracts/token/ERC1155/ERC1155.sol\":3333:3948  function balanceOfBatch(... */\n      dup2\n      add\n      swap1\n      dup1\n      dup1\n      calldataload\n      swap1\n      0x20\n      add\n      swap1\n        /* \"--CODEGEN--\":21:32   */\n      0x0100000000\n        /* \"--CODEGEN--\":8:19   */\n      dup2\n        /* \"--CODEGEN--\":5:33   */\n      gt\n        /* \"--CODEGEN--\":2:4   */\n      iszero\n      tag_49\n      jumpi\n        /* \"--CODEGEN--\":46:47   */\n      0x00\n        /* \"--CODEGEN--\":43:44   */\n      dup1\n        /* \"--CODEGEN--\":36:48   */\n      revert\n        /* \"--CODEGEN--\":2:4   */\n    tag_49:\n        /* \"https://github.com/OpenZeppelin/openzeppelin-contracts/blob/v3.2.0/contracts/token/ERC1155/ERC1155.sol\":3333:3948  function balanceOfBatch(... */\n      dup3\n      add\n        /* \"--CODEGEN--\":35:44   */\n      dup4\n        /* \"--CODEGEN--\":28:32   */\n      0x20\n        /* \"--CODEGEN--\":12:26   */\n      dup3\n        /* \"--CODEGEN--\":8:33   */\n      add\n        /* \"--CODEGEN--\":5:45   */\n      gt\n        /* \"--CODEGEN--\":2:4   */\n      iszero\n      tag_50\n      jumpi\n        /* \"--CODEGEN--\":58:59   */\n      0x00\n        /* \"--CODEGEN--\":55:56   */\n      dup1\n        /* \"--CODEGEN--\":48:60   */\n      revert\n        /* \"--CODEGEN--\":2:4   */\n    tag_50:\n        /* \"https://github.com/OpenZeppelin/openzeppelin-contracts/blob/v3.2.0/contracts/token/ERC1155/ERC1155.sol\":3333:3948  function balanceOfBatch(... */\n      dup1\n      calldataload\n      swap1\n      0x20\n      add\n      swap2\n        /* \"--CODEGEN--\":101:110   */\n      dup5\n        /* \"--CODEGEN--\":95:97   */\n      0x20\n        /* \"--CODEGEN--\":81:93   */\n      dup4\n        /* \"--CODEGEN--\":77:98   */\n      mul\n        /* \"--CODEGEN--\":67:75   */\n      dup5\n        /* \"--CODEGEN--\":63:99   */\n      add\n        /* \"--CODEGEN--\":60:111   */\n      gt\n        /* \"--CODEGEN--\":39:50   */\n      0x0100000000\n        /* \"--CODEGEN--\":25:37   */\n      dup4\n        /* \"--CODEGEN--\":22:51   */\n      gt\n        /* \"--CODEGEN--\":11:119   */\n      or\n        /* \"--CODEGEN--\":8:10   */\n      iszero\n      tag_51\n      jumpi\n        /* \"--CODEGEN--\":132:133   */\n      0x00\n        /* \"--CODEGEN--\":129:130   */\n      dup1\n        /* \"--CODEGEN--\":122:134   */\n      revert\n        /* \"--CODEGEN--\":8:10   */\n    tag_51:\n        /* \"https://github.com/OpenZeppelin/openzeppelin-contracts/blob/v3.2.0/contracts/token/ERC1155/ERC1155.sol\":3333:3948  function balanceOfBatch(... */\n      swap2\n      swap1\n      dup1\n      dup1\n      0x20\n      mul\n      0x20\n      add\n      mload(0x40)\n      swap1\n      dup2\n      add\n      0x40\n      mstore\n      dup1\n      swap4\n      swap3\n      swap2\n      swap1\n      dup2\n      dup2\n      mstore\n      0x20\n      add\n      dup4\n      dup4\n      0x20\n      mul\n        /* \"--CODEGEN--\":30:33   */\n      dup1\n        /* \"--CODEGEN--\":22:28   */\n      dup3\n        /* \"--CODEGEN--\":14:20   */\n      dup5\n        /* \"--CODEGEN--\":1:34   */\n      calldatacopy\n        /* \"--CODEGEN--\":99:100   */\n      0x00\n        /* \"--CODEGEN--\":93:96   */\n      dup2\n        /* \"--CODEGEN--\":85:91   */\n      dup5\n        /* \"--CODEGEN--\":81:97   */\n      add\n        /* \"--CODEGEN--\":74:101   */\n      mstore\n        /* \"--CODEGEN--\":137:141   */\n      0x1f\n        /* \"--CODEGEN--\":133:142   */\n      not\n        /* \"--CODEGEN--\":126:130   */\n      0x1f\n        /* \"--CODEGEN--\":121:124   */\n      dup3\n        /* \"--CODEGEN--\":117:131   */\n      add\n        /* \"--CODEGEN--\":113:143   */\n      and\n        /* \"--CODEGEN--\":106:143   */\n      swap1\n      pop\n        /* \"--CODEGEN--\":169:172   */\n      dup1\n        /* \"--CODEGEN--\":161:167   */\n      dup4\n        /* \"--CODEGEN--\":157:173   */\n      add\n        /* \"--CODEGEN--\":147:173   */\n      swap3\n      pop\n        /* \"https://github.com/OpenZeppelin/openzeppelin-contracts/blob/v3.2.0/contracts/token/ERC1155/ERC1155.sol\":3333:3948  function balanceOfBatch(... */\n      pop\n      pop\n      pop\n      pop\n      pop\n      pop\n      swap2\n      swap3\n      swap2\n      swap3\n      swap1\n      dup1\n      calldataload\n      swap1\n      0x20\n      add\n      swap1\n        /* \"--CODEGEN--\":21:32   */\n      0x0100000000\n        /* \"--CODEGEN--\":8:19   */\n      dup2\n        /* \"--CODEGEN--\":5:33   */\n      gt\n        /* \"--CODEGEN--\":2:4   */\n      iszero\n      tag_52\n      jumpi\n        /* \"--CODEGEN--\":46:47   */\n      0x00\n        /* \"--CODEGEN--\":43:44   */\n      dup1\n        /* \"--CODEGEN--\":36:48   */\n      revert\n        /* \"--CODEGEN--\":2:4   */\n    tag_52:\n        /* \"https://github.com/OpenZeppelin/openzeppelin-contracts/blob/v3.2.0/contracts/token/ERC1155/ERC1155.sol\":3333:3948  function balanceOfBatch(... */\n      dup3\n      add\n        /* \"--CODEGEN--\":35:44   */\n      dup4\n        /* \"--CODEGEN--\":28:32   */\n      0x20\n        /* \"--CODEGEN--\":12:26   */\n      dup3\n        /* \"--CODEGEN--\":8:33   */\n      add\n        /* \"--CODEGEN--\":5:45   */\n      gt\n        /* \"--CODEGEN--\":2:4   */\n      iszero\n      tag_53\n      jumpi\n        /* \"--CODEGEN--\":58:59   */\n      0x00\n        /* \"--CODEGEN--\":55:56   */\n      dup1\n        /* \"--CODEGEN--\":48:60   */\n      revert\n        /* \"--CODEGEN--\":2:4   */\n    tag_53:\n        /* \"https://github.com/OpenZeppelin/openzeppelin-contracts/blob/v3.2.0/contracts/token/ERC1155/ERC1155.sol\":3333:3948  function balanceOfBatch(... */\n      dup1\n      calldataload\n      swap1\n      0x20\n      add\n      swap2\n        /* \"--CODEGEN--\":101:110   */\n      dup5\n        /* \"--CODEGEN--\":95:97   */\n      0x20\n        /* \"--CODEGEN--\":81:93   */\n      dup4\n        /* \"--CODEGEN--\":77:98   */\n      mul\n        /* \"--CODEGEN--\":67:75   */\n      dup5\n        /* \"--CODEGEN--\":63:99   */\n      add\n        /* \"--CODEGEN--\":60:111   */\n      gt\n        /* \"--CODEGEN--\":39:50   */\n      0x0100000000\n        /* \"--CODEGEN--\":25:37   */\n      dup4\n        /* \"--CODEGEN--\":22:51   */\n      gt\n        /* \"--CODEGEN--\":11:119   */\n      or\n        /* \"--CODEGEN--\":8:10   */\n      iszero\n      tag_54\n      jumpi\n        /* \"--CODEGEN--\":132:133   */\n      0x00\n        /* \"--CODEGEN--\":129:130   */\n      dup1\n        /* \"--CODEGEN--\":122:134   */\n      revert\n        /* \"--CODEGEN--\":8:10   */\n    tag_54:\n        /* \"https://github.com/OpenZeppelin/openzeppelin-contracts/blob/v3.2.0/contracts/token/ERC1155/ERC1155.sol\":3333:3948  function balanceOfBatch(... */\n      swap2\n      swap1\n      dup1\n      dup1\n      0x20\n      mul\n      0x20\n      add\n      mload(0x40)\n      swap1\n      dup2\n      add\n      0x40\n      mstore\n      dup1\n      swap4\n      swap3\n      swap2\n      swap1\n      dup2\n      dup2\n      mstore\n      0x20\n      add\n      dup4\n      dup4\n      0x20\n      mul\n        /* \"--CODEGEN--\":30:33   */\n      dup1\n        /* \"--CODEGEN--\":22:28   */\n      dup3\n        /* \"--CODEGEN--\":14:20   */\n      dup5\n        /* \"--CODEGEN--\":1:34   */\n      calldatacopy\n        /* \"--CODEGEN--\":99:100   */\n      0x00\n        /* \"--CODEGEN--\":93:96   */\n      dup2\n        /* \"--CODEGEN--\":85:91   */\n      dup5\n        /* \"--CODEGEN--\":81:97   */\n      add\n        /* \"--CODEGEN--\":74:101   */\n      mstore\n        /* \"--CODEGEN--\":137:141   */\n      0x1f\n        /* \"--CODEGEN--\":133:142   */\n      not\n        /* \"--CODEGEN--\":126:130   */\n      0x1f\n        /* \"--CODEGEN--\":121:124   */\n      dup3\n        /* \"--CODEGEN--\":117:131   */\n      add\n        /* \"--CODEGEN--\":113:143   */\n      and\n        /* \"--CODEGEN--\":106:143   */\n      swap1\n      pop\n        /* \"--CODEGEN--\":169:172   */\n      dup1\n        /* \"--CODEGEN--\":161:167   */\n      dup4\n        /* \"--CODEGEN--\":157:173   */\n      add\n        /* \"--CODEGEN--\":147:173   */\n      swap3\n      pop\n        /* \"https://github.com/OpenZeppelin/openzeppelin-contracts/blob/v3.2.0/contracts/token/ERC1155/ERC1155.sol\":3333:3948  function balanceOfBatch(... */\n      pop\n      pop\n      pop\n      pop\n      pop\n      pop\n      swap2\n      swap3\n      swap2\n      swap3\n      swap1\n      pop\n      pop\n      pop\n      tag_55\n      jump\t// in\n    tag_47:\n      mload(0x40)\n      dup1\n      dup1\n      0x20\n      add\n      dup3\n      dup2\n      sub\n      dup3\n      mstore\n      dup4\n      dup2\n      dup2\n      mload\n      dup2\n      mstore\n      0x20\n      add\n      swap2\n      pop\n      dup1\n      mload\n      swap1\n      0x20\n      add\n      swap1\n      0x20\n      mul\n      dup1\n      dup4\n      dup4\n        /* \"--CODEGEN--\":23:24   */\n      0x00\n        /* \"--CODEGEN--\":8:108   */\n    tag_56:\n        /* \"--CODEGEN--\":33:36   */\n      dup4\n        /* \"--CODEGEN--\":30:31   */\n      dup2\n        /* \"--CODEGEN--\":27:37   */\n      lt\n        /* \"--CODEGEN--\":8:108   */\n      iszero\n      tag_58\n      jumpi\n        /* \"--CODEGEN--\":99:100   */\n      dup1\n        /* \"--CODEGEN--\":94:97   */\n      dup3\n        /* \"--CODEGEN--\":90:101   */\n      add\n        /* \"--CODEGEN--\":84:102   */\n      mload\n        /* \"--CODEGEN--\":80:81   */\n      dup2\n        /* \"--CODEGEN--\":75:78   */\n      dup5\n        /* \"--CODEGEN--\":71:82   */\n      add\n        /* \"--CODEGEN--\":64:103   */\n      mstore\n        /* \"--CODEGEN--\":52:54   */\n      0x20\n        /* \"--CODEGEN--\":49:50   */\n      dup2\n        /* \"--CODEGEN--\":45:55   */\n      add\n        /* \"--CODEGEN--\":40:55   */\n      swap1\n      pop\n        /* \"--CODEGEN--\":8:108   */\n      jump(tag_56)\n    tag_58:\n        /* \"--CODEGEN--\":12:26   */\n      pop\n        /* \"https://github.com/OpenZeppelin/openzeppelin-contracts/blob/v3.2.0/contracts/token/ERC1155/ERC1155.sol\":3333:3948  function balanceOfBatch(... */\n      pop\n      pop\n      pop\n      swap1\n      pop\n      add\n      swap3\n      pop\n      pop\n      pop\n      mload(0x40)\n      dup1\n      swap2\n      sub\n      swap1\n      return\n        /* \"ERC1155.sol\":408:442  uint256 public constant SHIELD = 4 */\n    tag_10:\n      tag_59\n      tag_60\n      jump\t// in\n    tag_59:\n      mload(0x40)\n      dup1\n      dup3\n      dup2\n      mstore\n      0x20\n      add\n      swap2\n      pop\n      pop\n      mload(0x40)\n      dup1\n      swap2\n      sub\n      swap1\n      return\n        /* \"https://github.com/OpenZeppelin/openzeppelin-contracts/blob/v3.2.0/contracts/token/ERC1155/ERC1155.sol\":4016:4322  function setApprovalForAll(address operator, bool approved) public virtual override {... */\n    tag_11:\n      tag_61\n      0x04\n      dup1\n      calldatasize\n      sub\n        /* \"--CODEGEN--\":13:15   */\n      0x40\n        /* \"--CODEGEN--\":8:11   */\n      dup2\n        /* \"--CODEGEN--\":5:16   */\n      lt\n        /* \"--CODEGEN--\":2:4   */\n      iszero\n      tag_62\n      jumpi\n        /* \"--CODEGEN--\":29:30   */\n      0x00\n        /* \"--CODEGEN--\":26:27   */\n      dup1\n        /* \"--CODEGEN--\":19:31   */\n      revert\n        /* \"--CODEGEN--\":2:4   */\n    tag_62:\n        /* \"https://github.com/OpenZeppelin/openzeppelin-contracts/blob/v3.2.0/contracts/token/ERC1155/ERC1155.sol\":4016:4322  function setApprovalForAll(address operator, bool approved) public virtual override {... */\n      dup2\n      add\n      swap1\n      dup1\n      dup1\n      calldataload\n      0xffffffffffffffffffffffffffffffffffffffff\n      and\n      swap1\n      0x20\n      add\n      swap1\n      swap3\n      swap2\n      swap1\n      dup1\n      calldataload\n      iszero\n      iszero\n      swap1\n      0x20\n      add\n      swap1\n      swap3\n      swap2\n      swap1\n      pop\n      pop\n      pop\n      tag_63\n      jump\t// in\n    tag_61:\n      stop\n        /* \"ERC1155.sol\":321:361  uint256 public constant THORS_HAMMER = 2 */\n    tag_12:\n      tag_64\n      tag_65\n      jump\t// in\n    tag_64:\n      mload(0x40)\n      dup1\n      dup3\n      dup2\n      mstore\n      0x20\n      add\n      swap2\n      pop\n      pop\n      mload(0x40)\n      dup1\n      swap2\n      sub\n      swap1\n      return\n        /* \"ERC1155.sol\":280:314  uint256 public constant SILVER = 1 */\n    tag_13:\n      tag_66\n      tag_67\n      jump\t// in\n    tag_66:\n      mload(0x40)\n      dup1\n      dup3\n      dup2\n      mstore\n      0x20\n      add\n      swap2\n      pop\n      pop\n      mload(0x40)\n      dup1\n      swap2\n      sub\n      swap1\n      return\n        /* \"https://github.com/OpenZeppelin/openzeppelin-contracts/blob/v3.2.0/contracts/token/ERC1155/ERC1155.sol\":4389:4547  function isApprovedForAll(address account, address operator) public view override returns (bool) {... */\n    tag_14:\n      tag_68\n      0x04\n      dup1\n      calldatasize\n      sub\n        /* \"--CODEGEN--\":13:15   */\n      0x40\n        /* \"--CODEGEN--\":8:11   */\n      dup2\n        /* \"--CODEGEN--\":5:16   */\n      lt\n        /* \"--CODEGEN--\":2:4   */\n      iszero\n      tag_69\n      jumpi\n        /* \"--CODEGEN--\":29:30   */\n      0x00\n        /* \"--CODEGEN--\":26:27   */\n      dup1\n        /* \"--CODEGEN--\":19:31   */\n      revert\n        /* \"--CODEGEN--\":2:4   */\n    tag_69:\n        /* \"https://github.com/OpenZeppelin/openzeppelin-contracts/blob/v3.2.0/contracts/token/ERC1155/ERC1155.sol\":4389:4547  function isApprovedForAll(address account, address operator) public view override returns (bool) {... */\n      dup2\n      add\n      swap1\n      dup1\n      dup1\n      calldataload\n      0xffffffffffffffffffffffffffffffffffffffff\n      and\n      swap1\n      0x20\n      add\n      swap1\n      swap3\n      swap2\n      swap1\n      dup1\n      calldataload\n      0xffffffffffffffffffffffffffffffffffffffff\n      and\n      swap1\n      0x20\n      add\n      swap1\n      swap3\n      swap2\n      swap1\n      pop\n      pop\n      pop\n      tag_70\n      jump\t// in\n    tag_68:\n      mload(0x40)\n      dup1\n      dup3\n      iszero\n      iszero\n      iszero\n      iszero\n      dup2\n      mstore\n      0x20\n      add\n      swap2\n      pop\n      pop\n      mload(0x40)\n      dup1\n      swap2\n      sub\n      swap1\n      return\n        /* \"https://github.com/OpenZeppelin/openzeppelin-contracts/blob/v3.2.0/contracts/token/ERC1155/ERC1155.sol\":4614:5511  function safeTransferFrom(... */\n    tag_15:\n      tag_71\n      0x04\n      dup1\n      calldatasize\n      sub\n        /* \"--CODEGEN--\":13:16   */\n      0xa0\n        /* \"--CODEGEN--\":8:11   */\n      dup2\n        /* \"--CODEGEN--\":5:17   */\n      lt\n        /* \"--CODEGEN--\":2:4   */\n      iszero\n      tag_72\n      jumpi\n        /* \"--CODEGEN--\":30:31   */\n      0x00\n        /* \"--CODEGEN--\":27:28   */\n      dup1\n        /* \"--CODEGEN--\":20:32   */\n      revert\n        /* \"--CODEGEN--\":2:4   */\n    tag_72:\n        /* \"https://github.com/OpenZeppelin/openzeppelin-contracts/blob/v3.2.0/contracts/token/ERC1155/ERC1155.sol\":4614:5511  function safeTransferFrom(... */\n      dup2\n      add\n      swap1\n      dup1\n      dup1\n      calldataload\n      0xffffffffffffffffffffffffffffffffffffffff\n      and\n      swap1\n      0x20\n      add\n      swap1\n      swap3\n      swap2\n      swap1\n      dup1\n      calldataload\n      0xffffffffffffffffffffffffffffffffffffffff\n      and\n      swap1\n      0x20\n      add\n      swap1\n      swap3\n      swap2\n      swap1\n      dup1\n      calldataload\n      swap1\n      0x20\n      add\n      swap1\n      swap3\n      swap2\n      swap1\n      dup1\n      calldataload\n      swap1\n      0x20\n      add\n      swap1\n      swap3\n      swap2\n      swap1\n      dup1\n      calldataload\n      swap1\n      0x20\n      add\n      swap1\n        /* \"--CODEGEN--\":21:32   */\n      0x0100000000\n        /* \"--CODEGEN--\":8:19   */\n      dup2\n        /* \"--CODEGEN--\":5:33   */\n      gt\n        /* \"--CODEGEN--\":2:4   */\n      iszero\n      tag_73\n      jumpi\n        /* \"--CODEGEN--\":46:47   */\n      0x00\n        /* \"--CODEGEN--\":43:44   */\n      dup1\n        /* \"--CODEGEN--\":36:48   */\n      revert\n        /* \"--CODEGEN--\":2:4   */\n    tag_73:\n        /* \"https://github.com/OpenZeppelin/openzeppelin-contracts/blob/v3.2.0/contracts/token/ERC1155/ERC1155.sol\":4614:5511  function safeTransferFrom(... */\n      dup3\n      add\n        /* \"--CODEGEN--\":35:44   */\n      dup4\n        /* \"--CODEGEN--\":28:32   */\n      0x20\n        /* \"--CODEGEN--\":12:26   */\n      dup3\n        /* \"--CODEGEN--\":8:33   */\n      add\n        /* \"--CODEGEN--\":5:45   */\n      gt\n        /* \"--CODEGEN--\":2:4   */\n      iszero\n      tag_74\n      jumpi\n        /* \"--CODEGEN--\":58:59   */\n      0x00\n        /* \"--CODEGEN--\":55:56   */\n      dup1\n        /* \"--CODEGEN--\":48:60   */\n      revert\n        /* \"--CODEGEN--\":2:4   */\n    tag_74:\n        /* \"https://github.com/OpenZeppelin/openzeppelin-contracts/blob/v3.2.0/contracts/token/ERC1155/ERC1155.sol\":4614:5511  function safeTransferFrom(... */\n      dup1\n      calldataload\n      swap1\n      0x20\n      add\n      swap2\n        /* \"--CODEGEN--\":100:109   */\n      dup5\n        /* \"--CODEGEN--\":95:96   */\n      0x01\n        /* \"--CODEGEN--\":81:93   */\n      dup4\n        /* \"--CODEGEN--\":77:97   */\n      mul\n        /* \"--CODEGEN--\":67:75   */\n      dup5\n        /* \"--CODEGEN--\":63:98   */\n      add\n        /* \"--CODEGEN--\":60:110   */\n      gt\n        /* \"--CODEGEN--\":39:50   */\n      0x0100000000\n        /* \"--CODEGEN--\":25:37   */\n      dup4\n        /* \"--CODEGEN--\":22:51   */\n      gt\n        /* \"--CODEGEN--\":11:118   */\n      or\n        /* \"--CODEGEN--\":8:10   */\n      iszero\n      tag_75\n      jumpi\n        /* \"--CODEGEN--\":131:132   */\n      0x00\n        /* \"--CODEGEN--\":128:129   */\n      dup1\n        /* \"--CODEGEN--\":121:133   */\n      revert\n        /* \"--CODEGEN--\":8:10   */\n    tag_75:\n        /* \"https://github.com/OpenZeppelin/openzeppelin-contracts/blob/v3.2.0/contracts/token/ERC1155/ERC1155.sol\":4614:5511  function safeTransferFrom(... */\n      swap2\n      swap1\n      dup1\n      dup1\n      0x1f\n      add\n      0x20\n      dup1\n      swap2\n      div\n      mul\n      0x20\n      add\n      mload(0x40)\n      swap1\n      dup2\n      add\n      0x40\n      mstore\n      dup1\n      swap4\n      swap3\n      swap2\n      swap1\n      dup2\n      dup2\n      mstore\n      0x20\n      add\n      dup4\n      dup4\n        /* \"--CODEGEN--\":30:33   */\n      dup1\n        /* \"--CODEGEN--\":22:28   */\n      dup3\n        /* \"--CODEGEN--\":14:20   */\n      dup5\n        /* \"--CODEGEN--\":1:34   */\n      calldatacopy\n        /* \"--CODEGEN--\":99:100   */\n      0x00\n        /* \"--CODEGEN--\":93:96   */\n      dup2\n        /* \"--CODEGEN--\":85:91   */\n      dup5\n        /* \"--CODEGEN--\":81:97   */\n      add\n        /* \"--CODEGEN--\":74:101   */\n      mstore\n        /* \"--CODEGEN--\":137:141   */\n      0x1f\n        /* \"--CODEGEN--\":133:142   */\n      not\n        /* \"--CODEGEN--\":126:130   */\n      0x1f\n        /* \"--CODEGEN--\":121:124   */\n      dup3\n        /* \"--CODEGEN--\":117:131   */\n      add\n        /* \"--CODEGEN--\":113:143   */\n      and\n        /* \"--CODEGEN--\":106:143   */\n      swap1\n      pop\n        /* \"--CODEGEN--\":169:172   */\n      dup1\n        /* \"--CODEGEN--\":161:167   */\n      dup4\n        /* \"--CODEGEN--\":157:173   */\n      add\n        /* \"--CODEGEN--\":147:173   */\n      swap3\n      pop\n        /* \"https://github.com/OpenZeppelin/openzeppelin-contracts/blob/v3.2.0/contracts/token/ERC1155/ERC1155.sol\":4614:5511  function safeTransferFrom(... */\n      pop\n      pop\n      pop\n      pop\n      pop\n      pop\n      swap2\n      swap3\n      swap2\n      swap3\n      swap1\n      pop\n      pop\n      pop\n      tag_76\n      jump\t// in\n    tag_71:\n      stop\n        /* \"https://github.com/OpenZeppelin/openzeppelin-contracts/blob/v3.2.0/contracts/token/ERC1155/ERC1155.sol\":2956:3176  function balanceOf(address account, uint256 id) public view override returns (uint256) {... */\n    tag_20:\n        /* \"https://github.com/OpenZeppelin/openzeppelin-contracts/blob/v3.2.0/contracts/token/ERC1155/ERC1155.sol\":3034:3041  uint256 */\n      0x00\n        /* \"https://github.com/OpenZeppelin/openzeppelin-contracts/blob/v3.2.0/contracts/token/ERC1155/ERC1155.sol\":3080:3081  0 */\n      dup1\n        /* \"https://github.com/OpenZeppelin/openzeppelin-contracts/blob/v3.2.0/contracts/token/ERC1155/ERC1155.sol\":3061:3082  account != address(0) */\n      0xffffffffffffffffffffffffffffffffffffffff\n      and\n        /* \"https://github.com/OpenZeppelin/openzeppelin-contracts/blob/v3.2.0/contracts/token/ERC1155/ERC1155.sol\":3061:3068  account */\n      dup4\n        /* \"https://github.com/OpenZeppelin/openzeppelin-contracts/blob/v3.2.0/contracts/token/ERC1155/ERC1155.sol\":3061:3082  account != address(0) */\n      0xffffffffffffffffffffffffffffffffffffffff\n      and\n      eq\n      iszero\n        /* \"https://github.com/OpenZeppelin/openzeppelin-contracts/blob/v3.2.0/contracts/token/ERC1155/ERC1155.sol\":3053:3130  require(account != address(0), \"ERC1155: balance query for the zero address\") */\n      tag_78\n      jumpi\n      mload(0x40)\n      0x08c379a000000000000000000000000000000000000000000000000000000000\n      dup2\n      mstore\n      0x04\n      add\n      dup1\n      dup1\n      0x20\n      add\n      dup3\n      dup2\n      sub\n      dup3\n      mstore\n      0x2b\n      dup2\n      mstore\n      0x20\n      add\n      dup1\n      data_1f4de6a436172e7f7b1540476031cb037fc18ede9cc346a56da1697cbd352aa9\n      0x2b\n      swap2\n      codecopy\n      0x40\n      add\n      swap2\n      pop\n      pop\n      mload(0x40)\n      dup1\n      swap2\n      sub\n      swap1\n      revert\n    tag_78:\n        /* \"https://github.com/OpenZeppelin/openzeppelin-contracts/blob/v3.2.0/contracts/token/ERC1155/ERC1155.sol\":3147:3156  _balances */\n      0x01\n        /* \"https://github.com/OpenZeppelin/openzeppelin-contracts/blob/v3.2.0/contracts/token/ERC1155/ERC1155.sol\":3147:3160  _balances[id] */\n      0x00\n        /* \"https://github.com/OpenZeppelin/openzeppelin-contracts/blob/v3.2.0/contracts/token/ERC1155/ERC1155.sol\":3157:3159  id */\n      dup4\n        /* \"https://github.com/OpenZeppelin/openzeppelin-contracts/blob/v3.2.0/contracts/token/ERC1155/ERC1155.sol\":3147:3160  _balances[id] */\n      dup2\n      mstore\n      0x20\n      add\n      swap1\n      dup2\n      mstore\n      0x20\n      add\n      0x00\n      keccak256\n        /* \"https://github.com/OpenZeppelin/openzeppelin-contracts/blob/v3.2.0/contracts/token/ERC1155/ERC1155.sol\":3147:3169  _balances[id][account] */\n      0x00\n        /* \"https://github.com/OpenZeppelin/openzeppelin-contracts/blob/v3.2.0/contracts/token/ERC1155/ERC1155.sol\":3161:3168  account */\n      dup5\n        /* \"https://github.com/OpenZeppelin/openzeppelin-contracts/blob/v3.2.0/contracts/token/ERC1155/ERC1155.sol\":3147:3169  _balances[id][account] */\n      0xffffffffffffffffffffffffffffffffffffffff\n      and\n      0xffffffffffffffffffffffffffffffffffffffff\n      and\n      dup2\n      mstore\n      0x20\n      add\n      swap1\n      dup2\n      mstore\n      0x20\n      add\n      0x00\n      keccak256\n      sload\n        /* \"https://github.com/OpenZeppelin/openzeppelin-contracts/blob/v3.2.0/contracts/token/ERC1155/ERC1155.sol\":3140:3169  return _balances[id][account] */\n      swap1\n      pop\n        /* \"https://github.com/OpenZeppelin/openzeppelin-contracts/blob/v3.2.0/contracts/token/ERC1155/ERC1155.sol\":2956:3176  function balanceOf(address account, uint256 id) public view override returns (uint256) {... */\n      swap3\n      swap2\n      pop\n      pop\n      jump\t// out\n        /* \"https://github.com/OpenZeppelin/openzeppelin-contracts/blob/v3.2.0/contracts/introspection/ERC165.sol\":948:1088  function supportsInterface(bytes4 interfaceId) public view override returns (bool) {... */\n    tag_23:\n        /* \"https://github.com/OpenZeppelin/openzeppelin-contracts/blob/v3.2.0/contracts/introspection/ERC165.sol\":1025:1029  bool */\n      0x00\n        /* \"https://github.com/OpenZeppelin/openzeppelin-contracts/blob/v3.2.0/contracts/introspection/ERC165.sol\":1048:1068  _supportedInterfaces */\n      dup1\n        /* \"https://github.com/OpenZeppelin/openzeppelin-contracts/blob/v3.2.0/contracts/introspection/ERC165.sol\":1048:1081  _supportedInterfaces[interfaceId] */\n      0x00\n        /* \"https://github.com/OpenZeppelin/openzeppelin-contracts/blob/v3.2.0/contracts/introspection/ERC165.sol\":1069:1080  interfaceId */\n      dup4\n        /* \"https://github.com/OpenZeppelin/openzeppelin-contracts/blob/v3.2.0/contracts/introspection/ERC165.sol\":1048:1081  _supportedInterfaces[interfaceId] */\n      not(0xffffffffffffffffffffffffffffffffffffffffffffffffffffffff)\n      and\n      not(0xffffffffffffffffffffffffffffffffffffffffffffffffffffffff)\n      and\n      dup2\n      mstore\n      0x20\n      add\n      swap1\n      dup2\n      mstore\n      0x20\n      add\n      0x00\n      keccak256\n      0x00\n      swap1\n      sload\n      swap1\n      0x0100\n      exp\n      swap1\n      div\n      0xff\n      and\n        /* \"https://github.com/OpenZeppelin/openzeppelin-contracts/blob/v3.2.0/contracts/introspection/ERC165.sol\":1041:1081  return _supportedInterfaces[interfaceId] */\n      swap1\n      pop\n        /* \"https://github.com/OpenZeppelin/openzeppelin-contracts/blob/v3.2.0/contracts/introspection/ERC165.sol\":948:1088  function supportsInterface(bytes4 interfaceId) public view override returns (bool) {... */\n      swap2\n      swap1\n      pop\n      jump\t// out\n        /* \"https://github.com/OpenZeppelin/openzeppelin-contracts/blob/v3.2.0/contracts/token/ERC1155/ERC1155.sol\":2717:2814  function uri(uint256) external view override returns (string memory) {... */\n    tag_26:\n        /* \"https://github.com/OpenZeppelin/openzeppelin-contracts/blob/v3.2.0/contracts/token/ERC1155/ERC1155.sol\":2771:2784  string memory */\n      0x60\n        /* \"https://github.com/OpenZeppelin/openzeppelin-contracts/blob/v3.2.0/contracts/token/ERC1155/ERC1155.sol\":2803:2807  _uri */\n      0x03\n        /* \"https://github.com/OpenZeppelin/openzeppelin-contracts/blob/v3.2.0/contracts/token/ERC1155/ERC1155.sol\":2796:2807  return _uri */\n      dup1\n      sload\n      0x01\n      dup2\n      0x01\n      and\n      iszero\n      0x0100\n      mul\n      sub\n      and\n      0x02\n      swap1\n      div\n      dup1\n      0x1f\n      add\n      0x20\n      dup1\n      swap2\n      div\n      mul\n      0x20\n      add\n      mload(0x40)\n      swap1\n      dup2\n      add\n      0x40\n      mstore\n      dup1\n      swap3\n      swap2\n      swap1\n      dup2\n      dup2\n      mstore\n      0x20\n      add\n      dup3\n      dup1\n      sload\n      0x01\n      dup2\n      0x01\n      and\n      iszero\n      0x0100\n      mul\n      sub\n      and\n      0x02\n      swap1\n      div\n      dup1\n      iszero\n      tag_81\n      jumpi\n      dup1\n      0x1f\n      lt\n      tag_82\n      jumpi\n      0x0100\n      dup1\n      dup4\n      sload\n      div\n      mul\n      dup4\n      mstore\n      swap2\n      0x20\n      add\n      swap2\n      jump(tag_81)\n    tag_82:\n      dup3\n      add\n      swap2\n      swap1\n      0x00\n      mstore\n      keccak256(0x00, 0x20)\n      swap1\n    tag_83:\n      dup2\n      sload\n      dup2\n      mstore\n      swap1\n      0x01\n      add\n      swap1\n      0x20\n      add\n      dup1\n      dup4\n      gt\n      tag_83\n      jumpi\n      dup3\n      swap1\n      sub\n      0x1f\n      and\n      dup3\n      add\n      swap2\n    tag_81:\n      pop\n      pop\n      pop\n      pop\n      pop\n      swap1\n      pop\n        /* \"https://github.com/OpenZeppelin/openzeppelin-contracts/blob/v3.2.0/contracts/token/ERC1155/ERC1155.sol\":2717:2814  function uri(uint256) external view override returns (string memory) {... */\n      swap2\n      swap1\n      pop\n      jump\t// out\n        /* \"ERC1155.sol\":368:401  uint256 public constant SWORD = 3 */\n    tag_32:\n        /* \"ERC1155.sol\":400:401  3 */\n      0x03\n        /* \"ERC1155.sol\":368:401  uint256 public constant SWORD = 3 */\n      dup2\n      jump\t// out\n        /* \"https://github.com/OpenZeppelin/openzeppelin-contracts/blob/v3.2.0/contracts/token/ERC1155/ERC1155.sol\":5583:6767  function safeBatchTransferFrom(... */\n    tag_44:\n        /* \"https://github.com/OpenZeppelin/openzeppelin-contracts/blob/v3.2.0/contracts/token/ERC1155/ERC1155.sol\":5837:5844  amounts */\n      dup2\n        /* \"https://github.com/OpenZeppelin/openzeppelin-contracts/blob/v3.2.0/contracts/token/ERC1155/ERC1155.sol\":5837:5851  amounts.length */\n      mload\n        /* \"https://github.com/OpenZeppelin/openzeppelin-contracts/blob/v3.2.0/contracts/token/ERC1155/ERC1155.sol\":5823:5826  ids */\n      dup4\n        /* \"https://github.com/OpenZeppelin/openzeppelin-contracts/blob/v3.2.0/contracts/token/ERC1155/ERC1155.sol\":5823:5833  ids.length */\n      mload\n        /* \"https://github.com/OpenZeppelin/openzeppelin-contracts/blob/v3.2.0/contracts/token/ERC1155/ERC1155.sol\":5823:5851  ids.length == amounts.length */\n      eq\n        /* \"https://github.com/OpenZeppelin/openzeppelin-contracts/blob/v3.2.0/contracts/token/ERC1155/ERC1155.sol\":5815:5896  require(ids.length == amounts.length, \"ERC1155: ids and amounts length mismatch\") */\n      tag_85\n      jumpi\n      mload(0x40)\n      0x08c379a000000000000000000000000000000000000000000000000000000000\n      dup2\n      mstore\n      0x04\n      add\n      dup1\n      dup1\n      0x20\n      add\n      dup3\n      dup2\n      sub\n      dup3\n      mstore\n      0x28\n      dup2\n      mstore\n      0x20\n      add\n      dup1\n      data_e909e0c9a8f96b4f9af03b716811ece20beb070be416893ed1d50619b5930807\n      0x28\n      swap2\n      codecopy\n      0x40\n      add\n      swap2\n      pop\n      pop\n      mload(0x40)\n      dup1\n      swap2\n      sub\n      swap1\n      revert\n    tag_85:\n        /* \"https://github.com/OpenZeppelin/openzeppelin-contracts/blob/v3.2.0/contracts/token/ERC1155/ERC1155.sol\":5928:5929  0 */\n      0x00\n        /* \"https://github.com/OpenZeppelin/openzeppelin-contracts/blob/v3.2.0/contracts/token/ERC1155/ERC1155.sol\":5914:5930  to != address(0) */\n      0xffffffffffffffffffffffffffffffffffffffff\n      and\n        /* \"https://github.com/OpenZeppelin/openzeppelin-contracts/blob/v3.2.0/contracts/token/ERC1155/ERC1155.sol\":5914:5916  to */\n      dup5\n        /* \"https://github.com/OpenZeppelin/openzeppelin-contracts/blob/v3.2.0/contracts/token/ERC1155/ERC1155.sol\":5914:5930  to != address(0) */\n      0xffffffffffffffffffffffffffffffffffffffff\n      and\n      eq\n      iszero\n        /* \"https://github.com/OpenZeppelin/openzeppelin-contracts/blob/v3.2.0/contracts/token/ERC1155/ERC1155.sol\":5906:5972  require(to != address(0), \"ERC1155: transfer to the zero address\") */\n      tag_86\n      jumpi\n      mload(0x40)\n      0x08c379a000000000000000000000000000000000000000000000000000000000\n      dup2\n      mstore\n      0x04\n      add\n      dup1\n      dup1\n      0x20\n      add\n      dup3\n      dup2\n      sub\n      dup3\n      mstore\n      0x25\n      dup2\n      mstore\n      0x20\n      add\n      dup1\n      data_6faf1c67f278b07c6771dcf4c315a89c21c0eaed11d9ab3d51774da1cfef545d\n      0x25\n      swap2\n      codecopy\n      0x40\n      add\n      swap2\n      pop\n      pop\n      mload(0x40)\n      dup1\n      swap2\n      sub\n      swap1\n      revert\n    tag_86:\n        /* \"https://github.com/OpenZeppelin/openzeppelin-contracts/blob/v3.2.0/contracts/token/ERC1155/ERC1155.sol\":6011:6023  _msgSender() */\n      tag_87\n        /* \"https://github.com/OpenZeppelin/openzeppelin-contracts/blob/v3.2.0/contracts/token/ERC1155/ERC1155.sol\":6011:6021  _msgSender */\n      tag_88\n        /* \"https://github.com/OpenZeppelin/openzeppelin-contracts/blob/v3.2.0/contracts/token/ERC1155/ERC1155.sol\":6011:6023  _msgSender() */\n      jump\t// in\n    tag_87:\n        /* \"https://github.com/OpenZeppelin/openzeppelin-contracts/blob/v3.2.0/contracts/token/ERC1155/ERC1155.sol\":6003:6023  from == _msgSender() */\n      0xffffffffffffffffffffffffffffffffffffffff\n      and\n        /* \"https://github.com/OpenZeppelin/openzeppelin-contracts/blob/v3.2.0/contracts/token/ERC1155/ERC1155.sol\":6003:6007  from */\n      dup6\n        /* \"https://github.com/OpenZeppelin/openzeppelin-contracts/blob/v3.2.0/contracts/token/ERC1155/ERC1155.sol\":6003:6023  from == _msgSender() */\n      0xffffffffffffffffffffffffffffffffffffffff\n      and\n      eq\n        /* \"https://github.com/OpenZeppelin/openzeppelin-contracts/blob/v3.2.0/contracts/token/ERC1155/ERC1155.sol\":6003:6063  from == _msgSender() || isApprovedForAll(from, _msgSender()) */\n      dup1\n      tag_89\n      jumpi\n      pop\n        /* \"https://github.com/OpenZeppelin/openzeppelin-contracts/blob/v3.2.0/contracts/token/ERC1155/ERC1155.sol\":6027:6063  isApprovedForAll(from, _msgSender()) */\n      tag_90\n        /* \"https://github.com/OpenZeppelin/openzeppelin-contracts/blob/v3.2.0/contracts/token/ERC1155/ERC1155.sol\":6044:6048  from */\n      dup6\n        /* \"https://github.com/OpenZeppelin/openzeppelin-contracts/blob/v3.2.0/contracts/token/ERC1155/ERC1155.sol\":6050:6062  _msgSender() */\n      tag_91\n        /* \"https://github.com/OpenZeppelin/openzeppelin-contracts/blob/v3.2.0/contracts/token/ERC1155/ERC1155.sol\":6050:6060  _msgSender */\n      tag_88\n        /* \"https://github.com/OpenZeppelin/openzeppelin-contracts/blob/v3.2.0/contracts/token/ERC1155/ERC1155.sol\":6050:6062  _msgSender() */\n      jump\t// in\n    tag_91:\n        /* \"https://github.com/OpenZeppelin/openzeppelin-contracts/blob/v3.2.0/contracts/token/ERC1155/ERC1155.sol\":6027:6043  isApprovedForAll */\n      tag_70\n        /* \"https://github.com/OpenZeppelin/openzeppelin-contracts/blob/v3.2.0/contracts/token/ERC1155/ERC1155.sol\":6027:6063  isApprovedForAll(from, _msgSender()) */\n      jump\t// in\n    tag_90:\n        /* \"https://github.com/OpenZeppelin/openzeppelin-contracts/blob/v3.2.0/contracts/token/ERC1155/ERC1155.sol\":6003:6063  from == _msgSender() || isApprovedForAll(from, _msgSender()) */\n    tag_89:\n        /* \"https://github.com/OpenZeppelin/openzeppelin-contracts/blob/v3.2.0/contracts/token/ERC1155/ERC1155.sol\":5982:6139  require(... */\n      tag_92\n      jumpi\n      mload(0x40)\n      0x08c379a000000000000000000000000000000000000000000000000000000000\n      dup2\n      mstore\n      0x04\n      add\n      dup1\n      dup1\n      0x20\n      add\n      dup3\n      dup2\n      sub\n      dup3\n      mstore\n      0x32\n      dup2\n      mstore\n      0x20\n      add\n      dup1\n      data_70a41c66829f5508884cda9ef3d2f72551b34f23e4035be97941681123d2d686\n      0x32\n      swap2\n      codecopy\n      0x40\n      add\n      swap2\n      pop\n      pop\n      mload(0x40)\n      dup1\n      swap2\n      sub\n      swap1\n      revert\n    tag_92:\n        /* \"https://github.com/OpenZeppelin/openzeppelin-contracts/blob/v3.2.0/contracts/token/ERC1155/ERC1155.sol\":6150:6166  address operator */\n      0x00\n        /* \"https://github.com/OpenZeppelin/openzeppelin-contracts/blob/v3.2.0/contracts/token/ERC1155/ERC1155.sol\":6169:6181  _msgSender() */\n      tag_93\n        /* \"https://github.com/OpenZeppelin/openzeppelin-contracts/blob/v3.2.0/contracts/token/ERC1155/ERC1155.sol\":6169:6179  _msgSender */\n      tag_88\n        /* \"https://github.com/OpenZeppelin/openzeppelin-contracts/blob/v3.2.0/contracts/token/ERC1155/ERC1155.sol\":6169:6181  _msgSender() */\n      jump\t// in\n    tag_93:\n        /* \"https://github.com/OpenZeppelin/openzeppelin-contracts/blob/v3.2.0/contracts/token/ERC1155/ERC1155.sol\":6150:6181  address operator = _msgSender() */\n      swap1\n      pop\n        /* \"https://github.com/OpenZeppelin/openzeppelin-contracts/blob/v3.2.0/contracts/token/ERC1155/ERC1155.sol\":6192:6252  _beforeTokenTransfer(operator, from, to, ids, amounts, data) */\n      tag_94\n        /* \"https://github.com/OpenZeppelin/openzeppelin-contracts/blob/v3.2.0/contracts/token/ERC1155/ERC1155.sol\":6213:6221  operator */\n      dup2\n        /* \"https://github.com/OpenZeppelin/openzeppelin-contracts/blob/v3.2.0/contracts/token/ERC1155/ERC1155.sol\":6223:6227  from */\n      dup8\n        /* \"https://github.com/OpenZeppelin/openzeppelin-contracts/blob/v3.2.0/contracts/token/ERC1155/ERC1155.sol\":6229:6231  to */\n      dup8\n        /* \"https://github.com/OpenZeppelin/openzeppelin-contracts/blob/v3.2.0/contracts/token/ERC1155/ERC1155.sol\":6233:6236  ids */\n      dup8\n        /* \"https://github.com/OpenZeppelin/openzeppelin-contracts/blob/v3.2.0/contracts/token/ERC1155/ERC1155.sol\":6238:6245  amounts */\n      dup8\n        /* \"https://github.com/OpenZeppelin/openzeppelin-contracts/blob/v3.2.0/contracts/token/ERC1155/ERC1155.sol\":6247:6251  data */\n      dup8\n        /* \"https://github.com/OpenZeppelin/openzeppelin-contracts/blob/v3.2.0/contracts/token/ERC1155/ERC1155.sol\":6192:6212  _beforeTokenTransfer */\n      tag_95\n        /* \"https://github.com/OpenZeppelin/openzeppelin-contracts/blob/v3.2.0/contracts/token/ERC1155/ERC1155.sol\":6192:6252  _beforeTokenTransfer(operator, from, to, ids, amounts, data) */\n      jump\t// in\n    tag_94:\n        /* \"https://github.com/OpenZeppelin/openzeppelin-contracts/blob/v3.2.0/contracts/token/ERC1155/ERC1155.sol\":6268:6277  uint256 i */\n      0x00\n        /* \"https://github.com/OpenZeppelin/openzeppelin-contracts/blob/v3.2.0/contracts/token/ERC1155/ERC1155.sol\":6280:6281  0 */\n      dup1\n        /* \"https://github.com/OpenZeppelin/openzeppelin-contracts/blob/v3.2.0/contracts/token/ERC1155/ERC1155.sol\":6268:6281  uint256 i = 0 */\n      swap1\n      pop\n        /* \"https://github.com/OpenZeppelin/openzeppelin-contracts/blob/v3.2.0/contracts/token/ERC1155/ERC1155.sol\":6263:6612  for (uint256 i = 0; i < ids.length; ++i) {... */\n    tag_96:\n        /* \"https://github.com/OpenZeppelin/openzeppelin-contracts/blob/v3.2.0/contracts/token/ERC1155/ERC1155.sol\":6287:6290  ids */\n      dup5\n        /* \"https://github.com/OpenZeppelin/openzeppelin-contracts/blob/v3.2.0/contracts/token/ERC1155/ERC1155.sol\":6287:6297  ids.length */\n      mload\n        /* \"https://github.com/OpenZeppelin/openzeppelin-contracts/blob/v3.2.0/contracts/token/ERC1155/ERC1155.sol\":6283:6284  i */\n      dup2\n        /* \"https://github.com/OpenZeppelin/openzeppelin-contracts/blob/v3.2.0/contracts/token/ERC1155/ERC1155.sol\":6283:6297  i < ids.length */\n      lt\n        /* \"https://github.com/OpenZeppelin/openzeppelin-contracts/blob/v3.2.0/contracts/token/ERC1155/ERC1155.sol\":6263:6612  for (uint256 i = 0; i < ids.length; ++i) {... */\n      iszero\n      tag_97\n      jumpi\n        /* \"https://github.com/OpenZeppelin/openzeppelin-contracts/blob/v3.2.0/contracts/token/ERC1155/ERC1155.sol\":6318:6328  uint256 id */\n      0x00\n        /* \"https://github.com/OpenZeppelin/openzeppelin-contracts/blob/v3.2.0/contracts/token/ERC1155/ERC1155.sol\":6331:6334  ids */\n      dup6\n        /* \"https://github.com/OpenZeppelin/openzeppelin-contracts/blob/v3.2.0/contracts/token/ERC1155/ERC1155.sol\":6335:6336  i */\n      dup3\n        /* \"https://github.com/OpenZeppelin/openzeppelin-contracts/blob/v3.2.0/contracts/token/ERC1155/ERC1155.sol\":6331:6337  ids[i] */\n      dup2\n      mload\n      dup2\n      lt\n      tag_99\n      jumpi\n      invalid\n    tag_99:\n      0x20\n      mul\n      0x20\n      add\n      add\n      mload\n        /* \"https://github.com/OpenZeppelin/openzeppelin-contracts/blob/v3.2.0/contracts/token/ERC1155/ERC1155.sol\":6318:6337  uint256 id = ids[i] */\n      swap1\n      pop\n        /* \"https://github.com/OpenZeppelin/openzeppelin-contracts/blob/v3.2.0/contracts/token/ERC1155/ERC1155.sol\":6351:6365  uint256 amount */\n      0x00\n        /* \"https://github.com/OpenZeppelin/openzeppelin-contracts/blob/v3.2.0/contracts/token/ERC1155/ERC1155.sol\":6368:6375  amounts */\n      dup6\n        /* \"https://github.com/OpenZeppelin/openzeppelin-contracts/blob/v3.2.0/contracts/token/ERC1155/ERC1155.sol\":6376:6377  i */\n      dup4\n        /* \"https://github.com/OpenZeppelin/openzeppelin-contracts/blob/v3.2.0/contracts/token/ERC1155/ERC1155.sol\":6368:6378  amounts[i] */\n      dup2\n      mload\n      dup2\n      lt\n      tag_100\n      jumpi\n      invalid\n    tag_100:\n      0x20\n      mul\n      0x20\n      add\n      add\n      mload\n        /* \"https://github.com/OpenZeppelin/openzeppelin-contracts/blob/v3.2.0/contracts/token/ERC1155/ERC1155.sol\":6351:6378  uint256 amount = amounts[i] */\n      swap1\n      pop\n        /* \"https://github.com/OpenZeppelin/openzeppelin-contracts/blob/v3.2.0/contracts/token/ERC1155/ERC1155.sol\":6415:6538  _balances[id][from].sub(... */\n      tag_101\n        /* \"https://github.com/OpenZeppelin/openzeppelin-contracts/blob/v3.2.0/contracts/token/ERC1155/ERC1155.sol\":6456:6462  amount */\n      dup2\n        /* \"https://github.com/OpenZeppelin/openzeppelin-contracts/blob/v3.2.0/contracts/token/ERC1155/ERC1155.sol\":6415:6538  _balances[id][from].sub(... */\n      mload(0x40)\n      dup1\n      0x60\n      add\n      0x40\n      mstore\n      dup1\n      0x2a\n      dup2\n      mstore\n      0x20\n      add\n      data_8ac7e9556b567c1c94bb4daaa3c3a65be5ac686579615210cb910fb8cb8d65bf\n      0x2a\n      swap2\n      codecopy\n        /* \"https://github.com/OpenZeppelin/openzeppelin-contracts/blob/v3.2.0/contracts/token/ERC1155/ERC1155.sol\":6415:6424  _balances */\n      0x01\n        /* \"https://github.com/OpenZeppelin/openzeppelin-contracts/blob/v3.2.0/contracts/token/ERC1155/ERC1155.sol\":6415:6428  _balances[id] */\n      0x00\n        /* \"https://github.com/OpenZeppelin/openzeppelin-contracts/blob/v3.2.0/contracts/token/ERC1155/ERC1155.sol\":6425:6427  id */\n      dup7\n        /* \"https://github.com/OpenZeppelin/openzeppelin-contracts/blob/v3.2.0/contracts/token/ERC1155/ERC1155.sol\":6415:6428  _balances[id] */\n      dup2\n      mstore\n      0x20\n      add\n      swap1\n      dup2\n      mstore\n      0x20\n      add\n      0x00\n      keccak256\n        /* \"https://github.com/OpenZeppelin/openzeppelin-contracts/blob/v3.2.0/contracts/token/ERC1155/ERC1155.sol\":6415:6434  _balances[id][from] */\n      0x00\n        /* \"https://github.com/OpenZeppelin/openzeppelin-contracts/blob/v3.2.0/contracts/token/ERC1155/ERC1155.sol\":6429:6433  from */\n      dup14\n        /* \"https://github.com/OpenZeppelin/openzeppelin-contracts/blob/v3.2.0/contracts/token/ERC1155/ERC1155.sol\":6415:6434  _balances[id][from] */\n      0xffffffffffffffffffffffffffffffffffffffff\n      and\n      0xffffffffffffffffffffffffffffffffffffffff\n      and\n      dup2\n      mstore\n      0x20\n      add\n      swap1\n      dup2\n      mstore\n      0x20\n      add\n      0x00\n      keccak256\n      sload\n        /* \"https://github.com/OpenZeppelin/openzeppelin-contracts/blob/v3.2.0/contracts/token/ERC1155/ERC1155.sol\":6415:6438  _balances[id][from].sub */\n      tag_102\n      swap1\n        /* \"https://github.com/OpenZeppelin/openzeppelin-contracts/blob/v3.2.0/contracts/token/ERC1155/ERC1155.sol\":6415:6538  _balances[id][from].sub(... */\n      swap3\n      swap2\n      swap1\n      0xffffffff\n      and\n      jump\t// in\n    tag_101:\n        /* \"https://github.com/OpenZeppelin/openzeppelin-contracts/blob/v3.2.0/contracts/token/ERC1155/ERC1155.sol\":6393:6402  _balances */\n      0x01\n        /* \"https://github.com/OpenZeppelin/openzeppelin-contracts/blob/v3.2.0/contracts/token/ERC1155/ERC1155.sol\":6393:6406  _balances[id] */\n      0x00\n        /* \"https://github.com/OpenZeppelin/openzeppelin-contracts/blob/v3.2.0/contracts/token/ERC1155/ERC1155.sol\":6403:6405  id */\n      dup5\n        /* \"https://github.com/OpenZeppelin/openzeppelin-contracts/blob/v3.2.0/contracts/token/ERC1155/ERC1155.sol\":6393:6406  _balances[id] */\n      dup2\n      mstore\n      0x20\n      add\n      swap1\n      dup2\n      mstore\n      0x20\n      add\n      0x00\n      keccak256\n        /* \"https://github.com/OpenZeppelin/openzeppelin-contracts/blob/v3.2.0/contracts/token/ERC1155/ERC1155.sol\":6393:6412  _balances[id][from] */\n      0x00\n        /* \"https://github.com/OpenZeppelin/openzeppelin-contracts/blob/v3.2.0/contracts/token/ERC1155/ERC1155.sol\":6407:6411  from */\n      dup12\n        /* \"https://github.com/OpenZeppelin/openzeppelin-contracts/blob/v3.2.0/contracts/token/ERC1155/ERC1155.sol\":6393:6412  _balances[id][from] */\n      0xffffffffffffffffffffffffffffffffffffffff\n      and\n      0xffffffffffffffffffffffffffffffffffffffff\n      and\n      dup2\n      mstore\n      0x20\n      add\n      swap1\n      dup2\n      mstore\n      0x20\n      add\n      0x00\n      keccak256\n        /* \"https://github.com/OpenZeppelin/openzeppelin-contracts/blob/v3.2.0/contracts/token/ERC1155/ERC1155.sol\":6393:6538  _balances[id][from] = _balances[id][from].sub(... */\n      dup2\n      swap1\n      sstore\n      pop\n        /* \"https://github.com/OpenZeppelin/openzeppelin-contracts/blob/v3.2.0/contracts/token/ERC1155/ERC1155.sol\":6572:6601  _balances[id][to].add(amount) */\n      tag_103\n        /* \"https://github.com/OpenZeppelin/openzeppelin-contracts/blob/v3.2.0/contracts/token/ERC1155/ERC1155.sol\":6594:6600  amount */\n      dup2\n        /* \"https://github.com/OpenZeppelin/openzeppelin-contracts/blob/v3.2.0/contracts/token/ERC1155/ERC1155.sol\":6572:6581  _balances */\n      0x01\n        /* \"https://github.com/OpenZeppelin/openzeppelin-contracts/blob/v3.2.0/contracts/token/ERC1155/ERC1155.sol\":6572:6585  _balances[id] */\n      0x00\n        /* \"https://github.com/OpenZeppelin/openzeppelin-contracts/blob/v3.2.0/contracts/token/ERC1155/ERC1155.sol\":6582:6584  id */\n      dup6\n        /* \"https://github.com/OpenZeppelin/openzeppelin-contracts/blob/v3.2.0/contracts/token/ERC1155/ERC1155.sol\":6572:6585  _balances[id] */\n      dup2\n      mstore\n      0x20\n      add\n      swap1\n      dup2\n      mstore\n      0x20\n      add\n      0x00\n      keccak256\n        /* \"https://github.com/OpenZeppelin/openzeppelin-contracts/blob/v3.2.0/contracts/token/ERC1155/ERC1155.sol\":6572:6589  _balances[id][to] */\n      0x00\n        /* \"https://github.com/OpenZeppelin/openzeppelin-contracts/blob/v3.2.0/contracts/token/ERC1155/ERC1155.sol\":6586:6588  to */\n      dup12\n        /* \"https://github.com/OpenZeppelin/openzeppelin-contracts/blob/v3.2.0/contracts/token/ERC1155/ERC1155.sol\":6572:6589  _balances[id][to] */\n      0xffffffffffffffffffffffffffffffffffffffff\n      and\n      0xffffffffffffffffffffffffffffffffffffffff\n      and\n      dup2\n      mstore\n      0x20\n      add\n      swap1\n      dup2\n      mstore\n      0x20\n      add\n      0x00\n      keccak256\n      sload\n        /* \"https://github.com/OpenZeppelin/openzeppelin-contracts/blob/v3.2.0/contracts/token/ERC1155/ERC1155.sol\":6572:6593  _balances[id][to].add */\n      tag_104\n      swap1\n        /* \"https://github.com/OpenZeppelin/openzeppelin-contracts/blob/v3.2.0/contracts/token/ERC1155/ERC1155.sol\":6572:6601  _balances[id][to].add(amount) */\n      swap2\n      swap1\n      0xffffffff\n      and\n      jump\t// in\n    tag_103:\n        /* \"https://github.com/OpenZeppelin/openzeppelin-contracts/blob/v3.2.0/contracts/token/ERC1155/ERC1155.sol\":6552:6561  _balances */\n      0x01\n        /* \"https://github.com/OpenZeppelin/openzeppelin-contracts/blob/v3.2.0/contracts/token/ERC1155/ERC1155.sol\":6552:6565  _balances[id] */\n      0x00\n        /* \"https://github.com/OpenZeppelin/openzeppelin-contracts/blob/v3.2.0/contracts/token/ERC1155/ERC1155.sol\":6562:6564  id */\n      dup5\n        /* \"https://github.com/OpenZeppelin/openzeppelin-contracts/blob/v3.2.0/contracts/token/ERC1155/ERC1155.sol\":6552:6565  _balances[id] */\n      dup2\n      mstore\n      0x20\n      add\n      swap1\n      dup2\n      mstore\n      0x20\n      add\n      0x00\n      keccak256\n        /* \"https://github.com/OpenZeppelin/openzeppelin-contracts/blob/v3.2.0/contracts/token/ERC1155/ERC1155.sol\":6552:6569  _balances[id][to] */\n      0x00\n        /* \"https://github.com/OpenZeppelin/openzeppelin-contracts/blob/v3.2.0/contracts/token/ERC1155/ERC1155.sol\":6566:6568  to */\n      dup11\n        /* \"https://github.com/OpenZeppelin/openzeppelin-contracts/blob/v3.2.0/contracts/token/ERC1155/ERC1155.sol\":6552:6569  _balances[id][to] */\n      0xffffffffffffffffffffffffffffffffffffffff\n      and\n      0xffffffffffffffffffffffffffffffffffffffff\n      and\n      dup2\n      mstore\n      0x20\n      add\n      swap1\n      dup2\n      mstore\n      0x20\n      add\n      0x00\n      keccak256\n        /* \"https://github.com/OpenZeppelin/openzeppelin-contracts/blob/v3.2.0/contracts/token/ERC1155/ERC1155.sol\":6552:6601  _balances[id][to] = _balances[id][to].add(amount) */\n      dup2\n      swap1\n      sstore\n      pop\n        /* \"https://github.com/OpenZeppelin/openzeppelin-contracts/blob/v3.2.0/contracts/token/ERC1155/ERC1155.sol\":6263:6612  for (uint256 i = 0; i < ids.length; ++i) {... */\n      pop\n      pop\n        /* \"https://github.com/OpenZeppelin/openzeppelin-contracts/blob/v3.2.0/contracts/token/ERC1155/ERC1155.sol\":6299:6302  ++i */\n      dup1\n      0x01\n      add\n      swap1\n      pop\n        /* \"https://github.com/OpenZeppelin/openzeppelin-contracts/blob/v3.2.0/contracts/token/ERC1155/ERC1155.sol\":6263:6612  for (uint256 i = 0; i < ids.length; ++i) {... */\n      jump(tag_96)\n    tag_97:\n      pop\n        /* \"https://github.com/OpenZeppelin/openzeppelin-contracts/blob/v3.2.0/contracts/token/ERC1155/ERC1155.sol\":6657:6659  to */\n      dup5\n        /* \"https://github.com/OpenZeppelin/openzeppelin-contracts/blob/v3.2.0/contracts/token/ERC1155/ERC1155.sol\":6627:6674  TransferBatch(operator, from, to, ids, amounts) */\n      0xffffffffffffffffffffffffffffffffffffffff\n      and\n        /* \"https://github.com/OpenZeppelin/openzeppelin-contracts/blob/v3.2.0/contracts/token/ERC1155/ERC1155.sol\":6651:6655  from */\n      dup7\n        /* \"https://github.com/OpenZeppelin/openzeppelin-contracts/blob/v3.2.0/contracts/token/ERC1155/ERC1155.sol\":6627:6674  TransferBatch(operator, from, to, ids, amounts) */\n      0xffffffffffffffffffffffffffffffffffffffff\n      and\n        /* \"https://github.com/OpenZeppelin/openzeppelin-contracts/blob/v3.2.0/contracts/token/ERC1155/ERC1155.sol\":6641:6649  operator */\n      dup3\n        /* \"https://github.com/OpenZeppelin/openzeppelin-contracts/blob/v3.2.0/contracts/token/ERC1155/ERC1155.sol\":6627:6674  TransferBatch(operator, from, to, ids, amounts) */\n      0xffffffffffffffffffffffffffffffffffffffff\n      and\n      0x4a39dc06d4c0dbc64b70af90fd698a233a518aa5d07e595d983b8c0526c8f7fb\n        /* \"https://github.com/OpenZeppelin/openzeppelin-contracts/blob/v3.2.0/contracts/token/ERC1155/ERC1155.sol\":6661:6664  ids */\n      dup8\n        /* \"https://github.com/OpenZeppelin/openzeppelin-contracts/blob/v3.2.0/contracts/token/ERC1155/ERC1155.sol\":6666:6673  amounts */\n      dup8\n        /* \"https://github.com/OpenZeppelin/openzeppelin-contracts/blob/v3.2.0/contracts/token/ERC1155/ERC1155.sol\":6627:6674  TransferBatch(operator, from, to, ids, amounts) */\n      mload(0x40)\n      dup1\n      dup1\n      0x20\n      add\n      dup1\n      0x20\n      add\n      dup4\n      dup2\n      sub\n      dup4\n      mstore\n      dup6\n      dup2\n      dup2\n      mload\n      dup2\n      mstore\n      0x20\n      add\n      swap2\n      pop\n      dup1\n      mload\n      swap1\n      0x20\n      add\n      swap1\n      0x20\n      mul\n      dup1\n      dup4\n      dup4\n        /* \"--CODEGEN--\":23:24   */\n      0x00\n        /* \"--CODEGEN--\":8:108   */\n    tag_105:\n        /* \"--CODEGEN--\":33:36   */\n      dup4\n        /* \"--CODEGEN--\":30:31   */\n      dup2\n        /* \"--CODEGEN--\":27:37   */\n      lt\n        /* \"--CODEGEN--\":8:108   */\n      iszero\n      tag_107\n      jumpi\n        /* \"--CODEGEN--\":99:100   */\n      dup1\n        /* \"--CODEGEN--\":94:97   */\n      dup3\n        /* \"--CODEGEN--\":90:101   */\n      add\n        /* \"--CODEGEN--\":84:102   */\n      mload\n        /* \"--CODEGEN--\":80:81   */\n      dup2\n        /* \"--CODEGEN--\":75:78   */\n      dup5\n        /* \"--CODEGEN--\":71:82   */\n      add\n        /* \"--CODEGEN--\":64:103   */\n      mstore\n        /* \"--CODEGEN--\":52:54   */\n      0x20\n        /* \"--CODEGEN--\":49:50   */\n      dup2\n        /* \"--CODEGEN--\":45:55   */\n      add\n        /* \"--CODEGEN--\":40:55   */\n      swap1\n      pop\n        /* \"--CODEGEN--\":8:108   */\n      jump(tag_105)\n    tag_107:\n        /* \"--CODEGEN--\":12:26   */\n      pop\n        /* \"https://github.com/OpenZeppelin/openzeppelin-contracts/blob/v3.2.0/contracts/token/ERC1155/ERC1155.sol\":6627:6674  TransferBatch(operator, from, to, ids, amounts) */\n      pop\n      pop\n      pop\n      swap1\n      pop\n      add\n      dup4\n      dup2\n      sub\n      dup3\n      mstore\n      dup5\n      dup2\n      dup2\n      mload\n      dup2\n      mstore\n      0x20\n      add\n      swap2\n      pop\n      dup1\n      mload\n      swap1\n      0x20\n      add\n      swap1\n      0x20\n      mul\n      dup1\n      dup4\n      dup4\n        /* \"--CODEGEN--\":23:24   */\n      0x00\n        /* \"--CODEGEN--\":8:108   */\n    tag_108:\n        /* \"--CODEGEN--\":33:36   */\n      dup4\n        /* \"--CODEGEN--\":30:31   */\n      dup2\n        /* \"--CODEGEN--\":27:37   */\n      lt\n        /* \"--CODEGEN--\":8:108   */\n      iszero\n      tag_110\n      jumpi\n        /* \"--CODEGEN--\":99:100   */\n      dup1\n        /* \"--CODEGEN--\":94:97   */\n      dup3\n        /* \"--CODEGEN--\":90:101   */\n      add\n        /* \"--CODEGEN--\":84:102   */\n      mload\n        /* \"--CODEGEN--\":80:81   */\n      dup2\n        /* \"--CODEGEN--\":75:78   */\n      dup5\n        /* \"--CODEGEN--\":71:82   */\n      add\n        /* \"--CODEGEN--\":64:103   */\n      mstore\n        /* \"--CODEGEN--\":52:54   */\n      0x20\n        /* \"--CODEGEN--\":49:50   */\n      dup2\n        /* \"--CODEGEN--\":45:55   */\n      add\n        /* \"--CODEGEN--\":40:55   */\n      swap1\n      pop\n        /* \"--CODEGEN--\":8:108   */\n      jump(tag_108)\n    tag_110:\n        /* \"--CODEGEN--\":12:26   */\n      pop\n        /* \"https://github.com/OpenZeppelin/openzeppelin-contracts/blob/v3.2.0/contracts/token/ERC1155/ERC1155.sol\":6627:6674  TransferBatch(operator, from, to, ids, amounts) */\n      pop\n      pop\n      pop\n      swap1\n      pop\n      add\n      swap5\n      pop\n      pop\n      pop\n      pop\n      pop\n      mload(0x40)\n      dup1\n      swap2\n      sub\n      swap1\n      log4\n        /* \"https://github.com/OpenZeppelin/openzeppelin-contracts/blob/v3.2.0/contracts/token/ERC1155/ERC1155.sol\":6685:6760  _doSafeBatchTransferAcceptanceCheck(operator, from, to, ids, amounts, data) */\n      tag_111\n        /* \"https://github.com/OpenZeppelin/openzeppelin-contracts/blob/v3.2.0/contracts/token/ERC1155/ERC1155.sol\":6721:6729  operator */\n      dup2\n        /* \"https://github.com/OpenZeppelin/openzeppelin-contracts/blob/v3.2.0/contracts/token/ERC1155/ERC1155.sol\":6731:6735  from */\n      dup8\n        /* \"https://github.com/OpenZeppelin/openzeppelin-contracts/blob/v3.2.0/contracts/token/ERC1155/ERC1155.sol\":6737:6739  to */\n      dup8\n        /* \"https://github.com/OpenZeppelin/openzeppelin-contracts/blob/v3.2.0/contracts/token/ERC1155/ERC1155.sol\":6741:6744  ids */\n      dup8\n        /* \"https://github.com/OpenZeppelin/openzeppelin-contracts/blob/v3.2.0/contracts/token/ERC1155/ERC1155.sol\":6746:6753  amounts */\n      dup8\n        /* \"https://github.com/OpenZeppelin/openzeppelin-contracts/blob/v3.2.0/contracts/token/ERC1155/ERC1155.sol\":6755:6759  data */\n      dup8\n        /* \"https://github.com/OpenZeppelin/openzeppelin-contracts/blob/v3.2.0/contracts/token/ERC1155/ERC1155.sol\":6685:6720  _doSafeBatchTransferAcceptanceCheck */\n      tag_112\n        /* \"https://github.com/OpenZeppelin/openzeppelin-contracts/blob/v3.2.0/contracts/token/ERC1155/ERC1155.sol\":6685:6760  _doSafeBatchTransferAcceptanceCheck(operator, from, to, ids, amounts, data) */\n      jump\t// in\n    tag_111:\n        /* \"https://github.com/OpenZeppelin/openzeppelin-contracts/blob/v3.2.0/contracts/token/ERC1155/ERC1155.sol\":5583:6767  function safeBatchTransferFrom(... */\n      pop\n      pop\n      pop\n      pop\n      pop\n      pop\n      jump\t// out\n        /* \"ERC1155.sol\":241:273  uint256 public constant GOLD = 0 */\n    tag_46:\n        /* \"ERC1155.sol\":272:273  0 */\n      0x00\n        /* \"ERC1155.sol\":241:273  uint256 public constant GOLD = 0 */\n      dup2\n      jump\t// out\n        /* \"https://github.com/OpenZeppelin/openzeppelin-contracts/blob/v3.2.0/contracts/token/ERC1155/ERC1155.sol\":3333:3948  function balanceOfBatch(... */\n    tag_55:\n        /* \"https://github.com/OpenZeppelin/openzeppelin-contracts/blob/v3.2.0/contracts/token/ERC1155/ERC1155.sol\":3490:3506  uint256[] memory */\n      0x60\n        /* \"https://github.com/OpenZeppelin/openzeppelin-contracts/blob/v3.2.0/contracts/token/ERC1155/ERC1155.sol\":3549:3552  ids */\n      dup2\n        /* \"https://github.com/OpenZeppelin/openzeppelin-contracts/blob/v3.2.0/contracts/token/ERC1155/ERC1155.sol\":3549:3559  ids.length */\n      mload\n        /* \"https://github.com/OpenZeppelin/openzeppelin-contracts/blob/v3.2.0/contracts/token/ERC1155/ERC1155.sol\":3530:3538  accounts */\n      dup4\n        /* \"https://github.com/OpenZeppelin/openzeppelin-contracts/blob/v3.2.0/contracts/token/ERC1155/ERC1155.sol\":3530:3545  accounts.length */\n      mload\n        /* \"https://github.com/OpenZeppelin/openzeppelin-contracts/blob/v3.2.0/contracts/token/ERC1155/ERC1155.sol\":3530:3559  accounts.length == ids.length */\n      eq\n        /* \"https://github.com/OpenZeppelin/openzeppelin-contracts/blob/v3.2.0/contracts/token/ERC1155/ERC1155.sol\":3522:3605  require(accounts.length == ids.length, \"ERC1155: accounts and ids length mismatch\") */\n      tag_114\n      jumpi\n      mload(0x40)\n      0x08c379a000000000000000000000000000000000000000000000000000000000\n      dup2\n      mstore\n      0x04\n      add\n      dup1\n      dup1\n      0x20\n      add\n      dup3\n      dup2\n      sub\n      dup3\n      mstore\n      0x29\n      dup2\n      mstore\n      0x20\n      add\n      dup1\n      data_e155f5d69798c6205436a388a4f3a5fd42f54147b40f4d63a2c8071ff8a9fee5\n      0x29\n      swap2\n      codecopy\n      0x40\n      add\n      swap2\n      pop\n      pop\n      mload(0x40)\n      dup1\n      swap2\n      sub\n      swap1\n      revert\n    tag_114:\n        /* \"https://github.com/OpenZeppelin/openzeppelin-contracts/blob/v3.2.0/contracts/token/ERC1155/ERC1155.sol\":3616:3646  uint256[] memory batchBalances */\n      0x60\n        /* \"https://github.com/OpenZeppelin/openzeppelin-contracts/blob/v3.2.0/contracts/token/ERC1155/ERC1155.sol\":3663:3671  accounts */\n      dup4\n        /* \"https://github.com/OpenZeppelin/openzeppelin-contracts/blob/v3.2.0/contracts/token/ERC1155/ERC1155.sol\":3663:3678  accounts.length */\n      mload\n        /* \"https://github.com/OpenZeppelin/openzeppelin-contracts/blob/v3.2.0/contracts/token/ERC1155/ERC1155.sol\":3649:3679  new uint256[](accounts.length) */\n      mload(0x40)\n      swap1\n      dup1\n      dup3\n      mstore\n      dup1\n      0x20\n      mul\n      0x20\n      add\n      dup3\n      add\n      0x40\n      mstore\n      dup1\n      iszero\n      tag_115\n      jumpi\n      dup2\n      0x20\n      add\n        /* \"--CODEGEN--\":29:31   */\n      0x20\n        /* \"--CODEGEN--\":21:27   */\n      dup3\n        /* \"--CODEGEN--\":17:32   */\n      mul\n        /* \"--CODEGEN--\":117:121   */\n      dup1\n        /* \"--CODEGEN--\":105:115   */\n      codesize\n        /* \"--CODEGEN--\":97:103   */\n      dup4\n        /* \"--CODEGEN--\":88:122   */\n      codecopy\n        /* \"--CODEGEN--\":148:152   */\n      dup1\n        /* \"--CODEGEN--\":140:146   */\n      dup3\n        /* \"--CODEGEN--\":136:153   */\n      add\n        /* \"--CODEGEN--\":126:153   */\n      swap2\n      pop\n        /* \"--CODEGEN--\":0:157   */\n      pop\n        /* \"https://github.com/OpenZeppelin/openzeppelin-contracts/blob/v3.2.0/contracts/token/ERC1155/ERC1155.sol\":3649:3679  new uint256[](accounts.length) */\n      swap1\n      pop\n    tag_115:\n      pop\n        /* \"https://github.com/OpenZeppelin/openzeppelin-contracts/blob/v3.2.0/contracts/token/ERC1155/ERC1155.sol\":3616:3679  uint256[] memory batchBalances = new uint256[](accounts.length) */\n      swap1\n      pop\n        /* \"https://github.com/OpenZeppelin/openzeppelin-contracts/blob/v3.2.0/contracts/token/ERC1155/ERC1155.sol\":3695:3704  uint256 i */\n      0x00\n        /* \"https://github.com/OpenZeppelin/openzeppelin-contracts/blob/v3.2.0/contracts/token/ERC1155/ERC1155.sol\":3707:3708  0 */\n      dup1\n        /* \"https://github.com/OpenZeppelin/openzeppelin-contracts/blob/v3.2.0/contracts/token/ERC1155/ERC1155.sol\":3695:3708  uint256 i = 0 */\n      swap1\n      pop\n        /* \"https://github.com/OpenZeppelin/openzeppelin-contracts/blob/v3.2.0/contracts/token/ERC1155/ERC1155.sol\":3690:3911  for (uint256 i = 0; i < accounts.length; ++i) {... */\n    tag_116:\n        /* \"https://github.com/OpenZeppelin/openzeppelin-contracts/blob/v3.2.0/contracts/token/ERC1155/ERC1155.sol\":3714:3722  accounts */\n      dup5\n        /* \"https://github.com/OpenZeppelin/openzeppelin-contracts/blob/v3.2.0/contracts/token/ERC1155/ERC1155.sol\":3714:3729  accounts.length */\n      mload\n        /* \"https://github.com/OpenZeppelin/openzeppelin-contracts/blob/v3.2.0/contracts/token/ERC1155/ERC1155.sol\":3710:3711  i */\n      dup2\n        /* \"https://github.com/OpenZeppelin/openzeppelin-contracts/blob/v3.2.0/contracts/token/ERC1155/ERC1155.sol\":3710:3729  i < accounts.length */\n      lt\n        /* \"https://github.com/OpenZeppelin/openzeppelin-contracts/blob/v3.2.0/contracts/token/ERC1155/ERC1155.sol\":3690:3911  for (uint256 i = 0; i < accounts.length; ++i) {... */\n      iszero\n      tag_117\n      jumpi\n        /* \"https://github.com/OpenZeppelin/openzeppelin-contracts/blob/v3.2.0/contracts/token/ERC1155/ERC1155.sol\":3781:3782  0 */\n      0x00\n        /* \"https://github.com/OpenZeppelin/openzeppelin-contracts/blob/v3.2.0/contracts/token/ERC1155/ERC1155.sol\":3758:3783  accounts[i] != address(0) */\n      0xffffffffffffffffffffffffffffffffffffffff\n      and\n        /* \"https://github.com/OpenZeppelin/openzeppelin-contracts/blob/v3.2.0/contracts/token/ERC1155/ERC1155.sol\":3758:3766  accounts */\n      dup6\n        /* \"https://github.com/OpenZeppelin/openzeppelin-contracts/blob/v3.2.0/contracts/token/ERC1155/ERC1155.sol\":3767:3768  i */\n      dup3\n        /* \"https://github.com/OpenZeppelin/openzeppelin-contracts/blob/v3.2.0/contracts/token/ERC1155/ERC1155.sol\":3758:3769  accounts[i] */\n      dup2\n      mload\n      dup2\n      lt\n      tag_119\n      jumpi\n      invalid\n    tag_119:\n      0x20\n      mul\n      0x20\n      add\n      add\n      mload\n        /* \"https://github.com/OpenZeppelin/openzeppelin-contracts/blob/v3.2.0/contracts/token/ERC1155/ERC1155.sol\":3758:3783  accounts[i] != address(0) */\n      0xffffffffffffffffffffffffffffffffffffffff\n      and\n      eq\n      iszero\n        /* \"https://github.com/OpenZeppelin/openzeppelin-contracts/blob/v3.2.0/contracts/token/ERC1155/ERC1155.sol\":3750:3837  require(accounts[i] != address(0), \"ERC1155: batch balance query for the zero address\") */\n      tag_120\n      jumpi\n      mload(0x40)\n      0x08c379a000000000000000000000000000000000000000000000000000000000\n      dup2\n      mstore\n      0x04\n      add\n      dup1\n      dup1\n      0x20\n      add\n      dup3\n      dup2\n      sub\n      dup3\n      mstore\n      0x31\n      dup2\n      mstore\n      0x20\n      add\n      dup1\n      data_1fbbb69d10332726591dc7ee4a23a94661eda2bec5ce6bf93a68249147dc8d9c\n      0x31\n      swap2\n      codecopy\n      0x40\n      add\n      swap2\n      pop\n      pop\n      mload(0x40)\n      dup1\n      swap2\n      sub\n      swap1\n      revert\n    tag_120:\n        /* \"https://github.com/OpenZeppelin/openzeppelin-contracts/blob/v3.2.0/contracts/token/ERC1155/ERC1155.sol\":3870:3879  _balances */\n      0x01\n        /* \"https://github.com/OpenZeppelin/openzeppelin-contracts/blob/v3.2.0/contracts/token/ERC1155/ERC1155.sol\":3870:3887  _balances[ids[i]] */\n      0x00\n        /* \"https://github.com/OpenZeppelin/openzeppelin-contracts/blob/v3.2.0/contracts/token/ERC1155/ERC1155.sol\":3880:3883  ids */\n      dup6\n        /* \"https://github.com/OpenZeppelin/openzeppelin-contracts/blob/v3.2.0/contracts/token/ERC1155/ERC1155.sol\":3884:3885  i */\n      dup4\n        /* \"https://github.com/OpenZeppelin/openzeppelin-contracts/blob/v3.2.0/contracts/token/ERC1155/ERC1155.sol\":3880:3886  ids[i] */\n      dup2\n      mload\n      dup2\n      lt\n      tag_121\n      jumpi\n      invalid\n    tag_121:\n      0x20\n      mul\n      0x20\n      add\n      add\n      mload\n        /* \"https://github.com/OpenZeppelin/openzeppelin-contracts/blob/v3.2.0/contracts/token/ERC1155/ERC1155.sol\":3870:3887  _balances[ids[i]] */\n      dup2\n      mstore\n      0x20\n      add\n      swap1\n      dup2\n      mstore\n      0x20\n      add\n      0x00\n      keccak256\n        /* \"https://github.com/OpenZeppelin/openzeppelin-contracts/blob/v3.2.0/contracts/token/ERC1155/ERC1155.sol\":3870:3900  _balances[ids[i]][accounts[i]] */\n      0x00\n        /* \"https://github.com/OpenZeppelin/openzeppelin-contracts/blob/v3.2.0/contracts/token/ERC1155/ERC1155.sol\":3888:3896  accounts */\n      dup7\n        /* \"https://github.com/OpenZeppelin/openzeppelin-contracts/blob/v3.2.0/contracts/token/ERC1155/ERC1155.sol\":3897:3898  i */\n      dup4\n        /* \"https://github.com/OpenZeppelin/openzeppelin-contracts/blob/v3.2.0/contracts/token/ERC1155/ERC1155.sol\":3888:3899  accounts[i] */\n      dup2\n      mload\n      dup2\n      lt\n      tag_122\n      jumpi\n      invalid\n    tag_122:\n      0x20\n      mul\n      0x20\n      add\n      add\n      mload\n        /* \"https://github.com/OpenZeppelin/openzeppelin-contracts/blob/v3.2.0/contracts/token/ERC1155/ERC1155.sol\":3870:3900  _balances[ids[i]][accounts[i]] */\n      0xffffffffffffffffffffffffffffffffffffffff\n      and\n      0xffffffffffffffffffffffffffffffffffffffff\n      and\n      dup2\n      mstore\n      0x20\n      add\n      swap1\n      dup2\n      mstore\n      0x20\n      add\n      0x00\n      keccak256\n      sload\n        /* \"https://github.com/OpenZeppelin/openzeppelin-contracts/blob/v3.2.0/contracts/token/ERC1155/ERC1155.sol\":3851:3864  batchBalances */\n      dup3\n        /* \"https://github.com/OpenZeppelin/openzeppelin-contracts/blob/v3.2.0/contracts/token/ERC1155/ERC1155.sol\":3865:3866  i */\n      dup3\n        /* \"https://github.com/OpenZeppelin/openzeppelin-contracts/blob/v3.2.0/contracts/token/ERC1155/ERC1155.sol\":3851:3867  batchBalances[i] */\n      dup2\n      mload\n      dup2\n      lt\n      tag_123\n      jumpi\n      invalid\n    tag_123:\n      0x20\n      mul\n      0x20\n      add\n      add\n        /* \"https://github.com/OpenZeppelin/openzeppelin-contracts/blob/v3.2.0/contracts/token/ERC1155/ERC1155.sol\":3851:3900  batchBalances[i] = _balances[ids[i]][accounts[i]] */\n      dup2\n      dup2\n      mstore\n      pop\n      pop\n        /* \"https://github.com/OpenZeppelin/openzeppelin-contracts/blob/v3.2.0/contracts/token/ERC1155/ERC1155.sol\":3731:3734  ++i */\n      dup1\n      0x01\n      add\n      swap1\n      pop\n        /* \"https://github.com/OpenZeppelin/openzeppelin-contracts/blob/v3.2.0/contracts/token/ERC1155/ERC1155.sol\":3690:3911  for (uint256 i = 0; i < accounts.length; ++i) {... */\n      jump(tag_116)\n    tag_117:\n      pop\n        /* \"https://github.com/OpenZeppelin/openzeppelin-contracts/blob/v3.2.0/contracts/token/ERC1155/ERC1155.sol\":3928:3941  batchBalances */\n      dup1\n        /* \"https://github.com/OpenZeppelin/openzeppelin-contracts/blob/v3.2.0/contracts/token/ERC1155/ERC1155.sol\":3921:3941  return batchBalances */\n      swap2\n      pop\n      pop\n        /* \"https://github.com/OpenZeppelin/openzeppelin-contracts/blob/v3.2.0/contracts/token/ERC1155/ERC1155.sol\":3333:3948  function balanceOfBatch(... */\n      swap3\n      swap2\n      pop\n      pop\n      jump\t// out\n        /* \"ERC1155.sol\":408:442  uint256 public constant SHIELD = 4 */\n    tag_60:\n        /* \"ERC1155.sol\":441:442  4 */\n      0x04\n        /* \"ERC1155.sol\":408:442  uint256 public constant SHIELD = 4 */\n      dup2\n      jump\t// out\n        /* \"https://github.com/OpenZeppelin/openzeppelin-contracts/blob/v3.2.0/contracts/token/ERC1155/ERC1155.sol\":4016:4322  function setApprovalForAll(address operator, bool approved) public virtual override {... */\n    tag_63:\n        /* \"https://github.com/OpenZeppelin/openzeppelin-contracts/blob/v3.2.0/contracts/token/ERC1155/ERC1155.sol\":4134:4142  operator */\n      dup2\n        /* \"https://github.com/OpenZeppelin/openzeppelin-contracts/blob/v3.2.0/contracts/token/ERC1155/ERC1155.sol\":4118:4142  _msgSender() != operator */\n      0xffffffffffffffffffffffffffffffffffffffff\n      and\n        /* \"https://github.com/OpenZeppelin/openzeppelin-contracts/blob/v3.2.0/contracts/token/ERC1155/ERC1155.sol\":4118:4130  _msgSender() */\n      tag_125\n        /* \"https://github.com/OpenZeppelin/openzeppelin-contracts/blob/v3.2.0/contracts/token/ERC1155/ERC1155.sol\":4118:4128  _msgSender */\n      tag_88\n        /* \"https://github.com/OpenZeppelin/openzeppelin-contracts/blob/v3.2.0/contracts/token/ERC1155/ERC1155.sol\":4118:4130  _msgSender() */\n      jump\t// in\n    tag_125:\n        /* \"https://github.com/OpenZeppelin/openzeppelin-contracts/blob/v3.2.0/contracts/token/ERC1155/ERC1155.sol\":4118:4142  _msgSender() != operator */\n      0xffffffffffffffffffffffffffffffffffffffff\n      and\n      eq\n      iszero\n        /* \"https://github.com/OpenZeppelin/openzeppelin-contracts/blob/v3.2.0/contracts/token/ERC1155/ERC1155.sol\":4110:4188  require(_msgSender() != operator, \"ERC1155: setting approval status for self\") */\n      tag_126\n      jumpi\n      mload(0x40)\n      0x08c379a000000000000000000000000000000000000000000000000000000000\n      dup2\n      mstore\n      0x04\n      add\n      dup1\n      dup1\n      0x20\n      add\n      dup3\n      dup2\n      sub\n      dup3\n      mstore\n      0x29\n      dup2\n      mstore\n      0x20\n      add\n      dup1\n      data_df9806c6dc743de602e49918a67b580590d69ab768bdb59f977c0a884a91a7c2\n      0x29\n      swap2\n      codecopy\n      0x40\n      add\n      swap2\n      pop\n      pop\n      mload(0x40)\n      dup1\n      swap2\n      sub\n      swap1\n      revert\n    tag_126:\n        /* \"https://github.com/OpenZeppelin/openzeppelin-contracts/blob/v3.2.0/contracts/token/ERC1155/ERC1155.sol\":4244:4252  approved */\n      dup1\n        /* \"https://github.com/OpenZeppelin/openzeppelin-contracts/blob/v3.2.0/contracts/token/ERC1155/ERC1155.sol\":4199:4217  _operatorApprovals */\n      0x02\n        /* \"https://github.com/OpenZeppelin/openzeppelin-contracts/blob/v3.2.0/contracts/token/ERC1155/ERC1155.sol\":4199:4231  _operatorApprovals[_msgSender()] */\n      0x00\n        /* \"https://github.com/OpenZeppelin/openzeppelin-contracts/blob/v3.2.0/contracts/token/ERC1155/ERC1155.sol\":4218:4230  _msgSender() */\n      tag_127\n        /* \"https://github.com/OpenZeppelin/openzeppelin-contracts/blob/v3.2.0/contracts/token/ERC1155/ERC1155.sol\":4218:4228  _msgSender */\n      tag_88\n        /* \"https://github.com/OpenZeppelin/openzeppelin-contracts/blob/v3.2.0/contracts/token/ERC1155/ERC1155.sol\":4218:4230  _msgSender() */\n      jump\t// in\n    tag_127:\n        /* \"https://github.com/OpenZeppelin/openzeppelin-contracts/blob/v3.2.0/contracts/token/ERC1155/ERC1155.sol\":4199:4231  _operatorApprovals[_msgSender()] */\n      0xffffffffffffffffffffffffffffffffffffffff\n      and\n      0xffffffffffffffffffffffffffffffffffffffff\n      and\n      dup2\n      mstore\n      0x20\n      add\n      swap1\n      dup2\n      mstore\n      0x20\n      add\n      0x00\n      keccak256\n        /* \"https://github.com/OpenZeppelin/openzeppelin-contracts/blob/v3.2.0/contracts/token/ERC1155/ERC1155.sol\":4199:4241  _operatorApprovals[_msgSender()][operator] */\n      0x00\n        /* \"https://github.com/OpenZeppelin/openzeppelin-contracts/blob/v3.2.0/contracts/token/ERC1155/ERC1155.sol\":4232:4240  operator */\n      dup5\n        /* \"https://github.com/OpenZeppelin/openzeppelin-contracts/blob/v3.2.0/contracts/token/ERC1155/ERC1155.sol\":4199:4241  _operatorApprovals[_msgSender()][operator] */\n      0xffffffffffffffffffffffffffffffffffffffff\n      and\n      0xffffffffffffffffffffffffffffffffffffffff\n      and\n      dup2\n      mstore\n      0x20\n      add\n      swap1\n      dup2\n      mstore\n      0x20\n      add\n      0x00\n      keccak256\n      0x00\n        /* \"https://github.com/OpenZeppelin/openzeppelin-contracts/blob/v3.2.0/contracts/token/ERC1155/ERC1155.sol\":4199:4252  _operatorApprovals[_msgSender()][operator] = approved */\n      0x0100\n      exp\n      dup2\n      sload\n      dup2\n      0xff\n      mul\n      not\n      and\n      swap1\n      dup4\n      iszero\n      iszero\n      mul\n      or\n      swap1\n      sstore\n      pop\n        /* \"https://github.com/OpenZeppelin/openzeppelin-contracts/blob/v3.2.0/contracts/token/ERC1155/ERC1155.sol\":4296:4304  operator */\n      dup2\n        /* \"https://github.com/OpenZeppelin/openzeppelin-contracts/blob/v3.2.0/contracts/token/ERC1155/ERC1155.sol\":4267:4315  ApprovalForAll(_msgSender(), operator, approved) */\n      0xffffffffffffffffffffffffffffffffffffffff\n      and\n        /* \"https://github.com/OpenZeppelin/openzeppelin-contracts/blob/v3.2.0/contracts/token/ERC1155/ERC1155.sol\":4282:4294  _msgSender() */\n      tag_128\n        /* \"https://github.com/OpenZeppelin/openzeppelin-contracts/blob/v3.2.0/contracts/token/ERC1155/ERC1155.sol\":4282:4292  _msgSender */\n      tag_88\n        /* \"https://github.com/OpenZeppelin/openzeppelin-contracts/blob/v3.2.0/contracts/token/ERC1155/ERC1155.sol\":4282:4294  _msgSender() */\n      jump\t// in\n    tag_128:\n        /* \"https://github.com/OpenZeppelin/openzeppelin-contracts/blob/v3.2.0/contracts/token/ERC1155/ERC1155.sol\":4267:4315  ApprovalForAll(_msgSender(), operator, approved) */\n      0xffffffffffffffffffffffffffffffffffffffff\n      and\n      0x17307eab39ab6107e8899845ad3d59bd9653f200f220920489ca2b5937696c31\n        /* \"https://github.com/OpenZeppelin/openzeppelin-contracts/blob/v3.2.0/contracts/token/ERC1155/ERC1155.sol\":4306:4314  approved */\n      dup4\n        /* \"https://github.com/OpenZeppelin/openzeppelin-contracts/blob/v3.2.0/contracts/token/ERC1155/ERC1155.sol\":4267:4315  ApprovalForAll(_msgSender(), operator, approved) */\n      mload(0x40)\n      dup1\n      dup3\n      iszero\n      iszero\n      iszero\n      iszero\n      dup2\n      mstore\n      0x20\n      add\n      swap2\n      pop\n      pop\n      mload(0x40)\n      dup1\n      swap2\n      sub\n      swap1\n      log3\n        /* \"https://github.com/OpenZeppelin/openzeppelin-contracts/blob/v3.2.0/contracts/token/ERC1155/ERC1155.sol\":4016:4322  function setApprovalForAll(address operator, bool approved) public virtual override {... */\n      pop\n      pop\n      jump\t// out\n        /* \"ERC1155.sol\":321:361  uint256 public constant THORS_HAMMER = 2 */\n    tag_65:\n        /* \"ERC1155.sol\":360:361  2 */\n      0x02\n        /* \"ERC1155.sol\":321:361  uint256 public constant THORS_HAMMER = 2 */\n      dup2\n      jump\t// out\n        /* \"ERC1155.sol\":280:314  uint256 public constant SILVER = 1 */\n    tag_67:\n        /* \"ERC1155.sol\":313:314  1 */\n      0x01\n        /* \"ERC1155.sol\":280:314  uint256 public constant SILVER = 1 */\n      dup2\n      jump\t// out\n        /* \"https://github.com/OpenZeppelin/openzeppelin-contracts/blob/v3.2.0/contracts/token/ERC1155/ERC1155.sol\":4389:4547  function isApprovedForAll(address account, address operator) public view override returns (bool) {... */\n    tag_70:\n        /* \"https://github.com/OpenZeppelin/openzeppelin-contracts/blob/v3.2.0/contracts/token/ERC1155/ERC1155.sol\":4480:4484  bool */\n      0x00\n        /* \"https://github.com/OpenZeppelin/openzeppelin-contracts/blob/v3.2.0/contracts/token/ERC1155/ERC1155.sol\":4503:4521  _operatorApprovals */\n      0x02\n        /* \"https://github.com/OpenZeppelin/openzeppelin-contracts/blob/v3.2.0/contracts/token/ERC1155/ERC1155.sol\":4503:4530  _operatorApprovals[account] */\n      0x00\n        /* \"https://github.com/OpenZeppelin/openzeppelin-contracts/blob/v3.2.0/contracts/token/ERC1155/ERC1155.sol\":4522:4529  account */\n      dup5\n        /* \"https://github.com/OpenZeppelin/openzeppelin-contracts/blob/v3.2.0/contracts/token/ERC1155/ERC1155.sol\":4503:4530  _operatorApprovals[account] */\n      0xffffffffffffffffffffffffffffffffffffffff\n      and\n      0xffffffffffffffffffffffffffffffffffffffff\n      and\n      dup2\n      mstore\n      0x20\n      add\n      swap1\n      dup2\n      mstore\n      0x20\n      add\n      0x00\n      keccak256\n        /* \"https://github.com/OpenZeppelin/openzeppelin-contracts/blob/v3.2.0/contracts/token/ERC1155/ERC1155.sol\":4503:4540  _operatorApprovals[account][operator] */\n      0x00\n        /* \"https://github.com/OpenZeppelin/openzeppelin-contracts/blob/v3.2.0/contracts/token/ERC1155/ERC1155.sol\":4531:4539  operator */\n      dup4\n        /* \"https://github.com/OpenZeppelin/openzeppelin-contracts/blob/v3.2.0/contracts/token/ERC1155/ERC1155.sol\":4503:4540  _operatorApprovals[account][operator] */\n      0xffffffffffffffffffffffffffffffffffffffff\n      and\n      0xffffffffffffffffffffffffffffffffffffffff\n      and\n      dup2\n      mstore\n      0x20\n      add\n      swap1\n      dup2\n      mstore\n      0x20\n      add\n      0x00\n      keccak256\n      0x00\n      swap1\n      sload\n      swap1\n      0x0100\n      exp\n      swap1\n      div\n      0xff\n      and\n        /* \"https://github.com/OpenZeppelin/openzeppelin-contracts/blob/v3.2.0/contracts/token/ERC1155/ERC1155.sol\":4496:4540  return _operatorApprovals[account][operator] */\n      swap1\n      pop\n        /* \"https://github.com/OpenZeppelin/openzeppelin-contracts/blob/v3.2.0/contracts/token/ERC1155/ERC1155.sol\":4389:4547  function isApprovedForAll(address account, address operator) public view override returns (bool) {... */\n      swap3\n      swap2\n      pop\n      pop\n      jump\t// out\n        /* \"https://github.com/OpenZeppelin/openzeppelin-contracts/blob/v3.2.0/contracts/token/ERC1155/ERC1155.sol\":4614:5511  function safeTransferFrom(... */\n    tag_76:\n        /* \"https://github.com/OpenZeppelin/openzeppelin-contracts/blob/v3.2.0/contracts/token/ERC1155/ERC1155.sol\":4843:4844  0 */\n      0x00\n        /* \"https://github.com/OpenZeppelin/openzeppelin-contracts/blob/v3.2.0/contracts/token/ERC1155/ERC1155.sol\":4829:4845  to != address(0) */\n      0xffffffffffffffffffffffffffffffffffffffff\n      and\n        /* \"https://github.com/OpenZeppelin/openzeppelin-contracts/blob/v3.2.0/contracts/token/ERC1155/ERC1155.sol\":4829:4831  to */\n      dup5\n        /* \"https://github.com/OpenZeppelin/openzeppelin-contracts/blob/v3.2.0/contracts/token/ERC1155/ERC1155.sol\":4829:4845  to != address(0) */\n      0xffffffffffffffffffffffffffffffffffffffff\n      and\n      eq\n      iszero\n        /* \"https://github.com/OpenZeppelin/openzeppelin-contracts/blob/v3.2.0/contracts/token/ERC1155/ERC1155.sol\":4821:4887  require(to != address(0), \"ERC1155: transfer to the zero address\") */\n      tag_131\n      jumpi\n      mload(0x40)\n      0x08c379a000000000000000000000000000000000000000000000000000000000\n      dup2\n      mstore\n      0x04\n      add\n      dup1\n      dup1\n      0x20\n      add\n      dup3\n      dup2\n      sub\n      dup3\n      mstore\n      0x25\n      dup2\n      mstore\n      0x20\n      add\n      dup1\n      data_6faf1c67f278b07c6771dcf4c315a89c21c0eaed11d9ab3d51774da1cfef545d\n      0x25\n      swap2\n      codecopy\n      0x40\n      add\n      swap2\n      pop\n      pop\n      mload(0x40)\n      dup1\n      swap2\n      sub\n      swap1\n      revert\n    tag_131:\n        /* \"https://github.com/OpenZeppelin/openzeppelin-contracts/blob/v3.2.0/contracts/token/ERC1155/ERC1155.sol\":4926:4938  _msgSender() */\n      tag_132\n        /* \"https://github.com/OpenZeppelin/openzeppelin-contracts/blob/v3.2.0/contracts/token/ERC1155/ERC1155.sol\":4926:4936  _msgSender */\n      tag_88\n        /* \"https://github.com/OpenZeppelin/openzeppelin-contracts/blob/v3.2.0/contracts/token/ERC1155/ERC1155.sol\":4926:4938  _msgSender() */\n      jump\t// in\n    tag_132:\n        /* \"https://github.com/OpenZeppelin/openzeppelin-contracts/blob/v3.2.0/contracts/token/ERC1155/ERC1155.sol\":4918:4938  from == _msgSender() */\n      0xffffffffffffffffffffffffffffffffffffffff\n      and\n        /* \"https://github.com/OpenZeppelin/openzeppelin-contracts/blob/v3.2.0/contracts/token/ERC1155/ERC1155.sol\":4918:4922  from */\n      dup6\n        /* \"https://github.com/OpenZeppelin/openzeppelin-contracts/blob/v3.2.0/contracts/token/ERC1155/ERC1155.sol\":4918:4938  from == _msgSender() */\n      0xffffffffffffffffffffffffffffffffffffffff\n      and\n      eq\n        /* \"https://github.com/OpenZeppelin/openzeppelin-contracts/blob/v3.2.0/contracts/token/ERC1155/ERC1155.sol\":4918:4978  from == _msgSender() || isApprovedForAll(from, _msgSender()) */\n      dup1\n      tag_133\n      jumpi\n      pop\n        /* \"https://github.com/OpenZeppelin/openzeppelin-contracts/blob/v3.2.0/contracts/token/ERC1155/ERC1155.sol\":4942:4978  isApprovedForAll(from, _msgSender()) */\n      tag_134\n        /* \"https://github.com/OpenZeppelin/openzeppelin-contracts/blob/v3.2.0/contracts/token/ERC1155/ERC1155.sol\":4959:4963  from */\n      dup6\n        /* \"https://github.com/OpenZeppelin/openzeppelin-contracts/blob/v3.2.0/contracts/token/ERC1155/ERC1155.sol\":4965:4977  _msgSender() */\n      tag_135\n        /* \"https://github.com/OpenZeppelin/openzeppelin-contracts/blob/v3.2.0/contracts/token/ERC1155/ERC1155.sol\":4965:4975  _msgSender */\n      tag_88\n        /* \"https://github.com/OpenZeppelin/openzeppelin-contracts/blob/v3.2.0/contracts/token/ERC1155/ERC1155.sol\":4965:4977  _msgSender() */\n      jump\t// in\n    tag_135:\n        /* \"https://github.com/OpenZeppelin/openzeppelin-contracts/blob/v3.2.0/contracts/token/ERC1155/ERC1155.sol\":4942:4958  isApprovedForAll */\n      tag_70\n        /* \"https://github.com/OpenZeppelin/openzeppelin-contracts/blob/v3.2.0/contracts/token/ERC1155/ERC1155.sol\":4942:4978  isApprovedForAll(from, _msgSender()) */\n      jump\t// in\n    tag_134:\n        /* \"https://github.com/OpenZeppelin/openzeppelin-contracts/blob/v3.2.0/contracts/token/ERC1155/ERC1155.sol\":4918:4978  from == _msgSender() || isApprovedForAll(from, _msgSender()) */\n    tag_133:\n        /* \"https://github.com/OpenZeppelin/openzeppelin-contracts/blob/v3.2.0/contracts/token/ERC1155/ERC1155.sol\":4897:5045  require(... */\n      tag_136\n      jumpi\n      mload(0x40)\n      0x08c379a000000000000000000000000000000000000000000000000000000000\n      dup2\n      mstore\n      0x04\n      add\n      dup1\n      dup1\n      0x20\n      add\n      dup3\n      dup2\n      sub\n      dup3\n      mstore\n      0x29\n      dup2\n      mstore\n      0x20\n      add\n      dup1\n      data_394ac917f53b95ee25db2a5da5874c5b1f0af95a4fdf34992ff8b19c458f239a\n      0x29\n      swap2\n      codecopy\n      0x40\n      add\n      swap2\n      pop\n      pop\n      mload(0x40)\n      dup1\n      swap2\n      sub\n      swap1\n      revert\n    tag_136:\n        /* \"https://github.com/OpenZeppelin/openzeppelin-contracts/blob/v3.2.0/contracts/token/ERC1155/ERC1155.sol\":5056:5072  address operator */\n      0x00\n        /* \"https://github.com/OpenZeppelin/openzeppelin-contracts/blob/v3.2.0/contracts/token/ERC1155/ERC1155.sol\":5075:5087  _msgSender() */\n      tag_137\n        /* \"https://github.com/OpenZeppelin/openzeppelin-contracts/blob/v3.2.0/contracts/token/ERC1155/ERC1155.sol\":5075:5085  _msgSender */\n      tag_88\n        /* \"https://github.com/OpenZeppelin/openzeppelin-contracts/blob/v3.2.0/contracts/token/ERC1155/ERC1155.sol\":5075:5087  _msgSender() */\n      jump\t// in\n    tag_137:\n        /* \"https://github.com/OpenZeppelin/openzeppelin-contracts/blob/v3.2.0/contracts/token/ERC1155/ERC1155.sol\":5056:5087  address operator = _msgSender() */\n      swap1\n      pop\n        /* \"https://github.com/OpenZeppelin/openzeppelin-contracts/blob/v3.2.0/contracts/token/ERC1155/ERC1155.sol\":5098:5194  _beforeTokenTransfer(operator, from, to, _asSingletonArray(id), _asSingletonArray(amount), data) */\n      tag_138\n        /* \"https://github.com/OpenZeppelin/openzeppelin-contracts/blob/v3.2.0/contracts/token/ERC1155/ERC1155.sol\":5119:5127  operator */\n      dup2\n        /* \"https://github.com/OpenZeppelin/openzeppelin-contracts/blob/v3.2.0/contracts/token/ERC1155/ERC1155.sol\":5129:5133  from */\n      dup8\n        /* \"https://github.com/OpenZeppelin/openzeppelin-contracts/blob/v3.2.0/contracts/token/ERC1155/ERC1155.sol\":5135:5137  to */\n      dup8\n        /* \"https://github.com/OpenZeppelin/openzeppelin-contracts/blob/v3.2.0/contracts/token/ERC1155/ERC1155.sol\":5139:5160  _asSingletonArray(id) */\n      tag_139\n        /* \"https://github.com/OpenZeppelin/openzeppelin-contracts/blob/v3.2.0/contracts/token/ERC1155/ERC1155.sol\":5157:5159  id */\n      dup9\n        /* \"https://github.com/OpenZeppelin/openzeppelin-contracts/blob/v3.2.0/contracts/token/ERC1155/ERC1155.sol\":5139:5156  _asSingletonArray */\n      tag_140\n        /* \"https://github.com/OpenZeppelin/openzeppelin-contracts/blob/v3.2.0/contracts/token/ERC1155/ERC1155.sol\":5139:5160  _asSingletonArray(id) */\n      jump\t// in\n    tag_139:\n        /* \"https://github.com/OpenZeppelin/openzeppelin-contracts/blob/v3.2.0/contracts/token/ERC1155/ERC1155.sol\":5162:5187  _asSingletonArray(amount) */\n      tag_141\n        /* \"https://github.com/OpenZeppelin/openzeppelin-contracts/blob/v3.2.0/contracts/token/ERC1155/ERC1155.sol\":5180:5186  amount */\n      dup9\n        /* \"https://github.com/OpenZeppelin/openzeppelin-contracts/blob/v3.2.0/contracts/token/ERC1155/ERC1155.sol\":5162:5179  _asSingletonArray */\n      tag_140\n        /* \"https://github.com/OpenZeppelin/openzeppelin-contracts/blob/v3.2.0/contracts/token/ERC1155/ERC1155.sol\":5162:5187  _asSingletonArray(amount) */\n      jump\t// in\n    tag_141:\n        /* \"https://github.com/OpenZeppelin/openzeppelin-contracts/blob/v3.2.0/contracts/token/ERC1155/ERC1155.sol\":5189:5193  data */\n      dup8\n        /* \"https://github.com/OpenZeppelin/openzeppelin-contracts/blob/v3.2.0/contracts/token/ERC1155/ERC1155.sol\":5098:5118  _beforeTokenTransfer */\n      tag_95\n        /* \"https://github.com/OpenZeppelin/openzeppelin-contracts/blob/v3.2.0/contracts/token/ERC1155/ERC1155.sol\":5098:5194  _beforeTokenTransfer(operator, from, to, _asSingletonArray(id), _asSingletonArray(amount), data) */\n      jump\t// in\n    tag_138:\n        /* \"https://github.com/OpenZeppelin/openzeppelin-contracts/blob/v3.2.0/contracts/token/ERC1155/ERC1155.sol\":5227:5304  _balances[id][from].sub(amount, \"ERC1155: insufficient balance for transfer\") */\n      tag_142\n        /* \"https://github.com/OpenZeppelin/openzeppelin-contracts/blob/v3.2.0/contracts/token/ERC1155/ERC1155.sol\":5251:5257  amount */\n      dup4\n        /* \"https://github.com/OpenZeppelin/openzeppelin-contracts/blob/v3.2.0/contracts/token/ERC1155/ERC1155.sol\":5227:5304  _balances[id][from].sub(amount, \"ERC1155: insufficient balance for transfer\") */\n      mload(0x40)\n      dup1\n      0x60\n      add\n      0x40\n      mstore\n      dup1\n      0x2a\n      dup2\n      mstore\n      0x20\n      add\n      data_8ac7e9556b567c1c94bb4daaa3c3a65be5ac686579615210cb910fb8cb8d65bf\n      0x2a\n      swap2\n      codecopy\n        /* \"https://github.com/OpenZeppelin/openzeppelin-contracts/blob/v3.2.0/contracts/token/ERC1155/ERC1155.sol\":5227:5236  _balances */\n      0x01\n        /* \"https://github.com/OpenZeppelin/openzeppelin-contracts/blob/v3.2.0/contracts/token/ERC1155/ERC1155.sol\":5227:5240  _balances[id] */\n      0x00\n        /* \"https://github.com/OpenZeppelin/openzeppelin-contracts/blob/v3.2.0/contracts/token/ERC1155/ERC1155.sol\":5237:5239  id */\n      dup9\n        /* \"https://github.com/OpenZeppelin/openzeppelin-contracts/blob/v3.2.0/contracts/token/ERC1155/ERC1155.sol\":5227:5240  _balances[id] */\n      dup2\n      mstore\n      0x20\n      add\n      swap1\n      dup2\n      mstore\n      0x20\n      add\n      0x00\n      keccak256\n        /* \"https://github.com/OpenZeppelin/openzeppelin-contracts/blob/v3.2.0/contracts/token/ERC1155/ERC1155.sol\":5227:5246  _balances[id][from] */\n      0x00\n        /* \"https://github.com/OpenZeppelin/openzeppelin-contracts/blob/v3.2.0/contracts/token/ERC1155/ERC1155.sol\":5241:5245  from */\n      dup11\n        /* \"https://github.com/OpenZeppelin/openzeppelin-contracts/blob/v3.2.0/contracts/token/ERC1155/ERC1155.sol\":5227:5246  _balances[id][from] */\n      0xffffffffffffffffffffffffffffffffffffffff\n      and\n      0xffffffffffffffffffffffffffffffffffffffff\n      and\n      dup2\n      mstore\n      0x20\n      add\n      swap1\n      dup2\n      mstore\n      0x20\n      add\n      0x00\n      keccak256\n      sload\n        /* \"https://github.com/OpenZeppelin/openzeppelin-contracts/blob/v3.2.0/contracts/token/ERC1155/ERC1155.sol\":5227:5250  _balances[id][from].sub */\n      tag_102\n      swap1\n        /* \"https://github.com/OpenZeppelin/openzeppelin-contracts/blob/v3.2.0/contracts/token/ERC1155/ERC1155.sol\":5227:5304  _balances[id][from].sub(amount, \"ERC1155: insufficient balance for transfer\") */\n      swap3\n      swap2\n      swap1\n      0xffffffff\n      and\n      jump\t// in\n    tag_142:\n        /* \"https://github.com/OpenZeppelin/openzeppelin-contracts/blob/v3.2.0/contracts/token/ERC1155/ERC1155.sol\":5205:5214  _balances */\n      0x01\n        /* \"https://github.com/OpenZeppelin/openzeppelin-contracts/blob/v3.2.0/contracts/token/ERC1155/ERC1155.sol\":5205:5218  _balances[id] */\n      0x00\n        /* \"https://github.com/OpenZeppelin/openzeppelin-contracts/blob/v3.2.0/contracts/token/ERC1155/ERC1155.sol\":5215:5217  id */\n      dup7\n        /* \"https://github.com/OpenZeppelin/openzeppelin-contracts/blob/v3.2.0/contracts/token/ERC1155/ERC1155.sol\":5205:5218  _balances[id] */\n      dup2\n      mstore\n      0x20\n      add\n      swap1\n      dup2\n      mstore\n      0x20\n      add\n      0x00\n      keccak256\n        /* \"https://github.com/OpenZeppelin/openzeppelin-contracts/blob/v3.2.0/contracts/token/ERC1155/ERC1155.sol\":5205:5224  _balances[id][from] */\n      0x00\n        /* \"https://github.com/OpenZeppelin/openzeppelin-contracts/blob/v3.2.0/contracts/token/ERC1155/ERC1155.sol\":5219:5223  from */\n      dup9\n        /* \"https://github.com/OpenZeppelin/openzeppelin-contracts/blob/v3.2.0/contracts/token/ERC1155/ERC1155.sol\":5205:5224  _balances[id][from] */\n      0xffffffffffffffffffffffffffffffffffffffff\n      and\n      0xffffffffffffffffffffffffffffffffffffffff\n      and\n      dup2\n      mstore\n      0x20\n      add\n      swap1\n      dup2\n      mstore\n      0x20\n      add\n      0x00\n      keccak256\n        /* \"https://github.com/OpenZeppelin/openzeppelin-contracts/blob/v3.2.0/contracts/token/ERC1155/ERC1155.sol\":5205:5304  _balances[id][from] = _balances[id][from].sub(amount, \"ERC1155: insufficient balance for transfer\") */\n      dup2\n      swap1\n      sstore\n      pop\n        /* \"https://github.com/OpenZeppelin/openzeppelin-contracts/blob/v3.2.0/contracts/token/ERC1155/ERC1155.sol\":5334:5363  _balances[id][to].add(amount) */\n      tag_143\n        /* \"https://github.com/OpenZeppelin/openzeppelin-contracts/blob/v3.2.0/contracts/token/ERC1155/ERC1155.sol\":5356:5362  amount */\n      dup4\n        /* \"https://github.com/OpenZeppelin/openzeppelin-contracts/blob/v3.2.0/contracts/token/ERC1155/ERC1155.sol\":5334:5343  _balances */\n      0x01\n        /* \"https://github.com/OpenZeppelin/openzeppelin-contracts/blob/v3.2.0/contracts/token/ERC1155/ERC1155.sol\":5334:5347  _balances[id] */\n      0x00\n        /* \"https://github.com/OpenZeppelin/openzeppelin-contracts/blob/v3.2.0/contracts/token/ERC1155/ERC1155.sol\":5344:5346  id */\n      dup8\n        /* \"https://github.com/OpenZeppelin/openzeppelin-contracts/blob/v3.2.0/contracts/token/ERC1155/ERC1155.sol\":5334:5347  _balances[id] */\n      dup2\n      mstore\n      0x20\n      add\n      swap1\n      dup2\n      mstore\n      0x20\n      add\n      0x00\n      keccak256\n        /* \"https://github.com/OpenZeppelin/openzeppelin-contracts/blob/v3.2.0/contracts/token/ERC1155/ERC1155.sol\":5334:5351  _balances[id][to] */\n      0x00\n        /* \"https://github.com/OpenZeppelin/openzeppelin-contracts/blob/v3.2.0/contracts/token/ERC1155/ERC1155.sol\":5348:5350  to */\n      dup9\n        /* \"https://github.com/OpenZeppelin/openzeppelin-contracts/blob/v3.2.0/contracts/token/ERC1155/ERC1155.sol\":5334:5351  _balances[id][to] */\n      0xffffffffffffffffffffffffffffffffffffffff\n      and\n      0xffffffffffffffffffffffffffffffffffffffff\n      and\n      dup2\n      mstore\n      0x20\n      add\n      swap1\n      dup2\n      mstore\n      0x20\n      add\n      0x00\n      keccak256\n      sload\n        /* \"https://github.com/OpenZeppelin/openzeppelin-contracts/blob/v3.2.0/contracts/token/ERC1155/ERC1155.sol\":5334:5355  _balances[id][to].add */\n      tag_104\n      swap1\n        /* \"https://github.com/OpenZeppelin/openzeppelin-contracts/blob/v3.2.0/contracts/token/ERC1155/ERC1155.sol\":5334:5363  _balances[id][to].add(amount) */\n      swap2\n      swap1\n      0xffffffff\n      and\n      jump\t// in\n    tag_143:\n        /* \"https://github.com/OpenZeppelin/openzeppelin-contracts/blob/v3.2.0/contracts/token/ERC1155/ERC1155.sol\":5314:5323  _balances */\n      0x01\n        /* \"https://github.com/OpenZeppelin/openzeppelin-contracts/blob/v3.2.0/contracts/token/ERC1155/ERC1155.sol\":5314:5327  _balances[id] */\n      0x00\n        /* \"https://github.com/OpenZeppelin/openzeppelin-contracts/blob/v3.2.0/contracts/token/ERC1155/ERC1155.sol\":5324:5326  id */\n      dup7\n        /* \"https://github.com/OpenZeppelin/openzeppelin-contracts/blob/v3.2.0/contracts/token/ERC1155/ERC1155.sol\":5314:5327  _balances[id] */\n      dup2\n      mstore\n      0x20\n      add\n      swap1\n      dup2\n      mstore\n      0x20\n      add\n      0x00\n      keccak256\n        /* \"https://github.com/OpenZeppelin/openzeppelin-contracts/blob/v3.2.0/contracts/token/ERC1155/ERC1155.sol\":5314:5331  _balances[id][to] */\n      0x00\n        /* \"https://github.com/OpenZeppelin/openzeppelin-contracts/blob/v3.2.0/contracts/token/ERC1155/ERC1155.sol\":5328:5330  to */\n      dup8\n        /* \"https://github.com/OpenZeppelin/openzeppelin-contracts/blob/v3.2.0/contracts/token/ERC1155/ERC1155.sol\":5314:5331  _balances[id][to] */\n      0xffffffffffffffffffffffffffffffffffffffff\n      and\n      0xffffffffffffffffffffffffffffffffffffffff\n      and\n      dup2\n      mstore\n      0x20\n      add\n      swap1\n      dup2\n      mstore\n      0x20\n      add\n      0x00\n      keccak256\n        /* \"https://github.com/OpenZeppelin/openzeppelin-contracts/blob/v3.2.0/contracts/token/ERC1155/ERC1155.sol\":5314:5363  _balances[id][to] = _balances[id][to].add(amount) */\n      dup2\n      swap1\n      sstore\n      pop\n        /* \"https://github.com/OpenZeppelin/openzeppelin-contracts/blob/v3.2.0/contracts/token/ERC1155/ERC1155.sol\":5410:5412  to */\n      dup5\n        /* \"https://github.com/OpenZeppelin/openzeppelin-contracts/blob/v3.2.0/contracts/token/ERC1155/ERC1155.sol\":5379:5425  TransferSingle(operator, from, to, id, amount) */\n      0xffffffffffffffffffffffffffffffffffffffff\n      and\n        /* \"https://github.com/OpenZeppelin/openzeppelin-contracts/blob/v3.2.0/contracts/token/ERC1155/ERC1155.sol\":5404:5408  from */\n      dup7\n        /* \"https://github.com/OpenZeppelin/openzeppelin-contracts/blob/v3.2.0/contracts/token/ERC1155/ERC1155.sol\":5379:5425  TransferSingle(operator, from, to, id, amount) */\n      0xffffffffffffffffffffffffffffffffffffffff\n      and\n        /* \"https://github.com/OpenZeppelin/openzeppelin-contracts/blob/v3.2.0/contracts/token/ERC1155/ERC1155.sol\":5394:5402  operator */\n      dup3\n        /* \"https://github.com/OpenZeppelin/openzeppelin-contracts/blob/v3.2.0/contracts/token/ERC1155/ERC1155.sol\":5379:5425  TransferSingle(operator, from, to, id, amount) */\n      0xffffffffffffffffffffffffffffffffffffffff\n      and\n      0xc3d58168c5ae7397731d063d5bbf3d657854427343f4c083240f7aacaa2d0f62\n        /* \"https://github.com/OpenZeppelin/openzeppelin-contracts/blob/v3.2.0/contracts/token/ERC1155/ERC1155.sol\":5414:5416  id */\n      dup8\n        /* \"https://github.com/OpenZeppelin/openzeppelin-contracts/blob/v3.2.0/contracts/token/ERC1155/ERC1155.sol\":5418:5424  amount */\n      dup8\n        /* \"https://github.com/OpenZeppelin/openzeppelin-contracts/blob/v3.2.0/contracts/token/ERC1155/ERC1155.sol\":5379:5425  TransferSingle(operator, from, to, id, amount) */\n      mload(0x40)\n      dup1\n      dup4\n      dup2\n      mstore\n      0x20\n      add\n      dup3\n      dup2\n      mstore\n      0x20\n      add\n      swap3\n      pop\n      pop\n      pop\n      mload(0x40)\n      dup1\n      swap2\n      sub\n      swap1\n      log4\n        /* \"https://github.com/OpenZeppelin/openzeppelin-contracts/blob/v3.2.0/contracts/token/ERC1155/ERC1155.sol\":5436:5504  _doSafeTransferAcceptanceCheck(operator, from, to, id, amount, data) */\n      tag_144\n        /* \"https://github.com/OpenZeppelin/openzeppelin-contracts/blob/v3.2.0/contracts/token/ERC1155/ERC1155.sol\":5467:5475  operator */\n      dup2\n        /* \"https://github.com/OpenZeppelin/openzeppelin-contracts/blob/v3.2.0/contracts/token/ERC1155/ERC1155.sol\":5477:5481  from */\n      dup8\n        /* \"https://github.com/OpenZeppelin/openzeppelin-contracts/blob/v3.2.0/contracts/token/ERC1155/ERC1155.sol\":5483:5485  to */\n      dup8\n        /* \"https://github.com/OpenZeppelin/openzeppelin-contracts/blob/v3.2.0/contracts/token/ERC1155/ERC1155.sol\":5487:5489  id */\n      dup8\n        /* \"https://github.com/OpenZeppelin/openzeppelin-contracts/blob/v3.2.0/contracts/token/ERC1155/ERC1155.sol\":5491:5497  amount */\n      dup8\n        /* \"https://github.com/OpenZeppelin/openzeppelin-contracts/blob/v3.2.0/contracts/token/ERC1155/ERC1155.sol\":5499:5503  data */\n      dup8\n        /* \"https://github.com/OpenZeppelin/openzeppelin-contracts/blob/v3.2.0/contracts/token/ERC1155/ERC1155.sol\":5436:5466  _doSafeTransferAcceptanceCheck */\n      tag_145\n        /* \"https://github.com/OpenZeppelin/openzeppelin-contracts/blob/v3.2.0/contracts/token/ERC1155/ERC1155.sol\":5436:5504  _doSafeTransferAcceptanceCheck(operator, from, to, id, amount, data) */\n      jump\t// in\n    tag_144:\n        /* \"https://github.com/OpenZeppelin/openzeppelin-contracts/blob/v3.2.0/contracts/token/ERC1155/ERC1155.sol\":4614:5511  function safeTransferFrom(... */\n      pop\n      pop\n      pop\n      pop\n      pop\n      pop\n      jump\t// out\n        /* \"https://github.com/OpenZeppelin/openzeppelin-contracts/blob/v3.2.0/contracts/GSN/Context.sol\":590:694  function _msgSender() internal view virtual returns (address payable) {... */\n    tag_88:\n        /* \"https://github.com/OpenZeppelin/openzeppelin-contracts/blob/v3.2.0/contracts/GSN/Context.sol\":643:658  address payable */\n      0x00\n        /* \"https://github.com/OpenZeppelin/openzeppelin-contracts/blob/v3.2.0/contracts/GSN/Context.sol\":677:687  msg.sender */\n      caller\n        /* \"https://github.com/OpenZeppelin/openzeppelin-contracts/blob/v3.2.0/contracts/GSN/Context.sol\":670:687  return msg.sender */\n      swap1\n      pop\n        /* \"https://github.com/OpenZeppelin/openzeppelin-contracts/blob/v3.2.0/contracts/GSN/Context.sol\":590:694  function _msgSender() internal view virtual returns (address payable) {... */\n      swap1\n      jump\t// out\n        /* \"https://github.com/OpenZeppelin/openzeppelin-contracts/blob/v3.2.0/contracts/token/ERC1155/ERC1155.sol\":12296:12523  function _beforeTokenTransfer(... */\n    tag_95:\n      pop\n      pop\n      pop\n      pop\n      pop\n      pop\n      jump\t// out\n        /* \"https://github.com/OpenZeppelin/openzeppelin-contracts/blob/v3.2.0/contracts/math/SafeMath.sol\":1746:1933  function sub(uint256 a, uint256 b, string memory errorMessage) internal pure returns (uint256) {... */\n    tag_102:\n        /* \"https://github.com/OpenZeppelin/openzeppelin-contracts/blob/v3.2.0/contracts/math/SafeMath.sol\":1832:1839  uint256 */\n      0x00\n        /* \"https://github.com/OpenZeppelin/openzeppelin-contracts/blob/v3.2.0/contracts/math/SafeMath.sol\":1864:1865  a */\n      dup4\n        /* \"https://github.com/OpenZeppelin/openzeppelin-contracts/blob/v3.2.0/contracts/math/SafeMath.sol\":1859:1860  b */\n      dup4\n        /* \"https://github.com/OpenZeppelin/openzeppelin-contracts/blob/v3.2.0/contracts/math/SafeMath.sol\":1859:1865  b <= a */\n      gt\n      iszero\n        /* \"https://github.com/OpenZeppelin/openzeppelin-contracts/blob/v3.2.0/contracts/math/SafeMath.sol\":1867:1879  errorMessage */\n      dup3\n        /* \"https://github.com/OpenZeppelin/openzeppelin-contracts/blob/v3.2.0/contracts/math/SafeMath.sol\":1851:1880  require(b <= a, errorMessage) */\n      swap1\n      tag_149\n      jumpi\n      mload(0x40)\n      0x08c379a000000000000000000000000000000000000000000000000000000000\n      dup2\n      mstore\n      0x04\n      add\n      dup1\n      dup1\n      0x20\n      add\n      dup3\n      dup2\n      sub\n      dup3\n      mstore\n      dup4\n      dup2\n      dup2\n      mload\n      dup2\n      mstore\n      0x20\n      add\n      swap2\n      pop\n      dup1\n      mload\n      swap1\n      0x20\n      add\n      swap1\n      dup1\n      dup4\n      dup4\n        /* \"--CODEGEN--\":23:24   */\n      0x00\n        /* \"--CODEGEN--\":8:108   */\n    tag_150:\n        /* \"--CODEGEN--\":33:36   */\n      dup4\n        /* \"--CODEGEN--\":30:31   */\n      dup2\n        /* \"--CODEGEN--\":27:37   */\n      lt\n        /* \"--CODEGEN--\":8:108   */\n      iszero\n      tag_152\n      jumpi\n        /* \"--CODEGEN--\":99:100   */\n      dup1\n        /* \"--CODEGEN--\":94:97   */\n      dup3\n        /* \"--CODEGEN--\":90:101   */\n      add\n        /* \"--CODEGEN--\":84:102   */\n      mload\n        /* \"--CODEGEN--\":80:81   */\n      dup2\n        /* \"--CODEGEN--\":75:78   */\n      dup5\n        /* \"--CODEGEN--\":71:82   */\n      add\n        /* \"--CODEGEN--\":64:103   */\n      mstore\n        /* \"--CODEGEN--\":52:54   */\n      0x20\n        /* \"--CODEGEN--\":49:50   */\n      dup2\n        /* \"--CODEGEN--\":45:55   */\n      add\n        /* \"--CODEGEN--\":40:55   */\n      swap1\n      pop\n        /* \"--CODEGEN--\":8:108   */\n      jump(tag_150)\n    tag_152:\n        /* \"--CODEGEN--\":12:26   */\n      pop\n        /* \"https://github.com/OpenZeppelin/openzeppelin-contracts/blob/v3.2.0/contracts/math/SafeMath.sol\":1851:1880  require(b <= a, errorMessage) */\n      pop\n      pop\n      pop\n      swap1\n      pop\n      swap1\n      dup2\n      add\n      swap1\n      0x1f\n      and\n      dup1\n      iszero\n      tag_153\n      jumpi\n      dup1\n      dup3\n      sub\n      dup1\n      mload\n      0x01\n      dup4\n      0x20\n      sub\n      0x0100\n      exp\n      sub\n      not\n      and\n      dup2\n      mstore\n      0x20\n      add\n      swap2\n      pop\n    tag_153:\n      pop\n      swap3\n      pop\n      pop\n      pop\n      mload(0x40)\n      dup1\n      swap2\n      sub\n      swap1\n      revert\n    tag_149:\n      pop\n        /* \"https://github.com/OpenZeppelin/openzeppelin-contracts/blob/v3.2.0/contracts/math/SafeMath.sol\":1890:1899  uint256 c */\n      0x00\n        /* \"https://github.com/OpenZeppelin/openzeppelin-contracts/blob/v3.2.0/contracts/math/SafeMath.sol\":1906:1907  b */\n      dup4\n        /* \"https://github.com/OpenZeppelin/openzeppelin-contracts/blob/v3.2.0/contracts/math/SafeMath.sol\":1902:1903  a */\n      dup6\n        /* \"https://github.com/OpenZeppelin/openzeppelin-contracts/blob/v3.2.0/contracts/math/SafeMath.sol\":1902:1907  a - b */\n      sub\n        /* \"https://github.com/OpenZeppelin/openzeppelin-contracts/blob/v3.2.0/contracts/math/SafeMath.sol\":1890:1907  uint256 c = a - b */\n      swap1\n      pop\n        /* \"https://github.com/OpenZeppelin/openzeppelin-contracts/blob/v3.2.0/contracts/math/SafeMath.sol\":1925:1926  c */\n      dup1\n        /* \"https://github.com/OpenZeppelin/openzeppelin-contracts/blob/v3.2.0/contracts/math/SafeMath.sol\":1918:1926  return c */\n      swap2\n      pop\n      pop\n        /* \"https://github.com/OpenZeppelin/openzeppelin-contracts/blob/v3.2.0/contracts/math/SafeMath.sol\":1746:1933  function sub(uint256 a, uint256 b, string memory errorMessage) internal pure returns (uint256) {... */\n      swap4\n      swap3\n      pop\n      pop\n      pop\n      jump\t// out\n        /* \"https://github.com/OpenZeppelin/openzeppelin-contracts/blob/v3.2.0/contracts/math/SafeMath.sol\":874:1050  function add(uint256 a, uint256 b) internal pure returns (uint256) {... */\n    tag_104:\n        /* \"https://github.com/OpenZeppelin/openzeppelin-contracts/blob/v3.2.0/contracts/math/SafeMath.sol\":932:939  uint256 */\n      0x00\n        /* \"https://github.com/OpenZeppelin/openzeppelin-contracts/blob/v3.2.0/contracts/math/SafeMath.sol\":951:960  uint256 c */\n      dup1\n        /* \"https://github.com/OpenZeppelin/openzeppelin-contracts/blob/v3.2.0/contracts/math/SafeMath.sol\":967:968  b */\n      dup3\n        /* \"https://github.com/OpenZeppelin/openzeppelin-contracts/blob/v3.2.0/contracts/math/SafeMath.sol\":963:964  a */\n      dup5\n        /* \"https://github.com/OpenZeppelin/openzeppelin-contracts/blob/v3.2.0/contracts/math/SafeMath.sol\":963:968  a + b */\n      add\n        /* \"https://github.com/OpenZeppelin/openzeppelin-contracts/blob/v3.2.0/contracts/math/SafeMath.sol\":951:968  uint256 c = a + b */\n      swap1\n      pop\n        /* \"https://github.com/OpenZeppelin/openzeppelin-contracts/blob/v3.2.0/contracts/math/SafeMath.sol\":991:992  a */\n      dup4\n        /* \"https://github.com/OpenZeppelin/openzeppelin-contracts/blob/v3.2.0/contracts/math/SafeMath.sol\":986:987  c */\n      dup2\n        /* \"https://github.com/OpenZeppelin/openzeppelin-contracts/blob/v3.2.0/contracts/math/SafeMath.sol\":986:992  c >= a */\n      lt\n      iszero\n        /* \"https://github.com/OpenZeppelin/openzeppelin-contracts/blob/v3.2.0/contracts/math/SafeMath.sol\":978:1024  require(c >= a, \"SafeMath: addition overflow\") */\n      tag_155\n      jumpi\n      mload(0x40)\n      0x08c379a000000000000000000000000000000000000000000000000000000000\n      dup2\n      mstore\n      0x04\n      add\n      dup1\n      dup1\n      0x20\n      add\n      dup3\n      dup2\n      sub\n      dup3\n      mstore\n      0x1b\n      dup2\n      mstore\n      0x20\n      add\n      dup1\n      0x536166654d6174683a206164646974696f6e206f766572666c6f770000000000\n      dup2\n      mstore\n      pop\n      0x20\n      add\n      swap2\n      pop\n      pop\n      mload(0x40)\n      dup1\n      swap2\n      sub\n      swap1\n      revert\n    tag_155:\n        /* \"https://github.com/OpenZeppelin/openzeppelin-contracts/blob/v3.2.0/contracts/math/SafeMath.sol\":1042:1043  c */\n      dup1\n        /* \"https://github.com/OpenZeppelin/openzeppelin-contracts/blob/v3.2.0/contracts/math/SafeMath.sol\":1035:1043  return c */\n      swap2\n      pop\n      pop\n        /* \"https://github.com/OpenZeppelin/openzeppelin-contracts/blob/v3.2.0/contracts/math/SafeMath.sol\":874:1050  function add(uint256 a, uint256 b) internal pure returns (uint256) {... */\n      swap3\n      swap2\n      pop\n      pop\n      jump\t// out\n        /* \"https://github.com/OpenZeppelin/openzeppelin-contracts/blob/v3.2.0/contracts/token/ERC1155/ERC1155.sol\":13276:14054  function _doSafeBatchTransferAcceptanceCheck(... */\n    tag_112:\n        /* \"https://github.com/OpenZeppelin/openzeppelin-contracts/blob/v3.2.0/contracts/token/ERC1155/ERC1155.sol\":13520:13535  to.isContract() */\n      tag_157\n        /* \"https://github.com/OpenZeppelin/openzeppelin-contracts/blob/v3.2.0/contracts/token/ERC1155/ERC1155.sol\":13520:13522  to */\n      dup5\n        /* \"https://github.com/OpenZeppelin/openzeppelin-contracts/blob/v3.2.0/contracts/token/ERC1155/ERC1155.sol\":13520:13533  to.isContract */\n      0xffffffffffffffffffffffffffffffffffffffff\n      and\n      tag_158\n        /* \"https://github.com/OpenZeppelin/openzeppelin-contracts/blob/v3.2.0/contracts/token/ERC1155/ERC1155.sol\":13520:13535  to.isContract() */\n      jump\t// in\n    tag_157:\n        /* \"https://github.com/OpenZeppelin/openzeppelin-contracts/blob/v3.2.0/contracts/token/ERC1155/ERC1155.sol\":13516:14048  if (to.isContract()) {... */\n      iszero\n      tag_159\n      jumpi\n        /* \"https://github.com/OpenZeppelin/openzeppelin-contracts/blob/v3.2.0/contracts/token/ERC1155/ERC1155.sol\":13572:13574  to */\n      dup4\n        /* \"https://github.com/OpenZeppelin/openzeppelin-contracts/blob/v3.2.0/contracts/token/ERC1155/ERC1155.sol\":13555:13598  IERC1155Receiver(to).onERC1155BatchReceived */\n      0xffffffffffffffffffffffffffffffffffffffff\n      and\n      0xbc197c81\n        /* \"https://github.com/OpenZeppelin/openzeppelin-contracts/blob/v3.2.0/contracts/token/ERC1155/ERC1155.sol\":13599:13607  operator */\n      dup8\n        /* \"https://github.com/OpenZeppelin/openzeppelin-contracts/blob/v3.2.0/contracts/token/ERC1155/ERC1155.sol\":13609:13613  from */\n      dup8\n        /* \"https://github.com/OpenZeppelin/openzeppelin-contracts/blob/v3.2.0/contracts/token/ERC1155/ERC1155.sol\":13615:13618  ids */\n      dup7\n        /* \"https://github.com/OpenZeppelin/openzeppelin-contracts/blob/v3.2.0/contracts/token/ERC1155/ERC1155.sol\":13620:13627  amounts */\n      dup7\n        /* \"https://github.com/OpenZeppelin/openzeppelin-contracts/blob/v3.2.0/contracts/token/ERC1155/ERC1155.sol\":13629:13633  data */\n      dup7\n        /* \"https://github.com/OpenZeppelin/openzeppelin-contracts/blob/v3.2.0/contracts/token/ERC1155/ERC1155.sol\":13555:13634  IERC1155Receiver(to).onERC1155BatchReceived(operator, from, ids, amounts, data) */\n      mload(0x40)\n      dup7\n      0xffffffff\n      and\n      0xe0\n      shl\n      dup2\n      mstore\n      0x04\n      add\n      dup1\n      dup7\n      0xffffffffffffffffffffffffffffffffffffffff\n      and\n      0xffffffffffffffffffffffffffffffffffffffff\n      and\n      dup2\n      mstore\n      0x20\n      add\n      dup6\n      0xffffffffffffffffffffffffffffffffffffffff\n      and\n      0xffffffffffffffffffffffffffffffffffffffff\n      and\n      dup2\n      mstore\n      0x20\n      add\n      dup1\n      0x20\n      add\n      dup1\n      0x20\n      add\n      dup1\n      0x20\n      add\n      dup5\n      dup2\n      sub\n      dup5\n      mstore\n      dup8\n      dup2\n      dup2\n      mload\n      dup2\n      mstore\n      0x20\n      add\n      swap2\n      pop\n      dup1\n      mload\n      swap1\n      0x20\n      add\n      swap1\n      0x20\n      mul\n      dup1\n      dup4\n      dup4\n        /* \"--CODEGEN--\":23:24   */\n      0x00\n        /* \"--CODEGEN--\":8:108   */\n    tag_160:\n        /* \"--CODEGEN--\":33:36   */\n      dup4\n        /* \"--CODEGEN--\":30:31   */\n      dup2\n        /* \"--CODEGEN--\":27:37   */\n      lt\n        /* \"--CODEGEN--\":8:108   */\n      iszero\n      tag_162\n      jumpi\n        /* \"--CODEGEN--\":99:100   */\n      dup1\n        /* \"--CODEGEN--\":94:97   */\n      dup3\n        /* \"--CODEGEN--\":90:101   */\n      add\n        /* \"--CODEGEN--\":84:102   */\n      mload\n        /* \"--CODEGEN--\":80:81   */\n      dup2\n        /* \"--CODEGEN--\":75:78   */\n      dup5\n        /* \"--CODEGEN--\":71:82   */\n      add\n        /* \"--CODEGEN--\":64:103   */\n      mstore\n        /* \"--CODEGEN--\":52:54   */\n      0x20\n        /* \"--CODEGEN--\":49:50   */\n      dup2\n        /* \"--CODEGEN--\":45:55   */\n      add\n        /* \"--CODEGEN--\":40:55   */\n      swap1\n      pop\n        /* \"--CODEGEN--\":8:108   */\n      jump(tag_160)\n    tag_162:\n        /* \"--CODEGEN--\":12:26   */\n      pop\n        /* \"https://github.com/OpenZeppelin/openzeppelin-contracts/blob/v3.2.0/contracts/token/ERC1155/ERC1155.sol\":13555:13634  IERC1155Receiver(to).onERC1155BatchReceived(operator, from, ids, amounts, data) */\n      pop\n      pop\n      pop\n      swap1\n      pop\n      add\n      dup5\n      dup2\n      sub\n      dup4\n      mstore\n      dup7\n      dup2\n      dup2\n      mload\n      dup2\n      mstore\n      0x20\n      add\n      swap2\n      pop\n      dup1\n      mload\n      swap1\n      0x20\n      add\n      swap1\n      0x20\n      mul\n      dup1\n      dup4\n      dup4\n        /* \"--CODEGEN--\":23:24   */\n      0x00\n        /* \"--CODEGEN--\":8:108   */\n    tag_163:\n        /* \"--CODEGEN--\":33:36   */\n      dup4\n        /* \"--CODEGEN--\":30:31   */\n      dup2\n        /* \"--CODEGEN--\":27:37   */\n      lt\n        /* \"--CODEGEN--\":8:108   */\n      iszero\n      tag_165\n      jumpi\n        /* \"--CODEGEN--\":99:100   */\n      dup1\n        /* \"--CODEGEN--\":94:97   */\n      dup3\n        /* \"--CODEGEN--\":90:101   */\n      add\n        /* \"--CODEGEN--\":84:102   */\n      mload\n        /* \"--CODEGEN--\":80:81   */\n      dup2\n        /* \"--CODEGEN--\":75:78   */\n      dup5\n        /* \"--CODEGEN--\":71:82   */\n      add\n        /* \"--CODEGEN--\":64:103   */\n      mstore\n        /* \"--CODEGEN--\":52:54   */\n      0x20\n        /* \"--CODEGEN--\":49:50   */\n      dup2\n        /* \"--CODEGEN--\":45:55   */\n      add\n        /* \"--CODEGEN--\":40:55   */\n      swap1\n      pop\n        /* \"--CODEGEN--\":8:108   */\n      jump(tag_163)\n    tag_165:\n        /* \"--CODEGEN--\":12:26   */\n      pop\n        /* \"https://github.com/OpenZeppelin/openzeppelin-contracts/blob/v3.2.0/contracts/token/ERC1155/ERC1155.sol\":13555:13634  IERC1155Receiver(to).onERC1155BatchReceived(operator, from, ids, amounts, data) */\n      pop\n      pop\n      pop\n      swap1\n      pop\n      add\n      dup5\n      dup2\n      sub\n      dup3\n      mstore\n      dup6\n      dup2\n      dup2\n      mload\n      dup2\n      mstore\n      0x20\n      add\n      swap2\n      pop\n      dup1\n      mload\n      swap1\n      0x20\n      add\n      swap1\n      dup1\n      dup4\n      dup4\n        /* \"--CODEGEN--\":23:24   */\n      0x00\n        /* \"--CODEGEN--\":8:108   */\n    tag_166:\n        /* \"--CODEGEN--\":33:36   */\n      dup4\n        /* \"--CODEGEN--\":30:31   */\n      dup2\n        /* \"--CODEGEN--\":27:37   */\n      lt\n        /* \"--CODEGEN--\":8:108   */\n      iszero\n      tag_168\n      jumpi\n        /* \"--CODEGEN--\":99:100   */\n      dup1\n        /* \"--CODEGEN--\":94:97   */\n      dup3\n        /* \"--CODEGEN--\":90:101   */\n      add\n        /* \"--CODEGEN--\":84:102   */\n      mload\n        /* \"--CODEGEN--\":80:81   */\n      dup2\n        /* \"--CODEGEN--\":75:78   */\n      dup5\n        /* \"--CODEGEN--\":71:82   */\n      add\n        /* \"--CODEGEN--\":64:103   */\n      mstore\n        /* \"--CODEGEN--\":52:54   */\n      0x20\n        /* \"--CODEGEN--\":49:50   */\n      dup2\n        /* \"--CODEGEN--\":45:55   */\n      add\n        /* \"--CODEGEN--\":40:55   */\n      swap1\n      pop\n        /* \"--CODEGEN--\":8:108   */\n      jump(tag_166)\n    tag_168:\n        /* \"--CODEGEN--\":12:26   */\n      pop\n        /* \"https://github.com/OpenZeppelin/openzeppelin-contracts/blob/v3.2.0/contracts/token/ERC1155/ERC1155.sol\":13555:13634  IERC1155Receiver(to).onERC1155BatchReceived(operator, from, ids, amounts, data) */\n      pop\n      pop\n      pop\n      swap1\n      pop\n      swap1\n      dup2\n      add\n      swap1\n      0x1f\n      and\n      dup1\n      iszero\n      tag_169\n      jumpi\n      dup1\n      dup3\n      sub\n      dup1\n      mload\n      0x01\n      dup4\n      0x20\n      sub\n      0x0100\n      exp\n      sub\n      not\n      and\n      dup2\n      mstore\n      0x20\n      add\n      swap2\n      pop\n    tag_169:\n      pop\n      swap9\n      pop\n      pop\n      pop\n      pop\n      pop\n      pop\n      pop\n      pop\n      pop\n      0x20\n      mload(0x40)\n      dup1\n      dup4\n      sub\n      dup2\n      0x00\n      dup8\n      dup1\n      extcodesize\n      iszero\n        /* \"--CODEGEN--\":8:17   */\n      dup1\n        /* \"--CODEGEN--\":5:7   */\n      iszero\n      tag_170\n      jumpi\n        /* \"--CODEGEN--\":30:31   */\n      0x00\n        /* \"--CODEGEN--\":27:28   */\n      dup1\n        /* \"--CODEGEN--\":20:32   */\n      revert\n        /* \"--CODEGEN--\":5:7   */\n    tag_170:\n        /* \"https://github.com/OpenZeppelin/openzeppelin-contracts/blob/v3.2.0/contracts/token/ERC1155/ERC1155.sol\":13555:13634  IERC1155Receiver(to).onERC1155BatchReceived(operator, from, ids, amounts, data) */\n      pop\n      gas\n      call\n      swap3\n      pop\n      pop\n      pop\n      dup1\n      iszero\n      tag_171\n      jumpi\n      pop\n      mload(0x40)\n      returndatasize\n        /* \"--CODEGEN--\":13:15   */\n      0x20\n        /* \"--CODEGEN--\":8:11   */\n      dup2\n        /* \"--CODEGEN--\":5:16   */\n      lt\n        /* \"--CODEGEN--\":2:4   */\n      iszero\n      tag_172\n      jumpi\n        /* \"--CODEGEN--\":29:30   */\n      0x00\n        /* \"--CODEGEN--\":26:27   */\n      dup1\n        /* \"--CODEGEN--\":19:31   */\n      revert\n        /* \"--CODEGEN--\":2:4   */\n    tag_172:\n        /* \"https://github.com/OpenZeppelin/openzeppelin-contracts/blob/v3.2.0/contracts/token/ERC1155/ERC1155.sol\":13555:13634  IERC1155Receiver(to).onERC1155BatchReceived(operator, from, ids, amounts, data) */\n      dup2\n      add\n      swap1\n      dup1\n      dup1\n      mload\n      swap1\n      0x20\n      add\n      swap1\n      swap3\n      swap2\n      swap1\n      pop\n      pop\n      pop\n      0x01\n    tag_171:\n        /* \"https://github.com/OpenZeppelin/openzeppelin-contracts/blob/v3.2.0/contracts/token/ERC1155/ERC1155.sol\":13551:14038  try IERC1155Receiver(to).onERC1155BatchReceived(operator, from, ids, amounts, data) returns (bytes4 response) {... */\n      tag_173\n      jumpi\n      0x00\n        /* \"--CODEGEN--\":20:24   */\n      0x40\n        /* \"--CODEGEN--\":14:25   */\n      mload\n        /* \"--CODEGEN--\":6:25   */\n      swap1\n      pop\n        /* \"--CODEGEN--\":43:44   */\n      0x00\n        /* \"--CODEGEN--\":37:41   */\n      dup2\n        /* \"--CODEGEN--\":30:45   */\n      mstore\n        /* \"--CODEGEN--\":57:58   */\n      0x01\n        /* \"--CODEGEN--\":50:780   */\n      iszero\n      tag_178\n      jumpi\n        /* \"--CODEGEN--\":93:97   */\n      0x44\n        /* \"--CODEGEN--\":75:91   */\n      returndatasize\n        /* \"--CODEGEN--\":72:98   */\n      lt\n        /* \"--CODEGEN--\":69:71   */\n      iszero\n      tag_179\n      jumpi\n        /* \"--CODEGEN--\":109:110   */\n      0x00\n        /* \"--CODEGEN--\":101:110   */\n      swap1\n      pop\n        /* \"--CODEGEN--\":111:116   */\n      jump(tag_178)\n        /* \"--CODEGEN--\":69:71   */\n    tag_179:\n        /* \"--CODEGEN--\":145:146   */\n      0x04\n        /* \"--CODEGEN--\":142:143   */\n      0x00\n        /* \"--CODEGEN--\":139:140   */\n      dup1\n        /* \"--CODEGEN--\":124:147   */\n      returndatacopy\n        /* \"--CODEGEN--\":179:180   */\n      0x00\n        /* \"--CODEGEN--\":173:181   */\n      mload\n        /* \"--CODEGEN--\":168:171   */\n      0xe0\n        /* \"--CODEGEN--\":164:182   */\n      shr\n        /* \"--CODEGEN--\":206:216   */\n      0x08c379a0\n        /* \"--CODEGEN--\":201:204   */\n      dup2\n        /* \"--CODEGEN--\":198:217   */\n      eq\n        /* \"--CODEGEN--\":188:190   */\n      tag_180\n      jumpi\n        /* \"--CODEGEN--\":229:230   */\n      0x00\n        /* \"--CODEGEN--\":221:230   */\n      swap2\n      pop\n        /* \"--CODEGEN--\":231:236   */\n      pop\n      jump(tag_178)\n        /* \"--CODEGEN--\":188:190   */\n    tag_180:\n        /* \"--CODEGEN--\":290:291   */\n      0x04\n        /* \"--CODEGEN--\":272:288   */\n      returndatasize\n        /* \"--CODEGEN--\":268:292   */\n      sub\n        /* \"--CODEGEN--\":265:266   */\n      0x04\n        /* \"--CODEGEN--\":259:263   */\n      dup4\n        /* \"--CODEGEN--\":244:293   */\n      returndatacopy\n        /* \"--CODEGEN--\":319:323   */\n      dup2\n        /* \"--CODEGEN--\":313:324   */\n      mload\n        /* \"--CODEGEN--\":403:419   */\n      returndatasize\n        /* \"--CODEGEN--\":396:400   */\n      0x24\n        /* \"--CODEGEN--\":388:394   */\n      dup3\n        /* \"--CODEGEN--\":384:401   */\n      add\n        /* \"--CODEGEN--\":381:420   */\n      gt\n        /* \"--CODEGEN--\":354:372   */\n      0xffffffffffffffff\n        /* \"--CODEGEN--\":346:352   */\n      dup3\n        /* \"--CODEGEN--\":343:373   */\n      gt\n        /* \"--CODEGEN--\":333:427   */\n      or\n        /* \"--CODEGEN--\":330:332   */\n      iszero\n      tag_181\n      jumpi\n        /* \"--CODEGEN--\":444:445   */\n      0x00\n        /* \"--CODEGEN--\":436:445   */\n      swap3\n      pop\n        /* \"--CODEGEN--\":452:457   */\n      pop\n      pop\n      jump(tag_178)\n        /* \"--CODEGEN--\":330:332   */\n    tag_181:\n        /* \"--CODEGEN--\":491:497   */\n      dup1\n        /* \"--CODEGEN--\":485:489   */\n      dup4\n        /* \"--CODEGEN--\":481:498   */\n      add\n        /* \"--CODEGEN--\":524:527   */\n      dup1\n        /* \"--CODEGEN--\":518:528   */\n      mload\n        /* \"--CODEGEN--\":548:566   */\n      0xffffffffffffffff\n        /* \"--CODEGEN--\":540:546   */\n      dup2\n        /* \"--CODEGEN--\":537:567   */\n      gt\n        /* \"--CODEGEN--\":534:536   */\n      iszero\n      tag_182\n      jumpi\n        /* \"--CODEGEN--\":578:579   */\n      0x00\n        /* \"--CODEGEN--\":570:579   */\n      swap5\n      pop\n        /* \"--CODEGEN--\":580:585   */\n      pop\n      pop\n      pop\n      pop\n      jump(tag_178)\n        /* \"--CODEGEN--\":534:536   */\n    tag_182:\n        /* \"--CODEGEN--\":624:630   */\n      dup1\n        /* \"--CODEGEN--\":617:621   */\n      0x20\n        /* \"--CODEGEN--\":612:615   */\n      dup4\n        /* \"--CODEGEN--\":608:622   */\n      add\n        /* \"--CODEGEN--\":604:631   */\n      add\n        /* \"--CODEGEN--\":658:674   */\n      returndatasize\n        /* \"--CODEGEN--\":652:656   */\n      dup7\n        /* \"--CODEGEN--\":648:675   */\n      add\n        /* \"--CODEGEN--\":643:646   */\n      dup2\n        /* \"--CODEGEN--\":640:676   */\n      gt\n        /* \"--CODEGEN--\":637:639   */\n      iszero\n      tag_183\n      jumpi\n        /* \"--CODEGEN--\":687:688   */\n      0x00\n        /* \"--CODEGEN--\":679:688   */\n      swap6\n      pop\n        /* \"--CODEGEN--\":689:694   */\n      pop\n      pop\n      pop\n      pop\n      pop\n      jump(tag_178)\n        /* \"--CODEGEN--\":637:639   */\n    tag_183:\n        /* \"--CODEGEN--\":739:743   */\n      0x1f\n        /* \"--CODEGEN--\":735:744   */\n      not\n        /* \"--CODEGEN--\":728:732   */\n      0x1f\n        /* \"--CODEGEN--\":723:726   */\n      dup3\n        /* \"--CODEGEN--\":719:733   */\n      add\n        /* \"--CODEGEN--\":715:745   */\n      and\n        /* \"--CODEGEN--\":709:713   */\n      0x40\n        /* \"--CODEGEN--\":702:746   */\n      mstore\n        /* \"--CODEGEN--\":760:763   */\n      dup3\n        /* \"--CODEGEN--\":752:763   */\n      swap6\n      pop\n        /* \"--CODEGEN--\":769:774   */\n      pop\n      pop\n      pop\n      pop\n      pop\n        /* \"--CODEGEN--\":50:780   */\n    tag_178:\n        /* \"https://github.com/OpenZeppelin/openzeppelin-contracts/blob/v3.2.0/contracts/token/ERC1155/ERC1155.sol\":13551:14038  try IERC1155Receiver(to).onERC1155BatchReceived(operator, from, ids, amounts, data) returns (bytes4 response) {... */\n      dup1\n      tag_184\n      jumpi\n      pop\n      jump(tag_175)\n    tag_184:\n        /* \"https://github.com/OpenZeppelin/openzeppelin-contracts/blob/v3.2.0/contracts/token/ERC1155/ERC1155.sol\":13914:13920  reason */\n      dup1\n        /* \"https://github.com/OpenZeppelin/openzeppelin-contracts/blob/v3.2.0/contracts/token/ERC1155/ERC1155.sol\":13907:13921  revert(reason) */\n      mload(0x40)\n      0x08c379a000000000000000000000000000000000000000000000000000000000\n      dup2\n      mstore\n      0x04\n      add\n      dup1\n      dup1\n      0x20\n      add\n      dup3\n      dup2\n      sub\n      dup3\n      mstore\n      dup4\n      dup2\n      dup2\n      mload\n      dup2\n      mstore\n      0x20\n      add\n      swap2\n      pop\n      dup1\n      mload\n      swap1\n      0x20\n      add\n      swap1\n      dup1\n      dup4\n      dup4\n        /* \"--CODEGEN--\":23:24   */\n      0x00\n        /* \"--CODEGEN--\":8:108   */\n    tag_185:\n        /* \"--CODEGEN--\":33:36   */\n      dup4\n        /* \"--CODEGEN--\":30:31   */\n      dup2\n        /* \"--CODEGEN--\":27:37   */\n      lt\n        /* \"--CODEGEN--\":8:108   */\n      iszero\n      tag_187\n      jumpi\n        /* \"--CODEGEN--\":99:100   */\n      dup1\n        /* \"--CODEGEN--\":94:97   */\n      dup3\n        /* \"--CODEGEN--\":90:101   */\n      add\n        /* \"--CODEGEN--\":84:102   */\n      mload\n        /* \"--CODEGEN--\":80:81   */\n      dup2\n        /* \"--CODEGEN--\":75:78   */\n      dup5\n        /* \"--CODEGEN--\":71:82   */\n      add\n        /* \"--CODEGEN--\":64:103   */\n      mstore\n        /* \"--CODEGEN--\":52:54   */\n      0x20\n        /* \"--CODEGEN--\":49:50   */\n      dup2\n        /* \"--CODEGEN--\":45:55   */\n      add\n        /* \"--CODEGEN--\":40:55   */\n      swap1\n      pop\n        /* \"--CODEGEN--\":8:108   */\n      jump(tag_185)\n    tag_187:\n        /* \"--CODEGEN--\":12:26   */\n      pop\n        /* \"https://github.com/OpenZeppelin/openzeppelin-contracts/blob/v3.2.0/contracts/token/ERC1155/ERC1155.sol\":13907:13921  revert(reason) */\n      pop\n      pop\n      pop\n      swap1\n      pop\n      swap1\n      dup2\n      add\n      swap1\n      0x1f\n      and\n      dup1\n      iszero\n      tag_188\n      jumpi\n      dup1\n      dup3\n      sub\n      dup1\n      mload\n      0x01\n      dup4\n      0x20\n      sub\n      0x0100\n      exp\n      sub\n      not\n      and\n      dup2\n      mstore\n      0x20\n      add\n      swap2\n      pop\n    tag_188:\n      pop\n      swap3\n      pop\n      pop\n      pop\n      mload(0x40)\n      dup1\n      swap2\n      sub\n      swap1\n      revert\n        /* \"https://github.com/OpenZeppelin/openzeppelin-contracts/blob/v3.2.0/contracts/token/ERC1155/ERC1155.sol\":13551:14038  try IERC1155Receiver(to).onERC1155BatchReceived(operator, from, ids, amounts, data) returns (bytes4 response) {... */\n    tag_175:\n        /* \"https://github.com/OpenZeppelin/openzeppelin-contracts/blob/v3.2.0/contracts/token/ERC1155/ERC1155.sol\":13961:14023  revert(\"ERC1155: transfer to non ERC1155Receiver implementer\") */\n      mload(0x40)\n      0x08c379a000000000000000000000000000000000000000000000000000000000\n      dup2\n      mstore\n      0x04\n      add\n      dup1\n      dup1\n      0x20\n      add\n      dup3\n      dup2\n      sub\n      dup3\n      mstore\n      0x34\n      dup2\n      mstore\n      0x20\n      add\n      dup1\n      data_00aa752fb1526000e5241602affc3d70ef506da48a27ea57140102b439e655ed\n      0x34\n      swap2\n      codecopy\n      0x40\n      add\n      swap2\n      pop\n      pop\n      mload(0x40)\n      dup1\n      swap2\n      sub\n      swap1\n      revert\n        /* \"https://github.com/OpenZeppelin/openzeppelin-contracts/blob/v3.2.0/contracts/token/ERC1155/ERC1155.sol\":13551:14038  try IERC1155Receiver(to).onERC1155BatchReceived(operator, from, ids, amounts, data) returns (bytes4 response) {... */\n    tag_173:\n        /* \"https://github.com/OpenZeppelin/openzeppelin-contracts/blob/v3.2.0/contracts/token/ERC1155/ERC1155.sol\":13695:13747  IERC1155Receiver(to).onERC1155BatchReceived.selector */\n      shl(0xe0, 0xbc197c81)\n        /* \"https://github.com/OpenZeppelin/openzeppelin-contracts/blob/v3.2.0/contracts/token/ERC1155/ERC1155.sol\":13683:13747  response != IERC1155Receiver(to).onERC1155BatchReceived.selector */\n      not(0xffffffffffffffffffffffffffffffffffffffffffffffffffffffff)\n      and\n        /* \"https://github.com/OpenZeppelin/openzeppelin-contracts/blob/v3.2.0/contracts/token/ERC1155/ERC1155.sol\":13683:13691  response */\n      dup2\n        /* \"https://github.com/OpenZeppelin/openzeppelin-contracts/blob/v3.2.0/contracts/token/ERC1155/ERC1155.sol\":13683:13747  response != IERC1155Receiver(to).onERC1155BatchReceived.selector */\n      not(0xffffffffffffffffffffffffffffffffffffffffffffffffffffffff)\n      and\n      eq\n        /* \"https://github.com/OpenZeppelin/openzeppelin-contracts/blob/v3.2.0/contracts/token/ERC1155/ERC1155.sol\":13679:13840  if (response != IERC1155Receiver(to).onERC1155BatchReceived.selector) {... */\n      tag_190\n      jumpi\n        /* \"https://github.com/OpenZeppelin/openzeppelin-contracts/blob/v3.2.0/contracts/token/ERC1155/ERC1155.sol\":13771:13821  revert(\"ERC1155: ERC1155Receiver rejected tokens\") */\n      mload(0x40)\n      0x08c379a000000000000000000000000000000000000000000000000000000000\n      dup2\n      mstore\n      0x04\n      add\n      dup1\n      dup1\n      0x20\n      add\n      dup3\n      dup2\n      sub\n      dup3\n      mstore\n      0x28\n      dup2\n      mstore\n      0x20\n      add\n      dup1\n      data_0587cccad73a80a7f013db13c596f4febc1968dc77e1d3589d5e7a509a3d6503\n      0x28\n      swap2\n      codecopy\n      0x40\n      add\n      swap2\n      pop\n      pop\n      mload(0x40)\n      dup1\n      swap2\n      sub\n      swap1\n      revert\n        /* \"https://github.com/OpenZeppelin/openzeppelin-contracts/blob/v3.2.0/contracts/token/ERC1155/ERC1155.sol\":13679:13840  if (response != IERC1155Receiver(to).onERC1155BatchReceived.selector) {... */\n    tag_190:\n        /* \"https://github.com/OpenZeppelin/openzeppelin-contracts/blob/v3.2.0/contracts/token/ERC1155/ERC1155.sol\":13635:13854  returns (bytes4 response) {... */\n      pop\n        /* \"https://github.com/OpenZeppelin/openzeppelin-contracts/blob/v3.2.0/contracts/token/ERC1155/ERC1155.sol\":13516:14048  if (to.isContract()) {... */\n    tag_159:\n        /* \"https://github.com/OpenZeppelin/openzeppelin-contracts/blob/v3.2.0/contracts/token/ERC1155/ERC1155.sol\":13276:14054  function _doSafeBatchTransferAcceptanceCheck(... */\n      pop\n      pop\n      pop\n      pop\n      pop\n      pop\n      jump\t// out\n        /* \"https://github.com/OpenZeppelin/openzeppelin-contracts/blob/v3.2.0/contracts/token/ERC1155/ERC1155.sol\":14060:14253  function _asSingletonArray(uint256 element) private pure returns (uint256[] memory) {... */\n    tag_140:\n        /* \"https://github.com/OpenZeppelin/openzeppelin-contracts/blob/v3.2.0/contracts/token/ERC1155/ERC1155.sol\":14126:14142  uint256[] memory */\n      0x60\n        /* \"https://github.com/OpenZeppelin/openzeppelin-contracts/blob/v3.2.0/contracts/token/ERC1155/ERC1155.sol\":14154:14176  uint256[] memory array */\n      dup1\n        /* \"https://github.com/OpenZeppelin/openzeppelin-contracts/blob/v3.2.0/contracts/token/ERC1155/ERC1155.sol\":14193:14194  1 */\n      0x01\n        /* \"https://github.com/OpenZeppelin/openzeppelin-contracts/blob/v3.2.0/contracts/token/ERC1155/ERC1155.sol\":14179:14195  new uint256[](1) */\n      mload(0x40)\n      swap1\n      dup1\n      dup3\n      mstore\n      dup1\n      0x20\n      mul\n      0x20\n      add\n      dup3\n      add\n      0x40\n      mstore\n      dup1\n      iszero\n      tag_192\n      jumpi\n      dup2\n      0x20\n      add\n        /* \"--CODEGEN--\":29:31   */\n      0x20\n        /* \"--CODEGEN--\":21:27   */\n      dup3\n        /* \"--CODEGEN--\":17:32   */\n      mul\n        /* \"--CODEGEN--\":117:121   */\n      dup1\n        /* \"--CODEGEN--\":105:115   */\n      codesize\n        /* \"--CODEGEN--\":97:103   */\n      dup4\n        /* \"--CODEGEN--\":88:122   */\n      codecopy\n        /* \"--CODEGEN--\":148:152   */\n      dup1\n        /* \"--CODEGEN--\":140:146   */\n      dup3\n        /* \"--CODEGEN--\":136:153   */\n      add\n        /* \"--CODEGEN--\":126:153   */\n      swap2\n      pop\n        /* \"--CODEGEN--\":0:157   */\n      pop\n        /* \"https://github.com/OpenZeppelin/openzeppelin-contracts/blob/v3.2.0/contracts/token/ERC1155/ERC1155.sol\":14179:14195  new uint256[](1) */\n      swap1\n      pop\n    tag_192:\n      pop\n        /* \"https://github.com/OpenZeppelin/openzeppelin-contracts/blob/v3.2.0/contracts/token/ERC1155/ERC1155.sol\":14154:14195  uint256[] memory array = new uint256[](1) */\n      swap1\n      pop\n        /* \"https://github.com/OpenZeppelin/openzeppelin-contracts/blob/v3.2.0/contracts/token/ERC1155/ERC1155.sol\":14216:14223  element */\n      dup3\n        /* \"https://github.com/OpenZeppelin/openzeppelin-contracts/blob/v3.2.0/contracts/token/ERC1155/ERC1155.sol\":14205:14210  array */\n      dup2\n        /* \"https://github.com/OpenZeppelin/openzeppelin-contracts/blob/v3.2.0/contracts/token/ERC1155/ERC1155.sol\":14211:14212  0 */\n      0x00\n        /* \"https://github.com/OpenZeppelin/openzeppelin-contracts/blob/v3.2.0/contracts/token/ERC1155/ERC1155.sol\":14205:14213  array[0] */\n      dup2\n      mload\n      dup2\n      lt\n      tag_193\n      jumpi\n      invalid\n    tag_193:\n      0x20\n      mul\n      0x20\n      add\n      add\n        /* \"https://github.com/OpenZeppelin/openzeppelin-contracts/blob/v3.2.0/contracts/token/ERC1155/ERC1155.sol\":14205:14223  array[0] = element */\n      dup2\n      dup2\n      mstore\n      pop\n      pop\n        /* \"https://github.com/OpenZeppelin/openzeppelin-contracts/blob/v3.2.0/contracts/token/ERC1155/ERC1155.sol\":14241:14246  array */\n      dup1\n        /* \"https://github.com/OpenZeppelin/openzeppelin-contracts/blob/v3.2.0/contracts/token/ERC1155/ERC1155.sol\":14234:14246  return array */\n      swap2\n      pop\n      pop\n        /* \"https://github.com/OpenZeppelin/openzeppelin-contracts/blob/v3.2.0/contracts/token/ERC1155/ERC1155.sol\":14060:14253  function _asSingletonArray(uint256 element) private pure returns (uint256[] memory) {... */\n      swap2\n      swap1\n      pop\n      jump\t// out\n        /* \"https://github.com/OpenZeppelin/openzeppelin-contracts/blob/v3.2.0/contracts/token/ERC1155/ERC1155.sol\":12529:13270  function _doSafeTransferAcceptanceCheck(... */\n    tag_145:\n        /* \"https://github.com/OpenZeppelin/openzeppelin-contracts/blob/v3.2.0/contracts/token/ERC1155/ERC1155.sol\":12748:12763  to.isContract() */\n      tag_195\n        /* \"https://github.com/OpenZeppelin/openzeppelin-contracts/blob/v3.2.0/contracts/token/ERC1155/ERC1155.sol\":12748:12750  to */\n      dup5\n        /* \"https://github.com/OpenZeppelin/openzeppelin-contracts/blob/v3.2.0/contracts/token/ERC1155/ERC1155.sol\":12748:12761  to.isContract */\n      0xffffffffffffffffffffffffffffffffffffffff\n      and\n      tag_158\n        /* \"https://github.com/OpenZeppelin/openzeppelin-contracts/blob/v3.2.0/contracts/token/ERC1155/ERC1155.sol\":12748:12763  to.isContract() */\n      jump\t// in\n    tag_195:\n        /* \"https://github.com/OpenZeppelin/openzeppelin-contracts/blob/v3.2.0/contracts/token/ERC1155/ERC1155.sol\":12744:13264  if (to.isContract()) {... */\n      iszero\n      tag_196\n      jumpi\n        /* \"https://github.com/OpenZeppelin/openzeppelin-contracts/blob/v3.2.0/contracts/token/ERC1155/ERC1155.sol\":12800:12802  to */\n      dup4\n        /* \"https://github.com/OpenZeppelin/openzeppelin-contracts/blob/v3.2.0/contracts/token/ERC1155/ERC1155.sol\":12783:12821  IERC1155Receiver(to).onERC1155Received */\n      0xffffffffffffffffffffffffffffffffffffffff\n      and\n      0xf23a6e61\n        /* \"https://github.com/OpenZeppelin/openzeppelin-contracts/blob/v3.2.0/contracts/token/ERC1155/ERC1155.sol\":12822:12830  operator */\n      dup8\n        /* \"https://github.com/OpenZeppelin/openzeppelin-contracts/blob/v3.2.0/contracts/token/ERC1155/ERC1155.sol\":12832:12836  from */\n      dup8\n        /* \"https://github.com/OpenZeppelin/openzeppelin-contracts/blob/v3.2.0/contracts/token/ERC1155/ERC1155.sol\":12838:12840  id */\n      dup7\n        /* \"https://github.com/OpenZeppelin/openzeppelin-contracts/blob/v3.2.0/contracts/token/ERC1155/ERC1155.sol\":12842:12848  amount */\n      dup7\n        /* \"https://github.com/OpenZeppelin/openzeppelin-contracts/blob/v3.2.0/contracts/token/ERC1155/ERC1155.sol\":12850:12854  data */\n      dup7\n        /* \"https://github.com/OpenZeppelin/openzeppelin-contracts/blob/v3.2.0/contracts/token/ERC1155/ERC1155.sol\":12783:12855  IERC1155Receiver(to).onERC1155Received(operator, from, id, amount, data) */\n      mload(0x40)\n      dup7\n      0xffffffff\n      and\n      0xe0\n      shl\n      dup2\n      mstore\n      0x04\n      add\n      dup1\n      dup7\n      0xffffffffffffffffffffffffffffffffffffffff\n      and\n      0xffffffffffffffffffffffffffffffffffffffff\n      and\n      dup2\n      mstore\n      0x20\n      add\n      dup6\n      0xffffffffffffffffffffffffffffffffffffffff\n      and\n      0xffffffffffffffffffffffffffffffffffffffff\n      and\n      dup2\n      mstore\n      0x20\n      add\n      dup5\n      dup2\n      mstore\n      0x20\n      add\n      dup4\n      dup2\n      mstore\n      0x20\n      add\n      dup1\n      0x20\n      add\n      dup3\n      dup2\n      sub\n      dup3\n      mstore\n      dup4\n      dup2\n      dup2\n      mload\n      dup2\n      mstore\n      0x20\n      add\n      swap2\n      pop\n      dup1\n      mload\n      swap1\n      0x20\n      add\n      swap1\n      dup1\n      dup4\n      dup4\n        /* \"--CODEGEN--\":23:24   */\n      0x00\n        /* \"--CODEGEN--\":8:108   */\n    tag_197:\n        /* \"--CODEGEN--\":33:36   */\n      dup4\n        /* \"--CODEGEN--\":30:31   */\n      dup2\n        /* \"--CODEGEN--\":27:37   */\n      lt\n        /* \"--CODEGEN--\":8:108   */\n      iszero\n      tag_199\n      jumpi\n        /* \"--CODEGEN--\":99:100   */\n      dup1\n        /* \"--CODEGEN--\":94:97   */\n      dup3\n        /* \"--CODEGEN--\":90:101   */\n      add\n        /* \"--CODEGEN--\":84:102   */\n      mload\n        /* \"--CODEGEN--\":80:81   */\n      dup2\n        /* \"--CODEGEN--\":75:78   */\n      dup5\n        /* \"--CODEGEN--\":71:82   */\n      add\n        /* \"--CODEGEN--\":64:103   */\n      mstore\n        /* \"--CODEGEN--\":52:54   */\n      0x20\n        /* \"--CODEGEN--\":49:50   */\n      dup2\n        /* \"--CODEGEN--\":45:55   */\n      add\n        /* \"--CODEGEN--\":40:55   */\n      swap1\n      pop\n        /* \"--CODEGEN--\":8:108   */\n      jump(tag_197)\n    tag_199:\n        /* \"--CODEGEN--\":12:26   */\n      pop\n        /* \"https://github.com/OpenZeppelin/openzeppelin-contracts/blob/v3.2.0/contracts/token/ERC1155/ERC1155.sol\":12783:12855  IERC1155Receiver(to).onERC1155Received(operator, from, id, amount, data) */\n      pop\n      pop\n      pop\n      swap1\n      pop\n      swap1\n      dup2\n      add\n      swap1\n      0x1f\n      and\n      dup1\n      iszero\n      tag_200\n      jumpi\n      dup1\n      dup3\n      sub\n      dup1\n      mload\n      0x01\n      dup4\n      0x20\n      sub\n      0x0100\n      exp\n      sub\n      not\n      and\n      dup2\n      mstore\n      0x20\n      add\n      swap2\n      pop\n    tag_200:\n      pop\n      swap7\n      pop\n      pop\n      pop\n      pop\n      pop\n      pop\n      pop\n      0x20\n      mload(0x40)\n      dup1\n      dup4\n      sub\n      dup2\n      0x00\n      dup8\n      dup1\n      extcodesize\n      iszero\n        /* \"--CODEGEN--\":8:17   */\n      dup1\n        /* \"--CODEGEN--\":5:7   */\n      iszero\n      tag_201\n      jumpi\n        /* \"--CODEGEN--\":30:31   */\n      0x00\n        /* \"--CODEGEN--\":27:28   */\n      dup1\n        /* \"--CODEGEN--\":20:32   */\n      revert\n        /* \"--CODEGEN--\":5:7   */\n    tag_201:\n        /* \"https://github.com/OpenZeppelin/openzeppelin-contracts/blob/v3.2.0/contracts/token/ERC1155/ERC1155.sol\":12783:12855  IERC1155Receiver(to).onERC1155Received(operator, from, id, amount, data) */\n      pop\n      gas\n      call\n      swap3\n      pop\n      pop\n      pop\n      dup1\n      iszero\n      tag_202\n      jumpi\n      pop\n      mload(0x40)\n      returndatasize\n        /* \"--CODEGEN--\":13:15   */\n      0x20\n        /* \"--CODEGEN--\":8:11   */\n      dup2\n        /* \"--CODEGEN--\":5:16   */\n      lt\n        /* \"--CODEGEN--\":2:4   */\n      iszero\n      tag_203\n      jumpi\n        /* \"--CODEGEN--\":29:30   */\n      0x00\n        /* \"--CODEGEN--\":26:27   */\n      dup1\n        /* \"--CODEGEN--\":19:31   */\n      revert\n        /* \"--CODEGEN--\":2:4   */\n    tag_203:\n        /* \"https://github.com/OpenZeppelin/openzeppelin-contracts/blob/v3.2.0/contracts/token/ERC1155/ERC1155.sol\":12783:12855  IERC1155Receiver(to).onERC1155Received(operator, from, id, amount, data) */\n      dup2\n      add\n      swap1\n      dup1\n      dup1\n      mload\n      swap1\n      0x20\n      add\n      swap1\n      swap3\n      swap2\n      swap1\n      pop\n      pop\n      pop\n      0x01\n    tag_202:\n        /* \"https://github.com/OpenZeppelin/openzeppelin-contracts/blob/v3.2.0/contracts/token/ERC1155/ERC1155.sol\":12779:13254  try IERC1155Receiver(to).onERC1155Received(operator, from, id, amount, data) returns (bytes4 response) {... */\n      tag_204\n      jumpi\n      0x00\n        /* \"--CODEGEN--\":20:24   */\n      0x40\n        /* \"--CODEGEN--\":14:25   */\n      mload\n        /* \"--CODEGEN--\":6:25   */\n      swap1\n      pop\n        /* \"--CODEGEN--\":43:44   */\n      0x00\n        /* \"--CODEGEN--\":37:41   */\n      dup2\n        /* \"--CODEGEN--\":30:45   */\n      mstore\n        /* \"--CODEGEN--\":57:58   */\n      0x01\n        /* \"--CODEGEN--\":50:780   */\n      iszero\n      tag_209\n      jumpi\n        /* \"--CODEGEN--\":93:97   */\n      0x44\n        /* \"--CODEGEN--\":75:91   */\n      returndatasize\n        /* \"--CODEGEN--\":72:98   */\n      lt\n        /* \"--CODEGEN--\":69:71   */\n      iszero\n      tag_210\n      jumpi\n        /* \"--CODEGEN--\":109:110   */\n      0x00\n        /* \"--CODEGEN--\":101:110   */\n      swap1\n      pop\n        /* \"--CODEGEN--\":111:116   */\n      jump(tag_209)\n        /* \"--CODEGEN--\":69:71   */\n    tag_210:\n        /* \"--CODEGEN--\":145:146   */\n      0x04\n        /* \"--CODEGEN--\":142:143   */\n      0x00\n        /* \"--CODEGEN--\":139:140   */\n      dup1\n        /* \"--CODEGEN--\":124:147   */\n      returndatacopy\n        /* \"--CODEGEN--\":179:180   */\n      0x00\n        /* \"--CODEGEN--\":173:181   */\n      mload\n        /* \"--CODEGEN--\":168:171   */\n      0xe0\n        /* \"--CODEGEN--\":164:182   */\n      shr\n        /* \"--CODEGEN--\":206:216   */\n      0x08c379a0\n        /* \"--CODEGEN--\":201:204   */\n      dup2\n        /* \"--CODEGEN--\":198:217   */\n      eq\n        /* \"--CODEGEN--\":188:190   */\n      tag_211\n      jumpi\n        /* \"--CODEGEN--\":229:230   */\n      0x00\n        /* \"--CODEGEN--\":221:230   */\n      swap2\n      pop\n        /* \"--CODEGEN--\":231:236   */\n      pop\n      jump(tag_209)\n        /* \"--CODEGEN--\":188:190   */\n    tag_211:\n        /* \"--CODEGEN--\":290:291   */\n      0x04\n        /* \"--CODEGEN--\":272:288   */\n      returndatasize\n        /* \"--CODEGEN--\":268:292   */\n      sub\n        /* \"--CODEGEN--\":265:266   */\n      0x04\n        /* \"--CODEGEN--\":259:263   */\n      dup4\n        /* \"--CODEGEN--\":244:293   */\n      returndatacopy\n        /* \"--CODEGEN--\":319:323   */\n      dup2\n        /* \"--CODEGEN--\":313:324   */\n      mload\n        /* \"--CODEGEN--\":403:419   */\n      returndatasize\n        /* \"--CODEGEN--\":396:400   */\n      0x24\n        /* \"--CODEGEN--\":388:394   */\n      dup3\n        /* \"--CODEGEN--\":384:401   */\n      add\n        /* \"--CODEGEN--\":381:420   */\n      gt\n        /* \"--CODEGEN--\":354:372   */\n      0xffffffffffffffff\n        /* \"--CODEGEN--\":346:352   */\n      dup3\n        /* \"--CODEGEN--\":343:373   */\n      gt\n        /* \"--CODEGEN--\":333:427   */\n      or\n        /* \"--CODEGEN--\":330:332   */\n      iszero\n      tag_212\n      jumpi\n        /* \"--CODEGEN--\":444:445   */\n      0x00\n        /* \"--CODEGEN--\":436:445   */\n      swap3\n      pop\n        /* \"--CODEGEN--\":452:457   */\n      pop\n      pop\n      jump(tag_209)\n        /* \"--CODEGEN--\":330:332   */\n    tag_212:\n        /* \"--CODEGEN--\":491:497   */\n      dup1\n        /* \"--CODEGEN--\":485:489   */\n      dup4\n        /* \"--CODEGEN--\":481:498   */\n      add\n        /* \"--CODEGEN--\":524:527   */\n      dup1\n        /* \"--CODEGEN--\":518:528   */\n      mload\n        /* \"--CODEGEN--\":548:566   */\n      0xffffffffffffffff\n        /* \"--CODEGEN--\":540:546   */\n      dup2\n        /* \"--CODEGEN--\":537:567   */\n      gt\n        /* \"--CODEGEN--\":534:536   */\n      iszero\n      tag_213\n      jumpi\n        /* \"--CODEGEN--\":578:579   */\n      0x00\n        /* \"--CODEGEN--\":570:579   */\n      swap5\n      pop\n        /* \"--CODEGEN--\":580:585   */\n      pop\n      pop\n      pop\n      pop\n      jump(tag_209)\n        /* \"--CODEGEN--\":534:536   */\n    tag_213:\n        /* \"--CODEGEN--\":624:630   */\n      dup1\n        /* \"--CODEGEN--\":617:621   */\n      0x20\n        /* \"--CODEGEN--\":612:615   */\n      dup4\n        /* \"--CODEGEN--\":608:622   */\n      add\n        /* \"--CODEGEN--\":604:631   */\n      add\n        /* \"--CODEGEN--\":658:674   */\n      returndatasize\n        /* \"--CODEGEN--\":652:656   */\n      dup7\n        /* \"--CODEGEN--\":648:675   */\n      add\n        /* \"--CODEGEN--\":643:646   */\n      dup2\n        /* \"--CODEGEN--\":640:676   */\n      gt\n        /* \"--CODEGEN--\":637:639   */\n      iszero\n      tag_214\n      jumpi\n        /* \"--CODEGEN--\":687:688   */\n      0x00\n        /* \"--CODEGEN--\":679:688   */\n      swap6\n      pop\n        /* \"--CODEGEN--\":689:694   */\n      pop\n      pop\n      pop\n      pop\n      pop\n      jump(tag_209)\n        /* \"--CODEGEN--\":637:639   */\n    tag_214:\n        /* \"--CODEGEN--\":739:743   */\n      0x1f\n        /* \"--CODEGEN--\":735:744   */\n      not\n        /* \"--CODEGEN--\":728:732   */\n      0x1f\n        /* \"--CODEGEN--\":723:726   */\n      dup3\n        /* \"--CODEGEN--\":719:733   */\n      add\n        /* \"--CODEGEN--\":715:745   */\n      and\n        /* \"--CODEGEN--\":709:713   */\n      0x40\n        /* \"--CODEGEN--\":702:746   */\n      mstore\n        /* \"--CODEGEN--\":760:763   */\n      dup3\n        /* \"--CODEGEN--\":752:763   */\n      swap6\n      pop\n        /* \"--CODEGEN--\":769:774   */\n      pop\n      pop\n      pop\n      pop\n      pop\n        /* \"--CODEGEN--\":50:780   */\n    tag_209:\n        /* \"https://github.com/OpenZeppelin/openzeppelin-contracts/blob/v3.2.0/contracts/token/ERC1155/ERC1155.sol\":12779:13254  try IERC1155Receiver(to).onERC1155Received(operator, from, id, amount, data) returns (bytes4 response) {... */\n      dup1\n      tag_215\n      jumpi\n      pop\n      jump(tag_206)\n    tag_215:\n        /* \"https://github.com/OpenZeppelin/openzeppelin-contracts/blob/v3.2.0/contracts/token/ERC1155/ERC1155.sol\":13130:13136  reason */\n      dup1\n        /* \"https://github.com/OpenZeppelin/openzeppelin-contracts/blob/v3.2.0/contracts/token/ERC1155/ERC1155.sol\":13123:13137  revert(reason) */\n      mload(0x40)\n      0x08c379a000000000000000000000000000000000000000000000000000000000\n      dup2\n      mstore\n      0x04\n      add\n      dup1\n      dup1\n      0x20\n      add\n      dup3\n      dup2\n      sub\n      dup3\n      mstore\n      dup4\n      dup2\n      dup2\n      mload\n      dup2\n      mstore\n      0x20\n      add\n      swap2\n      pop\n      dup1\n      mload\n      swap1\n      0x20\n      add\n      swap1\n      dup1\n      dup4\n      dup4\n        /* \"--CODEGEN--\":23:24   */\n      0x00\n        /* \"--CODEGEN--\":8:108   */\n    tag_216:\n        /* \"--CODEGEN--\":33:36   */\n      dup4\n        /* \"--CODEGEN--\":30:31   */\n      dup2\n        /* \"--CODEGEN--\":27:37   */\n      lt\n        /* \"--CODEGEN--\":8:108   */\n      iszero\n      tag_218\n      jumpi\n        /* \"--CODEGEN--\":99:100   */\n      dup1\n        /* \"--CODEGEN--\":94:97   */\n      dup3\n        /* \"--CODEGEN--\":90:101   */\n      add\n        /* \"--CODEGEN--\":84:102   */\n      mload\n        /* \"--CODEGEN--\":80:81   */\n      dup2\n        /* \"--CODEGEN--\":75:78   */\n      dup5\n        /* \"--CODEGEN--\":71:82   */\n      add\n        /* \"--CODEGEN--\":64:103   */\n      mstore\n        /* \"--CODEGEN--\":52:54   */\n      0x20\n        /* \"--CODEGEN--\":49:50   */\n      dup2\n        /* \"--CODEGEN--\":45:55   */\n      add\n        /* \"--CODEGEN--\":40:55   */\n      swap1\n      pop\n        /* \"--CODEGEN--\":8:108   */\n      jump(tag_216)\n    tag_218:\n        /* \"--CODEGEN--\":12:26   */\n      pop\n        /* \"https://github.com/OpenZeppelin/openzeppelin-contracts/blob/v3.2.0/contracts/token/ERC1155/ERC1155.sol\":13123:13137  revert(reason) */\n      pop\n      pop\n      pop\n      swap1\n      pop\n      swap1\n      dup2\n      add\n      swap1\n      0x1f\n      and\n      dup1\n      iszero\n      tag_219\n      jumpi\n      dup1\n      dup3\n      sub\n      dup1\n      mload\n      0x01\n      dup4\n      0x20\n      sub\n      0x0100\n      exp\n      sub\n      not\n      and\n      dup2\n      mstore\n      0x20\n      add\n      swap2\n      pop\n    tag_219:\n      pop\n      swap3\n      pop\n      pop\n      pop\n      mload(0x40)\n      dup1\n      swap2\n      sub\n      swap1\n      revert\n        /* \"https://github.com/OpenZeppelin/openzeppelin-contracts/blob/v3.2.0/contracts/token/ERC1155/ERC1155.sol\":12779:13254  try IERC1155Receiver(to).onERC1155Received(operator, from, id, amount, data) returns (bytes4 response) {... */\n    tag_206:\n        /* \"https://github.com/OpenZeppelin/openzeppelin-contracts/blob/v3.2.0/contracts/token/ERC1155/ERC1155.sol\":13177:13239  revert(\"ERC1155: transfer to non ERC1155Receiver implementer\") */\n      mload(0x40)\n      0x08c379a000000000000000000000000000000000000000000000000000000000\n      dup2\n      mstore\n      0x04\n      add\n      dup1\n      dup1\n      0x20\n      add\n      dup3\n      dup2\n      sub\n      dup3\n      mstore\n      0x34\n      dup2\n      mstore\n      0x20\n      add\n      dup1\n      data_00aa752fb1526000e5241602affc3d70ef506da48a27ea57140102b439e655ed\n      0x34\n      swap2\n      codecopy\n      0x40\n      add\n      swap2\n      pop\n      pop\n      mload(0x40)\n      dup1\n      swap2\n      sub\n      swap1\n      revert\n        /* \"https://github.com/OpenZeppelin/openzeppelin-contracts/blob/v3.2.0/contracts/token/ERC1155/ERC1155.sol\":12779:13254  try IERC1155Receiver(to).onERC1155Received(operator, from, id, amount, data) returns (bytes4 response) {... */\n    tag_204:\n        /* \"https://github.com/OpenZeppelin/openzeppelin-contracts/blob/v3.2.0/contracts/token/ERC1155/ERC1155.sol\":12916:12963  IERC1155Receiver(to).onERC1155Received.selector */\n      shl(0xe0, 0xf23a6e61)\n        /* \"https://github.com/OpenZeppelin/openzeppelin-contracts/blob/v3.2.0/contracts/token/ERC1155/ERC1155.sol\":12904:12963  response != IERC1155Receiver(to).onERC1155Received.selector */\n      not(0xffffffffffffffffffffffffffffffffffffffffffffffffffffffff)\n      and\n        /* \"https://github.com/OpenZeppelin/openzeppelin-contracts/blob/v3.2.0/contracts/token/ERC1155/ERC1155.sol\":12904:12912  response */\n      dup2\n        /* \"https://github.com/OpenZeppelin/openzeppelin-contracts/blob/v3.2.0/contracts/token/ERC1155/ERC1155.sol\":12904:12963  response != IERC1155Receiver(to).onERC1155Received.selector */\n      not(0xffffffffffffffffffffffffffffffffffffffffffffffffffffffff)\n      and\n      eq\n        /* \"https://github.com/OpenZeppelin/openzeppelin-contracts/blob/v3.2.0/contracts/token/ERC1155/ERC1155.sol\":12900:13056  if (response != IERC1155Receiver(to).onERC1155Received.selector) {... */\n      tag_221\n      jumpi\n        /* \"https://github.com/OpenZeppelin/openzeppelin-contracts/blob/v3.2.0/contracts/token/ERC1155/ERC1155.sol\":12987:13037  revert(\"ERC1155: ERC1155Receiver rejected tokens\") */\n      mload(0x40)\n      0x08c379a000000000000000000000000000000000000000000000000000000000\n      dup2\n      mstore\n      0x04\n      add\n      dup1\n      dup1\n      0x20\n      add\n      dup3\n      dup2\n      sub\n      dup3\n      mstore\n      0x28\n      dup2\n      mstore\n      0x20\n      add\n      dup1\n      data_0587cccad73a80a7f013db13c596f4febc1968dc77e1d3589d5e7a509a3d6503\n      0x28\n      swap2\n      codecopy\n      0x40\n      add\n      swap2\n      pop\n      pop\n      mload(0x40)\n      dup1\n      swap2\n      sub\n      swap1\n      revert\n        /* \"https://github.com/OpenZeppelin/openzeppelin-contracts/blob/v3.2.0/contracts/token/ERC1155/ERC1155.sol\":12900:13056  if (response != IERC1155Receiver(to).onERC1155Received.selector) {... */\n    tag_221:\n        /* \"https://github.com/OpenZeppelin/openzeppelin-contracts/blob/v3.2.0/contracts/token/ERC1155/ERC1155.sol\":12856:13070  returns (bytes4 response) {... */\n      pop\n        /* \"https://github.com/OpenZeppelin/openzeppelin-contracts/blob/v3.2.0/contracts/token/ERC1155/ERC1155.sol\":12744:13264  if (to.isContract()) {... */\n    tag_196:\n        /* \"https://github.com/OpenZeppelin/openzeppelin-contracts/blob/v3.2.0/contracts/token/ERC1155/ERC1155.sol\":12529:13270  function _doSafeTransferAcceptanceCheck(... */\n      pop\n      pop\n      pop\n      pop\n      pop\n      pop\n      jump\t// out\n        /* \"https://github.com/OpenZeppelin/openzeppelin-contracts/blob/v3.2.0/contracts/utils/Address.sol\":718:1131  function isContract(address account) internal view returns (bool) {... */\n    tag_158:\n        /* \"https://github.com/OpenZeppelin/openzeppelin-contracts/blob/v3.2.0/contracts/utils/Address.sol\":778:782  bool */\n      0x00\n        /* \"https://github.com/OpenZeppelin/openzeppelin-contracts/blob/v3.2.0/contracts/utils/Address.sol\":981:993  uint256 size */\n      dup1\n        /* \"https://github.com/OpenZeppelin/openzeppelin-contracts/blob/v3.2.0/contracts/utils/Address.sol\":1090:1097  account */\n      dup3\n        /* \"https://github.com/OpenZeppelin/openzeppelin-contracts/blob/v3.2.0/contracts/utils/Address.sol\":1078:1098  extcodesize(account) */\n      extcodesize\n        /* \"https://github.com/OpenZeppelin/openzeppelin-contracts/blob/v3.2.0/contracts/utils/Address.sol\":1070:1098  size := extcodesize(account) */\n      swap1\n      pop\n        /* \"https://github.com/OpenZeppelin/openzeppelin-contracts/blob/v3.2.0/contracts/utils/Address.sol\":1123:1124  0 */\n      0x00\n        /* \"https://github.com/OpenZeppelin/openzeppelin-contracts/blob/v3.2.0/contracts/utils/Address.sol\":1116:1120  size */\n      dup2\n        /* \"https://github.com/OpenZeppelin/openzeppelin-contracts/blob/v3.2.0/contracts/utils/Address.sol\":1116:1124  size > 0 */\n      gt\n        /* \"https://github.com/OpenZeppelin/openzeppelin-contracts/blob/v3.2.0/contracts/utils/Address.sol\":1109:1124  return size > 0 */\n      swap2\n      pop\n      pop\n        /* \"https://github.com/OpenZeppelin/openzeppelin-contracts/blob/v3.2.0/contracts/utils/Address.sol\":718:1131  function isContract(address account) internal view returns (bool) {... */\n      swap2\n      swap1\n      pop\n      jump\t// out\n    stop\n    data_00aa752fb1526000e5241602affc3d70ef506da48a27ea57140102b439e655ed 455243313135353a207472616e7366657220746f206e6f6e2045524331313535526563656976657220696d706c656d656e746572\n    data_0587cccad73a80a7f013db13c596f4febc1968dc77e1d3589d5e7a509a3d6503 455243313135353a204552433131353552656365697665722072656a656374656420746f6b656e73\n    data_1f4de6a436172e7f7b1540476031cb037fc18ede9cc346a56da1697cbd352aa9 455243313135353a2062616c616e636520717565727920666f7220746865207a65726f2061646472657373\n    data_1fbbb69d10332726591dc7ee4a23a94661eda2bec5ce6bf93a68249147dc8d9c 455243313135353a2062617463682062616c616e636520717565727920666f7220746865207a65726f2061646472657373\n    data_394ac917f53b95ee25db2a5da5874c5b1f0af95a4fdf34992ff8b19c458f239a 455243313135353a2063616c6c6572206973206e6f74206f776e6572206e6f7220617070726f766564\n    data_6faf1c67f278b07c6771dcf4c315a89c21c0eaed11d9ab3d51774da1cfef545d 455243313135353a207472616e7366657220746f20746865207a65726f2061646472657373\n    data_70a41c66829f5508884cda9ef3d2f72551b34f23e4035be97941681123d2d686 455243313135353a207472616e736665722063616c6c6572206973206e6f74206f776e6572206e6f7220617070726f766564\n    data_8ac7e9556b567c1c94bb4daaa3c3a65be5ac686579615210cb910fb8cb8d65bf 455243313135353a20696e73756666696369656e742062616c616e636520666f72207472616e73666572\n    data_df9806c6dc743de602e49918a67b580590d69ab768bdb59f977c0a884a91a7c2 455243313135353a2073657474696e6720617070726f76616c2073746174757320666f722073656c66\n    data_e155f5d69798c6205436a388a4f3a5fd42f54147b40f4d63a2c8071ff8a9fee5 455243313135353a206163636f756e747320616e6420696473206c656e677468206d69736d61746368\n    data_e909e0c9a8f96b4f9af03b716811ece20beb070be416893ed1d50619b5930807 455243313135353a2069647320616e6420616d6f756e7473206c656e677468206d69736d61746368\n\n    auxdata: 0xa2646970667358221220a0da423d1858c5357054a08eaab99fcec179822e65bac57f5bcb85c1e80b7f0a64736f6c63430006020033\n}\n",
				"bytecode": {
					"linkReferences": {},
					"object": "60806040523480156200001157600080fd5b506040518060600160405280603f815260200162002dc4603f9139620000446301ffc9a760e01b6200015d60201b60201c565b62000055816200026660201b60201c565b6200006d63d9b67a2660e01b6200015d60201b60201c565b62000085630e89341c60e01b6200015d60201b60201c565b50620000b2336000670de0b6b3a7640000604051806020016040528060008152506200028260201b60201c565b620000e23360016b033b2e3c9fd0803ce8000000604051806020016040528060008152506200028260201b60201c565b620001073360026001604051806020016040528060008152506200028260201b60201c565b6200012f336003633b9aca00604051806020016040528060008152506200028260201b60201c565b62000157336004633b9aca00604051806020016040528060008152506200028260201b60201c565b62000a8a565b63ffffffff60e01b817bffffffffffffffffffffffffffffffffffffffffffffffffffffffff19161415620001fa576040517f08c379a000000000000000000000000000000000000000000000000000000000815260040180806020018281038252601c8152602001807f4552433136353a20696e76616c696420696e746572666163652069640000000081525060200191505060405180910390fd5b6001600080837bffffffffffffffffffffffffffffffffffffffffffffffffffffffff19167bffffffffffffffffffffffffffffffffffffffffffffffffffffffff1916815260200190815260200160002060006101000a81548160ff02191690831515021790555050565b80600390805190602001906200027e929190620009db565b5050565b600073ffffffffffffffffffffffffffffffffffffffff168473ffffffffffffffffffffffffffffffffffffffff1614156200030a576040517f08c379a000000000000000000000000000000000000000000000000000000000815260040180806020018281038252602181526020018062002e036021913960400191505060405180910390fd5b60006200031c620004b660201b60201c565b905062000355816000876200033788620004be60201b60201c565b6200034888620004be60201b60201c565b876200051960201b60201c565b620003bf836001600087815260200190815260200160002060008873ffffffffffffffffffffffffffffffffffffffff1673ffffffffffffffffffffffffffffffffffffffff168152602001908152602001600020546200052160201b6200175a1790919060201c565b6001600086815260200190815260200160002060008773ffffffffffffffffffffffffffffffffffffffff1673ffffffffffffffffffffffffffffffffffffffff168152602001908152602001600020819055508473ffffffffffffffffffffffffffffffffffffffff16600073ffffffffffffffffffffffffffffffffffffffff168273ffffffffffffffffffffffffffffffffffffffff167fc3d58168c5ae7397731d063d5bbf3d657854427343f4c083240f7aacaa2d0f628787604051808381526020018281526020019250505060405180910390a4620004af81600087878787620005aa60201b60201c565b5050505050565b600033905090565b6060806001604051908082528060200260200182016040528015620004f25781602001602082028038833980820191505090505b50905082816000815181106200050457fe5b60200260200101818152505080915050919050565b505050505050565b600080828401905083811015620005a0576040517f08c379a000000000000000000000000000000000000000000000000000000000815260040180806020018281038252601b8152602001807f536166654d6174683a206164646974696f6e206f766572666c6f77000000000081525060200191505060405180910390fd5b8091505092915050565b620005d68473ffffffffffffffffffffffffffffffffffffffff16620009c860201b620020a91760201c565b15620009c0578373ffffffffffffffffffffffffffffffffffffffff1663f23a6e6187878686866040518663ffffffff1660e01b8152600401808673ffffffffffffffffffffffffffffffffffffffff1673ffffffffffffffffffffffffffffffffffffffff1681526020018573ffffffffffffffffffffffffffffffffffffffff1673ffffffffffffffffffffffffffffffffffffffff16815260200184815260200183815260200180602001828103825283818151815260200191508051906020019080838360005b83811015620006be578082015181840152602081019050620006a1565b50505050905090810190601f168015620006ec5780820380516001836020036101000a031916815260200191505b509650505050505050602060405180830381600087803b1580156200071057600080fd5b505af19250505080156200074657506040513d60208110156200073257600080fd5b810190808051906020019092919050505060015b6200091f5760006040519050600081526001156200081b5760443d10156200077257600090506200081b565b60046000803e60005160e01c6308c379a08114620007955760009150506200081b565b60043d036004833e81513d602482011167ffffffffffffffff82111715620007c3576000925050506200081b565b808301805167ffffffffffffffff811115620007e75760009450505050506200081b565b8060208301013d860181111562000807576000955050505050506200081b565b601f19601f82011660405282955050505050505b80620008285750620008cd565b806040517f08c379a00000000000000000000000000000000000000000000000000000000081526004018080602001828103825283818151815260200191508051906020019080838360005b838110156200089157808201518184015260208101905062000874565b50505050905090810190601f168015620008bf5780820380516001836020036101000a031916815260200191505b509250505060405180910390fd5b6040517f08c379a000000000000000000000000000000000000000000000000000000000815260040180806020018281038252603481526020018062002d686034913960400191505060405180910390fd5b63f23a6e6160e01b7bffffffffffffffffffffffffffffffffffffffffffffffffffffffff1916817bffffffffffffffffffffffffffffffffffffffffffffffffffffffff191614620009be576040517f08c379a000000000000000000000000000000000000000000000000000000000815260040180806020018281038252602881526020018062002d9c6028913960400191505060405180910390fd5b505b505050505050565b600080823b905060008111915050919050565b828054600181600116156101000203166002900490600052602060002090601f016020900481019282601f1062000a1e57805160ff191683800117855562000a4f565b8280016001018555821562000a4f579182015b8281111562000a4e57825182559160200191906001019062000a31565b5b50905062000a5e919062000a62565b5090565b62000a8791905b8082111562000a8357600081600090555060010162000a69565b5090565b90565b6122ce8062000a9a6000396000f3fe608060405234801561001057600080fd5b50600436106100ce5760003560e01c80634e1273f41161008c578063d562e20411610066578063d562e204146106af578063e3e55f08146106cd578063e985e9c5146106eb578063f242432a14610767576100ce565b80634e1273f4146104a05780635b2725ed14610641578063a22cb4651461065f576100ce565b8062fdd58e146100d357806301ffc9a7146101355780630e89341c1461019a57806313dc989f146102415780632eb2c2d61461025f5780633e4bee3814610482575b600080fd5b61011f600480360360408110156100e957600080fd5b81019080803573ffffffffffffffffffffffffffffffffffffffff16906020019092919080359060200190929190505050610876565b6040518082815260200191505060405180910390f35b6101806004803603602081101561014b57600080fd5b8101908080357bffffffffffffffffffffffffffffffffffffffffffffffffffffffff19169060200190929190505050610956565b604051808215151515815260200191505060405180910390f35b6101c6600480360360208110156101b057600080fd5b81019080803590602001909291905050506109bd565b6040518080602001828103825283818151815260200191508051906020019080838360005b838110156102065780820151818401526020810190506101eb565b50505050905090810190601f1680156102335780820380516001836020036101000a031916815260200191505b509250505060405180910390f35b610249610a61565b6040518082815260200191505060405180910390f35b610480600480360360a081101561027557600080fd5b81019080803573ffffffffffffffffffffffffffffffffffffffff169060200190929190803573ffffffffffffffffffffffffffffffffffffffff169060200190929190803590602001906401000000008111156102d257600080fd5b8201836020820111156102e457600080fd5b8035906020019184602083028401116401000000008311171561030657600080fd5b919080806020026020016040519081016040528093929190818152602001838360200280828437600081840152601f19601f8201169050808301925050505050505091929192908035906020019064010000000081111561036657600080fd5b82018360208201111561037857600080fd5b8035906020019184602083028401116401000000008311171561039a57600080fd5b919080806020026020016040519081016040528093929190818152602001838360200280828437600081840152601f19601f820116905080830192505050505050509192919290803590602001906401000000008111156103fa57600080fd5b82018360208201111561040c57600080fd5b8035906020019184600183028401116401000000008311171561042e57600080fd5b91908080601f016020809104026020016040519081016040528093929190818152602001838380828437600081840152601f19601f820116905080830192505050505050509192919290505050610a66565b005b61048a610ef4565b6040518082815260200191505060405180910390f35b6105ea600480360360408110156104b657600080fd5b81019080803590602001906401000000008111156104d357600080fd5b8201836020820111156104e557600080fd5b8035906020019184602083028401116401000000008311171561050757600080fd5b919080806020026020016040519081016040528093929190818152602001838360200280828437600081840152601f19601f8201169050808301925050505050505091929192908035906020019064010000000081111561056757600080fd5b82018360208201111561057957600080fd5b8035906020019184602083028401116401000000008311171561059b57600080fd5b919080806020026020016040519081016040528093929190818152602001838360200280828437600081840152601f19601f820116905080830192505050505050509192919290505050610ef9565b6040518080602001828103825283818151815260200191508051906020019060200280838360005b8381101561062d578082015181840152602081019050610612565b505050509050019250505060405180910390f35b6106496110d7565b6040518082815260200191505060405180910390f35b6106ad6004803603604081101561067557600080fd5b81019080803573ffffffffffffffffffffffffffffffffffffffff1690602001909291908035151590602001909291905050506110dc565b005b6106b7611277565b6040518082815260200191505060405180910390f35b6106d561127c565b6040518082815260200191505060405180910390f35b61074d6004803603604081101561070157600080fd5b81019080803573ffffffffffffffffffffffffffffffffffffffff169060200190929190803573ffffffffffffffffffffffffffffffffffffffff169060200190929190505050611281565b604051808215151515815260200191505060405180910390f35b610874600480360360a081101561077d57600080fd5b81019080803573ffffffffffffffffffffffffffffffffffffffff169060200190929190803573ffffffffffffffffffffffffffffffffffffffff1690602001909291908035906020019092919080359060200190929190803590602001906401000000008111156107ee57600080fd5b82018360208201111561080057600080fd5b8035906020019184600183028401116401000000008311171561082257600080fd5b91908080601f016020809104026020016040519081016040528093929190818152602001838380828437600081840152601f19601f820116905080830192505050505050509192919290505050611315565b005b60008073ffffffffffffffffffffffffffffffffffffffff168373ffffffffffffffffffffffffffffffffffffffff1614156108fd576040517f08c379a000000000000000000000000000000000000000000000000000000000815260040180806020018281038252602b815260200180612119602b913960400191505060405180910390fd5b6001600083815260200190815260200160002060008473ffffffffffffffffffffffffffffffffffffffff1673ffffffffffffffffffffffffffffffffffffffff16815260200190815260200160002054905092915050565b6000806000837bffffffffffffffffffffffffffffffffffffffffffffffffffffffff19167bffffffffffffffffffffffffffffffffffffffffffffffffffffffff1916815260200190815260200160002060009054906101000a900460ff169050919050565b606060038054600181600116156101000203166002900480601f016020809104026020016040519081016040528092919081815260200182805460018160011615610100020316600290048015610a555780601f10610a2a57610100808354040283529160200191610a55565b820191906000526020600020905b815481529060010190602001808311610a3857829003601f168201915b50505050509050919050565b600381565b8151835114610ac0576040517f08c379a00000000000000000000000000000000000000000000000000000000081526004018080602001828103825260288152602001806122716028913960400191505060405180910390fd5b600073ffffffffffffffffffffffffffffffffffffffff168473ffffffffffffffffffffffffffffffffffffffff161415610b46576040517f08c379a000000000000000000000000000000000000000000000000000000000815260040180806020018281038252602581526020018061219e6025913960400191505060405180910390fd5b610b4e61168a565b73ffffffffffffffffffffffffffffffffffffffff168573ffffffffffffffffffffffffffffffffffffffff161480610b945750610b9385610b8e61168a565b611281565b5b610be9576040517f08c379a00000000000000000000000000000000000000000000000000000000081526004018080602001828103825260328152602001806121c36032913960400191505060405180910390fd5b6000610bf361168a565b9050610c03818787878787611692565b60008090505b8451811015610dd7576000858281518110610c2057fe5b602002602001015190506000858381518110610c3857fe5b60200260200101519050610cbf816040518060600160405280602a81526020016121f5602a91396001600086815260200190815260200160002060008d73ffffffffffffffffffffffffffffffffffffffff1673ffffffffffffffffffffffffffffffffffffffff1681526020019081526020016000205461169a9092919063ffffffff16565b6001600084815260200190815260200160002060008b73ffffffffffffffffffffffffffffffffffffffff1673ffffffffffffffffffffffffffffffffffffffff16815260200190815260200160002081905550610d76816001600085815260200190815260200160002060008b73ffffffffffffffffffffffffffffffffffffffff1673ffffffffffffffffffffffffffffffffffffffff1681526020019081526020016000205461175a90919063ffffffff16565b6001600084815260200190815260200160002060008a73ffffffffffffffffffffffffffffffffffffffff1673ffffffffffffffffffffffffffffffffffffffff168152602001908152602001600020819055505050806001019050610c09565b508473ffffffffffffffffffffffffffffffffffffffff168673ffffffffffffffffffffffffffffffffffffffff168273ffffffffffffffffffffffffffffffffffffffff167f4a39dc06d4c0dbc64b70af90fd698a233a518aa5d07e595d983b8c0526c8f7fb8787604051808060200180602001838103835285818151815260200191508051906020019060200280838360005b83811015610e87578082015181840152602081019050610e6c565b50505050905001838103825284818151815260200191508051906020019060200280838360005b83811015610ec9578082015181840152602081019050610eae565b5050505090500194505050505060405180910390a4610eec8187878787876117e2565b505050505050565b600081565b60608151835114610f55576040517f08c379a00000000000000000000000000000000000000000000000000000000081526004018080602001828103825260298152602001806122486029913960400191505060405180910390fd5b60608351604051908082528060200260200182016040528015610f875781602001602082028038833980820191505090505b50905060008090505b84518110156110cc57600073ffffffffffffffffffffffffffffffffffffffff16858281518110610fbd57fe5b602002602001015173ffffffffffffffffffffffffffffffffffffffff161415611032576040517f08c379a00000000000000000000000000000000000000000000000000000000081526004018080602001828103825260318152602001806121446031913960400191505060405180910390fd5b6001600085838151811061104257fe5b60200260200101518152602001908152602001600020600086838151811061106657fe5b602002602001015173ffffffffffffffffffffffffffffffffffffffff1673ffffffffffffffffffffffffffffffffffffffff168152602001908152602001600020548282815181106110b557fe5b602002602001018181525050806001019050610f90565b508091505092915050565b600481565b8173ffffffffffffffffffffffffffffffffffffffff166110fb61168a565b73ffffffffffffffffffffffffffffffffffffffff161415611168576040517f08c379a000000000000000000000000000000000000000000000000000000000815260040180806020018281038252602981526020018061221f6029913960400191505060405180910390fd5b806002600061117561168a565b73ffffffffffffffffffffffffffffffffffffffff1673ffffffffffffffffffffffffffffffffffffffff16815260200190815260200160002060008473ffffffffffffffffffffffffffffffffffffffff1673ffffffffffffffffffffffffffffffffffffffff16815260200190815260200160002060006101000a81548160ff0219169083151502179055508173ffffffffffffffffffffffffffffffffffffffff1661122261168a565b73ffffffffffffffffffffffffffffffffffffffff167f17307eab39ab6107e8899845ad3d59bd9653f200f220920489ca2b5937696c3183604051808215151515815260200191505060405180910390a35050565b600281565b600181565b6000600260008473ffffffffffffffffffffffffffffffffffffffff1673ffffffffffffffffffffffffffffffffffffffff16815260200190815260200160002060008373ffffffffffffffffffffffffffffffffffffffff1673ffffffffffffffffffffffffffffffffffffffff16815260200190815260200160002060009054906101000a900460ff16905092915050565b600073ffffffffffffffffffffffffffffffffffffffff168473ffffffffffffffffffffffffffffffffffffffff16141561139b576040517f08c379a000000000000000000000000000000000000000000000000000000000815260040180806020018281038252602581526020018061219e6025913960400191505060405180910390fd5b6113a361168a565b73ffffffffffffffffffffffffffffffffffffffff168573ffffffffffffffffffffffffffffffffffffffff1614806113e957506113e8856113e361168a565b611281565b5b61143e576040517f08c379a00000000000000000000000000000000000000000000000000000000081526004018080602001828103825260298152602001806121756029913960400191505060405180910390fd5b600061144861168a565b905061146881878761145988611c5a565b61146288611c5a565b87611692565b6114e5836040518060600160405280602a81526020016121f5602a91396001600088815260200190815260200160002060008a73ffffffffffffffffffffffffffffffffffffffff1673ffffffffffffffffffffffffffffffffffffffff1681526020019081526020016000205461169a9092919063ffffffff16565b6001600086815260200190815260200160002060008873ffffffffffffffffffffffffffffffffffffffff1673ffffffffffffffffffffffffffffffffffffffff1681526020019081526020016000208190555061159c836001600087815260200190815260200160002060008873ffffffffffffffffffffffffffffffffffffffff1673ffffffffffffffffffffffffffffffffffffffff1681526020019081526020016000205461175a90919063ffffffff16565b6001600086815260200190815260200160002060008773ffffffffffffffffffffffffffffffffffffffff1673ffffffffffffffffffffffffffffffffffffffff168152602001908152602001600020819055508473ffffffffffffffffffffffffffffffffffffffff168673ffffffffffffffffffffffffffffffffffffffff168273ffffffffffffffffffffffffffffffffffffffff167fc3d58168c5ae7397731d063d5bbf3d657854427343f4c083240f7aacaa2d0f628787604051808381526020018281526020019250505060405180910390a4611682818787878787611cb3565b505050505050565b600033905090565b505050505050565b6000838311158290611747576040517f08c379a00000000000000000000000000000000000000000000000000000000081526004018080602001828103825283818151815260200191508051906020019080838360005b8381101561170c5780820151818401526020810190506116f1565b50505050905090810190601f1680156117395780820380516001836020036101000a031916815260200191505b509250505060405180910390fd5b5060008385039050809150509392505050565b6000808284019050838110156117d8576040517f08c379a000000000000000000000000000000000000000000000000000000000815260040180806020018281038252601b8152602001807f536166654d6174683a206164646974696f6e206f766572666c6f77000000000081525060200191505060405180910390fd5b8091505092915050565b6118018473ffffffffffffffffffffffffffffffffffffffff166120a9565b15611c52578373ffffffffffffffffffffffffffffffffffffffff1663bc197c8187878686866040518663ffffffff1660e01b8152600401808673ffffffffffffffffffffffffffffffffffffffff1673ffffffffffffffffffffffffffffffffffffffff1681526020018573ffffffffffffffffffffffffffffffffffffffff1673ffffffffffffffffffffffffffffffffffffffff168152602001806020018060200180602001848103845287818151815260200191508051906020019060200280838360005b838110156118e55780820151818401526020810190506118ca565b50505050905001848103835286818151815260200191508051906020019060200280838360005b8381101561192757808201518184015260208101905061190c565b50505050905001848103825285818151815260200191508051906020019080838360005b8381101561196657808201518184015260208101905061194b565b50505050905090810190601f1680156119935780820380516001836020036101000a031916815260200191505b5098505050505050505050602060405180830381600087803b1580156119b857600080fd5b505af19250505080156119ec57506040513d60208110156119d857600080fd5b810190808051906020019092919050505060015b611bb3576000604051905060008152600115611ab55760443d1015611a145760009050611ab5565b60046000803e60005160e01c6308c379a08114611a35576000915050611ab5565b60043d036004833e81513d602482011167ffffffffffffffff82111715611a6157600092505050611ab5565b808301805167ffffffffffffffff811115611a83576000945050505050611ab5565b8060208301013d8601811115611aa157600095505050505050611ab5565b601f19601f82011660405282955050505050505b80611ac05750611b62565b806040517f08c379a00000000000000000000000000000000000000000000000000000000081526004018080602001828103825283818151815260200191508051906020019080838360005b83811015611b27578082015181840152602081019050611b0c565b50505050905090810190601f168015611b545780820380516001836020036101000a031916815260200191505b509250505060405180910390fd5b6040517f08c379a00000000000000000000000000000000000000000000000000000000081526004018080602001828103825260348152602001806120bd6034913960400191505060405180910390fd5b63bc197c8160e01b7bffffffffffffffffffffffffffffffffffffffffffffffffffffffff1916817bffffffffffffffffffffffffffffffffffffffffffffffffffffffff191614611c50576040517f08c379a00000000000000000000000000000000000000000000000000000000081526004018080602001828103825260288152602001806120f16028913960400191505060405180910390fd5b505b505050505050565b6060806001604051908082528060200260200182016040528015611c8d5781602001602082028038833980820191505090505b5090508281600081518110611c9e57fe5b60200260200101818152505080915050919050565b611cd28473ffffffffffffffffffffffffffffffffffffffff166120a9565b156120a1578373ffffffffffffffffffffffffffffffffffffffff1663f23a6e6187878686866040518663ffffffff1660e01b8152600401808673ffffffffffffffffffffffffffffffffffffffff1673ffffffffffffffffffffffffffffffffffffffff1681526020018573ffffffffffffffffffffffffffffffffffffffff1673ffffffffffffffffffffffffffffffffffffffff16815260200184815260200183815260200180602001828103825283818151815260200191508051906020019080838360005b83811015611db7578082015181840152602081019050611d9c565b50505050905090810190601f168015611de45780820380516001836020036101000a031916815260200191505b509650505050505050602060405180830381600087803b158015611e0757600080fd5b505af1925050508015611e3b57506040513d6020811015611e2757600080fd5b810190808051906020019092919050505060015b612002576000604051905060008152600115611f045760443d1015611e635760009050611f04565b60046000803e60005160e01c6308c379a08114611e84576000915050611f04565b60043d036004833e81513d602482011167ffffffffffffffff82111715611eb057600092505050611f04565b808301805167ffffffffffffffff811115611ed2576000945050505050611f04565b8060208301013d8601811115611ef057600095505050505050611f04565b601f19601f82011660405282955050505050505b80611f0f5750611fb1565b806040517f08c379a00000000000000000000000000000000000000000000000000000000081526004018080602001828103825283818151815260200191508051906020019080838360005b83811015611f76578082015181840152602081019050611f5b565b50505050905090810190601f168015611fa35780820380516001836020036101000a031916815260200191505b509250505060405180910390fd5b6040517f08c379a00000000000000000000000000000000000000000000000000000000081526004018080602001828103825260348152602001806120bd6034913960400191505060405180910390fd5b63f23a6e6160e01b7bffffffffffffffffffffffffffffffffffffffffffffffffffffffff1916817bffffffffffffffffffffffffffffffffffffffffffffffffffffffff19161461209f576040517f08c379a00000000000000000000000000000000000000000000000000000000081526004018080602001828103825260288152602001806120f16028913960400191505060405180910390fd5b505b505050505050565b600080823b90506000811191505091905056fe455243313135353a207472616e7366657220746f206e6f6e2045524331313535526563656976657220696d706c656d656e746572455243313135353a204552433131353552656365697665722072656a656374656420746f6b656e73455243313135353a2062616c616e636520717565727920666f7220746865207a65726f2061646472657373455243313135353a2062617463682062616c616e636520717565727920666f7220746865207a65726f2061646472657373455243313135353a2063616c6c6572206973206e6f74206f776e6572206e6f7220617070726f766564455243313135353a207472616e7366657220746f20746865207a65726f2061646472657373455243313135353a207472616e736665722063616c6c6572206973206e6f74206f776e6572206e6f7220617070726f766564455243313135353a20696e73756666696369656e742062616c616e636520666f72207472616e73666572455243313135353a2073657474696e6720617070726f76616c2073746174757320666f722073656c66455243313135353a206163636f756e747320616e6420696473206c656e677468206d69736d61746368455243313135353a2069647320616e6420616d6f756e7473206c656e677468206d69736d61746368a2646970667358221220a0da423d1858c5357054a08eaab99fcec179822e65bac57f5bcb85c1e80b7f0a64736f6c63430006020033455243313135353a207472616e7366657220746f206e6f6e2045524331313535526563656976657220696d706c656d656e746572455243313135353a204552433131353552656365697665722072656a656374656420746f6b656e73697066733a2f2f516d5a394a513477513739376b39367350676333314e46563851664a71413277577068743774687a5569335035442f7b69647d2e6a736f6e455243313135353a206d696e7420746f20746865207a65726f2061646472657373",
					"opcodes": "PUSH1 0x80 PUSH1 0x40 MSTORE CALLVALUE DUP1 ISZERO PUSH3 0x11 JUMPI PUSH1 0x0 DUP1 REVERT JUMPDEST POP PUSH1 0x40 MLOAD DUP1 PUSH1 0x60 ADD PUSH1 0x40 MSTORE DUP1 PUSH1 0x3F DUP2 MSTORE PUSH1 0x20 ADD PUSH3 0x2DC4 PUSH1 0x3F SWAP2 CODECOPY PUSH3 0x44 PUSH4 0x1FFC9A7 PUSH1 0xE0 SHL PUSH3 0x15D PUSH1 0x20 SHL PUSH1 0x20 SHR JUMP JUMPDEST PUSH3 0x55 DUP2 PUSH3 0x266 PUSH1 0x20 SHL PUSH1 0x20 SHR JUMP JUMPDEST PUSH3 0x6D PUSH4 0xD9B67A26 PUSH1 0xE0 SHL PUSH3 0x15D PUSH1 0x20 SHL PUSH1 0x20 SHR JUMP JUMPDEST PUSH3 0x85 PUSH4 0xE89341C PUSH1 0xE0 SHL PUSH3 0x15D PUSH1 0x20 SHL PUSH1 0x20 SHR JUMP JUMPDEST POP PUSH3 0xB2 CALLER PUSH1 0x0 PUSH8 0xDE0B6B3A7640000 PUSH1 0x40 MLOAD DUP1 PUSH1 0x20 ADD PUSH1 0x40 MSTORE DUP1 PUSH1 0x0 DUP2 MSTORE POP PUSH3 0x282 PUSH1 0x20 SHL PUSH1 0x20 SHR JUMP JUMPDEST PUSH3 0xE2 CALLER PUSH1 0x1 PUSH12 0x33B2E3C9FD0803CE8000000 PUSH1 0x40 MLOAD DUP1 PUSH1 0x20 ADD PUSH1 0x40 MSTORE DUP1 PUSH1 0x0 DUP2 MSTORE POP PUSH3 0x282 PUSH1 0x20 SHL PUSH1 0x20 SHR JUMP JUMPDEST PUSH3 0x107 CALLER PUSH1 0x2 PUSH1 0x1 PUSH1 0x40 MLOAD DUP1 PUSH1 0x20 ADD PUSH1 0x40 MSTORE DUP1 PUSH1 0x0 DUP2 MSTORE POP PUSH3 0x282 PUSH1 0x20 SHL PUSH1 0x20 SHR JUMP JUMPDEST PUSH3 0x12F CALLER PUSH1 0x3 PUSH4 0x3B9ACA00 PUSH1 0x40 MLOAD DUP1 PUSH1 0x20 ADD PUSH1 0x40 MSTORE DUP1 PUSH1 0x0 DUP2 MSTORE POP PUSH3 0x282 PUSH1 0x20 SHL PUSH1 0x20 SHR JUMP JUMPDEST PUSH3 0x157 CALLER PUSH1 0x4 PUSH4 0x3B9ACA00 PUSH1 0x40 MLOAD DUP1 PUSH1 0x20 ADD PUSH1 0x40 MSTORE DUP1 PUSH1 0x0 DUP2 MSTORE POP PUSH3 0x282 PUSH1 0x20 SHL PUSH1 0x20 SHR JUMP JUMPDEST PUSH3 0xA8A JUMP JUMPDEST PUSH4 0xFFFFFFFF PUSH1 0xE0 SHL DUP2 PUSH28 0xFFFFFFFFFFFFFFFFFFFFFFFFFFFFFFFFFFFFFFFFFFFFFFFFFFFFFFFF NOT AND EQ ISZERO PUSH3 0x1FA JUMPI PUSH1 0x40 MLOAD PUSH32 0x8C379A000000000000000000000000000000000000000000000000000000000 DUP2 MSTORE PUSH1 0x4 ADD DUP1 DUP1 PUSH1 0x20 ADD DUP3 DUP2 SUB DUP3 MSTORE PUSH1 0x1C DUP2 MSTORE PUSH1 0x20 ADD DUP1 PUSH32 0x4552433136353A20696E76616C696420696E7465726661636520696400000000 DUP2 MSTORE POP PUSH1 0x20 ADD SWAP2 POP POP PUSH1 0x40 MLOAD DUP1 SWAP2 SUB SWAP1 REVERT JUMPDEST PUSH1 0x1 PUSH1 0x0 DUP1 DUP4 PUSH28 0xFFFFFFFFFFFFFFFFFFFFFFFFFFFFFFFFFFFFFFFFFFFFFFFFFFFFFFFF NOT AND PUSH28 0xFFFFFFFFFFFFFFFFFFFFFFFFFFFFFFFFFFFFFFFFFFFFFFFFFFFFFFFF NOT AND DUP2 MSTORE PUSH1 0x20 ADD SWAP1 DUP2 MSTORE PUSH1 0x20 ADD PUSH1 0x0 KECCAK256 PUSH1 0x0 PUSH2 0x100 EXP DUP2 SLOAD DUP2 PUSH1 0xFF MUL NOT AND SWAP1 DUP4 ISZERO ISZERO MUL OR SWAP1 SSTORE POP POP JUMP JUMPDEST DUP1 PUSH1 0x3 SWAP1 DUP1 MLOAD SWAP1 PUSH1 0x20 ADD SWAP1 PUSH3 0x27E SWAP3 SWAP2 SWAP1 PUSH3 0x9DB JUMP JUMPDEST POP POP JUMP JUMPDEST PUSH1 0x0 PUSH20 0xFFFFFFFFFFFFFFFFFFFFFFFFFFFFFFFFFFFFFFFF AND DUP5 PUSH20 0xFFFFFFFFFFFFFFFFFFFFFFFFFFFFFFFFFFFFFFFF AND EQ ISZERO PUSH3 0x30A JUMPI PUSH1 0x40 MLOAD PUSH32 0x8C379A000000000000000000000000000000000000000000000000000000000 DUP2 MSTORE PUSH1 0x4 ADD DUP1 DUP1 PUSH1 0x20 ADD DUP3 DUP2 SUB DUP3 MSTORE PUSH1 0x21 DUP2 MSTORE PUSH1 0x20 ADD DUP1 PUSH3 0x2E03 PUSH1 0x21 SWAP2 CODECOPY PUSH1 0x40 ADD SWAP2 POP POP PUSH1 0x40 MLOAD DUP1 SWAP2 SUB SWAP1 REVERT JUMPDEST PUSH1 0x0 PUSH3 0x31C PUSH3 0x4B6 PUSH1 0x20 SHL PUSH1 0x20 SHR JUMP JUMPDEST SWAP1 POP PUSH3 0x355 DUP2 PUSH1 0x0 DUP8 PUSH3 0x337 DUP9 PUSH3 0x4BE PUSH1 0x20 SHL PUSH1 0x20 SHR JUMP JUMPDEST PUSH3 0x348 DUP9 PUSH3 0x4BE PUSH1 0x20 SHL PUSH1 0x20 SHR JUMP JUMPDEST DUP8 PUSH3 0x519 PUSH1 0x20 SHL PUSH1 0x20 SHR JUMP JUMPDEST PUSH3 0x3BF DUP4 PUSH1 0x1 PUSH1 0x0 DUP8 DUP2 MSTORE PUSH1 0x20 ADD SWAP1 DUP2 MSTORE PUSH1 0x20 ADD PUSH1 0x0 KECCAK256 PUSH1 0x0 DUP9 PUSH20 0xFFFFFFFFFFFFFFFFFFFFFFFFFFFFFFFFFFFFFFFF AND PUSH20 0xFFFFFFFFFFFFFFFFFFFFFFFFFFFFFFFFFFFFFFFF AND DUP2 MSTORE PUSH1 0x20 ADD SWAP1 DUP2 MSTORE PUSH1 0x20 ADD PUSH1 0x0 KECCAK256 SLOAD PUSH3 0x521 PUSH1 0x20 SHL PUSH3 0x175A OR SWAP1 SWAP2 SWAP1 PUSH1 0x20 SHR JUMP JUMPDEST PUSH1 0x1 PUSH1 0x0 DUP7 DUP2 MSTORE PUSH1 0x20 ADD SWAP1 DUP2 MSTORE PUSH1 0x20 ADD PUSH1 0x0 KECCAK256 PUSH1 0x0 DUP8 PUSH20 0xFFFFFFFFFFFFFFFFFFFFFFFFFFFFFFFFFFFFFFFF AND PUSH20 0xFFFFFFFFFFFFFFFFFFFFFFFFFFFFFFFFFFFFFFFF AND DUP2 MSTORE PUSH1 0x20 ADD SWAP1 DUP2 MSTORE PUSH1 0x20 ADD PUSH1 0x0 KECCAK256 DUP2 SWAP1 SSTORE POP DUP5 PUSH20 0xFFFFFFFFFFFFFFFFFFFFFFFFFFFFFFFFFFFFFFFF AND PUSH1 0x0 PUSH20 0xFFFFFFFFFFFFFFFFFFFFFFFFFFFFFFFFFFFFFFFF AND DUP3 PUSH20 0xFFFFFFFFFFFFFFFFFFFFFFFFFFFFFFFFFFFFFFFF AND PUSH32 0xC3D58168C5AE7397731D063D5BBF3D657854427343F4C083240F7AACAA2D0F62 DUP8 DUP8 PUSH1 0x40 MLOAD DUP1 DUP4 DUP2 MSTORE PUSH1 0x20 ADD DUP3 DUP2 MSTORE PUSH1 0x20 ADD SWAP3 POP POP POP PUSH1 0x40 MLOAD DUP1 SWAP2 SUB SWAP1 LOG4 PUSH3 0x4AF DUP2 PUSH1 0x0 DUP8 DUP8 DUP8 DUP8 PUSH3 0x5AA PUSH1 0x20 SHL PUSH1 0x20 SHR JUMP JUMPDEST POP POP POP POP POP JUMP JUMPDEST PUSH1 0x0 CALLER SWAP1 POP SWAP1 JUMP JUMPDEST PUSH1 0x60 DUP1 PUSH1 0x1 PUSH1 0x40 MLOAD SWAP1 DUP1 DUP3 MSTORE DUP1 PUSH1 0x20 MUL PUSH1 0x20 ADD DUP3 ADD PUSH1 0x40 MSTORE DUP1 ISZERO PUSH3 0x4F2 JUMPI DUP2 PUSH1 0x20 ADD PUSH1 0x20 DUP3 MUL DUP1 CODESIZE DUP4 CODECOPY DUP1 DUP3 ADD SWAP2 POP POP SWAP1 POP JUMPDEST POP SWAP1 POP DUP3 DUP2 PUSH1 0x0 DUP2 MLOAD DUP2 LT PUSH3 0x504 JUMPI INVALID JUMPDEST PUSH1 0x20 MUL PUSH1 0x20 ADD ADD DUP2 DUP2 MSTORE POP POP DUP1 SWAP2 POP POP SWAP2 SWAP1 POP JUMP JUMPDEST POP POP POP POP POP POP JUMP JUMPDEST PUSH1 0x0 DUP1 DUP3 DUP5 ADD SWAP1 POP DUP4 DUP2 LT ISZERO PUSH3 0x5A0 JUMPI PUSH1 0x40 MLOAD PUSH32 0x8C379A000000000000000000000000000000000000000000000000000000000 DUP2 MSTORE PUSH1 0x4 ADD DUP1 DUP1 PUSH1 0x20 ADD DUP3 DUP2 SUB DUP3 MSTORE PUSH1 0x1B DUP2 MSTORE PUSH1 0x20 ADD DUP1 PUSH32 0x536166654D6174683A206164646974696F6E206F766572666C6F770000000000 DUP2 MSTORE POP PUSH1 0x20 ADD SWAP2 POP POP PUSH1 0x40 MLOAD DUP1 SWAP2 SUB SWAP1 REVERT JUMPDEST DUP1 SWAP2 POP POP SWAP3 SWAP2 POP POP JUMP JUMPDEST PUSH3 0x5D6 DUP5 PUSH20 0xFFFFFFFFFFFFFFFFFFFFFFFFFFFFFFFFFFFFFFFF AND PUSH3 0x9C8 PUSH1 0x20 SHL PUSH3 0x20A9 OR PUSH1 0x20 SHR JUMP JUMPDEST ISZERO PUSH3 0x9C0 JUMPI DUP4 PUSH20 0xFFFFFFFFFFFFFFFFFFFFFFFFFFFFFFFFFFFFFFFF AND PUSH4 0xF23A6E61 DUP8 DUP8 DUP7 DUP7 DUP7 PUSH1 0x40 MLOAD DUP7 PUSH4 0xFFFFFFFF AND PUSH1 0xE0 SHL DUP2 MSTORE PUSH1 0x4 ADD DUP1 DUP7 PUSH20 0xFFFFFFFFFFFFFFFFFFFFFFFFFFFFFFFFFFFFFFFF AND PUSH20 0xFFFFFFFFFFFFFFFFFFFFFFFFFFFFFFFFFFFFFFFF AND DUP2 MSTORE PUSH1 0x20 ADD DUP6 PUSH20 0xFFFFFFFFFFFFFFFFFFFFFFFFFFFFFFFFFFFFFFFF AND PUSH20 0xFFFFFFFFFFFFFFFFFFFFFFFFFFFFFFFFFFFFFFFF AND DUP2 MSTORE PUSH1 0x20 ADD DUP5 DUP2 MSTORE PUSH1 0x20 ADD DUP4 DUP2 MSTORE PUSH1 0x20 ADD DUP1 PUSH1 0x20 ADD DUP3 DUP2 SUB DUP3 MSTORE DUP4 DUP2 DUP2 MLOAD DUP2 MSTORE PUSH1 0x20 ADD SWAP2 POP DUP1 MLOAD SWAP1 PUSH1 0x20 ADD SWAP1 DUP1 DUP4 DUP4 PUSH1 0x0 JUMPDEST DUP4 DUP2 LT ISZERO PUSH3 0x6BE JUMPI DUP1 DUP3 ADD MLOAD DUP2 DUP5 ADD MSTORE PUSH1 0x20 DUP2 ADD SWAP1 POP PUSH3 0x6A1 JUMP JUMPDEST POP POP POP POP SWAP1 POP SWAP1 DUP2 ADD SWAP1 PUSH1 0x1F AND DUP1 ISZERO PUSH3 0x6EC JUMPI DUP1 DUP3 SUB DUP1 MLOAD PUSH1 0x1 DUP4 PUSH1 0x20 SUB PUSH2 0x100 EXP SUB NOT AND DUP2 MSTORE PUSH1 0x20 ADD SWAP2 POP JUMPDEST POP SWAP7 POP POP POP POP POP POP POP PUSH1 0x20 PUSH1 0x40 MLOAD DUP1 DUP4 SUB DUP2 PUSH1 0x0 DUP8 DUP1 EXTCODESIZE ISZERO DUP1 ISZERO PUSH3 0x710 JUMPI PUSH1 0x0 DUP1 REVERT JUMPDEST POP GAS CALL SWAP3 POP POP POP DUP1 ISZERO PUSH3 0x746 JUMPI POP PUSH1 0x40 MLOAD RETURNDATASIZE PUSH1 0x20 DUP2 LT ISZERO PUSH3 0x732 JUMPI PUSH1 0x0 DUP1 REVERT JUMPDEST DUP2 ADD SWAP1 DUP1 DUP1 MLOAD SWAP1 PUSH1 0x20 ADD SWAP1 SWAP3 SWAP2 SWAP1 POP POP POP PUSH1 0x1 JUMPDEST PUSH3 0x91F JUMPI PUSH1 0x0 PUSH1 0x40 MLOAD SWAP1 POP PUSH1 0x0 DUP2 MSTORE PUSH1 0x1 ISZERO PUSH3 0x81B JUMPI PUSH1 0x44 RETURNDATASIZE LT ISZERO PUSH3 0x772 JUMPI PUSH1 0x0 SWAP1 POP PUSH3 0x81B JUMP JUMPDEST PUSH1 0x4 PUSH1 0x0 DUP1 RETURNDATACOPY PUSH1 0x0 MLOAD PUSH1 0xE0 SHR PUSH4 0x8C379A0 DUP2 EQ PUSH3 0x795 JUMPI PUSH1 0x0 SWAP2 POP POP PUSH3 0x81B JUMP JUMPDEST PUSH1 0x4 RETURNDATASIZE SUB PUSH1 0x4 DUP4 RETURNDATACOPY DUP2 MLOAD RETURNDATASIZE PUSH1 0x24 DUP3 ADD GT PUSH8 0xFFFFFFFFFFFFFFFF DUP3 GT OR ISZERO PUSH3 0x7C3 JUMPI PUSH1 0x0 SWAP3 POP POP POP PUSH3 0x81B JUMP JUMPDEST DUP1 DUP4 ADD DUP1 MLOAD PUSH8 0xFFFFFFFFFFFFFFFF DUP2 GT ISZERO PUSH3 0x7E7 JUMPI PUSH1 0x0 SWAP5 POP POP POP POP POP PUSH3 0x81B JUMP JUMPDEST DUP1 PUSH1 0x20 DUP4 ADD ADD RETURNDATASIZE DUP7 ADD DUP2 GT ISZERO PUSH3 0x807 JUMPI PUSH1 0x0 SWAP6 POP POP POP POP POP POP PUSH3 0x81B JUMP JUMPDEST PUSH1 0x1F NOT PUSH1 0x1F DUP3 ADD AND PUSH1 0x40 MSTORE DUP3 SWAP6 POP POP POP POP POP POP JUMPDEST DUP1 PUSH3 0x828 JUMPI POP PUSH3 0x8CD JUMP JUMPDEST DUP1 PUSH1 0x40 MLOAD PUSH32 0x8C379A000000000000000000000000000000000000000000000000000000000 DUP2 MSTORE PUSH1 0x4 ADD DUP1 DUP1 PUSH1 0x20 ADD DUP3 DUP2 SUB DUP3 MSTORE DUP4 DUP2 DUP2 MLOAD DUP2 MSTORE PUSH1 0x20 ADD SWAP2 POP DUP1 MLOAD SWAP1 PUSH1 0x20 ADD SWAP1 DUP1 DUP4 DUP4 PUSH1 0x0 JUMPDEST DUP4 DUP2 LT ISZERO PUSH3 0x891 JUMPI DUP1 DUP3 ADD MLOAD DUP2 DUP5 ADD MSTORE PUSH1 0x20 DUP2 ADD SWAP1 POP PUSH3 0x874 JUMP JUMPDEST POP POP POP POP SWAP1 POP SWAP1 DUP2 ADD SWAP1 PUSH1 0x1F AND DUP1 ISZERO PUSH3 0x8BF JUMPI DUP1 DUP3 SUB DUP1 MLOAD PUSH1 0x1 DUP4 PUSH1 0x20 SUB PUSH2 0x100 EXP SUB NOT AND DUP2 MSTORE PUSH1 0x20 ADD SWAP2 POP JUMPDEST POP SWAP3 POP POP POP PUSH1 0x40 MLOAD DUP1 SWAP2 SUB SWAP1 REVERT JUMPDEST PUSH1 0x40 MLOAD PUSH32 0x8C379A000000000000000000000000000000000000000000000000000000000 DUP2 MSTORE PUSH1 0x4 ADD DUP1 DUP1 PUSH1 0x20 ADD DUP3 DUP2 SUB DUP3 MSTORE PUSH1 0x34 DUP2 MSTORE PUSH1 0x20 ADD DUP1 PUSH3 0x2D68 PUSH1 0x34 SWAP2 CODECOPY PUSH1 0x40 ADD SWAP2 POP POP PUSH1 0x40 MLOAD DUP1 SWAP2 SUB SWAP1 REVERT JUMPDEST PUSH4 0xF23A6E61 PUSH1 0xE0 SHL PUSH28 0xFFFFFFFFFFFFFFFFFFFFFFFFFFFFFFFFFFFFFFFFFFFFFFFFFFFFFFFF NOT AND DUP2 PUSH28 0xFFFFFFFFFFFFFFFFFFFFFFFFFFFFFFFFFFFFFFFFFFFFFFFFFFFFFFFF NOT AND EQ PUSH3 0x9BE JUMPI PUSH1 0x40 MLOAD PUSH32 0x8C379A000000000000000000000000000000000000000000000000000000000 DUP2 MSTORE PUSH1 0x4 ADD DUP1 DUP1 PUSH1 0x20 ADD DUP3 DUP2 SUB DUP3 MSTORE PUSH1 0x28 DUP2 MSTORE PUSH1 0x20 ADD DUP1 PUSH3 0x2D9C PUSH1 0x28 SWAP2 CODECOPY PUSH1 0x40 ADD SWAP2 POP POP PUSH1 0x40 MLOAD DUP1 SWAP2 SUB SWAP1 REVERT JUMPDEST POP JUMPDEST POP POP POP POP POP POP JUMP JUMPDEST PUSH1 0x0 DUP1 DUP3 EXTCODESIZE SWAP1 POP PUSH1 0x0 DUP2 GT SWAP2 POP POP SWAP2 SWAP1 POP JUMP JUMPDEST DUP3 DUP1 SLOAD PUSH1 0x1 DUP2 PUSH1 0x1 AND ISZERO PUSH2 0x100 MUL SUB AND PUSH1 0x2 SWAP1 DIV SWAP1 PUSH1 0x0 MSTORE PUSH1 0x20 PUSH1 0x0 KECCAK256 SWAP1 PUSH1 0x1F ADD PUSH1 0x20 SWAP1 DIV DUP2 ADD SWAP3 DUP3 PUSH1 0x1F LT PUSH3 0xA1E JUMPI DUP1 MLOAD PUSH1 0xFF NOT AND DUP4 DUP1 ADD OR DUP6 SSTORE PUSH3 0xA4F JUMP JUMPDEST DUP3 DUP1 ADD PUSH1 0x1 ADD DUP6 SSTORE DUP3 ISZERO PUSH3 0xA4F JUMPI SWAP2 DUP3 ADD JUMPDEST DUP3 DUP2 GT ISZERO PUSH3 0xA4E JUMPI DUP3 MLOAD DUP3 SSTORE SWAP2 PUSH1 0x20 ADD SWAP2 SWAP1 PUSH1 0x1 ADD SWAP1 PUSH3 0xA31 JUMP JUMPDEST JUMPDEST POP SWAP1 POP PUSH3 0xA5E SWAP2 SWAP1 PUSH3 0xA62 JUMP JUMPDEST POP SWAP1 JUMP JUMPDEST PUSH3 0xA87 SWAP2 SWAP1 JUMPDEST DUP1 DUP3 GT ISZERO PUSH3 0xA83 JUMPI PUSH1 0x0 DUP2 PUSH1 0x0 SWAP1 SSTORE POP PUSH1 0x1 ADD PUSH3 0xA69 JUMP JUMPDEST POP SWAP1 JUMP JUMPDEST SWAP1 JUMP JUMPDEST PUSH2 0x22CE DUP1 PUSH3 0xA9A PUSH1 0x0 CODECOPY PUSH1 0x0 RETURN INVALID PUSH1 0x80 PUSH1 0x40 MSTORE CALLVALUE DUP1 ISZERO PUSH2 0x10 JUMPI PUSH1 0x0 DUP1 REVERT JUMPDEST POP PUSH1 0x4 CALLDATASIZE LT PUSH2 0xCE JUMPI PUSH1 0x0 CALLDATALOAD PUSH1 0xE0 SHR DUP1 PUSH4 0x4E1273F4 GT PUSH2 0x8C JUMPI DUP1 PUSH4 0xD562E204 GT PUSH2 0x66 JUMPI DUP1 PUSH4 0xD562E204 EQ PUSH2 0x6AF JUMPI DUP1 PUSH4 0xE3E55F08 EQ PUSH2 0x6CD JUMPI DUP1 PUSH4 0xE985E9C5 EQ PUSH2 0x6EB JUMPI DUP1 PUSH4 0xF242432A EQ PUSH2 0x767 JUMPI PUSH2 0xCE JUMP JUMPDEST DUP1 PUSH4 0x4E1273F4 EQ PUSH2 0x4A0 JUMPI DUP1 PUSH4 0x5B2725ED EQ PUSH2 0x641 JUMPI DUP1 PUSH4 0xA22CB465 EQ PUSH2 0x65F JUMPI PUSH2 0xCE JUMP JUMPDEST DUP1 PUSH3 0xFDD58E EQ PUSH2 0xD3 JUMPI DUP1 PUSH4 0x1FFC9A7 EQ PUSH2 0x135 JUMPI DUP1 PUSH4 0xE89341C EQ PUSH2 0x19A JUMPI DUP1 PUSH4 0x13DC989F EQ PUSH2 0x241 JUMPI DUP1 PUSH4 0x2EB2C2D6 EQ PUSH2 0x25F JUMPI DUP1 PUSH4 0x3E4BEE38 EQ PUSH2 0x482 JUMPI JUMPDEST PUSH1 0x0 DUP1 REVERT JUMPDEST PUSH2 0x11F PUSH1 0x4 DUP1 CALLDATASIZE SUB PUSH1 0x40 DUP2 LT ISZERO PUSH2 0xE9 JUMPI PUSH1 0x0 DUP1 REVERT JUMPDEST DUP2 ADD SWAP1 DUP1 DUP1 CALLDATALOAD PUSH20 0xFFFFFFFFFFFFFFFFFFFFFFFFFFFFFFFFFFFFFFFF AND SWAP1 PUSH1 0x20 ADD SWAP1 SWAP3 SWAP2 SWAP1 DUP1 CALLDATALOAD SWAP1 PUSH1 0x20 ADD SWAP1 SWAP3 SWAP2 SWAP1 POP POP POP PUSH2 0x876 JUMP JUMPDEST PUSH1 0x40 MLOAD DUP1 DUP3 DUP2 MSTORE PUSH1 0x20 ADD SWAP2 POP POP PUSH1 0x40 MLOAD DUP1 SWAP2 SUB SWAP1 RETURN JUMPDEST PUSH2 0x180 PUSH1 0x4 DUP1 CALLDATASIZE SUB PUSH1 0x20 DUP2 LT ISZERO PUSH2 0x14B JUMPI PUSH1 0x0 DUP1 REVERT JUMPDEST DUP2 ADD SWAP1 DUP1 DUP1 CALLDATALOAD PUSH28 0xFFFFFFFFFFFFFFFFFFFFFFFFFFFFFFFFFFFFFFFFFFFFFFFFFFFFFFFF NOT AND SWAP1 PUSH1 0x20 ADD SWAP1 SWAP3 SWAP2 SWAP1 POP POP POP PUSH2 0x956 JUMP JUMPDEST PUSH1 0x40 MLOAD DUP1 DUP3 ISZERO ISZERO ISZERO ISZERO DUP2 MSTORE PUSH1 0x20 ADD SWAP2 POP POP PUSH1 0x40 MLOAD DUP1 SWAP2 SUB SWAP1 RETURN JUMPDEST PUSH2 0x1C6 PUSH1 0x4 DUP1 CALLDATASIZE SUB PUSH1 0x20 DUP2 LT ISZERO PUSH2 0x1B0 JUMPI PUSH1 0x0 DUP1 REVERT JUMPDEST DUP2 ADD SWAP1 DUP1 DUP1 CALLDATALOAD SWAP1 PUSH1 0x20 ADD SWAP1 SWAP3 SWAP2 SWAP1 POP POP POP PUSH2 0x9BD JUMP JUMPDEST PUSH1 0x40 MLOAD DUP1 DUP1 PUSH1 0x20 ADD DUP3 DUP2 SUB DUP3 MSTORE DUP4 DUP2 DUP2 MLOAD DUP2 MSTORE PUSH1 0x20 ADD SWAP2 POP DUP1 MLOAD SWAP1 PUSH1 0x20 ADD SWAP1 DUP1 DUP4 DUP4 PUSH1 0x0 JUMPDEST DUP4 DUP2 LT ISZERO PUSH2 0x206 JUMPI DUP1 DUP3 ADD MLOAD DUP2 DUP5 ADD MSTORE PUSH1 0x20 DUP2 ADD SWAP1 POP PUSH2 0x1EB JUMP JUMPDEST POP POP POP POP SWAP1 POP SWAP1 DUP2 ADD SWAP1 PUSH1 0x1F AND DUP1 ISZERO PUSH2 0x233 JUMPI DUP1 DUP3 SUB DUP1 MLOAD PUSH1 0x1 DUP4 PUSH1 0x20 SUB PUSH2 0x100 EXP SUB NOT AND DUP2 MSTORE PUSH1 0x20 ADD SWAP2 POP JUMPDEST POP SWAP3 POP POP POP PUSH1 0x40 MLOAD DUP1 SWAP2 SUB SWAP1 RETURN JUMPDEST PUSH2 0x249 PUSH2 0xA61 JUMP JUMPDEST PUSH1 0x40 MLOAD DUP1 DUP3 DUP2 MSTORE PUSH1 0x20 ADD SWAP2 POP POP PUSH1 0x40 MLOAD DUP1 SWAP2 SUB SWAP1 RETURN JUMPDEST PUSH2 0x480 PUSH1 0x4 DUP1 CALLDATASIZE SUB PUSH1 0xA0 DUP2 LT ISZERO PUSH2 0x275 JUMPI PUSH1 0x0 DUP1 REVERT JUMPDEST DUP2 ADD SWAP1 DUP1 DUP1 CALLDATALOAD PUSH20 0xFFFFFFFFFFFFFFFFFFFFFFFFFFFFFFFFFFFFFFFF AND SWAP1 PUSH1 0x20 ADD SWAP1 SWAP3 SWAP2 SWAP1 DUP1 CALLDATALOAD PUSH20 0xFFFFFFFFFFFFFFFFFFFFFFFFFFFFFFFFFFFFFFFF AND SWAP1 PUSH1 0x20 ADD SWAP1 SWAP3 SWAP2 SWAP1 DUP1 CALLDATALOAD SWAP1 PUSH1 0x20 ADD SWAP1 PUSH5 0x100000000 DUP2 GT ISZERO PUSH2 0x2D2 JUMPI PUSH1 0x0 DUP1 REVERT JUMPDEST DUP3 ADD DUP4 PUSH1 0x20 DUP3 ADD GT ISZERO PUSH2 0x2E4 JUMPI PUSH1 0x0 DUP1 REVERT JUMPDEST DUP1 CALLDATALOAD SWAP1 PUSH1 0x20 ADD SWAP2 DUP5 PUSH1 0x20 DUP4 MUL DUP5 ADD GT PUSH5 0x100000000 DUP4 GT OR ISZERO PUSH2 0x306 JUMPI PUSH1 0x0 DUP1 REVERT JUMPDEST SWAP2 SWAP1 DUP1 DUP1 PUSH1 0x20 MUL PUSH1 0x20 ADD PUSH1 0x40 MLOAD SWAP1 DUP2 ADD PUSH1 0x40 MSTORE DUP1 SWAP4 SWAP3 SWAP2 SWAP1 DUP2 DUP2 MSTORE PUSH1 0x20 ADD DUP4 DUP4 PUSH1 0x20 MUL DUP1 DUP3 DUP5 CALLDATACOPY PUSH1 0x0 DUP2 DUP5 ADD MSTORE PUSH1 0x1F NOT PUSH1 0x1F DUP3 ADD AND SWAP1 POP DUP1 DUP4 ADD SWAP3 POP POP POP POP POP POP POP SWAP2 SWAP3 SWAP2 SWAP3 SWAP1 DUP1 CALLDATALOAD SWAP1 PUSH1 0x20 ADD SWAP1 PUSH5 0x100000000 DUP2 GT ISZERO PUSH2 0x366 JUMPI PUSH1 0x0 DUP1 REVERT JUMPDEST DUP3 ADD DUP4 PUSH1 0x20 DUP3 ADD GT ISZERO PUSH2 0x378 JUMPI PUSH1 0x0 DUP1 REVERT JUMPDEST DUP1 CALLDATALOAD SWAP1 PUSH1 0x20 ADD SWAP2 DUP5 PUSH1 0x20 DUP4 MUL DUP5 ADD GT PUSH5 0x100000000 DUP4 GT OR ISZERO PUSH2 0x39A JUMPI PUSH1 0x0 DUP1 REVERT JUMPDEST SWAP2 SWAP1 DUP1 DUP1 PUSH1 0x20 MUL PUSH1 0x20 ADD PUSH1 0x40 MLOAD SWAP1 DUP2 ADD PUSH1 0x40 MSTORE DUP1 SWAP4 SWAP3 SWAP2 SWAP1 DUP2 DUP2 MSTORE PUSH1 0x20 ADD DUP4 DUP4 PUSH1 0x20 MUL DUP1 DUP3 DUP5 CALLDATACOPY PUSH1 0x0 DUP2 DUP5 ADD MSTORE PUSH1 0x1F NOT PUSH1 0x1F DUP3 ADD AND SWAP1 POP DUP1 DUP4 ADD SWAP3 POP POP POP POP POP POP POP SWAP2 SWAP3 SWAP2 SWAP3 SWAP1 DUP1 CALLDATALOAD SWAP1 PUSH1 0x20 ADD SWAP1 PUSH5 0x100000000 DUP2 GT ISZERO PUSH2 0x3FA JUMPI PUSH1 0x0 DUP1 REVERT JUMPDEST DUP3 ADD DUP4 PUSH1 0x20 DUP3 ADD GT ISZERO PUSH2 0x40C JUMPI PUSH1 0x0 DUP1 REVERT JUMPDEST DUP1 CALLDATALOAD SWAP1 PUSH1 0x20 ADD SWAP2 DUP5 PUSH1 0x1 DUP4 MUL DUP5 ADD GT PUSH5 0x100000000 DUP4 GT OR ISZERO PUSH2 0x42E JUMPI PUSH1 0x0 DUP1 REVERT JUMPDEST SWAP2 SWAP1 DUP1 DUP1 PUSH1 0x1F ADD PUSH1 0x20 DUP1 SWAP2 DIV MUL PUSH1 0x20 ADD PUSH1 0x40 MLOAD SWAP1 DUP2 ADD PUSH1 0x40 MSTORE DUP1 SWAP4 SWAP3 SWAP2 SWAP1 DUP2 DUP2 MSTORE PUSH1 0x20 ADD DUP4 DUP4 DUP1 DUP3 DUP5 CALLDATACOPY PUSH1 0x0 DUP2 DUP5 ADD MSTORE PUSH1 0x1F NOT PUSH1 0x1F DUP3 ADD AND SWAP1 POP DUP1 DUP4 ADD SWAP3 POP POP POP POP POP POP POP SWAP2 SWAP3 SWAP2 SWAP3 SWAP1 POP POP POP PUSH2 0xA66 JUMP JUMPDEST STOP JUMPDEST PUSH2 0x48A PUSH2 0xEF4 JUMP JUMPDEST PUSH1 0x40 MLOAD DUP1 DUP3 DUP2 MSTORE PUSH1 0x20 ADD SWAP2 POP POP PUSH1 0x40 MLOAD DUP1 SWAP2 SUB SWAP1 RETURN JUMPDEST PUSH2 0x5EA PUSH1 0x4 DUP1 CALLDATASIZE SUB PUSH1 0x40 DUP2 LT ISZERO PUSH2 0x4B6 JUMPI PUSH1 0x0 DUP1 REVERT JUMPDEST DUP2 ADD SWAP1 DUP1 DUP1 CALLDATALOAD SWAP1 PUSH1 0x20 ADD SWAP1 PUSH5 0x100000000 DUP2 GT ISZERO PUSH2 0x4D3 JUMPI PUSH1 0x0 DUP1 REVERT JUMPDEST DUP3 ADD DUP4 PUSH1 0x20 DUP3 ADD GT ISZERO PUSH2 0x4E5 JUMPI PUSH1 0x0 DUP1 REVERT JUMPDEST DUP1 CALLDATALOAD SWAP1 PUSH1 0x20 ADD SWAP2 DUP5 PUSH1 0x20 DUP4 MUL DUP5 ADD GT PUSH5 0x100000000 DUP4 GT OR ISZERO PUSH2 0x507 JUMPI PUSH1 0x0 DUP1 REVERT JUMPDEST SWAP2 SWAP1 DUP1 DUP1 PUSH1 0x20 MUL PUSH1 0x20 ADD PUSH1 0x40 MLOAD SWAP1 DUP2 ADD PUSH1 0x40 MSTORE DUP1 SWAP4 SWAP3 SWAP2 SWAP1 DUP2 DUP2 MSTORE PUSH1 0x20 ADD DUP4 DUP4 PUSH1 0x20 MUL DUP1 DUP3 DUP5 CALLDATACOPY PUSH1 0x0 DUP2 DUP5 ADD MSTORE PUSH1 0x1F NOT PUSH1 0x1F DUP3 ADD AND SWAP1 POP DUP1 DUP4 ADD SWAP3 POP POP POP POP POP POP POP SWAP2 SWAP3 SWAP2 SWAP3 SWAP1 DUP1 CALLDATALOAD SWAP1 PUSH1 0x20 ADD SWAP1 PUSH5 0x100000000 DUP2 GT ISZERO PUSH2 0x567 JUMPI PUSH1 0x0 DUP1 REVERT JUMPDEST DUP3 ADD DUP4 PUSH1 0x20 DUP3 ADD GT ISZERO PUSH2 0x579 JUMPI PUSH1 0x0 DUP1 REVERT JUMPDEST DUP1 CALLDATALOAD SWAP1 PUSH1 0x20 ADD SWAP2 DUP5 PUSH1 0x20 DUP4 MUL DUP5 ADD GT PUSH5 0x100000000 DUP4 GT OR ISZERO PUSH2 0x59B JUMPI PUSH1 0x0 DUP1 REVERT JUMPDEST SWAP2 SWAP1 DUP1 DUP1 PUSH1 0x20 MUL PUSH1 0x20 ADD PUSH1 0x40 MLOAD SWAP1 DUP2 ADD PUSH1 0x40 MSTORE DUP1 SWAP4 SWAP3 SWAP2 SWAP1 DUP2 DUP2 MSTORE PUSH1 0x20 ADD DUP4 DUP4 PUSH1 0x20 MUL DUP1 DUP3 DUP5 CALLDATACOPY PUSH1 0x0 DUP2 DUP5 ADD MSTORE PUSH1 0x1F NOT PUSH1 0x1F DUP3 ADD AND SWAP1 POP DUP1 DUP4 ADD SWAP3 POP POP POP POP POP POP POP SWAP2 SWAP3 SWAP2 SWAP3 SWAP1 POP POP POP PUSH2 0xEF9 JUMP JUMPDEST PUSH1 0x40 MLOAD DUP1 DUP1 PUSH1 0x20 ADD DUP3 DUP2 SUB DUP3 MSTORE DUP4 DUP2 DUP2 MLOAD DUP2 MSTORE PUSH1 0x20 ADD SWAP2 POP DUP1 MLOAD SWAP1 PUSH1 0x20 ADD SWAP1 PUSH1 0x20 MUL DUP1 DUP4 DUP4 PUSH1 0x0 JUMPDEST DUP4 DUP2 LT ISZERO PUSH2 0x62D JUMPI DUP1 DUP3 ADD MLOAD DUP2 DUP5 ADD MSTORE PUSH1 0x20 DUP2 ADD SWAP1 POP PUSH2 0x612 JUMP JUMPDEST POP POP POP POP SWAP1 POP ADD SWAP3 POP POP POP PUSH1 0x40 MLOAD DUP1 SWAP2 SUB SWAP1 RETURN JUMPDEST PUSH2 0x649 PUSH2 0x10D7 JUMP JUMPDEST PUSH1 0x40 MLOAD DUP1 DUP3 DUP2 MSTORE PUSH1 0x20 ADD SWAP2 POP POP PUSH1 0x40 MLOAD DUP1 SWAP2 SUB SWAP1 RETURN JUMPDEST PUSH2 0x6AD PUSH1 0x4 DUP1 CALLDATASIZE SUB PUSH1 0x40 DUP2 LT ISZERO PUSH2 0x675 JUMPI PUSH1 0x0 DUP1 REVERT JUMPDEST DUP2 ADD SWAP1 DUP1 DUP1 CALLDATALOAD PUSH20 0xFFFFFFFFFFFFFFFFFFFFFFFFFFFFFFFFFFFFFFFF AND SWAP1 PUSH1 0x20 ADD SWAP1 SWAP3 SWAP2 SWAP1 DUP1 CALLDATALOAD ISZERO ISZERO SWAP1 PUSH1 0x20 ADD SWAP1 SWAP3 SWAP2 SWAP1 POP POP POP PUSH2 0x10DC JUMP JUMPDEST STOP JUMPDEST PUSH2 0x6B7 PUSH2 0x1277 JUMP JUMPDEST PUSH1 0x40 MLOAD DUP1 DUP3 DUP2 MSTORE PUSH1 0x20 ADD SWAP2 POP POP PUSH1 0x40 MLOAD DUP1 SWAP2 SUB SWAP1 RETURN JUMPDEST PUSH2 0x6D5 PUSH2 0x127C JUMP JUMPDEST PUSH1 0x40 MLOAD DUP1 DUP3 DUP2 MSTORE PUSH1 0x20 ADD SWAP2 POP POP PUSH1 0x40 MLOAD DUP1 SWAP2 SUB SWAP1 RETURN JUMPDEST PUSH2 0x74D PUSH1 0x4 DUP1 CALLDATASIZE SUB PUSH1 0x40 DUP2 LT ISZERO PUSH2 0x701 JUMPI PUSH1 0x0 DUP1 REVERT JUMPDEST DUP2 ADD SWAP1 DUP1 DUP1 CALLDATALOAD PUSH20 0xFFFFFFFFFFFFFFFFFFFFFFFFFFFFFFFFFFFFFFFF AND SWAP1 PUSH1 0x20 ADD SWAP1 SWAP3 SWAP2 SWAP1 DUP1 CALLDATALOAD PUSH20 0xFFFFFFFFFFFFFFFFFFFFFFFFFFFFFFFFFFFFFFFF AND SWAP1 PUSH1 0x20 ADD SWAP1 SWAP3 SWAP2 SWAP1 POP POP POP PUSH2 0x1281 JUMP JUMPDEST PUSH1 0x40 MLOAD DUP1 DUP3 ISZERO ISZERO ISZERO ISZERO DUP2 MSTORE PUSH1 0x20 ADD SWAP2 POP POP PUSH1 0x40 MLOAD DUP1 SWAP2 SUB SWAP1 RETURN JUMPDEST PUSH2 0x874 PUSH1 0x4 DUP1 CALLDATASIZE SUB PUSH1 0xA0 DUP2 LT ISZERO PUSH2 0x77D JUMPI PUSH1 0x0 DUP1 REVERT JUMPDEST DUP2 ADD SWAP1 DUP1 DUP1 CALLDATALOAD PUSH20 0xFFFFFFFFFFFFFFFFFFFFFFFFFFFFFFFFFFFFFFFF AND SWAP1 PUSH1 0x20 ADD SWAP1 SWAP3 SWAP2 SWAP1 DUP1 CALLDATALOAD PUSH20 0xFFFFFFFFFFFFFFFFFFFFFFFFFFFFFFFFFFFFFFFF AND SWAP1 PUSH1 0x20 ADD SWAP1 SWAP3 SWAP2 SWAP1 DUP1 CALLDATALOAD SWAP1 PUSH1 0x20 ADD SWAP1 SWAP3 SWAP2 SWAP1 DUP1 CALLDATALOAD SWAP1 PUSH1 0x20 ADD SWAP1 SWAP3 SWAP2 SWAP1 DUP1 CALLDATALOAD SWAP1 PUSH1 0x20 ADD SWAP1 PUSH5 0x100000000 DUP2 GT ISZERO PUSH2 0x7EE JUMPI PUSH1 0x0 DUP1 REVERT JUMPDEST DUP3 ADD DUP4 PUSH1 0x20 DUP3 ADD GT ISZERO PUSH2 0x800 JUMPI PUSH1 0x0 DUP1 REVERT JUMPDEST DUP1 CALLDATALOAD SWAP1 PUSH1 0x20 ADD SWAP2 DUP5 PUSH1 0x1 DUP4 MUL DUP5 ADD GT PUSH5 0x100000000 DUP4 GT OR ISZERO PUSH2 0x822 JUMPI PUSH1 0x0 DUP1 REVERT JUMPDEST SWAP2 SWAP1 DUP1 DUP1 PUSH1 0x1F ADD PUSH1 0x20 DUP1 SWAP2 DIV MUL PUSH1 0x20 ADD PUSH1 0x40 MLOAD SWAP1 DUP2 ADD PUSH1 0x40 MSTORE DUP1 SWAP4 SWAP3 SWAP2 SWAP1 DUP2 DUP2 MSTORE PUSH1 0x20 ADD DUP4 DUP4 DUP1 DUP3 DUP5 CALLDATACOPY PUSH1 0x0 DUP2 DUP5 ADD MSTORE PUSH1 0x1F NOT PUSH1 0x1F DUP3 ADD AND SWAP1 POP DUP1 DUP4 ADD SWAP3 POP POP POP POP POP POP POP SWAP2 SWAP3 SWAP2 SWAP3 SWAP1 POP POP POP PUSH2 0x1315 JUMP JUMPDEST STOP JUMPDEST PUSH1 0x0 DUP1 PUSH20 0xFFFFFFFFFFFFFFFFFFFFFFFFFFFFFFFFFFFFFFFF AND DUP4 PUSH20 0xFFFFFFFFFFFFFFFFFFFFFFFFFFFFFFFFFFFFFFFF AND EQ ISZERO PUSH2 0x8FD JUMPI PUSH1 0x40 MLOAD PUSH32 0x8C379A000000000000000000000000000000000000000000000000000000000 DUP2 MSTORE PUSH1 0x4 ADD DUP1 DUP1 PUSH1 0x20 ADD DUP3 DUP2 SUB DUP3 MSTORE PUSH1 0x2B DUP2 MSTORE PUSH1 0x20 ADD DUP1 PUSH2 0x2119 PUSH1 0x2B SWAP2 CODECOPY PUSH1 0x40 ADD SWAP2 POP POP PUSH1 0x40 MLOAD DUP1 SWAP2 SUB SWAP1 REVERT JUMPDEST PUSH1 0x1 PUSH1 0x0 DUP4 DUP2 MSTORE PUSH1 0x20 ADD SWAP1 DUP2 MSTORE PUSH1 0x20 ADD PUSH1 0x0 KECCAK256 PUSH1 0x0 DUP5 PUSH20 0xFFFFFFFFFFFFFFFFFFFFFFFFFFFFFFFFFFFFFFFF AND PUSH20 0xFFFFFFFFFFFFFFFFFFFFFFFFFFFFFFFFFFFFFFFF AND DUP2 MSTORE PUSH1 0x20 ADD SWAP1 DUP2 MSTORE PUSH1 0x20 ADD PUSH1 0x0 KECCAK256 SLOAD SWAP1 POP SWAP3 SWAP2 POP POP JUMP JUMPDEST PUSH1 0x0 DUP1 PUSH1 0x0 DUP4 PUSH28 0xFFFFFFFFFFFFFFFFFFFFFFFFFFFFFFFFFFFFFFFFFFFFFFFFFFFFFFFF NOT AND PUSH28 0xFFFFFFFFFFFFFFFFFFFFFFFFFFFFFFFFFFFFFFFFFFFFFFFFFFFFFFFF NOT AND DUP2 MSTORE PUSH1 0x20 ADD SWAP1 DUP2 MSTORE PUSH1 0x20 ADD PUSH1 0x0 KECCAK256 PUSH1 0x0 SWAP1 SLOAD SWAP1 PUSH2 0x100 EXP SWAP1 DIV PUSH1 0xFF AND SWAP1 POP SWAP2 SWAP1 POP JUMP JUMPDEST PUSH1 0x60 PUSH1 0x3 DUP1 SLOAD PUSH1 0x1 DUP2 PUSH1 0x1 AND ISZERO PUSH2 0x100 MUL SUB AND PUSH1 0x2 SWAP1 DIV DUP1 PUSH1 0x1F ADD PUSH1 0x20 DUP1 SWAP2 DIV MUL PUSH1 0x20 ADD PUSH1 0x40 MLOAD SWAP1 DUP2 ADD PUSH1 0x40 MSTORE DUP1 SWAP3 SWAP2 SWAP1 DUP2 DUP2 MSTORE PUSH1 0x20 ADD DUP3 DUP1 SLOAD PUSH1 0x1 DUP2 PUSH1 0x1 AND ISZERO PUSH2 0x100 MUL SUB AND PUSH1 0x2 SWAP1 DIV DUP1 ISZERO PUSH2 0xA55 JUMPI DUP1 PUSH1 0x1F LT PUSH2 0xA2A JUMPI PUSH2 0x100 DUP1 DUP4 SLOAD DIV MUL DUP4 MSTORE SWAP2 PUSH1 0x20 ADD SWAP2 PUSH2 0xA55 JUMP JUMPDEST DUP3 ADD SWAP2 SWAP1 PUSH1 0x0 MSTORE PUSH1 0x20 PUSH1 0x0 KECCAK256 SWAP1 JUMPDEST DUP2 SLOAD DUP2 MSTORE SWAP1 PUSH1 0x1 ADD SWAP1 PUSH1 0x20 ADD DUP1 DUP4 GT PUSH2 0xA38 JUMPI DUP3 SWAP1 SUB PUSH1 0x1F AND DUP3 ADD SWAP2 JUMPDEST POP POP POP POP POP SWAP1 POP SWAP2 SWAP1 POP JUMP JUMPDEST PUSH1 0x3 DUP2 JUMP JUMPDEST DUP2 MLOAD DUP4 MLOAD EQ PUSH2 0xAC0 JUMPI PUSH1 0x40 MLOAD PUSH32 0x8C379A000000000000000000000000000000000000000000000000000000000 DUP2 MSTORE PUSH1 0x4 ADD DUP1 DUP1 PUSH1 0x20 ADD DUP3 DUP2 SUB DUP3 MSTORE PUSH1 0x28 DUP2 MSTORE PUSH1 0x20 ADD DUP1 PUSH2 0x2271 PUSH1 0x28 SWAP2 CODECOPY PUSH1 0x40 ADD SWAP2 POP POP PUSH1 0x40 MLOAD DUP1 SWAP2 SUB SWAP1 REVERT JUMPDEST PUSH1 0x0 PUSH20 0xFFFFFFFFFFFFFFFFFFFFFFFFFFFFFFFFFFFFFFFF AND DUP5 PUSH20 0xFFFFFFFFFFFFFFFFFFFFFFFFFFFFFFFFFFFFFFFF AND EQ ISZERO PUSH2 0xB46 JUMPI PUSH1 0x40 MLOAD PUSH32 0x8C379A000000000000000000000000000000000000000000000000000000000 DUP2 MSTORE PUSH1 0x4 ADD DUP1 DUP1 PUSH1 0x20 ADD DUP3 DUP2 SUB DUP3 MSTORE PUSH1 0x25 DUP2 MSTORE PUSH1 0x20 ADD DUP1 PUSH2 0x219E PUSH1 0x25 SWAP2 CODECOPY PUSH1 0x40 ADD SWAP2 POP POP PUSH1 0x40 MLOAD DUP1 SWAP2 SUB SWAP1 REVERT JUMPDEST PUSH2 0xB4E PUSH2 0x168A JUMP JUMPDEST PUSH20 0xFFFFFFFFFFFFFFFFFFFFFFFFFFFFFFFFFFFFFFFF AND DUP6 PUSH20 0xFFFFFFFFFFFFFFFFFFFFFFFFFFFFFFFFFFFFFFFF AND EQ DUP1 PUSH2 0xB94 JUMPI POP PUSH2 0xB93 DUP6 PUSH2 0xB8E PUSH2 0x168A JUMP JUMPDEST PUSH2 0x1281 JUMP JUMPDEST JUMPDEST PUSH2 0xBE9 JUMPI PUSH1 0x40 MLOAD PUSH32 0x8C379A000000000000000000000000000000000000000000000000000000000 DUP2 MSTORE PUSH1 0x4 ADD DUP1 DUP1 PUSH1 0x20 ADD DUP3 DUP2 SUB DUP3 MSTORE PUSH1 0x32 DUP2 MSTORE PUSH1 0x20 ADD DUP1 PUSH2 0x21C3 PUSH1 0x32 SWAP2 CODECOPY PUSH1 0x40 ADD SWAP2 POP POP PUSH1 0x40 MLOAD DUP1 SWAP2 SUB SWAP1 REVERT JUMPDEST PUSH1 0x0 PUSH2 0xBF3 PUSH2 0x168A JUMP JUMPDEST SWAP1 POP PUSH2 0xC03 DUP2 DUP8 DUP8 DUP8 DUP8 DUP8 PUSH2 0x1692 JUMP JUMPDEST PUSH1 0x0 DUP1 SWAP1 POP JUMPDEST DUP5 MLOAD DUP2 LT ISZERO PUSH2 0xDD7 JUMPI PUSH1 0x0 DUP6 DUP3 DUP2 MLOAD DUP2 LT PUSH2 0xC20 JUMPI INVALID JUMPDEST PUSH1 0x20 MUL PUSH1 0x20 ADD ADD MLOAD SWAP1 POP PUSH1 0x0 DUP6 DUP4 DUP2 MLOAD DUP2 LT PUSH2 0xC38 JUMPI INVALID JUMPDEST PUSH1 0x20 MUL PUSH1 0x20 ADD ADD MLOAD SWAP1 POP PUSH2 0xCBF DUP2 PUSH1 0x40 MLOAD DUP1 PUSH1 0x60 ADD PUSH1 0x40 MSTORE DUP1 PUSH1 0x2A DUP2 MSTORE PUSH1 0x20 ADD PUSH2 0x21F5 PUSH1 0x2A SWAP2 CODECOPY PUSH1 0x1 PUSH1 0x0 DUP7 DUP2 MSTORE PUSH1 0x20 ADD SWAP1 DUP2 MSTORE PUSH1 0x20 ADD PUSH1 0x0 KECCAK256 PUSH1 0x0 DUP14 PUSH20 0xFFFFFFFFFFFFFFFFFFFFFFFFFFFFFFFFFFFFFFFF AND PUSH20 0xFFFFFFFFFFFFFFFFFFFFFFFFFFFFFFFFFFFFFFFF AND DUP2 MSTORE PUSH1 0x20 ADD SWAP1 DUP2 MSTORE PUSH1 0x20 ADD PUSH1 0x0 KECCAK256 SLOAD PUSH2 0x169A SWAP1 SWAP3 SWAP2 SWAP1 PUSH4 0xFFFFFFFF AND JUMP JUMPDEST PUSH1 0x1 PUSH1 0x0 DUP5 DUP2 MSTORE PUSH1 0x20 ADD SWAP1 DUP2 MSTORE PUSH1 0x20 ADD PUSH1 0x0 KECCAK256 PUSH1 0x0 DUP12 PUSH20 0xFFFFFFFFFFFFFFFFFFFFFFFFFFFFFFFFFFFFFFFF AND PUSH20 0xFFFFFFFFFFFFFFFFFFFFFFFFFFFFFFFFFFFFFFFF AND DUP2 MSTORE PUSH1 0x20 ADD SWAP1 DUP2 MSTORE PUSH1 0x20 ADD PUSH1 0x0 KECCAK256 DUP2 SWAP1 SSTORE POP PUSH2 0xD76 DUP2 PUSH1 0x1 PUSH1 0x0 DUP6 DUP2 MSTORE PUSH1 0x20 ADD SWAP1 DUP2 MSTORE PUSH1 0x20 ADD PUSH1 0x0 KECCAK256 PUSH1 0x0 DUP12 PUSH20 0xFFFFFFFFFFFFFFFFFFFFFFFFFFFFFFFFFFFFFFFF AND PUSH20 0xFFFFFFFFFFFFFFFFFFFFFFFFFFFFFFFFFFFFFFFF AND DUP2 MSTORE PUSH1 0x20 ADD SWAP1 DUP2 MSTORE PUSH1 0x20 ADD PUSH1 0x0 KECCAK256 SLOAD PUSH2 0x175A SWAP1 SWAP2 SWAP1 PUSH4 0xFFFFFFFF AND JUMP JUMPDEST PUSH1 0x1 PUSH1 0x0 DUP5 DUP2 MSTORE PUSH1 0x20 ADD SWAP1 DUP2 MSTORE PUSH1 0x20 ADD PUSH1 0x0 KECCAK256 PUSH1 0x0 DUP11 PUSH20 0xFFFFFFFFFFFFFFFFFFFFFFFFFFFFFFFFFFFFFFFF AND PUSH20 0xFFFFFFFFFFFFFFFFFFFFFFFFFFFFFFFFFFFFFFFF AND DUP2 MSTORE PUSH1 0x20 ADD SWAP1 DUP2 MSTORE PUSH1 0x20 ADD PUSH1 0x0 KECCAK256 DUP2 SWAP1 SSTORE POP POP POP DUP1 PUSH1 0x1 ADD SWAP1 POP PUSH2 0xC09 JUMP JUMPDEST POP DUP5 PUSH20 0xFFFFFFFFFFFFFFFFFFFFFFFFFFFFFFFFFFFFFFFF AND DUP7 PUSH20 0xFFFFFFFFFFFFFFFFFFFFFFFFFFFFFFFFFFFFFFFF AND DUP3 PUSH20 0xFFFFFFFFFFFFFFFFFFFFFFFFFFFFFFFFFFFFFFFF AND PUSH32 0x4A39DC06D4C0DBC64B70AF90FD698A233A518AA5D07E595D983B8C0526C8F7FB DUP8 DUP8 PUSH1 0x40 MLOAD DUP1 DUP1 PUSH1 0x20 ADD DUP1 PUSH1 0x20 ADD DUP4 DUP2 SUB DUP4 MSTORE DUP6 DUP2 DUP2 MLOAD DUP2 MSTORE PUSH1 0x20 ADD SWAP2 POP DUP1 MLOAD SWAP1 PUSH1 0x20 ADD SWAP1 PUSH1 0x20 MUL DUP1 DUP4 DUP4 PUSH1 0x0 JUMPDEST DUP4 DUP2 LT ISZERO PUSH2 0xE87 JUMPI DUP1 DUP3 ADD MLOAD DUP2 DUP5 ADD MSTORE PUSH1 0x20 DUP2 ADD SWAP1 POP PUSH2 0xE6C JUMP JUMPDEST POP POP POP POP SWAP1 POP ADD DUP4 DUP2 SUB DUP3 MSTORE DUP5 DUP2 DUP2 MLOAD DUP2 MSTORE PUSH1 0x20 ADD SWAP2 POP DUP1 MLOAD SWAP1 PUSH1 0x20 ADD SWAP1 PUSH1 0x20 MUL DUP1 DUP4 DUP4 PUSH1 0x0 JUMPDEST DUP4 DUP2 LT ISZERO PUSH2 0xEC9 JUMPI DUP1 DUP3 ADD MLOAD DUP2 DUP5 ADD MSTORE PUSH1 0x20 DUP2 ADD SWAP1 POP PUSH2 0xEAE JUMP JUMPDEST POP POP POP POP SWAP1 POP ADD SWAP5 POP POP POP POP POP PUSH1 0x40 MLOAD DUP1 SWAP2 SUB SWAP1 LOG4 PUSH2 0xEEC DUP2 DUP8 DUP8 DUP8 DUP8 DUP8 PUSH2 0x17E2 JUMP JUMPDEST POP POP POP POP POP POP JUMP JUMPDEST PUSH1 0x0 DUP2 JUMP JUMPDEST PUSH1 0x60 DUP2 MLOAD DUP4 MLOAD EQ PUSH2 0xF55 JUMPI PUSH1 0x40 MLOAD PUSH32 0x8C379A000000000000000000000000000000000000000000000000000000000 DUP2 MSTORE PUSH1 0x4 ADD DUP1 DUP1 PUSH1 0x20 ADD DUP3 DUP2 SUB DUP3 MSTORE PUSH1 0x29 DUP2 MSTORE PUSH1 0x20 ADD DUP1 PUSH2 0x2248 PUSH1 0x29 SWAP2 CODECOPY PUSH1 0x40 ADD SWAP2 POP POP PUSH1 0x40 MLOAD DUP1 SWAP2 SUB SWAP1 REVERT JUMPDEST PUSH1 0x60 DUP4 MLOAD PUSH1 0x40 MLOAD SWAP1 DUP1 DUP3 MSTORE DUP1 PUSH1 0x20 MUL PUSH1 0x20 ADD DUP3 ADD PUSH1 0x40 MSTORE DUP1 ISZERO PUSH2 0xF87 JUMPI DUP2 PUSH1 0x20 ADD PUSH1 0x20 DUP3 MUL DUP1 CODESIZE DUP4 CODECOPY DUP1 DUP3 ADD SWAP2 POP POP SWAP1 POP JUMPDEST POP SWAP1 POP PUSH1 0x0 DUP1 SWAP1 POP JUMPDEST DUP5 MLOAD DUP2 LT ISZERO PUSH2 0x10CC JUMPI PUSH1 0x0 PUSH20 0xFFFFFFFFFFFFFFFFFFFFFFFFFFFFFFFFFFFFFFFF AND DUP6 DUP3 DUP2 MLOAD DUP2 LT PUSH2 0xFBD JUMPI INVALID JUMPDEST PUSH1 0x20 MUL PUSH1 0x20 ADD ADD MLOAD PUSH20 0xFFFFFFFFFFFFFFFFFFFFFFFFFFFFFFFFFFFFFFFF AND EQ ISZERO PUSH2 0x1032 JUMPI PUSH1 0x40 MLOAD PUSH32 0x8C379A000000000000000000000000000000000000000000000000000000000 DUP2 MSTORE PUSH1 0x4 ADD DUP1 DUP1 PUSH1 0x20 ADD DUP3 DUP2 SUB DUP3 MSTORE PUSH1 0x31 DUP2 MSTORE PUSH1 0x20 ADD DUP1 PUSH2 0x2144 PUSH1 0x31 SWAP2 CODECOPY PUSH1 0x40 ADD SWAP2 POP POP PUSH1 0x40 MLOAD DUP1 SWAP2 SUB SWAP1 REVERT JUMPDEST PUSH1 0x1 PUSH1 0x0 DUP6 DUP4 DUP2 MLOAD DUP2 LT PUSH2 0x1042 JUMPI INVALID JUMPDEST PUSH1 0x20 MUL PUSH1 0x20 ADD ADD MLOAD DUP2 MSTORE PUSH1 0x20 ADD SWAP1 DUP2 MSTORE PUSH1 0x20 ADD PUSH1 0x0 KECCAK256 PUSH1 0x0 DUP7 DUP4 DUP2 MLOAD DUP2 LT PUSH2 0x1066 JUMPI INVALID JUMPDEST PUSH1 0x20 MUL PUSH1 0x20 ADD ADD MLOAD PUSH20 0xFFFFFFFFFFFFFFFFFFFFFFFFFFFFFFFFFFFFFFFF AND PUSH20 0xFFFFFFFFFFFFFFFFFFFFFFFFFFFFFFFFFFFFFFFF AND DUP2 MSTORE PUSH1 0x20 ADD SWAP1 DUP2 MSTORE PUSH1 0x20 ADD PUSH1 0x0 KECCAK256 SLOAD DUP3 DUP3 DUP2 MLOAD DUP2 LT PUSH2 0x10B5 JUMPI INVALID JUMPDEST PUSH1 0x20 MUL PUSH1 0x20 ADD ADD DUP2 DUP2 MSTORE POP POP DUP1 PUSH1 0x1 ADD SWAP1 POP PUSH2 0xF90 JUMP JUMPDEST POP DUP1 SWAP2 POP POP SWAP3 SWAP2 POP POP JUMP JUMPDEST PUSH1 0x4 DUP2 JUMP JUMPDEST DUP2 PUSH20 0xFFFFFFFFFFFFFFFFFFFFFFFFFFFFFFFFFFFFFFFF AND PUSH2 0x10FB PUSH2 0x168A JUMP JUMPDEST PUSH20 0xFFFFFFFFFFFFFFFFFFFFFFFFFFFFFFFFFFFFFFFF AND EQ ISZERO PUSH2 0x1168 JUMPI PUSH1 0x40 MLOAD PUSH32 0x8C379A000000000000000000000000000000000000000000000000000000000 DUP2 MSTORE PUSH1 0x4 ADD DUP1 DUP1 PUSH1 0x20 ADD DUP3 DUP2 SUB DUP3 MSTORE PUSH1 0x29 DUP2 MSTORE PUSH1 0x20 ADD DUP1 PUSH2 0x221F PUSH1 0x29 SWAP2 CODECOPY PUSH1 0x40 ADD SWAP2 POP POP PUSH1 0x40 MLOAD DUP1 SWAP2 SUB SWAP1 REVERT JUMPDEST DUP1 PUSH1 0x2 PUSH1 0x0 PUSH2 0x1175 PUSH2 0x168A JUMP JUMPDEST PUSH20 0xFFFFFFFFFFFFFFFFFFFFFFFFFFFFFFFFFFFFFFFF AND PUSH20 0xFFFFFFFFFFFFFFFFFFFFFFFFFFFFFFFFFFFFFFFF AND DUP2 MSTORE PUSH1 0x20 ADD SWAP1 DUP2 MSTORE PUSH1 0x20 ADD PUSH1 0x0 KECCAK256 PUSH1 0x0 DUP5 PUSH20 0xFFFFFFFFFFFFFFFFFFFFFFFFFFFFFFFFFFFFFFFF AND PUSH20 0xFFFFFFFFFFFFFFFFFFFFFFFFFFFFFFFFFFFFFFFF AND DUP2 MSTORE PUSH1 0x20 ADD SWAP1 DUP2 MSTORE PUSH1 0x20 ADD PUSH1 0x0 KECCAK256 PUSH1 0x0 PUSH2 0x100 EXP DUP2 SLOAD DUP2 PUSH1 0xFF MUL NOT AND SWAP1 DUP4 ISZERO ISZERO MUL OR SWAP1 SSTORE POP DUP2 PUSH20 0xFFFFFFFFFFFFFFFFFFFFFFFFFFFFFFFFFFFFFFFF AND PUSH2 0x1222 PUSH2 0x168A JUMP JUMPDEST PUSH20 0xFFFFFFFFFFFFFFFFFFFFFFFFFFFFFFFFFFFFFFFF AND PUSH32 0x17307EAB39AB6107E8899845AD3D59BD9653F200F220920489CA2B5937696C31 DUP4 PUSH1 0x40 MLOAD DUP1 DUP3 ISZERO ISZERO ISZERO ISZERO DUP2 MSTORE PUSH1 0x20 ADD SWAP2 POP POP PUSH1 0x40 MLOAD DUP1 SWAP2 SUB SWAP1 LOG3 POP POP JUMP JUMPDEST PUSH1 0x2 DUP2 JUMP JUMPDEST PUSH1 0x1 DUP2 JUMP JUMPDEST PUSH1 0x0 PUSH1 0x2 PUSH1 0x0 DUP5 PUSH20 0xFFFFFFFFFFFFFFFFFFFFFFFFFFFFFFFFFFFFFFFF AND PUSH20 0xFFFFFFFFFFFFFFFFFFFFFFFFFFFFFFFFFFFFFFFF AND DUP2 MSTORE PUSH1 0x20 ADD SWAP1 DUP2 MSTORE PUSH1 0x20 ADD PUSH1 0x0 KECCAK256 PUSH1 0x0 DUP4 PUSH20 0xFFFFFFFFFFFFFFFFFFFFFFFFFFFFFFFFFFFFFFFF AND PUSH20 0xFFFFFFFFFFFFFFFFFFFFFFFFFFFFFFFFFFFFFFFF AND DUP2 MSTORE PUSH1 0x20 ADD SWAP1 DUP2 MSTORE PUSH1 0x20 ADD PUSH1 0x0 KECCAK256 PUSH1 0x0 SWAP1 SLOAD SWAP1 PUSH2 0x100 EXP SWAP1 DIV PUSH1 0xFF AND SWAP1 POP SWAP3 SWAP2 POP POP JUMP JUMPDEST PUSH1 0x0 PUSH20 0xFFFFFFFFFFFFFFFFFFFFFFFFFFFFFFFFFFFFFFFF AND DUP5 PUSH20 0xFFFFFFFFFFFFFFFFFFFFFFFFFFFFFFFFFFFFFFFF AND EQ ISZERO PUSH2 0x139B JUMPI PUSH1 0x40 MLOAD PUSH32 0x8C379A000000000000000000000000000000000000000000000000000000000 DUP2 MSTORE PUSH1 0x4 ADD DUP1 DUP1 PUSH1 0x20 ADD DUP3 DUP2 SUB DUP3 MSTORE PUSH1 0x25 DUP2 MSTORE PUSH1 0x20 ADD DUP1 PUSH2 0x219E PUSH1 0x25 SWAP2 CODECOPY PUSH1 0x40 ADD SWAP2 POP POP PUSH1 0x40 MLOAD DUP1 SWAP2 SUB SWAP1 REVERT JUMPDEST PUSH2 0x13A3 PUSH2 0x168A JUMP JUMPDEST PUSH20 0xFFFFFFFFFFFFFFFFFFFFFFFFFFFFFFFFFFFFFFFF AND DUP6 PUSH20 0xFFFFFFFFFFFFFFFFFFFFFFFFFFFFFFFFFFFFFFFF AND EQ DUP1 PUSH2 0x13E9 JUMPI POP PUSH2 0x13E8 DUP6 PUSH2 0x13E3 PUSH2 0x168A JUMP JUMPDEST PUSH2 0x1281 JUMP JUMPDEST JUMPDEST PUSH2 0x143E JUMPI PUSH1 0x40 MLOAD PUSH32 0x8C379A000000000000000000000000000000000000000000000000000000000 DUP2 MSTORE PUSH1 0x4 ADD DUP1 DUP1 PUSH1 0x20 ADD DUP3 DUP2 SUB DUP3 MSTORE PUSH1 0x29 DUP2 MSTORE PUSH1 0x20 ADD DUP1 PUSH2 0x2175 PUSH1 0x29 SWAP2 CODECOPY PUSH1 0x40 ADD SWAP2 POP POP PUSH1 0x40 MLOAD DUP1 SWAP2 SUB SWAP1 REVERT JUMPDEST PUSH1 0x0 PUSH2 0x1448 PUSH2 0x168A JUMP JUMPDEST SWAP1 POP PUSH2 0x1468 DUP2 DUP8 DUP8 PUSH2 0x1459 DUP9 PUSH2 0x1C5A JUMP JUMPDEST PUSH2 0x1462 DUP9 PUSH2 0x1C5A JUMP JUMPDEST DUP8 PUSH2 0x1692 JUMP JUMPDEST PUSH2 0x14E5 DUP4 PUSH1 0x40 MLOAD DUP1 PUSH1 0x60 ADD PUSH1 0x40 MSTORE DUP1 PUSH1 0x2A DUP2 MSTORE PUSH1 0x20 ADD PUSH2 0x21F5 PUSH1 0x2A SWAP2 CODECOPY PUSH1 0x1 PUSH1 0x0 DUP9 DUP2 MSTORE PUSH1 0x20 ADD SWAP1 DUP2 MSTORE PUSH1 0x20 ADD PUSH1 0x0 KECCAK256 PUSH1 0x0 DUP11 PUSH20 0xFFFFFFFFFFFFFFFFFFFFFFFFFFFFFFFFFFFFFFFF AND PUSH20 0xFFFFFFFFFFFFFFFFFFFFFFFFFFFFFFFFFFFFFFFF AND DUP2 MSTORE PUSH1 0x20 ADD SWAP1 DUP2 MSTORE PUSH1 0x20 ADD PUSH1 0x0 KECCAK256 SLOAD PUSH2 0x169A SWAP1 SWAP3 SWAP2 SWAP1 PUSH4 0xFFFFFFFF AND JUMP JUMPDEST PUSH1 0x1 PUSH1 0x0 DUP7 DUP2 MSTORE PUSH1 0x20 ADD SWAP1 DUP2 MSTORE PUSH1 0x20 ADD PUSH1 0x0 KECCAK256 PUSH1 0x0 DUP9 PUSH20 0xFFFFFFFFFFFFFFFFFFFFFFFFFFFFFFFFFFFFFFFF AND PUSH20 0xFFFFFFFFFFFFFFFFFFFFFFFFFFFFFFFFFFFFFFFF AND DUP2 MSTORE PUSH1 0x20 ADD SWAP1 DUP2 MSTORE PUSH1 0x20 ADD PUSH1 0x0 KECCAK256 DUP2 SWAP1 SSTORE POP PUSH2 0x159C DUP4 PUSH1 0x1 PUSH1 0x0 DUP8 DUP2 MSTORE PUSH1 0x20 ADD SWAP1 DUP2 MSTORE PUSH1 0x20 ADD PUSH1 0x0 KECCAK256 PUSH1 0x0 DUP9 PUSH20 0xFFFFFFFFFFFFFFFFFFFFFFFFFFFFFFFFFFFFFFFF AND PUSH20 0xFFFFFFFFFFFFFFFFFFFFFFFFFFFFFFFFFFFFFFFF AND DUP2 MSTORE PUSH1 0x20 ADD SWAP1 DUP2 MSTORE PUSH1 0x20 ADD PUSH1 0x0 KECCAK256 SLOAD PUSH2 0x175A SWAP1 SWAP2 SWAP1 PUSH4 0xFFFFFFFF AND JUMP JUMPDEST PUSH1 0x1 PUSH1 0x0 DUP7 DUP2 MSTORE PUSH1 0x20 ADD SWAP1 DUP2 MSTORE PUSH1 0x20 ADD PUSH1 0x0 KECCAK256 PUSH1 0x0 DUP8 PUSH20 0xFFFFFFFFFFFFFFFFFFFFFFFFFFFFFFFFFFFFFFFF AND PUSH20 0xFFFFFFFFFFFFFFFFFFFFFFFFFFFFFFFFFFFFFFFF AND DUP2 MSTORE PUSH1 0x20 ADD SWAP1 DUP2 MSTORE PUSH1 0x20 ADD PUSH1 0x0 KECCAK256 DUP2 SWAP1 SSTORE POP DUP5 PUSH20 0xFFFFFFFFFFFFFFFFFFFFFFFFFFFFFFFFFFFFFFFF AND DUP7 PUSH20 0xFFFFFFFFFFFFFFFFFFFFFFFFFFFFFFFFFFFFFFFF AND DUP3 PUSH20 0xFFFFFFFFFFFFFFFFFFFFFFFFFFFFFFFFFFFFFFFF AND PUSH32 0xC3D58168C5AE7397731D063D5BBF3D657854427343F4C083240F7AACAA2D0F62 DUP8 DUP8 PUSH1 0x40 MLOAD DUP1 DUP4 DUP2 MSTORE PUSH1 0x20 ADD DUP3 DUP2 MSTORE PUSH1 0x20 ADD SWAP3 POP POP POP PUSH1 0x40 MLOAD DUP1 SWAP2 SUB SWAP1 LOG4 PUSH2 0x1682 DUP2 DUP8 DUP8 DUP8 DUP8 DUP8 PUSH2 0x1CB3 JUMP JUMPDEST POP POP POP POP POP POP JUMP JUMPDEST PUSH1 0x0 CALLER SWAP1 POP SWAP1 JUMP JUMPDEST POP POP POP POP POP POP JUMP JUMPDEST PUSH1 0x0 DUP4 DUP4 GT ISZERO DUP3 SWAP1 PUSH2 0x1747 JUMPI PUSH1 0x40 MLOAD PUSH32 0x8C379A000000000000000000000000000000000000000000000000000000000 DUP2 MSTORE PUSH1 0x4 ADD DUP1 DUP1 PUSH1 0x20 ADD DUP3 DUP2 SUB DUP3 MSTORE DUP4 DUP2 DUP2 MLOAD DUP2 MSTORE PUSH1 0x20 ADD SWAP2 POP DUP1 MLOAD SWAP1 PUSH1 0x20 ADD SWAP1 DUP1 DUP4 DUP4 PUSH1 0x0 JUMPDEST DUP4 DUP2 LT ISZERO PUSH2 0x170C JUMPI DUP1 DUP3 ADD MLOAD DUP2 DUP5 ADD MSTORE PUSH1 0x20 DUP2 ADD SWAP1 POP PUSH2 0x16F1 JUMP JUMPDEST POP POP POP POP SWAP1 POP SWAP1 DUP2 ADD SWAP1 PUSH1 0x1F AND DUP1 ISZERO PUSH2 0x1739 JUMPI DUP1 DUP3 SUB DUP1 MLOAD PUSH1 0x1 DUP4 PUSH1 0x20 SUB PUSH2 0x100 EXP SUB NOT AND DUP2 MSTORE PUSH1 0x20 ADD SWAP2 POP JUMPDEST POP SWAP3 POP POP POP PUSH1 0x40 MLOAD DUP1 SWAP2 SUB SWAP1 REVERT JUMPDEST POP PUSH1 0x0 DUP4 DUP6 SUB SWAP1 POP DUP1 SWAP2 POP POP SWAP4 SWAP3 POP POP POP JUMP JUMPDEST PUSH1 0x0 DUP1 DUP3 DUP5 ADD SWAP1 POP DUP4 DUP2 LT ISZERO PUSH2 0x17D8 JUMPI PUSH1 0x40 MLOAD PUSH32 0x8C379A000000000000000000000000000000000000000000000000000000000 DUP2 MSTORE PUSH1 0x4 ADD DUP1 DUP1 PUSH1 0x20 ADD DUP3 DUP2 SUB DUP3 MSTORE PUSH1 0x1B DUP2 MSTORE PUSH1 0x20 ADD DUP1 PUSH32 0x536166654D6174683A206164646974696F6E206F766572666C6F770000000000 DUP2 MSTORE POP PUSH1 0x20 ADD SWAP2 POP POP PUSH1 0x40 MLOAD DUP1 SWAP2 SUB SWAP1 REVERT JUMPDEST DUP1 SWAP2 POP POP SWAP3 SWAP2 POP POP JUMP JUMPDEST PUSH2 0x1801 DUP5 PUSH20 0xFFFFFFFFFFFFFFFFFFFFFFFFFFFFFFFFFFFFFFFF AND PUSH2 0x20A9 JUMP JUMPDEST ISZERO PUSH2 0x1C52 JUMPI DUP4 PUSH20 0xFFFFFFFFFFFFFFFFFFFFFFFFFFFFFFFFFFFFFFFF AND PUSH4 0xBC197C81 DUP8 DUP8 DUP7 DUP7 DUP7 PUSH1 0x40 MLOAD DUP7 PUSH4 0xFFFFFFFF AND PUSH1 0xE0 SHL DUP2 MSTORE PUSH1 0x4 ADD DUP1 DUP7 PUSH20 0xFFFFFFFFFFFFFFFFFFFFFFFFFFFFFFFFFFFFFFFF AND PUSH20 0xFFFFFFFFFFFFFFFFFFFFFFFFFFFFFFFFFFFFFFFF AND DUP2 MSTORE PUSH1 0x20 ADD DUP6 PUSH20 0xFFFFFFFFFFFFFFFFFFFFFFFFFFFFFFFFFFFFFFFF AND PUSH20 0xFFFFFFFFFFFFFFFFFFFFFFFFFFFFFFFFFFFFFFFF AND DUP2 MSTORE PUSH1 0x20 ADD DUP1 PUSH1 0x20 ADD DUP1 PUSH1 0x20 ADD DUP1 PUSH1 0x20 ADD DUP5 DUP2 SUB DUP5 MSTORE DUP8 DUP2 DUP2 MLOAD DUP2 MSTORE PUSH1 0x20 ADD SWAP2 POP DUP1 MLOAD SWAP1 PUSH1 0x20 ADD SWAP1 PUSH1 0x20 MUL DUP1 DUP4 DUP4 PUSH1 0x0 JUMPDEST DUP4 DUP2 LT ISZERO PUSH2 0x18E5 JUMPI DUP1 DUP3 ADD MLOAD DUP2 DUP5 ADD MSTORE PUSH1 0x20 DUP2 ADD SWAP1 POP PUSH2 0x18CA JUMP JUMPDEST POP POP POP POP SWAP1 POP ADD DUP5 DUP2 SUB DUP4 MSTORE DUP7 DUP2 DUP2 MLOAD DUP2 MSTORE PUSH1 0x20 ADD SWAP2 POP DUP1 MLOAD SWAP1 PUSH1 0x20 ADD SWAP1 PUSH1 0x20 MUL DUP1 DUP4 DUP4 PUSH1 0x0 JUMPDEST DUP4 DUP2 LT ISZERO PUSH2 0x1927 JUMPI DUP1 DUP3 ADD MLOAD DUP2 DUP5 ADD MSTORE PUSH1 0x20 DUP2 ADD SWAP1 POP PUSH2 0x190C JUMP JUMPDEST POP POP POP POP SWAP1 POP ADD DUP5 DUP2 SUB DUP3 MSTORE DUP6 DUP2 DUP2 MLOAD DUP2 MSTORE PUSH1 0x20 ADD SWAP2 POP DUP1 MLOAD SWAP1 PUSH1 0x20 ADD SWAP1 DUP1 DUP4 DUP4 PUSH1 0x0 JUMPDEST DUP4 DUP2 LT ISZERO PUSH2 0x1966 JUMPI DUP1 DUP3 ADD MLOAD DUP2 DUP5 ADD MSTORE PUSH1 0x20 DUP2 ADD SWAP1 POP PUSH2 0x194B JUMP JUMPDEST POP POP POP POP SWAP1 POP SWAP1 DUP2 ADD SWAP1 PUSH1 0x1F AND DUP1 ISZERO PUSH2 0x1993 JUMPI DUP1 DUP3 SUB DUP1 MLOAD PUSH1 0x1 DUP4 PUSH1 0x20 SUB PUSH2 0x100 EXP SUB NOT AND DUP2 MSTORE PUSH1 0x20 ADD SWAP2 POP JUMPDEST POP SWAP9 POP POP POP POP POP POP POP POP POP PUSH1 0x20 PUSH1 0x40 MLOAD DUP1 DUP4 SUB DUP2 PUSH1 0x0 DUP8 DUP1 EXTCODESIZE ISZERO DUP1 ISZERO PUSH2 0x19B8 JUMPI PUSH1 0x0 DUP1 REVERT JUMPDEST POP GAS CALL SWAP3 POP POP POP DUP1 ISZERO PUSH2 0x19EC JUMPI POP PUSH1 0x40 MLOAD RETURNDATASIZE PUSH1 0x20 DUP2 LT ISZERO PUSH2 0x19D8 JUMPI PUSH1 0x0 DUP1 REVERT JUMPDEST DUP2 ADD SWAP1 DUP1 DUP1 MLOAD SWAP1 PUSH1 0x20 ADD SWAP1 SWAP3 SWAP2 SWAP1 POP POP POP PUSH1 0x1 JUMPDEST PUSH2 0x1BB3 JUMPI PUSH1 0x0 PUSH1 0x40 MLOAD SWAP1 POP PUSH1 0x0 DUP2 MSTORE PUSH1 0x1 ISZERO PUSH2 0x1AB5 JUMPI PUSH1 0x44 RETURNDATASIZE LT ISZERO PUSH2 0x1A14 JUMPI PUSH1 0x0 SWAP1 POP PUSH2 0x1AB5 JUMP JUMPDEST PUSH1 0x4 PUSH1 0x0 DUP1 RETURNDATACOPY PUSH1 0x0 MLOAD PUSH1 0xE0 SHR PUSH4 0x8C379A0 DUP2 EQ PUSH2 0x1A35 JUMPI PUSH1 0x0 SWAP2 POP POP PUSH2 0x1AB5 JUMP JUMPDEST PUSH1 0x4 RETURNDATASIZE SUB PUSH1 0x4 DUP4 RETURNDATACOPY DUP2 MLOAD RETURNDATASIZE PUSH1 0x24 DUP3 ADD GT PUSH8 0xFFFFFFFFFFFFFFFF DUP3 GT OR ISZERO PUSH2 0x1A61 JUMPI PUSH1 0x0 SWAP3 POP POP POP PUSH2 0x1AB5 JUMP JUMPDEST DUP1 DUP4 ADD DUP1 MLOAD PUSH8 0xFFFFFFFFFFFFFFFF DUP2 GT ISZERO PUSH2 0x1A83 JUMPI PUSH1 0x0 SWAP5 POP POP POP POP POP PUSH2 0x1AB5 JUMP JUMPDEST DUP1 PUSH1 0x20 DUP4 ADD ADD RETURNDATASIZE DUP7 ADD DUP2 GT ISZERO PUSH2 0x1AA1 JUMPI PUSH1 0x0 SWAP6 POP POP POP POP POP POP PUSH2 0x1AB5 JUMP JUMPDEST PUSH1 0x1F NOT PUSH1 0x1F DUP3 ADD AND PUSH1 0x40 MSTORE DUP3 SWAP6 POP POP POP POP POP POP JUMPDEST DUP1 PUSH2 0x1AC0 JUMPI POP PUSH2 0x1B62 JUMP JUMPDEST DUP1 PUSH1 0x40 MLOAD PUSH32 0x8C379A000000000000000000000000000000000000000000000000000000000 DUP2 MSTORE PUSH1 0x4 ADD DUP1 DUP1 PUSH1 0x20 ADD DUP3 DUP2 SUB DUP3 MSTORE DUP4 DUP2 DUP2 MLOAD DUP2 MSTORE PUSH1 0x20 ADD SWAP2 POP DUP1 MLOAD SWAP1 PUSH1 0x20 ADD SWAP1 DUP1 DUP4 DUP4 PUSH1 0x0 JUMPDEST DUP4 DUP2 LT ISZERO PUSH2 0x1B27 JUMPI DUP1 DUP3 ADD MLOAD DUP2 DUP5 ADD MSTORE PUSH1 0x20 DUP2 ADD SWAP1 POP PUSH2 0x1B0C JUMP JUMPDEST POP POP POP POP SWAP1 POP SWAP1 DUP2 ADD SWAP1 PUSH1 0x1F AND DUP1 ISZERO PUSH2 0x1B54 JUMPI DUP1 DUP3 SUB DUP1 MLOAD PUSH1 0x1 DUP4 PUSH1 0x20 SUB PUSH2 0x100 EXP SUB NOT AND DUP2 MSTORE PUSH1 0x20 ADD SWAP2 POP JUMPDEST POP SWAP3 POP POP POP PUSH1 0x40 MLOAD DUP1 SWAP2 SUB SWAP1 REVERT JUMPDEST PUSH1 0x40 MLOAD PUSH32 0x8C379A000000000000000000000000000000000000000000000000000000000 DUP2 MSTORE PUSH1 0x4 ADD DUP1 DUP1 PUSH1 0x20 ADD DUP3 DUP2 SUB DUP3 MSTORE PUSH1 0x34 DUP2 MSTORE PUSH1 0x20 ADD DUP1 PUSH2 0x20BD PUSH1 0x34 SWAP2 CODECOPY PUSH1 0x40 ADD SWAP2 POP POP PUSH1 0x40 MLOAD DUP1 SWAP2 SUB SWAP1 REVERT JUMPDEST PUSH4 0xBC197C81 PUSH1 0xE0 SHL PUSH28 0xFFFFFFFFFFFFFFFFFFFFFFFFFFFFFFFFFFFFFFFFFFFFFFFFFFFFFFFF NOT AND DUP2 PUSH28 0xFFFFFFFFFFFFFFFFFFFFFFFFFFFFFFFFFFFFFFFFFFFFFFFFFFFFFFFF NOT AND EQ PUSH2 0x1C50 JUMPI PUSH1 0x40 MLOAD PUSH32 0x8C379A000000000000000000000000000000000000000000000000000000000 DUP2 MSTORE PUSH1 0x4 ADD DUP1 DUP1 PUSH1 0x20 ADD DUP3 DUP2 SUB DUP3 MSTORE PUSH1 0x28 DUP2 MSTORE PUSH1 0x20 ADD DUP1 PUSH2 0x20F1 PUSH1 0x28 SWAP2 CODECOPY PUSH1 0x40 ADD SWAP2 POP POP PUSH1 0x40 MLOAD DUP1 SWAP2 SUB SWAP1 REVERT JUMPDEST POP JUMPDEST POP POP POP POP POP POP JUMP JUMPDEST PUSH1 0x60 DUP1 PUSH1 0x1 PUSH1 0x40 MLOAD SWAP1 DUP1 DUP3 MSTORE DUP1 PUSH1 0x20 MUL PUSH1 0x20 ADD DUP3 ADD PUSH1 0x40 MSTORE DUP1 ISZERO PUSH2 0x1C8D JUMPI DUP2 PUSH1 0x20 ADD PUSH1 0x20 DUP3 MUL DUP1 CODESIZE DUP4 CODECOPY DUP1 DUP3 ADD SWAP2 POP POP SWAP1 POP JUMPDEST POP SWAP1 POP DUP3 DUP2 PUSH1 0x0 DUP2 MLOAD DUP2 LT PUSH2 0x1C9E JUMPI INVALID JUMPDEST PUSH1 0x20 MUL PUSH1 0x20 ADD ADD DUP2 DUP2 MSTORE POP POP DUP1 SWAP2 POP POP SWAP2 SWAP1 POP JUMP JUMPDEST PUSH2 0x1CD2 DUP5 PUSH20 0xFFFFFFFFFFFFFFFFFFFFFFFFFFFFFFFFFFFFFFFF AND PUSH2 0x20A9 JUMP JUMPDEST ISZERO PUSH2 0x20A1 JUMPI DUP4 PUSH20 0xFFFFFFFFFFFFFFFFFFFFFFFFFFFFFFFFFFFFFFFF AND PUSH4 0xF23A6E61 DUP8 DUP8 DUP7 DUP7 DUP7 PUSH1 0x40 MLOAD DUP7 PUSH4 0xFFFFFFFF AND PUSH1 0xE0 SHL DUP2 MSTORE PUSH1 0x4 ADD DUP1 DUP7 PUSH20 0xFFFFFFFFFFFFFFFFFFFFFFFFFFFFFFFFFFFFFFFF AND PUSH20 0xFFFFFFFFFFFFFFFFFFFFFFFFFFFFFFFFFFFFFFFF AND DUP2 MSTORE PUSH1 0x20 ADD DUP6 PUSH20 0xFFFFFFFFFFFFFFFFFFFFFFFFFFFFFFFFFFFFFFFF AND PUSH20 0xFFFFFFFFFFFFFFFFFFFFFFFFFFFFFFFFFFFFFFFF AND DUP2 MSTORE PUSH1 0x20 ADD DUP5 DUP2 MSTORE PUSH1 0x20 ADD DUP4 DUP2 MSTORE PUSH1 0x20 ADD DUP1 PUSH1 0x20 ADD DUP3 DUP2 SUB DUP3 MSTORE DUP4 DUP2 DUP2 MLOAD DUP2 MSTORE PUSH1 0x20 ADD SWAP2 POP DUP1 MLOAD SWAP1 PUSH1 0x20 ADD SWAP1 DUP1 DUP4 DUP4 PUSH1 0x0 JUMPDEST DUP4 DUP2 LT ISZERO PUSH2 0x1DB7 JUMPI DUP1 DUP3 ADD MLOAD DUP2 DUP5 ADD MSTORE PUSH1 0x20 DUP2 ADD SWAP1 POP PUSH2 0x1D9C JUMP JUMPDEST POP POP POP POP SWAP1 POP SWAP1 DUP2 ADD SWAP1 PUSH1 0x1F AND DUP1 ISZERO PUSH2 0x1DE4 JUMPI DUP1 DUP3 SUB DUP1 MLOAD PUSH1 0x1 DUP4 PUSH1 0x20 SUB PUSH2 0x100 EXP SUB NOT AND DUP2 MSTORE PUSH1 0x20 ADD SWAP2 POP JUMPDEST POP SWAP7 POP POP POP POP POP POP POP PUSH1 0x20 PUSH1 0x40 MLOAD DUP1 DUP4 SUB DUP2 PUSH1 0x0 DUP8 DUP1 EXTCODESIZE ISZERO DUP1 ISZERO PUSH2 0x1E07 JUMPI PUSH1 0x0 DUP1 REVERT JUMPDEST POP GAS CALL SWAP3 POP POP POP DUP1 ISZERO PUSH2 0x1E3B JUMPI POP PUSH1 0x40 MLOAD RETURNDATASIZE PUSH1 0x20 DUP2 LT ISZERO PUSH2 0x1E27 JUMPI PUSH1 0x0 DUP1 REVERT JUMPDEST DUP2 ADD SWAP1 DUP1 DUP1 MLOAD SWAP1 PUSH1 0x20 ADD SWAP1 SWAP3 SWAP2 SWAP1 POP POP POP PUSH1 0x1 JUMPDEST PUSH2 0x2002 JUMPI PUSH1 0x0 PUSH1 0x40 MLOAD SWAP1 POP PUSH1 0x0 DUP2 MSTORE PUSH1 0x1 ISZERO PUSH2 0x1F04 JUMPI PUSH1 0x44 RETURNDATASIZE LT ISZERO PUSH2 0x1E63 JUMPI PUSH1 0x0 SWAP1 POP PUSH2 0x1F04 JUMP JUMPDEST PUSH1 0x4 PUSH1 0x0 DUP1 RETURNDATACOPY PUSH1 0x0 MLOAD PUSH1 0xE0 SHR PUSH4 0x8C379A0 DUP2 EQ PUSH2 0x1E84 JUMPI PUSH1 0x0 SWAP2 POP POP PUSH2 0x1F04 JUMP JUMPDEST PUSH1 0x4 RETURNDATASIZE SUB PUSH1 0x4 DUP4 RETURNDATACOPY DUP2 MLOAD RETURNDATASIZE PUSH1 0x24 DUP3 ADD GT PUSH8 0xFFFFFFFFFFFFFFFF DUP3 GT OR ISZERO PUSH2 0x1EB0 JUMPI PUSH1 0x0 SWAP3 POP POP POP PUSH2 0x1F04 JUMP JUMPDEST DUP1 DUP4 ADD DUP1 MLOAD PUSH8 0xFFFFFFFFFFFFFFFF DUP2 GT ISZERO PUSH2 0x1ED2 JUMPI PUSH1 0x0 SWAP5 POP POP POP POP POP PUSH2 0x1F04 JUMP JUMPDEST DUP1 PUSH1 0x20 DUP4 ADD ADD RETURNDATASIZE DUP7 ADD DUP2 GT ISZERO PUSH2 0x1EF0 JUMPI PUSH1 0x0 SWAP6 POP POP POP POP POP POP PUSH2 0x1F04 JUMP JUMPDEST PUSH1 0x1F NOT PUSH1 0x1F DUP3 ADD AND PUSH1 0x40 MSTORE DUP3 SWAP6 POP POP POP POP POP POP JUMPDEST DUP1 PUSH2 0x1F0F JUMPI POP PUSH2 0x1FB1 JUMP JUMPDEST DUP1 PUSH1 0x40 MLOAD PUSH32 0x8C379A000000000000000000000000000000000000000000000000000000000 DUP2 MSTORE PUSH1 0x4 ADD DUP1 DUP1 PUSH1 0x20 ADD DUP3 DUP2 SUB DUP3 MSTORE DUP4 DUP2 DUP2 MLOAD DUP2 MSTORE PUSH1 0x20 ADD SWAP2 POP DUP1 MLOAD SWAP1 PUSH1 0x20 ADD SWAP1 DUP1 DUP4 DUP4 PUSH1 0x0 JUMPDEST DUP4 DUP2 LT ISZERO PUSH2 0x1F76 JUMPI DUP1 DUP3 ADD MLOAD DUP2 DUP5 ADD MSTORE PUSH1 0x20 DUP2 ADD SWAP1 POP PUSH2 0x1F5B JUMP JUMPDEST POP POP POP POP SWAP1 POP SWAP1 DUP2 ADD SWAP1 PUSH1 0x1F AND DUP1 ISZERO PUSH2 0x1FA3 JUMPI DUP1 DUP3 SUB DUP1 MLOAD PUSH1 0x1 DUP4 PUSH1 0x20 SUB PUSH2 0x100 EXP SUB NOT AND DUP2 MSTORE PUSH1 0x20 ADD SWAP2 POP JUMPDEST POP SWAP3 POP POP POP PUSH1 0x40 MLOAD DUP1 SWAP2 SUB SWAP1 REVERT JUMPDEST PUSH1 0x40 MLOAD PUSH32 0x8C379A000000000000000000000000000000000000000000000000000000000 DUP2 MSTORE PUSH1 0x4 ADD DUP1 DUP1 PUSH1 0x20 ADD DUP3 DUP2 SUB DUP3 MSTORE PUSH1 0x34 DUP2 MSTORE PUSH1 0x20 ADD DUP1 PUSH2 0x20BD PUSH1 0x34 SWAP2 CODECOPY PUSH1 0x40 ADD SWAP2 POP POP PUSH1 0x40 MLOAD DUP1 SWAP2 SUB SWAP1 REVERT JUMPDEST PUSH4 0xF23A6E61 PUSH1 0xE0 SHL PUSH28 0xFFFFFFFFFFFFFFFFFFFFFFFFFFFFFFFFFFFFFFFFFFFFFFFFFFFFFFFF NOT AND DUP2 PUSH28 0xFFFFFFFFFFFFFFFFFFFFFFFFFFFFFFFFFFFFFFFFFFFFFFFFFFFFFFFF NOT AND EQ PUSH2 0x209F JUMPI PUSH1 0x40 MLOAD PUSH32 0x8C379A000000000000000000000000000000000000000000000000000000000 DUP2 MSTORE PUSH1 0x4 ADD DUP1 DUP1 PUSH1 0x20 ADD DUP3 DUP2 SUB DUP3 MSTORE PUSH1 0x28 DUP2 MSTORE PUSH1 0x20 ADD DUP1 PUSH2 0x20F1 PUSH1 0x28 SWAP2 CODECOPY PUSH1 0x40 ADD SWAP2 POP POP PUSH1 0x40 MLOAD DUP1 SWAP2 SUB SWAP1 REVERT JUMPDEST POP JUMPDEST POP POP POP POP POP POP JUMP JUMPDEST PUSH1 0x0 DUP1 DUP3 EXTCODESIZE SWAP1 POP PUSH1 0x0 DUP2 GT SWAP2 POP POP SWAP2 SWAP1 POP JUMP INVALID GASLIMIT MSTORE NUMBER BALANCE BALANCE CALLDATALOAD CALLDATALOAD GASPRICE KECCAK256 PUSH21 0x72616E7366657220746F206E6F6E20455243313135 CALLDATALOAD MSTORE PUSH6 0x636569766572 KECCAK256 PUSH10 0x6D706C656D656E746572 GASLIMIT MSTORE NUMBER BALANCE BALANCE CALLDATALOAD CALLDATALOAD GASPRICE KECCAK256 GASLIMIT MSTORE NUMBER BALANCE BALANCE CALLDATALOAD CALLDATALOAD MSTORE PUSH6 0x636569766572 KECCAK256 PUSH19 0x656A656374656420746F6B656E734552433131 CALLDATALOAD CALLDATALOAD GASPRICE KECCAK256 PUSH3 0x616C61 PUSH15 0x636520717565727920666F72207468 PUSH6 0x207A65726F20 PUSH2 0x6464 PUSH19 0x657373455243313135353A2062617463682062 PUSH2 0x6C61 PUSH15 0x636520717565727920666F72207468 PUSH6 0x207A65726F20 PUSH2 0x6464 PUSH19 0x657373455243313135353A2063616C6C657220 PUSH10 0x73206E6F74206F776E65 PUSH19 0x206E6F7220617070726F766564455243313135 CALLDATALOAD GASPRICE KECCAK256 PUSH21 0x72616E7366657220746F20746865207A65726F2061 PUSH5 0x6472657373 GASLIMIT MSTORE NUMBER BALANCE BALANCE CALLDATALOAD CALLDATALOAD GASPRICE KECCAK256 PUSH21 0x72616E736665722063616C6C6572206973206E6F74 KECCAK256 PUSH16 0x776E6572206E6F7220617070726F7665 PUSH5 0x4552433131 CALLDATALOAD CALLDATALOAD GASPRICE KECCAK256 PUSH10 0x6E73756666696369656E PUSH21 0x2062616C616E636520666F72207472616E73666572 GASLIMIT MSTORE NUMBER BALANCE BALANCE CALLDATALOAD CALLDATALOAD GASPRICE KECCAK256 PUSH20 0x657474696E6720617070726F76616C2073746174 PUSH22 0x7320666F722073656C66455243313135353A20616363 PUSH16 0x756E747320616E6420696473206C656E PUSH8 0x7468206D69736D61 PUSH21 0x6368455243313135353A2069647320616E6420616D PUSH16 0x756E7473206C656E677468206D69736D PUSH2 0x7463 PUSH9 0xA26469706673582212 KECCAK256 LOG0 0xDA TIMESTAMP RETURNDATASIZE XOR PC 0xC5 CALLDATALOAD PUSH17 0x54A08EAAB99FCEC179822E65BAC57F5BCB DUP6 0xC1 0xE8 SIGNEXTEND PUSH32 0xA64736F6C63430006020033455243313135353A207472616E7366657220746F KECCAK256 PUSH15 0x6F6E20455243313135355265636569 PUSH23 0x657220696D706C656D656E746572455243313135353A20 GASLIMIT MSTORE NUMBER BALANCE BALANCE CALLDATALOAD CALLDATALOAD MSTORE PUSH6 0x636569766572 KECCAK256 PUSH19 0x656A656374656420746F6B656E73697066733A 0x2F 0x2F MLOAD PUSH14 0x5A394A513477513739376B393673 POP PUSH8 0x6333314E46563851 PUSH7 0x4A714132775770 PUSH9 0x743774687A55693350 CALLDATALOAD DIFFICULTY 0x2F PUSH28 0x69647D2E6A736F6E455243313135353A206D696E7420746F20746865 KECCAK256 PUSH27 0x65726F206164647265737300000000000000000000000000000000 "
				},
				"gasEstimates": {
					"creation": {
						"codeDepositCost": "1782000",
						"executionCost": "infinite",
						"totalCost": "infinite"
					},
					"external": {
						"GOLD()": "316",
						"SHIELD()": "250",
						"SILVER()": "249",
						"SWORD()": "272",
						"THORS_HAMMER()": "227",
						"balanceOf(address,uint256)": "infinite",
						"balanceOfBatch(address[],uint256[])": "infinite",
						"isApprovedForAll(address,address)": "1435",
						"safeBatchTransferFrom(address,address,uint256[],uint256[],bytes)": "infinite",
						"safeTransferFrom(address,address,uint256,uint256,bytes)": "infinite",
						"setApprovalForAll(address,bool)": "infinite",
						"supportsInterface(bytes4)": "1276",
						"uri(uint256)": "infinite"
					}
				},
				"methodIdentifiers": {
					"GOLD()": "3e4bee38",
					"SHIELD()": "5b2725ed",
					"SILVER()": "e3e55f08",
					"SWORD()": "13dc989f",
					"THORS_HAMMER()": "d562e204",
					"balanceOf(address,uint256)": "00fdd58e",
					"balanceOfBatch(address[],uint256[])": "4e1273f4",
					"isApprovedForAll(address,address)": "e985e9c5",
					"safeBatchTransferFrom(address,address,uint256[],uint256[],bytes)": "2eb2c2d6",
					"safeTransferFrom(address,address,uint256,uint256,bytes)": "f242432a",
					"setApprovalForAll(address,bool)": "a22cb465",
					"supportsInterface(bytes4)": "01ffc9a7",
					"uri(uint256)": "0e89341c"
				}
			},
			"storageLayout": {
				"storage": [
					{
						"astId": 110,
						"contract": "ERC1155.sol:GameItems",
						"label": "_supportedInterfaces",
						"offset": 0,
						"slot": "0",
						"type": "t_mapping(t_bytes4,t_bool)"
					},
					{
						"astId": 377,
						"contract": "ERC1155.sol:GameItems",
						"label": "_balances",
						"offset": 0,
						"slot": "1",
						"type": "t_mapping(t_uint256,t_mapping(t_address,t_uint256))"
					},
					{
						"astId": 383,
						"contract": "ERC1155.sol:GameItems",
						"label": "_operatorApprovals",
						"offset": 0,
						"slot": "2",
						"type": "t_mapping(t_address,t_mapping(t_address,t_bool))"
					},
					{
						"astId": 385,
						"contract": "ERC1155.sol:GameItems",
						"label": "_uri",
						"offset": 0,
						"slot": "3",
						"type": "t_string_storage"
					}
				],
				"types": {
					"t_address": {
						"encoding": "inplace",
						"label": "address",
						"numberOfBytes": "20"
					},
					"t_bool": {
						"encoding": "inplace",
						"label": "bool",
						"numberOfBytes": "1"
					},
					"t_bytes4": {
						"encoding": "inplace",
						"label": "bytes4",
						"numberOfBytes": "4"
					},
					"t_mapping(t_address,t_bool)": {
						"encoding": "mapping",
						"key": "t_address",
						"label": "mapping(address => bool)",
						"numberOfBytes": "32",
						"value": "t_bool"
					},
					"t_mapping(t_address,t_mapping(t_address,t_bool))": {
						"encoding": "mapping",
						"key": "t_address",
						"label": "mapping(address => mapping(address => bool))",
						"numberOfBytes": "32",
						"value": "t_mapping(t_address,t_bool)"
					},
					"t_mapping(t_address,t_uint256)": {
						"encoding": "mapping",
						"key": "t_address",
						"label": "mapping(address => uint256)",
						"numberOfBytes": "32",
						"value": "t_uint256"
					},
					"t_mapping(t_bytes4,t_bool)": {
						"encoding": "mapping",
						"key": "t_bytes4",
						"label": "mapping(bytes4 => bool)",
						"numberOfBytes": "32",
						"value": "t_bool"
					},
					"t_mapping(t_uint256,t_mapping(t_address,t_uint256))": {
						"encoding": "mapping",
						"key": "t_uint256",
						"label": "mapping(uint256 => mapping(address => uint256))",
						"numberOfBytes": "32",
						"value": "t_mapping(t_address,t_uint256)"
					},
					"t_string_storage": {
						"encoding": "bytes",
						"label": "string",
						"numberOfBytes": "32"
					},
					"t_uint256": {
						"encoding": "inplace",
						"label": "uint256",
						"numberOfBytes": "32"
					}
				}
			},
			"userdoc": {
				"methods": {}
			}
		}
	}
}